{
  "transactions": [
    {
      "hash": "0xf0b58b71e8e16c3c30b2c7c39253ddfaf2fd58593542f4ff65dba7335876acc4",
      "transactionType": "CREATE",
      "contractName": null,
      "contractAddress": "0xEc605B65277a5645b630c84718faA00ECB4b6BFD",
      "function": null,
      "arguments": null,
      "transaction": {
        "from": "0x5AC7577C0B0F8E7f55B9144fBcB64AB4778084d5",
        "gas": "0x2c397",
        "value": "0x0",
        "input": "0x6080604052348015600f57600080fd5b5061018e8061001f6000396000f3fe608060405234801561001057600080fd5b506004361061002b5760003560e01c8063019e272914610030575b600080fd5b6100f461003e366004610112565b7f3b60124079255925a9b0c57f1ed870358d719ce06c4ae9645b74322357c0b403939093557f3b60124079255925a9b0c57f1ed870358d719ce06c4ae9645b74322357c0b405919091557f3b60124079255925a9b0c57f1ed870358d719ce06c4ae9645b74322357c0b40180546001600160a01b039283166001600160a01b0319918216179091557f3b60124079255925a9b0c57f1ed870358d719ce06c4ae9645b74322357c0b4028054929093169116179055565b005b80356001600160a01b038116811461010d57600080fd5b919050565b6000806000806080858703121561012857600080fd5b843593506020850135925061013f604086016100f6565b915061014d606086016100f6565b90509295919450925056fea26469706673582212207ceca39ebb4a8786565680c25a134097f23592516a4c135ae76329379e74b80e64736f6c634300081a0033",
        "nonce": "0xcd",
        "chainId": "0x14a34"
      },
      "additionalContracts": [],
      "isFixedGasLimit": false
    },
    {
      "hash": "0x0598e87d16befe07151f9ec22a2e5a745cfed4e462d9967793d3c34ecf258c40",
      "transactionType": "CREATE",
      "contractName": null,
      "contractAddress": "0x776E9858ef2721f0315e45669648810c092e105A",
      "function": null,
      "arguments": null,
      "transaction": {
        "from": "0x5AC7577C0B0F8E7f55B9144fBcB64AB4778084d5",
        "gas": "0x307d7",
        "value": "0x0",
        "input": "0x6080604052348015600f57600080fd5b506101cd8061001f6000396000f3fe608060405234801561001057600080fd5b506004361061002b5760003560e01c8063ffa1a33a14610030575b600080fd5b61004361003e3660046100da565b610045565b005b7f3b60124079255925a9b0c57f1ed870358d719ce06c4ae9645b74322357c0b40160005b828110156100d4578160070184848381811061008757610087610151565b905060200201602081019061009c9190610167565b815460018082018455600093845260209093200180546001600160a01b0319166001600160a01b039290921691909117905501610069565b50505050565b600080602083850312156100ed57600080fd5b823567ffffffffffffffff81111561010457600080fd5b8301601f8101851361011557600080fd5b803567ffffffffffffffff81111561012c57600080fd5b8560208260051b840101111561014157600080fd5b6020919091019590945092505050565b634e487b7160e01b600052603260045260246000fd5b60006020828403121561017957600080fd5b81356001600160a01b038116811461019057600080fd5b939250505056fea2646970667358221220710709808877a77f0b4321cf28763ef92251f890b05c85ad4c380505517ae44e64736f6c634300081a0033",
        "nonce": "0xce",
        "chainId": "0x14a34"
      },
      "additionalContracts": [],
      "isFixedGasLimit": false
    },
    {
      "hash": "0xedffd5e0c9bb03fba43ee11481fa8cfc33852f96a1e36b8eed86295a4ad3ee9a",
      "transactionType": "CREATE",
      "contractName": null,
      "contractAddress": "0x380392cB91be2C0544C043e63b41091e1584eF1D",
      "function": null,
      "arguments": null,
      "transaction": {
        "from": "0x5AC7577C0B0F8E7f55B9144fBcB64AB4778084d5",
        "gas": "0x57d65",
        "value": "0x0",
        "input": "0x6080604052348015600f57600080fd5b5061040b8061001f6000396000f3fe608060405234801561001057600080fd5b506004361061002b5760003560e01c8063aa14cc6b14610030575b600080fd5b61003861003a565b005b7f3b60124079255925a9b0c57f1ed870358d719ce06c4ae9645b74322357c0b40180546001600160a01b031633146100c75760405162461bcd60e51b815260206004820152602560248201527f4f6e6c7920746865206f776e65722063616e2063616e63656c20696e6865726960448201526474616e636560d81b60648201526084015b60405180910390fd5b600781015461010d5760405162461bcd60e51b81526020600482015260126024820152714e6f20617070726f76656420746f6b656e7360701b60448201526064016100be565b6003810154610100900460ff16156101675760405162461bcd60e51b815260206004820152601a60248201527f436f6e747261637420697320616c7265616479206b696c6c656400000000000060448201526064016100be565b60005b60078201548110156102d057600082600701828154811061018d5761018d61032e565b60009182526020822001546040516370a0823160e01b81523060048201526001600160a01b03909116925082906370a0823190602401602060405180830381865afa1580156101e0573d6000803e3d6000fd5b505050506040513d601f19601f820116820180604052508101906102049190610344565b905080156102c657835460405163a9059cbb60e01b81526001600160a01b039182166004820152602481018390529083169063a9059cbb906044016020604051808303816000875af115801561025e573d6000803e3d6000fd5b505050506040513d601f19601f82011682018060405250810190610282919061035d565b6102c65760405162461bcd60e51b8152602060048201526015602482015274151bdad95b881d1c985b9cd9995c8819985a5b1959605a1b60448201526064016100be565b505060010161016a565b5060038101805461ff00191661010017905580546040516001600160a01b03909116907fab0a913ab4dd78ca2bbd7ceca1e2d18600fba897fc0c92bfc1c94e80c0190d0490610323906007850190610386565b60405180910390a250565b634e487b7160e01b600052603260045260246000fd5b60006020828403121561035657600080fd5b5051919050565b60006020828403121561036f57600080fd5b8151801515811461037f57600080fd5b9392505050565b602080825282548282018190526000848152918220906040840190835b818110156103ca5783546001600160a01b03168352600193840193602090930192016103a3565b50909594505050505056fea2646970667358221220c6a6b74e9cdab7e9c7e6b27ac811f2f45852e6e1f096c0fa00f364ad8f2431ba64736f6c634300081a0033",
        "nonce": "0xcf",
        "chainId": "0x14a34"
      },
      "additionalContracts": [],
      "isFixedGasLimit": false
    },
    {
      "hash": "0x774bb0ed0bb33bc6cf6f07f5fdb46c255f3fbb5fa87a47e27dfd823e0ceba568",
      "transactionType": "CREATE",
      "contractName": null,
      "contractAddress": "0x55DE5D3d151309Aa58406ffC3BA9309EF6CECb5a",
      "function": null,
      "arguments": null,
      "transaction": {
        "from": "0x5AC7577C0B0F8E7f55B9144fBcB64AB4778084d5",
        "gas": "0xd5be7",
        "value": "0x0",
        "input": "0x6080604052348015600f57600080fd5b50610b398061001f6000396000f3fe608060405234801561001057600080fd5b506004361061002b5760003560e01c8063985e127c14610030575b600080fd5b61004361003e36600461066c565b610045565b005b8382146100a45760405162461bcd60e51b815260206004820152602260248201527f546f6b656e7320616e6420616d6f756e7473206c656e677468206d69736d61746044820152610c6d60f31b60648201526084015b60405180910390fd5b7f3b60124079255925a9b0c57f1ed870358d719ce06c4ae9645b74322357c0b40160006100de6100d93685900385018561081c565b6105da565b600383015490915060ff1680156100ff57506003820154610100900460ff16155b6101605760405162461bcd60e51b815260206004820152602c60248201527f436f6e7472616374206973206e6f7420696e206c6f636b65642073746174652060448201526b1bdc881a5cc81ada5b1b195960a21b606482015260840161009b565b8160040154826005015461017491906108cf565b4210156101c35760405162461bcd60e51b815260206004820152601960248201527f4c6f636b20706572696f6420686173206e6f7420656e64656400000000000000604482015260640161009b565b600081815260088301602052604090205460ff16156102195760405162461bcd60e51b8152602060048201526012602482015271141c9bdbd988185b1c9958591e481d5cd95960721b604482015260640161009b565b60005b86811015610306576000805b60078501548110156102a457846007018181548110610249576102496108f6565b6000918252602090912001546001600160a01b03168a8a85818110610270576102706108f6565b90506020020160208101906102859190610928565b6001600160a01b03160361029c57600191506102a4565b600101610228565b50806102fd5760405162461bcd60e51b815260206004820152602260248201527f546f6b656e207468617420646964206e6f74206c6f636b2077617320666f756e604482015261321760f11b606482015260840161009b565b5060010161021c565b506001820154604080516343753b4d60e01b81526001600160a01b03909216916343753b4d9161034891879182019060c083019061010084019060040161094a565b602060405180830381865afa158015610365573d6000803e3d6000fd5b505050506040513d601f19601f82011682018060405250810190610389919061099a565b6103c85760405162461bcd60e51b815260206004820152601060248201526f24b73b30b634b2102d2590383937b7b360811b604482015260640161009b565b60008181526008830160205260408120805460ff191660011790555b86811015610589576000888883818110610400576104006108f6565b90506020020160208101906104159190610928565b6040516370a0823160e01b81523060048201529091506000906001600160a01b038316906370a0823190602401602060405180830381865afa15801561045f573d6000803e3d6000fd5b505050506040513d601f19601f8201168201806040525081019061048391906109bc565b905060008189898681811061049a5761049a6108f6565b90506020020135116104c4578888858181106104b8576104b86108f6565b905060200201356104c6565b815b60405163a9059cbb60e01b8152336004820152602481018290529091506001600160a01b0384169063a9059cbb906044016020604051808303816000875af1158015610516573d6000803e3d6000fd5b505050506040513d601f19601f8201168201806040525081019061053a919061099a565b61057e5760405162461bcd60e51b8152602060048201526015602482015274151bdad95b881d1c985b9cd9995c8819985a5b1959605a1b604482015260640161009b565b5050506001016103e4565b50336001600160a01b03167fac36971df326c5d24b63183927b8fe4cf71b792277ff128d73f0729a653323e3888888886040516105c994939291906109d5565b60405180910390a250505050505050565b600081600001518260200151836040015184606001516040516020016106039493929190610a7a565b604051602081830303815290604052805190602001209050919050565b60008083601f84011261063257600080fd5b50813567ffffffffffffffff81111561064a57600080fd5b6020830191508360208260051b850101111561066557600080fd5b9250929050565b600080600080600085870361016081121561068657600080fd5b863567ffffffffffffffff81111561069d57600080fd5b6106a989828a01610620565b909750955050602087013567ffffffffffffffff8111156106c957600080fd5b6106d589828a01610620565b909550935050610120603f19820112156106ee57600080fd5b506040860190509295509295909350565b634e487b7160e01b600052604160045260246000fd5b6040516080810167ffffffffffffffff81118282101715610738576107386106ff565b60405290565b604051601f8201601f1916810167ffffffffffffffff81118282101715610767576107676106ff565b604052919050565b600082601f83011261078057600080fd5b600061078c604061073e565b90508060408401858111156107a057600080fd5b845b818110156107ba5780358352602092830192016107a2565b509195945050505050565b600082601f8301126107d657600080fd5b600060206107e38161073e565b91508160208501868111156107f757600080fd5b855b8181101561081057803583529183019183016107f9565b50929695505050505050565b600061012082840312801561083057600080fd5b50600061083b610715565b610845858561076f565b815284605f850112610855578182fd5b60406108608161073e565b8060c0870188811115610871578586fd5b6040880195505b8086101561089b5761088a898761076f565b835294830194602090920191610878565b8160208601526108ab898261076f565b6040860152505050506108c28561010086016107c5565b6060820152949350505050565b808201808211156108f057634e487b7160e01b600052601160045260246000fd5b92915050565b634e487b7160e01b600052603260045260246000fd5b80356001600160a01b038116811461092357600080fd5b919050565b60006020828403121561093a57600080fd5b6109438261090c565b9392505050565b61012081016040868337604082018560005b600281101561097d576040828437604092830192919091019060010161095c565b50505060408460c084013760208361010084013795945050505050565b6000602082840312156109ac57600080fd5b8151801515811461094357600080fd5b6000602082840312156109ce57600080fd5b5051919050565b6040808252810184905260008560608301825b87811015610a16576001600160a01b03610a018461090c565b168252602092830192909101906001016109e8565b5083810360208501528481526001600160fb1b03851115610a3657600080fd5b8460051b915081866020830137016020019695505050505050565b8060005b6002811015610a74578151845260209384019390910190600101610a55565b50505050565b610a848186610a51565b6000604082018560005b6002811015610ab857610aa2838351610a51565b6040929092019160209190910190600101610a8e565b505050610ac860c0830185610a51565b61010082018360005b6001811015610af0578151835260209283019290910190600101610ad1565b505050610120820190509594505050505056fea264697066735822122026f851f82c970a5767395ca14edbf058644b8d281bad86afa8edb01059078b0764736f6c634300081a0033",
        "nonce": "0xd0",
        "chainId": "0x14a34"
      },
      "additionalContracts": [],
      "isFixedGasLimit": false
    },
    {
      "hash": "0x61e2920b082c7b298b7e9cc721f573f233e54ef76533e7f939347ab4a04bb73d",
      "transactionType": "CREATE",
      "contractName": null,
      "contractAddress": "0xeb32ac17e61d46836E654457Afd35EA983699c43",
      "function": null,
      "arguments": null,
      "transaction": {
        "from": "0x5AC7577C0B0F8E7f55B9144fBcB64AB4778084d5",
        "gas": "0xbf8ce",
        "value": "0x0",
        "input": "0x6080604052348015600f57600080fd5b506109f58061001f6000396000f3fe608060405234801561001057600080fd5b506004361061002b5760003560e01c8063e6424a5e14610030575b600080fd5b61004361003e36600461060a565b610045565b005b7f3b60124079255925a9b0c57f1ed870358d719ce06c4ae9645b74322357c0b401600061007f61007a36859003850185610743565b6105aa565b600383015490915060ff16156100ea5760405162461bcd60e51b815260206004820152602560248201527f496e6865726974616e63652070726f6365737320616c726561647920696e69746044820152641a585d195960da1b60648201526084015b60405180910390fd5b6003820154610100900460ff16156101445760405162461bcd60e51b815260206004820152601e60248201527f496e6865726974616e636520636f6e7472616374206973206b696c6c6564000060448201526064016100e1565b600081815260088301602052604090205460ff161561019a5760405162461bcd60e51b8152602060048201526012602482015271141c9bdbd988185b1c9958591e481d5cd95960721b60448201526064016100e1565b6001820154604080516343753b4d60e01b81526001600160a01b03909216916343753b4d916101db91879182019060c08301906101008401906004016107f6565b602060405180830381865afa1580156101f8573d6000803e3d6000fd5b505050506040513d601f19601f8201168201806040525081019061021c9190610846565b61025b5760405162461bcd60e51b815260206004820152601060248201526f24b73b30b634b2102d2590383937b7b360811b60448201526064016100e1565b60008181526008830160205260408120805460ff191660011790555b600783015481101561054057600083600701828154811061029a5761029a61086f565b60009182526020822001548554604051636eb1769f60e11b81526001600160a01b03918216600482015230602482015291169250829063dd62ed3e90604401602060405180830381865afa1580156102f6573d6000803e3d6000fd5b505050506040513d601f19601f8201168201806040525081019061031a9190610885565b9050806000036103e957600785018054610336906001906108b4565b815481106103465761034661086f565b6000918252602090912001546007860180546001600160a01b0390921691859081106103745761037461086f565b9060005260206000200160006101000a8154816001600160a01b0302191690836001600160a01b03160217905550846007018054806103b5576103b56108c7565b600082815260209020810160001990810180546001600160a01b0319169055019055826103e1816108dd565b93505061052b565b84546040516370a0823160e01b81526001600160a01b0391821660048201526000918416906370a0823190602401602060405180830381865afa158015610434573d6000803e3d6000fd5b505050506040513d601f19601f820116820180604052508101906104589190610885565b9050600061046683836105f0565b87546040516323b872dd60e01b81526001600160a01b039182166004820152306024820152604481018390529192508516906323b872dd906064016020604051808303816000875af11580156104c0573d6000803e3d6000fd5b505050506040513d601f19601f820116820180604052508101906104e49190610846565b6105285760405162461bcd60e51b8152602060048201526015602482015274151bdad95b881d1c985b9cd9995c8819985a5b1959605a1b60448201526064016100e1565b50505b50508080610538906108f4565b915050610277565b50426005830181905560038301805460ff1916600117905582546040516001600160a01b03909116917f7a0f49890d59fc33e7e656a749b3fe9fd171e07359ee7104abb21f18243539d99161059d91858252602082015260400190565b60405180910390a2505050565b600081600001518260200151836040015184606001516040516020016105d39493929190610936565b604051602081830303815290604052805190602001209050919050565b60008183106105ff5781610601565b825b90505b92915050565b600061012082840312801561061e57600080fd5b509092915050565b634e487b7160e01b600052604160045260246000fd5b6040516080810167ffffffffffffffff8111828210171561065f5761065f610626565b60405290565b604051601f8201601f1916810167ffffffffffffffff8111828210171561068e5761068e610626565b604052919050565b600082601f8301126106a757600080fd5b60006106b36040610665565b90508060408401858111156106c757600080fd5b845b818110156106e15780358352602092830192016106c9565b509195945050505050565b600082601f8301126106fd57600080fd5b6000602061070a81610665565b915081602085018681111561071e57600080fd5b855b818110156107375780358352918301918301610720565b50929695505050505050565b600061012082840312801561075757600080fd5b50600061076261063c565b61076c8585610696565b815284605f85011261077c578182fd5b604061078781610665565b8060c0870188811115610798578586fd5b6040880195505b808610156107c2576107b18987610696565b83529483019460209092019161079f565b8160208601526107d28982610696565b6040860152505050506107e98561010086016106ec565b6060820152949350505050565b61012081016040868337604082018560005b60028110156108295760408284376040928301929190910190600101610808565b50505060408460c084013760208361010084013795945050505050565b60006020828403121561085857600080fd5b8151801515811461086857600080fd5b9392505050565b634e487b7160e01b600052603260045260246000fd5b60006020828403121561089757600080fd5b5051919050565b634e487b7160e01b600052601160045260246000fd5b818103818111156106045761060461089e565b634e487b7160e01b600052603160045260246000fd5b6000816108ec576108ec61089e565b506000190190565b6000600182016109065761090661089e565b5060010190565b8060005b6002811015610930578151845260209384019390910190600101610911565b50505050565b610940818661090d565b6000604082018560005b60028110156109745761095e83835161090d565b604092909201916020919091019060010161094a565b50505061098460c083018561090d565b61010082018360005b60018110156109ac57815183526020928301929091019060010161098d565b505050610120820190509594505050505056fea2646970667358221220ce34e7b6ed24da7af979952b7ce454ef48f0dec85a051e73bf554f3fd919e79264736f6c634300081a0033",
        "nonce": "0xd1",
        "chainId": "0x14a34"
      },
      "additionalContracts": [],
      "isFixedGasLimit": false
    },
    {
      "hash": "0x746b2bc6830dddfcdcf8cbb294f434c1d72510083b82060d33e424b561e25e0c",
      "transactionType": "CREATE",
      "contractName": null,
      "contractAddress": "0x51D68deF37E0fa2A191a5803c1c56f234166D049",
      "function": null,
      "arguments": null,
      "transaction": {
        "from": "0x5AC7577C0B0F8E7f55B9144fBcB64AB4778084d5",
        "gas": "0x4b9e7",
        "value": "0x0",
        "input": "0x6080604052348015600f57600080fd5b506103588061001f6000396000f3fe608060405234801561001057600080fd5b50600436106100935760003560e01c80638fe8a101116100665780638fe8a1011461015657806396c705e514610191578063a4e2d634146101a6578063affed0e0146101d0578063c30a0f25146101f757600080fd5b8063045544431461009857806309bd5a60146100ce57806362c7fa76146100f55780638da5cb5b1461011c575b600080fd5b7f3b60124079255925a9b0c57f1ed870358d719ce06c4ae9645b74322357c0b405545b6040519081526020015b60405180910390f35b7f3b60124079255925a9b0c57f1ed870358d719ce06c4ae9645b74322357c0b403546100bb565b7f3b60124079255925a9b0c57f1ed870358d719ce06c4ae9645b74322357c0b406546100bb565b7f3b60124079255925a9b0c57f1ed870358d719ce06c4ae9645b74322357c0b401546040516001600160a01b0390911681526020016100c5565b7f3b60124079255925a9b0c57f1ed870358d719ce06c4ae9645b74322357c0b40454610100900460ff165b60405190151581526020016100c5565b610199610239565b6040516100c591906102bd565b7f3b60124079255925a9b0c57f1ed870358d719ce06c4ae9645b74322357c0b4045460ff16610181565b7f3b60124079255925a9b0c57f1ed870358d719ce06c4ae9645b74322357c0b407546100bb565b610181610205366004610309565b60009081527f3b60124079255925a9b0c57f1ed870358d719ce06c4ae9645b74322357c0b409602052604090205460ff1690565b60607f3b60124079255925a9b0c57f1ed870358d719ce06c4ae9645b74322357c0b4016007018054806020026020016040519081016040528092919081815260200182805480156102b357602002820191906000526020600020905b81546001600160a01b03168152600190910190602001808311610295575b5050505050905090565b602080825282518282018190526000918401906040840190835b818110156102fe5783516001600160a01b03168352602093840193909201916001016102d7565b509095945050505050565b60006020828403121561031b57600080fd5b503591905056fea26469706673582212203da55af0faf393bd484e0cda89889e0cfa8ee499c38a97f02a8e5e8b810dad9d64736f6c634300081a0033",
        "nonce": "0xd2",
        "chainId": "0x14a34"
      },
      "additionalContracts": [],
      "isFixedGasLimit": false
    },
    {
      "hash": "0x4e7690f46403938243f88a560529fb5080ea30d07dd59ebdc82624bc890d58db",
      "transactionType": "CREATE",
      "contractName": null,
      "contractAddress": "0xbC9c52d087DeC5c8e69A2C48b0e8F5Ec08e7eDe1",
      "function": null,
      "arguments": null,
      "transaction": {
        "from": "0x5AC7577C0B0F8E7f55B9144fBcB64AB4778084d5",
        "gas": "0x53369",
        "value": "0x0",
        "input": "0x6080604052348015600f57600080fd5b506103c88061001f6000396000f3fe608060405234801561001057600080fd5b50600436106100ea5760003560e01c8063985e127c1161008c578063affed0e011610066578063affed0e0146100ef578063c30a0f2514610170578063e6424a5e14610184578063ffa1a33a1461010357600080fd5b8063985e127c14610148578063a4e2d63414610126578063a6ab36f21461015d57600080fd5b806362c7fa76116100c857806362c7fa76146100ef5780638da5cb5b146101175780638fe8a1011461012657806396c705e51461013957600080fd5b806304554443146100ef57806304f9c2611461010357806309bd5a60146100ef575b600080fd5b604051600081526020015b60405180910390f35b6101156101113660046101e1565b5050565b005b604051600081526020016100fa565b60005b60405190151581526020016100fa565b60606040516100fa9190610223565b610115610156366004610288565b5050505050565b61011561016b366004610310565b505050565b61012961017e366004610355565b50600090565b61011561019236600461036e565b50565b60008083601f8401126101a757600080fd5b50813567ffffffffffffffff8111156101bf57600080fd5b6020830191508360208260051b85010111156101da57600080fd5b9250929050565b600080602083850312156101f457600080fd5b823567ffffffffffffffff81111561020b57600080fd5b61021785828601610195565b90969095509350505050565b602080825282518282018190526000918401906040840190835b818110156102645783516001600160a01b031683526020938401939092019160010161023d565b509095945050505050565b6000610120828403121561028257600080fd5b50919050565b600080600080600061016086880312156102a157600080fd5b853567ffffffffffffffff8111156102b857600080fd5b6102c488828901610195565b909650945050602086013567ffffffffffffffff8111156102e457600080fd5b6102f088828901610195565b90945092506103049050876040880161026f565b90509295509295909350565b60008060006060848603121561032557600080fd5b833592506020840135915060408401356001600160a01b038116811461034a57600080fd5b809150509250925092565b60006020828403121561036757600080fd5b5035919050565b6000610120828403121561038157600080fd5b61038b838361026f565b939250505056fea264697066735822122060c94778fb75964e21a05f472894fe458438b22e7d7ed5649332cf497d8c16a764736f6c634300081a0033",
        "nonce": "0xd3",
        "chainId": "0x14a34"
      },
      "additionalContracts": [],
      "isFixedGasLimit": false
    },
    {
      "hash": "0xd3c2ef1a9a17f68ef32788f08fc02e9322ae78aad17dd9b724949ba365b5d42b",
      "transactionType": "CREATE",
      "contractName": "Dictionary_0",
      "contractAddress": "0x4bf21B3a4297648d13D15801aEc34ACf90b8Fc64",
      "function": null,
      "arguments": [
        "0x5AC7577C0B0F8E7f55B9144fBcB64AB4778084d5"
      ],
      "transaction": {
        "from": "0x5AC7577C0B0F8E7f55B9144fBcB64AB4778084d5",
        "gas": "0xa7856",
        "value": "0x0",
        "input": "0x608060405234801561001057600080fd5b5060405161091438038061091483398101604081905261002f916100c0565b806001600160a01b03811661005e57604051631e4fbdf760e01b81526000600482015260240160405180910390fd5b6100678161006e565b50506100f0565b600380546001600160a01b038381166001600160a01b0319831681179093556040519116919082907f8be0079c531659141344cd1fd0a4f28419497f9722a3daafe3b4186f6b6457e090600090a35050565b6000602082840312156100d257600080fd5b81516001600160a01b03811681146100e957600080fd5b9392505050565b610815806100ff6000396000f3fe608060405234801561001057600080fd5b50600436106100935760003560e01c8063715018a611610066578063715018a61461012f5780638da5cb5b14610137578063a5954dd714610148578063dc9cc6451461015d578063f2fde38b1461017057600080fd5b806301ffc9a7146100985780630815f6fd146100e25780635c60da1b146100f7578063651dc03d1461011c575b600080fd5b6100cd6100a63660046106f5565b6001600160e01b0319166000908152602081905260409020546001600160a01b0316151590565b60405190151581526020015b60405180910390f35b6100f56100f036600461072e565b610183565b005b6002546001600160a01b03165b6040516001600160a01b0390911681526020016100d9565b6100f561012a366004610761565b610199565b6100f56101ad565b6003546001600160a01b0316610104565b6101506101c1565b6040516100d9919061077c565b61010461016b3660046106f5565b610246565b6100f561017e366004610761565b6102df565b61018b61031a565b6101958282610347565b5050565b6101a161031a565b6101aa81610371565b50565b6101b561031a565b6101bf60006103c6565b565b6060600180548060200260200160405190810160405280929190818152602001828054801561023c57602002820191906000526020600020906000905b82829054906101000a900460e01b6001600160e01b031916815260200190600401906020826003010492830192600103820291508084116101fe5790505b5050505050905090565b6001600160e01b031981166000908152602081905260408120546001600160a01b031680156102755792915050565b5060008080526020527fad3228b676f7d3cd4284a5443f17f1962b36e491b30a40b2405849e597ba5fb5546001600160a01b031680156102b55792915050565b60405163404ceef760e11b81526001600160e01b0319841660048201526024015b60405180910390fd5b6102e761031a565b6001600160a01b03811661031157604051631e4fbdf760e01b8152600060048201526024016102d6565b6101aa816103c6565b6003546001600160a01b031633146101bf5760405163118cdaa760e01b81523360048201526024016102d6565b6001600160a01b03811661035e5761019582610418565b61036782610514565b61019582826105bb565b600280546001600160a01b0319166001600160a01b0383169081179091556040519081527f159f10d3da077d18f228d52be447d552e7d1892d10f7af8f615658160e374729906020015b60405180910390a150565b600380546001600160a01b038381166001600160a01b0319831681179093556040519116919082907f8be0079c531659141344cd1fd0a4f28419497f9722a3daafe3b4186f6b6457e090600090a35050565b60005b6001548110156104bd57816001600160e01b03191660018281548110610443576104436107c9565b90600052602060002090600891828204019190066004029054906101000a900460e01b6001600160e01b031916036104b55760018181548110610488576104886107c9565b90600052602060002090600891828204019190066004026101000a81549063ffffffff02191690556104bd565b60010161041b565b506001600160e01b031981166000818152602081815260409182902080546001600160a01b031916905590519182527fb0f2f3a9229724df0b95683e95488b72aed817bc1a5bd6fe1d2e7504e92871cb91016103bb565b61051d81610660565b156105255750565b6001805480820182556000919091527fb10e2d527612073b26eecdfd717e6a320cf44b4afac2b0732d9fcbe2b7fa0cf66008820401805463ffffffff60079093166004026101000a928302191660e084901c929092029190911790556040516001600160e01b0319821681527fbe533f538959a17d76f1b09e966e741ee3b1183099682f96216c93d21feaecba906020016103bb565b806001600160a01b03163b6000036105f157604051630c76093760e01b81526001600160a01b03821660048201526024016102d6565b6001600160e01b031982166000818152602081815260409182902080546001600160a01b0319166001600160a01b0386169081179091558251938452908301527fda3c8142b3c1d27633026f55bfcb4eeb0b5b8db0daa0a3e10c2213a441722ad1910160405180910390a15050565b6000805b6001548110156106cf57826001600160e01b0319166001828154811061068c5761068c6107c9565b90600052602060002090600891828204019190066004029054906101000a900460e01b6001600160e01b031916036106c75750600192915050565b600101610664565b50600092915050565b80356001600160e01b0319811681146106f057600080fd5b919050565b60006020828403121561070757600080fd5b610710826106d8565b9392505050565b80356001600160a01b03811681146106f057600080fd5b6000806040838503121561074157600080fd5b61074a836106d8565b915061075860208401610717565b90509250929050565b60006020828403121561077357600080fd5b61071082610717565b602080825282518282018190526000918401906040840190835b818110156107be5783516001600160e01b031916835260209384019390920191600101610796565b509095945050505050565b634e487b7160e01b600052603260045260246000fdfea264697066735822122017b1ce9f887da52b521ea6c70510a8c803ddf9f314262716a2bb49c67541985764736f6c634300081a00330000000000000000000000005ac7577c0b0f8e7f55b9144fbcb64ab4778084d5",
        "nonce": "0xd4",
        "chainId": "0x14a34"
      },
      "additionalContracts": [],
      "isFixedGasLimit": false
    },
    {
      "hash": "0xd0a0acc5bb3bd437ea5123f6e841f0720e34938714eacaf413be33b6c7610a50",
      "transactionType": "CALL",
      "contractName": "Dictionary_0",
      "contractAddress": "0x4bf21B3a4297648d13D15801aEc34ACf90b8Fc64",
      "function": "setImplementation(bytes4,address)",
      "arguments": [
        "0x019e2729",
        "0xEc605B65277a5645b630c84718faA00ECB4b6BFD"
      ],
      "transaction": {
        "from": "0x5AC7577C0B0F8E7f55B9144fBcB64AB4778084d5",
        "to": "0x4bf21B3a4297648d13D15801aEc34ACf90b8Fc64",
        "gas": "0x206fc",
        "value": "0x0",
        "input": "0x0815f6fd019e272900000000000000000000000000000000000000000000000000000000000000000000000000000000ec605b65277a5645b630c84718faa00ecb4b6bfd",
        "nonce": "0xd5",
        "chainId": "0x14a34"
      },
      "additionalContracts": [],
      "isFixedGasLimit": false
    },
    {
      "hash": "0x802a6f7887b4b55b6be89a0c1b54fb453655897cf110e7ca53baa620c91d5db6",
      "transactionType": "CALL",
      "contractName": "Dictionary_0",
      "contractAddress": "0x4bf21B3a4297648d13D15801aEc34ACf90b8Fc64",
      "function": "setImplementation(bytes4,address)",
      "arguments": [
        "0xffa1a33a",
        "0x776E9858ef2721f0315e45669648810c092e105A"
      ],
      "transaction": {
        "from": "0x5AC7577C0B0F8E7f55B9144fBcB64AB4778084d5",
        "to": "0x4bf21B3a4297648d13D15801aEc34ACf90b8Fc64",
        "gas": "0x151c0",
        "value": "0x0",
        "input": "0x0815f6fdffa1a33a00000000000000000000000000000000000000000000000000000000000000000000000000000000776e9858ef2721f0315e45669648810c092e105a",
        "nonce": "0xd6",
        "chainId": "0x14a34"
      },
      "additionalContracts": [],
      "isFixedGasLimit": false
    },
    {
      "hash": "0x238569f67bc0e609208e85ce51f7fb3166263f4208ef6356ba921246f6a31025",
      "transactionType": "CALL",
      "contractName": "Dictionary_0",
      "contractAddress": "0x4bf21B3a4297648d13D15801aEc34ACf90b8Fc64",
      "function": "setImplementation(bytes4,address)",
      "arguments": [
        "0xaa14cc6b",
        "0x380392cB91be2C0544C043e63b41091e1584eF1D"
      ],
      "transaction": {
        "from": "0x5AC7577C0B0F8E7f55B9144fBcB64AB4778084d5",
        "to": "0x4bf21B3a4297648d13D15801aEc34ACf90b8Fc64",
        "gas": "0x1691b",
        "value": "0x0",
        "input": "0x0815f6fdaa14cc6b00000000000000000000000000000000000000000000000000000000000000000000000000000000380392cb91be2c0544c043e63b41091e1584ef1d",
        "nonce": "0xd7",
        "chainId": "0x14a34"
      },
      "additionalContracts": [],
      "isFixedGasLimit": false
    },
    {
      "hash": "0x89e3c4f1cff14f7948ba5ce2759b898431c4ab81e12da1484d961ff8a559d49c",
      "transactionType": "CALL",
      "contractName": "Dictionary_0",
      "contractAddress": "0x4bf21B3a4297648d13D15801aEc34ACf90b8Fc64",
      "function": "setImplementation(bytes4,address)",
      "arguments": [
        "0x985e127c",
        "0x55DE5D3d151309Aa58406ffC3BA9309EF6CECb5a"
      ],
      "transaction": {
        "from": "0x5AC7577C0B0F8E7f55B9144fBcB64AB4778084d5",
        "to": "0x4bf21B3a4297648d13D15801aEc34ACf90b8Fc64",
        "gas": "0x16c96",
        "value": "0x0",
        "input": "0x0815f6fd985e127c0000000000000000000000000000000000000000000000000000000000000000000000000000000055de5d3d151309aa58406ffc3ba9309ef6cecb5a",
        "nonce": "0xd8",
        "chainId": "0x14a34"
      },
      "additionalContracts": [],
      "isFixedGasLimit": false
    },
    {
      "hash": "0x78f44b71afc6915fd88f09e8902bf6bafb1d7b6bdeafc1df3977459c5e2b459d",
      "transactionType": "CALL",
      "contractName": "Dictionary_0",
      "contractAddress": "0x4bf21B3a4297648d13D15801aEc34ACf90b8Fc64",
      "function": "setImplementation(bytes4,address)",
      "arguments": [
        "0xe6424a5e",
        "0xeb32ac17e61d46836E654457Afd35EA983699c43"
      ],
      "transaction": {
        "from": "0x5AC7577C0B0F8E7f55B9144fBcB64AB4778084d5",
        "to": "0x4bf21B3a4297648d13D15801aEc34ACf90b8Fc64",
        "gas": "0x15b9f",
        "value": "0x0",
        "input": "0x0815f6fde6424a5e00000000000000000000000000000000000000000000000000000000000000000000000000000000eb32ac17e61d46836e654457afd35ea983699c43",
        "nonce": "0xd9",
        "chainId": "0x14a34"
      },
      "additionalContracts": [],
      "isFixedGasLimit": false
    },
    {
      "hash": "0x2220deff8758409ac4cf7f19d0dc5c2c9d003693cd6b9b8551b409a71bddb2c9",
      "transactionType": "CALL",
      "contractName": "Dictionary_0",
      "contractAddress": "0x4bf21B3a4297648d13D15801aEc34ACf90b8Fc64",
      "function": "setImplementation(bytes4,address)",
      "arguments": [
        "0x8da5cb5b",
        "0x51D68deF37E0fa2A191a5803c1c56f234166D049"
      ],
      "transaction": {
        "from": "0x5AC7577C0B0F8E7f55B9144fBcB64AB4778084d5",
        "to": "0x4bf21B3a4297648d13D15801aEc34ACf90b8Fc64",
        "gas": "0x15ee9",
        "value": "0x0",
        "input": "0x0815f6fd8da5cb5b0000000000000000000000000000000000000000000000000000000000000000000000000000000051d68def37e0fa2a191a5803c1c56f234166d049",
        "nonce": "0xda",
        "chainId": "0x14a34"
      },
      "additionalContracts": [],
      "isFixedGasLimit": false
    },
    {
      "hash": "0xf5b0557583a3fdf7e904def3830bcb0c9aa91d4057fc8c39c660b2f61de755bd",
      "transactionType": "CALL",
      "contractName": "Dictionary_0",
      "contractAddress": "0x4bf21B3a4297648d13D15801aEc34ACf90b8Fc64",
      "function": "setImplementation(bytes4,address)",
      "arguments": [
        "0x09bd5a60",
        "0x51D68deF37E0fa2A191a5803c1c56f234166D049"
      ],
      "transaction": {
        "from": "0x5AC7577C0B0F8E7f55B9144fBcB64AB4778084d5",
        "to": "0x4bf21B3a4297648d13D15801aEc34ACf90b8Fc64",
        "gas": "0x1770b",
        "value": "0x0",
        "input": "0x0815f6fd09bd5a600000000000000000000000000000000000000000000000000000000000000000000000000000000051d68def37e0fa2a191a5803c1c56f234166d049",
        "nonce": "0xdb",
        "chainId": "0x14a34"
      },
      "additionalContracts": [],
      "isFixedGasLimit": false
    },
    {
      "hash": "0xa4467111de3db5b59b9a73c7ce2488b27abfa9ed1b759868a00960e6efc31612",
      "transactionType": "CALL",
      "contractName": "Dictionary_0",
      "contractAddress": "0x4bf21B3a4297648d13D15801aEc34ACf90b8Fc64",
      "function": "setImplementation(bytes4,address)",
      "arguments": [
        "0xa4e2d634",
        "0x51D68deF37E0fa2A191a5803c1c56f234166D049"
      ],
      "transaction": {
        "from": "0x5AC7577C0B0F8E7f55B9144fBcB64AB4778084d5",
        "to": "0x4bf21B3a4297648d13D15801aEc34ACf90b8Fc64",
        "gas": "0x17a87",
        "value": "0x0",
        "input": "0x0815f6fda4e2d6340000000000000000000000000000000000000000000000000000000000000000000000000000000051d68def37e0fa2a191a5803c1c56f234166d049",
        "nonce": "0xdc",
        "chainId": "0x14a34"
      },
      "additionalContracts": [],
      "isFixedGasLimit": false
    },
    {
      "hash": "0x311548ee9c4dd7b5a69be309cadc9b7a215c5999d225fd957f2abea4cbd4d8b4",
      "transactionType": "CALL",
      "contractName": "Dictionary_0",
      "contractAddress": "0x4bf21B3a4297648d13D15801aEc34ACf90b8Fc64",
      "function": "setImplementation(bytes4,address)",
      "arguments": [
        "0x8fe8a101",
        "0x51D68deF37E0fa2A191a5803c1c56f234166D049"
      ],
      "transaction": {
        "from": "0x5AC7577C0B0F8E7f55B9144fBcB64AB4778084d5",
        "to": "0x4bf21B3a4297648d13D15801aEc34ACf90b8Fc64",
        "gas": "0x1cf92",
        "value": "0x0",
        "input": "0x0815f6fd8fe8a1010000000000000000000000000000000000000000000000000000000000000000000000000000000051d68def37e0fa2a191a5803c1c56f234166d049",
        "nonce": "0xdd",
        "chainId": "0x14a34"
      },
      "additionalContracts": [],
      "isFixedGasLimit": false
    },
    {
      "hash": "0x29e8c159f7c985f43c888430d9020603ddd205db252203228ec81adc61baadb0",
      "transactionType": "CALL",
      "contractName": "Dictionary_0",
      "contractAddress": "0x4bf21B3a4297648d13D15801aEc34ACf90b8Fc64",
      "function": "setImplementation(bytes4,address)",
      "arguments": [
        "0x04554443",
        "0x51D68deF37E0fa2A191a5803c1c56f234166D049"
      ],
      "transaction": {
        "from": "0x5AC7577C0B0F8E7f55B9144fBcB64AB4778084d5",
        "to": "0x4bf21B3a4297648d13D15801aEc34ACf90b8Fc64",
        "gas": "0x1769a",
        "value": "0x0",
        "input": "0x0815f6fd045544430000000000000000000000000000000000000000000000000000000000000000000000000000000051d68def37e0fa2a191a5803c1c56f234166d049",
        "nonce": "0xde",
        "chainId": "0x14a34"
      },
      "additionalContracts": [],
      "isFixedGasLimit": false
    },
    {
      "hash": "0x3db73b9de66a9c26186373aab493ea1e008a48cd4156da16971c5af8f85cc99f",
      "transactionType": "CALL",
      "contractName": "Dictionary_0",
      "contractAddress": "0x4bf21B3a4297648d13D15801aEc34ACf90b8Fc64",
      "function": "setImplementation(bytes4,address)",
      "arguments": [
        "0x62c7fa76",
        "0x51D68deF37E0fa2A191a5803c1c56f234166D049"
      ],
      "transaction": {
        "from": "0x5AC7577C0B0F8E7f55B9144fBcB64AB4778084d5",
        "to": "0x4bf21B3a4297648d13D15801aEc34ACf90b8Fc64",
        "gas": "0x179e4",
        "value": "0x0",
        "input": "0x0815f6fd62c7fa760000000000000000000000000000000000000000000000000000000000000000000000000000000051d68def37e0fa2a191a5803c1c56f234166d049",
        "nonce": "0xdf",
        "chainId": "0x14a34"
      },
      "additionalContracts": [],
      "isFixedGasLimit": false
    },
    {
      "hash": "0xbdededc2800d992de84ebb11c8f4a4d775fd16f4e99ec7cb6838a1e308164c07",
      "transactionType": "CALL",
      "contractName": "Dictionary_0",
      "contractAddress": "0x4bf21B3a4297648d13D15801aEc34ACf90b8Fc64",
      "function": "setImplementation(bytes4,address)",
      "arguments": [
        "0xaffed0e0",
        "0x51D68deF37E0fa2A191a5803c1c56f234166D049"
      ],
      "transaction": {
        "from": "0x5AC7577C0B0F8E7f55B9144fBcB64AB4778084d5",
        "to": "0x4bf21B3a4297648d13D15801aEc34ACf90b8Fc64",
        "gas": "0x1939c",
        "value": "0x0",
        "input": "0x0815f6fdaffed0e00000000000000000000000000000000000000000000000000000000000000000000000000000000051d68def37e0fa2a191a5803c1c56f234166d049",
        "nonce": "0xe0",
        "chainId": "0x14a34"
      },
      "additionalContracts": [],
      "isFixedGasLimit": false
    },
    {
      "hash": "0xc2b3db0b564531d1ed8a390433bd8710937170df2d13970248f9491efb601107",
      "transactionType": "CALL",
      "contractName": "Dictionary_0",
      "contractAddress": "0x4bf21B3a4297648d13D15801aEc34ACf90b8Fc64",
      "function": "setImplementation(bytes4,address)",
      "arguments": [
        "0x96c705e5",
        "0x51D68deF37E0fa2A191a5803c1c56f234166D049"
      ],
      "transaction": {
        "from": "0x5AC7577C0B0F8E7f55B9144fBcB64AB4778084d5",
        "to": "0x4bf21B3a4297648d13D15801aEc34ACf90b8Fc64",
        "gas": "0x19717",
        "value": "0x0",
        "input": "0x0815f6fd96c705e50000000000000000000000000000000000000000000000000000000000000000000000000000000051d68def37e0fa2a191a5803c1c56f234166d049",
        "nonce": "0xe1",
        "chainId": "0x14a34"
      },
      "additionalContracts": [],
      "isFixedGasLimit": false
    },
    {
      "hash": "0x40cce587bf0b4dc92be13173789f034999d19c04bb4d01886ebaa5af26b65f0b",
      "transactionType": "CALL",
      "contractName": "Dictionary_0",
      "contractAddress": "0x4bf21B3a4297648d13D15801aEc34ACf90b8Fc64",
      "function": "setImplementation(bytes4,address)",
      "arguments": [
        "0xc30a0f25",
        "0x51D68deF37E0fa2A191a5803c1c56f234166D049"
      ],
      "transaction": {
        "from": "0x5AC7577C0B0F8E7f55B9144fBcB64AB4778084d5",
        "to": "0x4bf21B3a4297648d13D15801aEc34ACf90b8Fc64",
        "gas": "0x183c4",
        "value": "0x0",
        "input": "0x0815f6fdc30a0f250000000000000000000000000000000000000000000000000000000000000000000000000000000051d68def37e0fa2a191a5803c1c56f234166d049",
        "nonce": "0xe2",
        "chainId": "0x14a34"
      },
      "additionalContracts": [],
      "isFixedGasLimit": false
    },
    {
      "hash": "0x85751c4fd3976caf6b088b185b65ece1aec5a67997e6747d6b3a61729486b453",
      "transactionType": "CALL",
      "contractName": "Dictionary_0",
      "contractAddress": "0x4bf21B3a4297648d13D15801aEc34ACf90b8Fc64",
      "function": "upgradeFacade(address)",
      "arguments": [
        "0xbC9c52d087DeC5c8e69A2C48b0e8F5Ec08e7eDe1"
      ],
      "transaction": {
        "from": "0x5AC7577C0B0F8E7f55B9144fBcB64AB4778084d5",
        "to": "0x4bf21B3a4297648d13D15801aEc34ACf90b8Fc64",
        "gas": "0x10dbe",
        "value": "0x0",
        "input": "0x651dc03d000000000000000000000000bc9c52d087dec5c8e69a2c48b0e8f5ec08e7ede1",
        "nonce": "0xe3",
        "chainId": "0x14a34"
      },
      "additionalContracts": [],
      "isFixedGasLimit": false
    }
  ],
  "receipts": [
    {
      "status": "0x1",
      "cumulativeGasUsed": "0xc35fb",
      "logs": [],
      "logsBloom": "0x00000000000000000000000000000000000000000000000000000000000000000000000000000000000000000000000000000000000000000000000000000000000000000000000000000000000000000000000000000000000000000000000000000000000000000000000000000000000000000000000000000000000000000000000000000000000000000000000000000000000000000000000000000000000000000000000000000000000000000000000000000000000000000000000000000000000000000000000000000000000000000000000000000000000000000000000000000000000000000000000000000000000000000000000000000000",
      "type": "0x2",
      "transactionHash": "0xf0b58b71e8e16c3c30b2c7c39253ddfaf2fd58593542f4ff65dba7335876acc4",
      "transactionIndex": "0x8",
      "blockHash": "0x06eb8e9df95b7505de90ef36e6fa03c10b52b7f208c78c10cba16b13475731e0",
      "blockNumber": "0x11a378d",
      "gasUsed": "0x22069",
      "effectiveGasPrice": "0x40b",
      "from": "0x5AC7577C0B0F8E7f55B9144fBcB64AB4778084d5",
      "to": null,
      "contractAddress": "0xEc605B65277a5645b630c84718faA00ECB4b6BFD",
      "l1BaseFeeScalar": "0x44d",
      "l1BlobBaseFee": "0x1",
      "l1BlobBaseFeeScalar": "0xa118b",
      "l1Fee": "0x7d636147",
      "l1GasPrice": "0x176f67b5",
      "l1GasUsed": "0x12fb"
    },
    {
      "status": "0x1",
      "cumulativeGasUsed": "0xe8ae8",
      "logs": [],
      "logsBloom": "0x00000000000000000000000000000000000000000000000000000000000000000000000000000000000000000000000000000000000000000000000000000000000000000000000000000000000000000000000000000000000000000000000000000000000000000000000000000000000000000000000000000000000000000000000000000000000000000000000000000000000000000000000000000000000000000000000000000000000000000000000000000000000000000000000000000000000000000000000000000000000000000000000000000000000000000000000000000000000000000000000000000000000000000000000000000000",
      "type": "0x2",
      "transactionHash": "0x0598e87d16befe07151f9ec22a2e5a745cfed4e462d9967793d3c34ecf258c40",
      "transactionIndex": "0x9",
      "blockHash": "0x06eb8e9df95b7505de90ef36e6fa03c10b52b7f208c78c10cba16b13475731e0",
      "blockNumber": "0x11a378d",
      "gasUsed": "0x254ed",
      "effectiveGasPrice": "0x40b",
      "from": "0x5AC7577C0B0F8E7f55B9144fBcB64AB4778084d5",
      "to": null,
      "contractAddress": "0x776E9858ef2721f0315e45669648810c092e105A",
      "l1BaseFeeScalar": "0x44d",
      "l1BlobBaseFee": "0x1",
      "l1BlobBaseFeeScalar": "0xa118b",
      "l1Fee": "0xa67bb006",
      "l1GasPrice": "0x176f67b5",
      "l1GasUsed": "0x1934"
    },
    {
      "status": "0x1",
      "cumulativeGasUsed": "0x12c43f",
      "logs": [],
      "logsBloom": "0x00000000000000000000000000000000000000000000000000000000000000000000000000000000000000000000000000000000000000000000000000000000000000000000000000000000000000000000000000000000000000000000000000000000000000000000000000000000000000000000000000000000000000000000000000000000000000000000000000000000000000000000000000000000000000000000000000000000000000000000000000000000000000000000000000000000000000000000000000000000000000000000000000000000000000000000000000000000000000000000000000000000000000000000000000000000",
      "type": "0x2",
      "transactionHash": "0xedffd5e0c9bb03fba43ee11481fa8cfc33852f96a1e36b8eed86295a4ad3ee9a",
      "transactionIndex": "0xa",
      "blockHash": "0x06eb8e9df95b7505de90ef36e6fa03c10b52b7f208c78c10cba16b13475731e0",
      "blockNumber": "0x11a378d",
      "gasUsed": "0x43957",
      "effectiveGasPrice": "0x40b",
      "from": "0x5AC7577C0B0F8E7f55B9144fBcB64AB4778084d5",
      "to": null,
      "contractAddress": "0x380392cB91be2C0544C043e63b41091e1584eF1D",
      "l1BaseFeeScalar": "0x44d",
      "l1BlobBaseFee": "0x1",
      "l1BlobBaseFeeScalar": "0xa118b",
      "l1Fee": "0x139989ee4",
      "l1GasPrice": "0x176f67b5",
      "l1GasUsed": "0x2f79"
    },
    {
      "status": "0x1",
      "cumulativeGasUsed": "0x1d0ba7",
      "logs": [],
      "logsBloom": "0x00000000000000000000000000000000000000000000000000000000000000000000000000000000000000000000000000000000000000000000000000000000000000000000000000000000000000000000000000000000000000000000000000000000000000000000000000000000000000000000000000000000000000000000000000000000000000000000000000000000000000000000000000000000000000000000000000000000000000000000000000000000000000000000000000000000000000000000000000000000000000000000000000000000000000000000000000000000000000000000000000000000000000000000000000000000",
      "type": "0x2",
      "transactionHash": "0x774bb0ed0bb33bc6cf6f07f5fdb46c255f3fbb5fa87a47e27dfd823e0ceba568",
      "transactionIndex": "0xb",
      "blockHash": "0x06eb8e9df95b7505de90ef36e6fa03c10b52b7f208c78c10cba16b13475731e0",
      "blockNumber": "0x11a378d",
      "gasUsed": "0xa4768",
      "effectiveGasPrice": "0x40b",
      "from": "0x5AC7577C0B0F8E7f55B9144fBcB64AB4778084d5",
      "to": null,
      "contractAddress": "0x55DE5D3d151309Aa58406ffC3BA9309EF6CECb5a",
      "l1BaseFeeScalar": "0x44d",
      "l1BlobBaseFee": "0x1",
      "l1BlobBaseFeeScalar": "0xa118b",
      "l1Fee": "0x2f501db06",
      "l1GasPrice": "0x176f67b5",
      "l1GasUsed": "0x729a"
    },
    {
      "status": "0x1",
      "cumulativeGasUsed": "0x2641d4",
      "logs": [],
      "logsBloom": "0x00000000000000000000000000000000000000000000000000000000000000000000000000000000000000000000000000000000000000000000000000000000000000000000000000000000000000000000000000000000000000000000000000000000000000000000000000000000000000000000000000000000000000000000000000000000000000000000000000000000000000000000000000000000000000000000000000000000000000000000000000000000000000000000000000000000000000000000000000000000000000000000000000000000000000000000000000000000000000000000000000000000000000000000000000000000",
      "type": "0x2",
      "transactionHash": "0x61e2920b082c7b298b7e9cc721f573f233e54ef76533e7f939347ab4a04bb73d",
      "transactionIndex": "0xc",
      "blockHash": "0x06eb8e9df95b7505de90ef36e6fa03c10b52b7f208c78c10cba16b13475731e0",
      "blockNumber": "0x11a378d",
      "gasUsed": "0x9362d",
      "effectiveGasPrice": "0x40b",
      "from": "0x5AC7577C0B0F8E7f55B9144fBcB64AB4778084d5",
      "to": null,
      "contractAddress": "0xeb32ac17e61d46836E654457Afd35EA983699c43",
      "l1BaseFeeScalar": "0x44d",
      "l1BlobBaseFee": "0x1",
      "l1BlobBaseFeeScalar": "0xa118b",
      "l1Fee": "0x2a48b4526",
      "l1GasPrice": "0x176f67b5",
      "l1GasUsed": "0x666c"
    },
    {
      "status": "0x1",
      "cumulativeGasUsed": "0x29e4be",
      "logs": [],
      "logsBloom": "0x00000000000000000000000000000000000000000000000000000000000000000000000000000000000000000000000000000000000000000000000000000000000000000000000000000000000000000000000000000000000000000000000000000000000000000000000000000000000000000000000000000000000000000000000000000000000000000000000000000000000000000000000000000000000000000000000000000000000000000000000000000000000000000000000000000000000000000000000000000000000000000000000000000000000000000000000000000000000000000000000000000000000000000000000000000000",
      "type": "0x2",
      "transactionHash": "0x746b2bc6830dddfcdcf8cbb294f434c1d72510083b82060d33e424b561e25e0c",
      "transactionIndex": "0xd",
      "blockHash": "0x06eb8e9df95b7505de90ef36e6fa03c10b52b7f208c78c10cba16b13475731e0",
      "blockNumber": "0x11a378d",
      "gasUsed": "0x3a2ea",
      "effectiveGasPrice": "0x40b",
      "from": "0x5AC7577C0B0F8E7f55B9144fBcB64AB4778084d5",
      "to": null,
      "contractAddress": "0x51D68deF37E0fa2A191a5803c1c56f234166D049",
      "l1BaseFeeScalar": "0x44d",
      "l1BlobBaseFee": "0x1",
      "l1BlobBaseFeeScalar": "0xa118b",
      "l1Fee": "0xddbca394",
      "l1GasPrice": "0x176f67b5",
      "l1GasUsed": "0x2191"
    },
    {
      "status": "0x1",
      "cumulativeGasUsed": "0x2de528",
      "logs": [],
      "logsBloom": "0x00000000000000000000000000000000000000000000000000000000000000000000000000000000000000000000000000000000000000000000000000000000000000000000000000000000000000000000000000000000000000000000000000000000000000000000000000000000000000000000000000000000000000000000000000000000000000000000000000000000000000000000000000000000000000000000000000000000000000000000000000000000000000000000000000000000000000000000000000000000000000000000000000000000000000000000000000000000000000000000000000000000000000000000000000000000",
      "type": "0x2",
      "transactionHash": "0x4e7690f46403938243f88a560529fb5080ea30d07dd59ebdc82624bc890d58db",
      "transactionIndex": "0xe",
      "blockHash": "0x06eb8e9df95b7505de90ef36e6fa03c10b52b7f208c78c10cba16b13475731e0",
      "blockNumber": "0x11a378d",
      "gasUsed": "0x4006a",
      "effectiveGasPrice": "0x40b",
      "from": "0x5AC7577C0B0F8E7f55B9144fBcB64AB4778084d5",
      "to": null,
      "contractAddress": "0xbC9c52d087DeC5c8e69A2C48b0e8F5Ec08e7eDe1",
      "l1BaseFeeScalar": "0x44d",
      "l1BlobBaseFee": "0x1",
      "l1BlobBaseFeeScalar": "0xa118b",
      "l1Fee": "0x11c96856c",
      "l1GasPrice": "0x176f67b5",
      "l1GasUsed": "0x2b15"
    },
    {
      "status": "0x1",
      "cumulativeGasUsed": "0x35f388",
      "logs": [
        {
          "address": "0x4bf21B3a4297648d13D15801aEc34ACf90b8Fc64",
          "topics": [
            "0x8be0079c531659141344cd1fd0a4f28419497f9722a3daafe3b4186f6b6457e0",
            "0x0000000000000000000000000000000000000000000000000000000000000000",
            "0x0000000000000000000000005ac7577c0b0f8e7f55b9144fbcb64ab4778084d5"
          ],
          "data": "0x",
          "blockHash": "0x06eb8e9df95b7505de90ef36e6fa03c10b52b7f208c78c10cba16b13475731e0",
          "blockNumber": "0x11a378d",
          "transactionHash": "0xd3c2ef1a9a17f68ef32788f08fc02e9322ae78aad17dd9b724949ba365b5d42b",
          "transactionIndex": "0xf",
          "logIndex": "0xd",
          "removed": false
        }
      ],
      "logsBloom": "0x00000000000000000000000000000000000000000000000000800000000000000000000000000000000000000000000000000000000000000000000000400000000000000000000000000000000000000001000000000000000000000000000000000000020000000000000000000800001000000000000000000000000000400000000000000000000000100000000000000000000000000000000000000000000000000000000000000040000000000400000000000000000000000000000000000000000000000000000000000000000000000000000000000000000020000000000000001000000000000000000000000000000000000000000000000000",
      "type": "0x2",
      "transactionHash": "0xd3c2ef1a9a17f68ef32788f08fc02e9322ae78aad17dd9b724949ba365b5d42b",
      "transactionIndex": "0xf",
      "blockHash": "0x06eb8e9df95b7505de90ef36e6fa03c10b52b7f208c78c10cba16b13475731e0",
      "blockNumber": "0x11a378d",
      "gasUsed": "0x80e60",
      "effectiveGasPrice": "0x40b",
      "from": "0x5AC7577C0B0F8E7f55B9144fBcB64AB4778084d5",
      "to": null,
      "contractAddress": "0x4bf21B3a4297648d13D15801aEc34ACf90b8Fc64",
      "l1BaseFeeScalar": "0x44d",
      "l1BlobBaseFee": "0x1",
      "l1BlobBaseFeeScalar": "0xa118b",
      "l1Fee": "0x25f21acc8",
      "l1GasPrice": "0x176f67b5",
      "l1GasUsed": "0x5bea"
    },
    {
      "status": "0x1",
      "cumulativeGasUsed": "0x376b45",
      "logs": [
        {
          "address": "0x4bf21B3a4297648d13D15801aEc34ACf90b8Fc64",
          "topics": [
            "0xbe533f538959a17d76f1b09e966e741ee3b1183099682f96216c93d21feaecba"
          ],
          "data": "0x019e272900000000000000000000000000000000000000000000000000000000",
          "blockHash": "0x06eb8e9df95b7505de90ef36e6fa03c10b52b7f208c78c10cba16b13475731e0",
          "blockNumber": "0x11a378d",
          "transactionHash": "0xd0a0acc5bb3bd437ea5123f6e841f0720e34938714eacaf413be33b6c7610a50",
          "transactionIndex": "0x10",
          "logIndex": "0xe",
          "removed": false
        },
        {
          "address": "0x4bf21B3a4297648d13D15801aEc34ACf90b8Fc64",
          "topics": [
            "0xda3c8142b3c1d27633026f55bfcb4eeb0b5b8db0daa0a3e10c2213a441722ad1"
          ],
          "data": "0x019e272900000000000000000000000000000000000000000000000000000000000000000000000000000000ec605b65277a5645b630c84718faa00ecb4b6bfd",
          "blockHash": "0x06eb8e9df95b7505de90ef36e6fa03c10b52b7f208c78c10cba16b13475731e0",
          "blockNumber": "0x11a378d",
          "transactionHash": "0xd0a0acc5bb3bd437ea5123f6e841f0720e34938714eacaf413be33b6c7610a50",
          "transactionIndex": "0x10",
          "logIndex": "0xf",
          "removed": false
        }
      ],
      "logsBloom": "0x00000000000000000000000000000000000000000000000000000000000000080000000000000000000000000000000000000000000000000000000000400000000000000000000000000000000000000000000000000000000000000000000000000000000000000000200000000000001000000000000010000000000000000000000000000000000000000000100000000000000000000000000000000000000000000000000000004040080000000000000000000000000000000000000000000000000000000000000000000000000000000000000000000000000000000000000000000000000000000000000000000000000000000000000000000000",
      "type": "0x2",
      "transactionHash": "0xd0a0acc5bb3bd437ea5123f6e841f0720e34938714eacaf413be33b6c7610a50",
      "transactionIndex": "0x10",
      "blockHash": "0x06eb8e9df95b7505de90ef36e6fa03c10b52b7f208c78c10cba16b13475731e0",
      "blockNumber": "0x11a378d",
      "gasUsed": "0x177bd",
      "effectiveGasPrice": "0x40b",
      "from": "0x5AC7577C0B0F8E7f55B9144fBcB64AB4778084d5",
      "to": "0x4bf21B3a4297648d13D15801aEc34ACf90b8Fc64",
      "contractAddress": null,
      "l1BaseFeeScalar": "0x44d",
      "l1BlobBaseFee": "0x1",
      "l1BlobBaseFeeScalar": "0xa118b",
      "l1Fee": "0x29488d94",
      "l1GasPrice": "0x176f67b5",
      "l1GasUsed": "0x640"
    },
    {
      "status": "0x1",
      "cumulativeGasUsed": "0x385fcc",
      "logs": [
        {
          "address": "0x4bf21B3a4297648d13D15801aEc34ACf90b8Fc64",
          "topics": [
            "0xbe533f538959a17d76f1b09e966e741ee3b1183099682f96216c93d21feaecba"
          ],
          "data": "0xffa1a33a00000000000000000000000000000000000000000000000000000000",
          "blockHash": "0x06eb8e9df95b7505de90ef36e6fa03c10b52b7f208c78c10cba16b13475731e0",
          "blockNumber": "0x11a378d",
          "transactionHash": "0x802a6f7887b4b55b6be89a0c1b54fb453655897cf110e7ca53baa620c91d5db6",
          "transactionIndex": "0x11",
          "logIndex": "0x10",
          "removed": false
        },
        {
          "address": "0x4bf21B3a4297648d13D15801aEc34ACf90b8Fc64",
          "topics": [
            "0xda3c8142b3c1d27633026f55bfcb4eeb0b5b8db0daa0a3e10c2213a441722ad1"
          ],
          "data": "0xffa1a33a00000000000000000000000000000000000000000000000000000000000000000000000000000000776e9858ef2721f0315e45669648810c092e105a",
          "blockHash": "0x06eb8e9df95b7505de90ef36e6fa03c10b52b7f208c78c10cba16b13475731e0",
          "blockNumber": "0x11a378d",
          "transactionHash": "0x802a6f7887b4b55b6be89a0c1b54fb453655897cf110e7ca53baa620c91d5db6",
          "transactionIndex": "0x11",
          "logIndex": "0x11",
          "removed": false
        }
      ],
      "logsBloom": "0x00000000000000000000000000000000000000000000000000000000000000080000000000000000000000000000000000000000000000000000000000400000000000000000000000000000000000000000000000000000000000000000000000000000000000000000200000000000001000000000000010000000000000000000000000000000000000000000100000000000000000000000000000000000000000000000000000004040080000000000000000000000000000000000000000000000000000000000000000000000000000000000000000000000000000000000000000000000000000000000000000000000000000000000000000000000",
      "type": "0x2",
      "transactionHash": "0x802a6f7887b4b55b6be89a0c1b54fb453655897cf110e7ca53baa620c91d5db6",
      "transactionIndex": "0x11",
      "blockHash": "0x06eb8e9df95b7505de90ef36e6fa03c10b52b7f208c78c10cba16b13475731e0",
      "blockNumber": "0x11a378d",
      "gasUsed": "0xf487",
      "effectiveGasPrice": "0x40b",
      "from": "0x5AC7577C0B0F8E7f55B9144fBcB64AB4778084d5",
      "to": "0x4bf21B3a4297648d13D15801aEc34ACf90b8Fc64",
      "contractAddress": null,
      "l1BaseFeeScalar": "0x44d",
      "l1BlobBaseFee": "0x1",
      "l1BlobBaseFeeScalar": "0xa118b",
      "l1Fee": "0x29488d94",
      "l1GasPrice": "0x176f67b5",
      "l1GasUsed": "0x640"
    },
    {
      "status": "0x1",
      "cumulativeGasUsed": "0x3956b5",
      "logs": [
        {
          "address": "0x4bf21B3a4297648d13D15801aEc34ACf90b8Fc64",
          "topics": [
            "0xbe533f538959a17d76f1b09e966e741ee3b1183099682f96216c93d21feaecba"
          ],
          "data": "0xaa14cc6b00000000000000000000000000000000000000000000000000000000",
          "blockHash": "0x06eb8e9df95b7505de90ef36e6fa03c10b52b7f208c78c10cba16b13475731e0",
          "blockNumber": "0x11a378d",
          "transactionHash": "0x238569f67bc0e609208e85ce51f7fb3166263f4208ef6356ba921246f6a31025",
          "transactionIndex": "0x12",
          "logIndex": "0x12",
          "removed": false
        },
        {
          "address": "0x4bf21B3a4297648d13D15801aEc34ACf90b8Fc64",
          "topics": [
            "0xda3c8142b3c1d27633026f55bfcb4eeb0b5b8db0daa0a3e10c2213a441722ad1"
          ],
          "data": "0xaa14cc6b00000000000000000000000000000000000000000000000000000000000000000000000000000000380392cb91be2c0544c043e63b41091e1584ef1d",
          "blockHash": "0x06eb8e9df95b7505de90ef36e6fa03c10b52b7f208c78c10cba16b13475731e0",
          "blockNumber": "0x11a378d",
          "transactionHash": "0x238569f67bc0e609208e85ce51f7fb3166263f4208ef6356ba921246f6a31025",
          "transactionIndex": "0x12",
          "logIndex": "0x13",
          "removed": false
        }
      ],
      "logsBloom": "0x00000000000000000000000000000000000000000000000000000000000000080000000000000000000000000000000000000000000000000000000000400000000000000000000000000000000000000000000000000000000000000000000000000000000000000000200000000000001000000000000010000000000000000000000000000000000000000000100000000000000000000000000000000000000000000000000000004040080000000000000000000000000000000000000000000000000000000000000000000000000000000000000000000000000000000000000000000000000000000000000000000000000000000000000000000000",
      "type": "0x2",
      "transactionHash": "0x238569f67bc0e609208e85ce51f7fb3166263f4208ef6356ba921246f6a31025",
      "transactionIndex": "0x12",
      "blockHash": "0x06eb8e9df95b7505de90ef36e6fa03c10b52b7f208c78c10cba16b13475731e0",
      "blockNumber": "0x11a378d",
      "gasUsed": "0xf6e9",
      "effectiveGasPrice": "0x40b",
      "from": "0x5AC7577C0B0F8E7f55B9144fBcB64AB4778084d5",
      "to": "0x4bf21B3a4297648d13D15801aEc34ACf90b8Fc64",
      "contractAddress": null,
      "l1BaseFeeScalar": "0x44d",
      "l1BlobBaseFee": "0x1",
      "l1BlobBaseFeeScalar": "0xa118b",
      "l1Fee": "0x29488d94",
      "l1GasPrice": "0x176f67b5",
      "l1GasUsed": "0x640"
    },
    {
      "status": "0x1",
      "cumulativeGasUsed": "0x3a5000",
      "logs": [
        {
          "address": "0x4bf21B3a4297648d13D15801aEc34ACf90b8Fc64",
          "topics": [
            "0xbe533f538959a17d76f1b09e966e741ee3b1183099682f96216c93d21feaecba"
          ],
          "data": "0x985e127c00000000000000000000000000000000000000000000000000000000",
          "blockHash": "0x06eb8e9df95b7505de90ef36e6fa03c10b52b7f208c78c10cba16b13475731e0",
          "blockNumber": "0x11a378d",
          "transactionHash": "0x89e3c4f1cff14f7948ba5ce2759b898431c4ab81e12da1484d961ff8a559d49c",
          "transactionIndex": "0x13",
          "logIndex": "0x14",
          "removed": false
        },
        {
          "address": "0x4bf21B3a4297648d13D15801aEc34ACf90b8Fc64",
          "topics": [
            "0xda3c8142b3c1d27633026f55bfcb4eeb0b5b8db0daa0a3e10c2213a441722ad1"
          ],
          "data": "0x985e127c0000000000000000000000000000000000000000000000000000000000000000000000000000000055de5d3d151309aa58406ffc3ba9309ef6cecb5a",
          "blockHash": "0x06eb8e9df95b7505de90ef36e6fa03c10b52b7f208c78c10cba16b13475731e0",
          "blockNumber": "0x11a378d",
          "transactionHash": "0x89e3c4f1cff14f7948ba5ce2759b898431c4ab81e12da1484d961ff8a559d49c",
          "transactionIndex": "0x13",
          "logIndex": "0x15",
          "removed": false
        }
      ],
      "logsBloom": "0x00000000000000000000000000000000000000000000000000000000000000080000000000000000000000000000000000000000000000000000000000400000000000000000000000000000000000000000000000000000000000000000000000000000000000000000200000000000001000000000000010000000000000000000000000000000000000000000100000000000000000000000000000000000000000000000000000004040080000000000000000000000000000000000000000000000000000000000000000000000000000000000000000000000000000000000000000000000000000000000000000000000000000000000000000000000",
      "type": "0x2",
      "transactionHash": "0x89e3c4f1cff14f7948ba5ce2759b898431c4ab81e12da1484d961ff8a559d49c",
      "transactionIndex": "0x13",
      "blockHash": "0x06eb8e9df95b7505de90ef36e6fa03c10b52b7f208c78c10cba16b13475731e0",
      "blockNumber": "0x11a378d",
      "gasUsed": "0xf94b",
      "effectiveGasPrice": "0x40b",
      "from": "0x5AC7577C0B0F8E7f55B9144fBcB64AB4778084d5",
      "to": "0x4bf21B3a4297648d13D15801aEc34ACf90b8Fc64",
      "contractAddress": null,
      "l1BaseFeeScalar": "0x44d",
      "l1BlobBaseFee": "0x1",
      "l1BlobBaseFeeScalar": "0xa118b",
      "l1Fee": "0x29488d94",
      "l1GasPrice": "0x176f67b5",
      "l1GasUsed": "0x640"
    },
    {
      "status": "0x1",
      "cumulativeGasUsed": "0x3b4bad",
      "logs": [
        {
          "address": "0x4bf21B3a4297648d13D15801aEc34ACf90b8Fc64",
          "topics": [
            "0xbe533f538959a17d76f1b09e966e741ee3b1183099682f96216c93d21feaecba"
          ],
          "data": "0xe6424a5e00000000000000000000000000000000000000000000000000000000",
          "blockHash": "0x06eb8e9df95b7505de90ef36e6fa03c10b52b7f208c78c10cba16b13475731e0",
          "blockNumber": "0x11a378d",
          "transactionHash": "0x78f44b71afc6915fd88f09e8902bf6bafb1d7b6bdeafc1df3977459c5e2b459d",
          "transactionIndex": "0x14",
          "logIndex": "0x16",
          "removed": false
        },
        {
          "address": "0x4bf21B3a4297648d13D15801aEc34ACf90b8Fc64",
          "topics": [
            "0xda3c8142b3c1d27633026f55bfcb4eeb0b5b8db0daa0a3e10c2213a441722ad1"
          ],
          "data": "0xe6424a5e00000000000000000000000000000000000000000000000000000000000000000000000000000000eb32ac17e61d46836e654457afd35ea983699c43",
          "blockHash": "0x06eb8e9df95b7505de90ef36e6fa03c10b52b7f208c78c10cba16b13475731e0",
          "blockNumber": "0x11a378d",
          "transactionHash": "0x78f44b71afc6915fd88f09e8902bf6bafb1d7b6bdeafc1df3977459c5e2b459d",
          "transactionIndex": "0x14",
          "logIndex": "0x17",
          "removed": false
        }
      ],
      "logsBloom": "0x00000000000000000000000000000000000000000000000000000000000000080000000000000000000000000000000000000000000000000000000000400000000000000000000000000000000000000000000000000000000000000000000000000000000000000000200000000000001000000000000010000000000000000000000000000000000000000000100000000000000000000000000000000000000000000000000000004040080000000000000000000000000000000000000000000000000000000000000000000000000000000000000000000000000000000000000000000000000000000000000000000000000000000000000000000000",
      "type": "0x2",
      "transactionHash": "0x78f44b71afc6915fd88f09e8902bf6bafb1d7b6bdeafc1df3977459c5e2b459d",
      "transactionIndex": "0x14",
      "blockHash": "0x06eb8e9df95b7505de90ef36e6fa03c10b52b7f208c78c10cba16b13475731e0",
      "blockNumber": "0x11a378d",
      "gasUsed": "0xfbad",
      "effectiveGasPrice": "0x40b",
      "from": "0x5AC7577C0B0F8E7f55B9144fBcB64AB4778084d5",
      "to": "0x4bf21B3a4297648d13D15801aEc34ACf90b8Fc64",
      "contractAddress": null,
      "l1BaseFeeScalar": "0x44d",
      "l1BlobBaseFee": "0x1",
      "l1BlobBaseFeeScalar": "0xa118b",
      "l1Fee": "0x29488d94",
      "l1GasPrice": "0x176f67b5",
      "l1GasUsed": "0x640"
    },
    {
      "status": "0x1",
      "cumulativeGasUsed": "0x3c49bc",
      "logs": [
        {
          "address": "0x4bf21B3a4297648d13D15801aEc34ACf90b8Fc64",
          "topics": [
            "0xbe533f538959a17d76f1b09e966e741ee3b1183099682f96216c93d21feaecba"
          ],
          "data": "0x8da5cb5b00000000000000000000000000000000000000000000000000000000",
          "blockHash": "0x06eb8e9df95b7505de90ef36e6fa03c10b52b7f208c78c10cba16b13475731e0",
          "blockNumber": "0x11a378d",
          "transactionHash": "0x2220deff8758409ac4cf7f19d0dc5c2c9d003693cd6b9b8551b409a71bddb2c9",
          "transactionIndex": "0x15",
          "logIndex": "0x18",
          "removed": false
        },
        {
          "address": "0x4bf21B3a4297648d13D15801aEc34ACf90b8Fc64",
          "topics": [
            "0xda3c8142b3c1d27633026f55bfcb4eeb0b5b8db0daa0a3e10c2213a441722ad1"
          ],
          "data": "0x8da5cb5b0000000000000000000000000000000000000000000000000000000000000000000000000000000051d68def37e0fa2a191a5803c1c56f234166d049",
          "blockHash": "0x06eb8e9df95b7505de90ef36e6fa03c10b52b7f208c78c10cba16b13475731e0",
          "blockNumber": "0x11a378d",
          "transactionHash": "0x2220deff8758409ac4cf7f19d0dc5c2c9d003693cd6b9b8551b409a71bddb2c9",
          "transactionIndex": "0x15",
          "logIndex": "0x19",
          "removed": false
        }
      ],
      "logsBloom": "0x00000000000000000000000000000000000000000000000000000000000000080000000000000000000000000000000000000000000000000000000000400000000000000000000000000000000000000000000000000000000000000000000000000000000000000000200000000000001000000000000010000000000000000000000000000000000000000000100000000000000000000000000000000000000000000000000000004040080000000000000000000000000000000000000000000000000000000000000000000000000000000000000000000000000000000000000000000000000000000000000000000000000000000000000000000000",
      "type": "0x2",
      "transactionHash": "0x2220deff8758409ac4cf7f19d0dc5c2c9d003693cd6b9b8551b409a71bddb2c9",
      "transactionIndex": "0x15",
      "blockHash": "0x06eb8e9df95b7505de90ef36e6fa03c10b52b7f208c78c10cba16b13475731e0",
      "blockNumber": "0x11a378d",
      "gasUsed": "0xfe0f",
      "effectiveGasPrice": "0x40b",
      "from": "0x5AC7577C0B0F8E7f55B9144fBcB64AB4778084d5",
      "to": "0x4bf21B3a4297648d13D15801aEc34ACf90b8Fc64",
      "contractAddress": null,
      "l1BaseFeeScalar": "0x44d",
      "l1BlobBaseFee": "0x1",
      "l1BlobBaseFeeScalar": "0xa118b",
      "l1Fee": "0x29488d94",
      "l1GasPrice": "0x176f67b5",
      "l1GasUsed": "0x640"
    },
    {
      "status": "0x1",
      "cumulativeGasUsed": "0x3d4a2d",
      "logs": [
        {
          "address": "0x4bf21B3a4297648d13D15801aEc34ACf90b8Fc64",
          "topics": [
            "0xbe533f538959a17d76f1b09e966e741ee3b1183099682f96216c93d21feaecba"
          ],
          "data": "0x09bd5a6000000000000000000000000000000000000000000000000000000000",
          "blockHash": "0x06eb8e9df95b7505de90ef36e6fa03c10b52b7f208c78c10cba16b13475731e0",
          "blockNumber": "0x11a378d",
          "transactionHash": "0xf5b0557583a3fdf7e904def3830bcb0c9aa91d4057fc8c39c660b2f61de755bd",
          "transactionIndex": "0x16",
          "logIndex": "0x1a",
          "removed": false
        },
        {
          "address": "0x4bf21B3a4297648d13D15801aEc34ACf90b8Fc64",
          "topics": [
            "0xda3c8142b3c1d27633026f55bfcb4eeb0b5b8db0daa0a3e10c2213a441722ad1"
          ],
          "data": "0x09bd5a600000000000000000000000000000000000000000000000000000000000000000000000000000000051d68def37e0fa2a191a5803c1c56f234166d049",
          "blockHash": "0x06eb8e9df95b7505de90ef36e6fa03c10b52b7f208c78c10cba16b13475731e0",
          "blockNumber": "0x11a378d",
          "transactionHash": "0xf5b0557583a3fdf7e904def3830bcb0c9aa91d4057fc8c39c660b2f61de755bd",
          "transactionIndex": "0x16",
          "logIndex": "0x1b",
          "removed": false
        }
      ],
      "logsBloom": "0x00000000000000000000000000000000000000000000000000000000000000080000000000000000000000000000000000000000000000000000000000400000000000000000000000000000000000000000000000000000000000000000000000000000000000000000200000000000001000000000000010000000000000000000000000000000000000000000100000000000000000000000000000000000000000000000000000004040080000000000000000000000000000000000000000000000000000000000000000000000000000000000000000000000000000000000000000000000000000000000000000000000000000000000000000000000",
      "type": "0x2",
      "transactionHash": "0xf5b0557583a3fdf7e904def3830bcb0c9aa91d4057fc8c39c660b2f61de755bd",
      "transactionIndex": "0x16",
      "blockHash": "0x06eb8e9df95b7505de90ef36e6fa03c10b52b7f208c78c10cba16b13475731e0",
      "blockNumber": "0x11a378d",
      "gasUsed": "0x10071",
      "effectiveGasPrice": "0x40b",
      "from": "0x5AC7577C0B0F8E7f55B9144fBcB64AB4778084d5",
      "to": "0x4bf21B3a4297648d13D15801aEc34ACf90b8Fc64",
      "contractAddress": null,
      "l1BaseFeeScalar": "0x44d",
      "l1BlobBaseFee": "0x1",
      "l1BlobBaseFeeScalar": "0xa118b",
      "l1Fee": "0x29488d94",
      "l1GasPrice": "0x176f67b5",
      "l1GasUsed": "0x640"
    },
    {
      "status": "0x1",
      "cumulativeGasUsed": "0x3e4d00",
      "logs": [
        {
          "address": "0x4bf21B3a4297648d13D15801aEc34ACf90b8Fc64",
          "topics": [
            "0xbe533f538959a17d76f1b09e966e741ee3b1183099682f96216c93d21feaecba"
          ],
          "data": "0xa4e2d63400000000000000000000000000000000000000000000000000000000",
          "blockHash": "0x06eb8e9df95b7505de90ef36e6fa03c10b52b7f208c78c10cba16b13475731e0",
          "blockNumber": "0x11a378d",
          "transactionHash": "0xa4467111de3db5b59b9a73c7ce2488b27abfa9ed1b759868a00960e6efc31612",
          "transactionIndex": "0x17",
          "logIndex": "0x1c",
          "removed": false
        },
        {
          "address": "0x4bf21B3a4297648d13D15801aEc34ACf90b8Fc64",
          "topics": [
            "0xda3c8142b3c1d27633026f55bfcb4eeb0b5b8db0daa0a3e10c2213a441722ad1"
          ],
          "data": "0xa4e2d6340000000000000000000000000000000000000000000000000000000000000000000000000000000051d68def37e0fa2a191a5803c1c56f234166d049",
          "blockHash": "0x06eb8e9df95b7505de90ef36e6fa03c10b52b7f208c78c10cba16b13475731e0",
          "blockNumber": "0x11a378d",
          "transactionHash": "0xa4467111de3db5b59b9a73c7ce2488b27abfa9ed1b759868a00960e6efc31612",
          "transactionIndex": "0x17",
          "logIndex": "0x1d",
          "removed": false
        }
      ],
      "logsBloom": "0x00000000000000000000000000000000000000000000000000000000000000080000000000000000000000000000000000000000000000000000000000400000000000000000000000000000000000000000000000000000000000000000000000000000000000000000200000000000001000000000000010000000000000000000000000000000000000000000100000000000000000000000000000000000000000000000000000004040080000000000000000000000000000000000000000000000000000000000000000000000000000000000000000000000000000000000000000000000000000000000000000000000000000000000000000000000",
      "type": "0x2",
      "transactionHash": "0xa4467111de3db5b59b9a73c7ce2488b27abfa9ed1b759868a00960e6efc31612",
      "transactionIndex": "0x17",
      "blockHash": "0x06eb8e9df95b7505de90ef36e6fa03c10b52b7f208c78c10cba16b13475731e0",
      "blockNumber": "0x11a378d",
      "gasUsed": "0x102d3",
      "effectiveGasPrice": "0x40b",
      "from": "0x5AC7577C0B0F8E7f55B9144fBcB64AB4778084d5",
      "to": "0x4bf21B3a4297648d13D15801aEc34ACf90b8Fc64",
      "contractAddress": null,
      "l1BaseFeeScalar": "0x44d",
      "l1BlobBaseFee": "0x1",
      "l1BlobBaseFeeScalar": "0xa118b",
      "l1Fee": "0x29488d94",
      "l1GasPrice": "0x176f67b5",
      "l1GasUsed": "0x640"
    },
    {
      "status": "0x1",
      "cumulativeGasUsed": "0x1fad2",
      "logs": [
        {
          "address": "0x4bf21B3a4297648d13D15801aEc34ACf90b8Fc64",
          "topics": [
            "0xbe533f538959a17d76f1b09e966e741ee3b1183099682f96216c93d21feaecba"
          ],
          "data": "0x8fe8a10100000000000000000000000000000000000000000000000000000000",
          "blockHash": "0x3a4c479b77d0cefb4d3d830803a51b76c26bcdb046e4cc7c8de571748088926f",
          "blockNumber": "0x11a378e",
          "transactionHash": "0x311548ee9c4dd7b5a69be309cadc9b7a215c5999d225fd957f2abea4cbd4d8b4",
          "transactionIndex": "0x1",
          "logIndex": "0x0",
          "removed": false
        },
        {
          "address": "0x4bf21B3a4297648d13D15801aEc34ACf90b8Fc64",
          "topics": [
            "0xda3c8142b3c1d27633026f55bfcb4eeb0b5b8db0daa0a3e10c2213a441722ad1"
          ],
          "data": "0x8fe8a1010000000000000000000000000000000000000000000000000000000000000000000000000000000051d68def37e0fa2a191a5803c1c56f234166d049",
          "blockHash": "0x3a4c479b77d0cefb4d3d830803a51b76c26bcdb046e4cc7c8de571748088926f",
          "blockNumber": "0x11a378e",
          "transactionHash": "0x311548ee9c4dd7b5a69be309cadc9b7a215c5999d225fd957f2abea4cbd4d8b4",
          "transactionIndex": "0x1",
          "logIndex": "0x1",
          "removed": false
        }
      ],
      "logsBloom": "0x00000000000000000000000000000000000000000000000000000000000000080000000000000000000000000000000000000000000000000000000000400000000000000000000000000000000000000000000000000000000000000000000000000000000000000000200000000000001000000000000010000000000000000000000000000000000000000000100000000000000000000000000000000000000000000000000000004040080000000000000000000000000000000000000000000000000000000000000000000000000000000000000000000000000000000000000000000000000000000000000000000000000000000000000000000000",
      "type": "0x2",
      "transactionHash": "0x311548ee9c4dd7b5a69be309cadc9b7a215c5999d225fd957f2abea4cbd4d8b4",
      "transactionIndex": "0x1",
      "blockHash": "0x3a4c479b77d0cefb4d3d830803a51b76c26bcdb046e4cc7c8de571748088926f",
      "blockNumber": "0x11a378e",
      "gasUsed": "0x14f9f",
      "effectiveGasPrice": "0x40b",
      "from": "0x5AC7577C0B0F8E7f55B9144fBcB64AB4778084d5",
      "to": "0x4bf21B3a4297648d13D15801aEc34ACf90b8Fc64",
      "contractAddress": null,
      "l1BaseFeeScalar": "0x44d",
      "l1BlobBaseFee": "0x1",
      "l1BlobBaseFeeScalar": "0xa118b",
      "l1Fee": "0x29488d94",
      "l1GasPrice": "0x176f67b5",
      "l1GasUsed": "0x640"
    },
    {
      "status": "0x1",
      "cumulativeGasUsed": "0x30a07",
      "logs": [
        {
          "address": "0x4bf21B3a4297648d13D15801aEc34ACf90b8Fc64",
          "topics": [
            "0xbe533f538959a17d76f1b09e966e741ee3b1183099682f96216c93d21feaecba"
          ],
          "data": "0x0455444300000000000000000000000000000000000000000000000000000000",
          "blockHash": "0x3a4c479b77d0cefb4d3d830803a51b76c26bcdb046e4cc7c8de571748088926f",
          "blockNumber": "0x11a378e",
          "transactionHash": "0x29e8c159f7c985f43c888430d9020603ddd205db252203228ec81adc61baadb0",
          "transactionIndex": "0x2",
          "logIndex": "0x2",
          "removed": false
        },
        {
          "address": "0x4bf21B3a4297648d13D15801aEc34ACf90b8Fc64",
          "topics": [
            "0xda3c8142b3c1d27633026f55bfcb4eeb0b5b8db0daa0a3e10c2213a441722ad1"
          ],
          "data": "0x045544430000000000000000000000000000000000000000000000000000000000000000000000000000000051d68def37e0fa2a191a5803c1c56f234166d049",
          "blockHash": "0x3a4c479b77d0cefb4d3d830803a51b76c26bcdb046e4cc7c8de571748088926f",
          "blockNumber": "0x11a378e",
          "transactionHash": "0x29e8c159f7c985f43c888430d9020603ddd205db252203228ec81adc61baadb0",
          "transactionIndex": "0x2",
          "logIndex": "0x3",
          "removed": false
        }
      ],
      "logsBloom": "0x00000000000000000000000000000000000000000000000000000000000000080000000000000000000000000000000000000000000000000000000000400000000000000000000000000000000000000000000000000000000000000000000000000000000000000000200000000000001000000000000010000000000000000000000000000000000000000000100000000000000000000000000000000000000000000000000000004040080000000000000000000000000000000000000000000000000000000000000000000000000000000000000000000000000000000000000000000000000000000000000000000000000000000000000000000000",
      "type": "0x2",
      "transactionHash": "0x29e8c159f7c985f43c888430d9020603ddd205db252203228ec81adc61baadb0",
      "transactionIndex": "0x2",
      "blockHash": "0x3a4c479b77d0cefb4d3d830803a51b76c26bcdb046e4cc7c8de571748088926f",
      "blockNumber": "0x11a378e",
      "gasUsed": "0x10f35",
      "effectiveGasPrice": "0x40b",
      "from": "0x5AC7577C0B0F8E7f55B9144fBcB64AB4778084d5",
      "to": "0x4bf21B3a4297648d13D15801aEc34ACf90b8Fc64",
      "contractAddress": null,
      "l1BaseFeeScalar": "0x44d",
      "l1BlobBaseFee": "0x1",
      "l1BlobBaseFeeScalar": "0xa118b",
      "l1Fee": "0x29488d94",
      "l1GasPrice": "0x176f67b5",
      "l1GasUsed": "0x640"
    },
    {
      "status": "0x1",
      "cumulativeGasUsed": "0x41b9e",
      "logs": [
        {
          "address": "0x4bf21B3a4297648d13D15801aEc34ACf90b8Fc64",
          "topics": [
            "0xbe533f538959a17d76f1b09e966e741ee3b1183099682f96216c93d21feaecba"
          ],
          "data": "0x62c7fa7600000000000000000000000000000000000000000000000000000000",
          "blockHash": "0x3a4c479b77d0cefb4d3d830803a51b76c26bcdb046e4cc7c8de571748088926f",
          "blockNumber": "0x11a378e",
          "transactionHash": "0x3db73b9de66a9c26186373aab493ea1e008a48cd4156da16971c5af8f85cc99f",
          "transactionIndex": "0x3",
          "logIndex": "0x4",
          "removed": false
        },
        {
          "address": "0x4bf21B3a4297648d13D15801aEc34ACf90b8Fc64",
          "topics": [
            "0xda3c8142b3c1d27633026f55bfcb4eeb0b5b8db0daa0a3e10c2213a441722ad1"
          ],
          "data": "0x62c7fa760000000000000000000000000000000000000000000000000000000000000000000000000000000051d68def37e0fa2a191a5803c1c56f234166d049",
          "blockHash": "0x3a4c479b77d0cefb4d3d830803a51b76c26bcdb046e4cc7c8de571748088926f",
          "blockNumber": "0x11a378e",
          "transactionHash": "0x3db73b9de66a9c26186373aab493ea1e008a48cd4156da16971c5af8f85cc99f",
          "transactionIndex": "0x3",
          "logIndex": "0x5",
          "removed": false
        }
      ],
      "logsBloom": "0x00000000000000000000000000000000000000000000000000000000000000080000000000000000000000000000000000000000000000000000000000400000000000000000000000000000000000000000000000000000000000000000000000000000000000000000200000000000001000000000000010000000000000000000000000000000000000000000100000000000000000000000000000000000000000000000000000004040080000000000000000000000000000000000000000000000000000000000000000000000000000000000000000000000000000000000000000000000000000000000000000000000000000000000000000000000",
      "type": "0x2",
      "transactionHash": "0x3db73b9de66a9c26186373aab493ea1e008a48cd4156da16971c5af8f85cc99f",
      "transactionIndex": "0x3",
      "blockHash": "0x3a4c479b77d0cefb4d3d830803a51b76c26bcdb046e4cc7c8de571748088926f",
      "blockNumber": "0x11a378e",
      "gasUsed": "0x11197",
      "effectiveGasPrice": "0x40b",
      "from": "0x5AC7577C0B0F8E7f55B9144fBcB64AB4778084d5",
      "to": "0x4bf21B3a4297648d13D15801aEc34ACf90b8Fc64",
      "contractAddress": null,
      "l1BaseFeeScalar": "0x44d",
      "l1BlobBaseFee": "0x1",
      "l1BlobBaseFeeScalar": "0xa118b",
      "l1Fee": "0x29488d94",
      "l1GasPrice": "0x176f67b5",
      "l1GasUsed": "0x640"
    },
    {
      "status": "0x1",
      "cumulativeGasUsed": "0x52f97",
      "logs": [
        {
          "address": "0x4bf21B3a4297648d13D15801aEc34ACf90b8Fc64",
          "topics": [
            "0xbe533f538959a17d76f1b09e966e741ee3b1183099682f96216c93d21feaecba"
          ],
          "data": "0xaffed0e000000000000000000000000000000000000000000000000000000000",
          "blockHash": "0x3a4c479b77d0cefb4d3d830803a51b76c26bcdb046e4cc7c8de571748088926f",
          "blockNumber": "0x11a378e",
          "transactionHash": "0xbdededc2800d992de84ebb11c8f4a4d775fd16f4e99ec7cb6838a1e308164c07",
          "transactionIndex": "0x4",
          "logIndex": "0x6",
          "removed": false
        },
        {
          "address": "0x4bf21B3a4297648d13D15801aEc34ACf90b8Fc64",
          "topics": [
            "0xda3c8142b3c1d27633026f55bfcb4eeb0b5b8db0daa0a3e10c2213a441722ad1"
          ],
          "data": "0xaffed0e00000000000000000000000000000000000000000000000000000000000000000000000000000000051d68def37e0fa2a191a5803c1c56f234166d049",
          "blockHash": "0x3a4c479b77d0cefb4d3d830803a51b76c26bcdb046e4cc7c8de571748088926f",
          "blockNumber": "0x11a378e",
          "transactionHash": "0xbdededc2800d992de84ebb11c8f4a4d775fd16f4e99ec7cb6838a1e308164c07",
          "transactionIndex": "0x4",
          "logIndex": "0x7",
          "removed": false
        }
      ],
      "logsBloom": "0x00000000000000000000000000000000000000000000000000000000000000080000000000000000000000000000000000000000000000000000000000400000000000000000000000000000000000000000000000000000000000000000000000000000000000000000200000000000001000000000000010000000000000000000000000000000000000000000100000000000000000000000000000000000000000000000000000004040080000000000000000000000000000000000000000000000000000000000000000000000000000000000000000000000000000000000000000000000000000000000000000000000000000000000000000000000",
      "type": "0x2",
      "transactionHash": "0xbdededc2800d992de84ebb11c8f4a4d775fd16f4e99ec7cb6838a1e308164c07",
      "transactionIndex": "0x4",
      "blockHash": "0x3a4c479b77d0cefb4d3d830803a51b76c26bcdb046e4cc7c8de571748088926f",
      "blockNumber": "0x11a378e",
      "gasUsed": "0x113f9",
      "effectiveGasPrice": "0x40b",
      "from": "0x5AC7577C0B0F8E7f55B9144fBcB64AB4778084d5",
      "to": "0x4bf21B3a4297648d13D15801aEc34ACf90b8Fc64",
      "contractAddress": null,
      "l1BaseFeeScalar": "0x44d",
      "l1BlobBaseFee": "0x1",
      "l1BlobBaseFeeScalar": "0xa118b",
      "l1Fee": "0x29488d94",
      "l1GasPrice": "0x176f67b5",
      "l1GasUsed": "0x640"
    },
    {
      "status": "0x1",
      "cumulativeGasUsed": "0x645f2",
      "logs": [
        {
          "address": "0x4bf21B3a4297648d13D15801aEc34ACf90b8Fc64",
          "topics": [
            "0xbe533f538959a17d76f1b09e966e741ee3b1183099682f96216c93d21feaecba"
          ],
          "data": "0x96c705e500000000000000000000000000000000000000000000000000000000",
          "blockHash": "0x3a4c479b77d0cefb4d3d830803a51b76c26bcdb046e4cc7c8de571748088926f",
          "blockNumber": "0x11a378e",
          "transactionHash": "0xc2b3db0b564531d1ed8a390433bd8710937170df2d13970248f9491efb601107",
          "transactionIndex": "0x5",
          "logIndex": "0x8",
          "removed": false
        },
        {
          "address": "0x4bf21B3a4297648d13D15801aEc34ACf90b8Fc64",
          "topics": [
            "0xda3c8142b3c1d27633026f55bfcb4eeb0b5b8db0daa0a3e10c2213a441722ad1"
          ],
          "data": "0x96c705e50000000000000000000000000000000000000000000000000000000000000000000000000000000051d68def37e0fa2a191a5803c1c56f234166d049",
          "blockHash": "0x3a4c479b77d0cefb4d3d830803a51b76c26bcdb046e4cc7c8de571748088926f",
          "blockNumber": "0x11a378e",
          "transactionHash": "0xc2b3db0b564531d1ed8a390433bd8710937170df2d13970248f9491efb601107",
          "transactionIndex": "0x5",
          "logIndex": "0x9",
          "removed": false
        }
      ],
      "logsBloom": "0x00000000000000000000000000000000000000000000000000000000000000080000000000000000000000000000000000000000000000000000000000400000000000000000000000000000000000000000000000000000000000000000000000000000000000000000200000000000001000000000000010000000000000000000000000000000000000000000100000000000000000000000000000000000000000000000000000004040080000000000000000000000000000000000000000000000000000000000000000000000000000000000000000000000000000000000000000000000000000000000000000000000000000000000000000000000",
      "type": "0x2",
      "transactionHash": "0xc2b3db0b564531d1ed8a390433bd8710937170df2d13970248f9491efb601107",
      "transactionIndex": "0x5",
      "blockHash": "0x3a4c479b77d0cefb4d3d830803a51b76c26bcdb046e4cc7c8de571748088926f",
      "blockNumber": "0x11a378e",
      "gasUsed": "0x1165b",
      "effectiveGasPrice": "0x40b",
      "from": "0x5AC7577C0B0F8E7f55B9144fBcB64AB4778084d5",
      "to": "0x4bf21B3a4297648d13D15801aEc34ACf90b8Fc64",
      "contractAddress": null,
      "l1BaseFeeScalar": "0x44d",
      "l1BlobBaseFee": "0x1",
      "l1BlobBaseFeeScalar": "0xa118b",
      "l1Fee": "0x29488d94",
      "l1GasPrice": "0x176f67b5",
      "l1GasUsed": "0x640"
    },
    {
      "status": "0x1",
      "cumulativeGasUsed": "0x75eaf",
      "logs": [
        {
          "address": "0x4bf21B3a4297648d13D15801aEc34ACf90b8Fc64",
          "topics": [
            "0xbe533f538959a17d76f1b09e966e741ee3b1183099682f96216c93d21feaecba"
          ],
          "data": "0xc30a0f2500000000000000000000000000000000000000000000000000000000",
          "blockHash": "0x3a4c479b77d0cefb4d3d830803a51b76c26bcdb046e4cc7c8de571748088926f",
          "blockNumber": "0x11a378e",
          "transactionHash": "0x40cce587bf0b4dc92be13173789f034999d19c04bb4d01886ebaa5af26b65f0b",
          "transactionIndex": "0x6",
          "logIndex": "0xa",
          "removed": false
        },
        {
          "address": "0x4bf21B3a4297648d13D15801aEc34ACf90b8Fc64",
          "topics": [
            "0xda3c8142b3c1d27633026f55bfcb4eeb0b5b8db0daa0a3e10c2213a441722ad1"
          ],
          "data": "0xc30a0f250000000000000000000000000000000000000000000000000000000000000000000000000000000051d68def37e0fa2a191a5803c1c56f234166d049",
          "blockHash": "0x3a4c479b77d0cefb4d3d830803a51b76c26bcdb046e4cc7c8de571748088926f",
          "blockNumber": "0x11a378e",
          "transactionHash": "0x40cce587bf0b4dc92be13173789f034999d19c04bb4d01886ebaa5af26b65f0b",
          "transactionIndex": "0x6",
          "logIndex": "0xb",
          "removed": false
        }
      ],
      "logsBloom": "0x00000000000000000000000000000000000000000000000000000000000000080000000000000000000000000000000000000000000000000000000000400000000000000000000000000000000000000000000000000000000000000000000000000000000000000000200000000000001000000000000010000000000000000000000000000000000000000000100000000000000000000000000000000000000000000000000000004040080000000000000000000000000000000000000000000000000000000000000000000000000000000000000000000000000000000000000000000000000000000000000000000000000000000000000000000000",
      "type": "0x2",
      "transactionHash": "0x40cce587bf0b4dc92be13173789f034999d19c04bb4d01886ebaa5af26b65f0b",
      "transactionIndex": "0x6",
      "blockHash": "0x3a4c479b77d0cefb4d3d830803a51b76c26bcdb046e4cc7c8de571748088926f",
      "blockNumber": "0x11a378e",
      "gasUsed": "0x118bd",
      "effectiveGasPrice": "0x40b",
      "from": "0x5AC7577C0B0F8E7f55B9144fBcB64AB4778084d5",
      "to": "0x4bf21B3a4297648d13D15801aEc34ACf90b8Fc64",
      "contractAddress": null,
      "l1BaseFeeScalar": "0x44d",
      "l1BlobBaseFee": "0x1",
      "l1BlobBaseFeeScalar": "0xa118b",
      "l1Fee": "0x29488d94",
      "l1GasPrice": "0x176f67b5",
      "l1GasUsed": "0x640"
    },
    {
      "status": "0x1",
      "cumulativeGasUsed": "0x81720",
      "logs": [
        {
          "address": "0x4bf21B3a4297648d13D15801aEc34ACf90b8Fc64",
          "topics": [
            "0x159f10d3da077d18f228d52be447d552e7d1892d10f7af8f615658160e374729"
          ],
          "data": "0x000000000000000000000000bc9c52d087dec5c8e69a2c48b0e8f5ec08e7ede1",
          "blockHash": "0x3a4c479b77d0cefb4d3d830803a51b76c26bcdb046e4cc7c8de571748088926f",
          "blockNumber": "0x11a378e",
          "transactionHash": "0x85751c4fd3976caf6b088b185b65ece1aec5a67997e6747d6b3a61729486b453",
          "transactionIndex": "0x7",
          "logIndex": "0xc",
          "removed": false
        }
      ],
      "logsBloom": "0x00000000000000080000000000000000000000000000000000000000000000000000000000000000000000000200000000000000000000000000000000400000000000000000000000000000000000000000000000000000000000000000000000000000000000000000000000000000001000000000000000000000000000000000000000000000000000000000000000000000000000000000000000000000000000000000000000000040000000000000000000000000000000000000000000000000000000000000000000000000000000000000000000000000000000000000000000000000000000000010000000000000000000000000000000000000",
      "type": "0x2",
      "transactionHash": "0x85751c4fd3976caf6b088b185b65ece1aec5a67997e6747d6b3a61729486b453",
      "transactionIndex": "0x7",
      "blockHash": "0x3a4c479b77d0cefb4d3d830803a51b76c26bcdb046e4cc7c8de571748088926f",
      "blockNumber": "0x11a378e",
      "gasUsed": "0xb871",
      "effectiveGasPrice": "0x40b",
      "from": "0x5AC7577C0B0F8E7f55B9144fBcB64AB4778084d5",
      "to": "0x4bf21B3a4297648d13D15801aEc34ACf90b8Fc64",
      "contractAddress": null,
      "l1BaseFeeScalar": "0x44d",
      "l1BlobBaseFee": "0x1",
      "l1BlobBaseFeeScalar": "0xa118b",
      "l1Fee": "0x29488d94",
      "l1GasPrice": "0x176f67b5",
      "l1GasUsed": "0x640"
    }
  ],
  "libraries": [],
  "pending": [],
  "returns": {},
  "timestamp": 1732759042,
  "chain": 84532,
  "commit": "9056112"
}