{
  "transactions": [
    {
      "hash": "0x7dcb126b9660dc044fd366bba7d50a82622078b2b8bd8bf84ecaedc1040a954b",
      "transactionType": "CREATE",
      "contractName": "Initialize",
      "contractAddress": "0xFD0f73D353a25235F874524C9E204E09911B51D3",
      "function": null,
      "arguments": null,
      "transaction": {
        "from": "0x5AC7577C0B0F8E7f55B9144fBcB64AB4778084d5",
        "gas": "0x2c397",
        "value": "0x0",
        "input": "0x6080604052348015600f57600080fd5b5061018e8061001f6000396000f3fe608060405234801561001057600080fd5b506004361061002b5760003560e01c8063019e272914610030575b600080fd5b6100f461003e366004610112565b7f3b60124079255925a9b0c57f1ed870358d719ce06c4ae9645b74322357c0b403939093557f3b60124079255925a9b0c57f1ed870358d719ce06c4ae9645b74322357c0b405919091557f3b60124079255925a9b0c57f1ed870358d719ce06c4ae9645b74322357c0b40180546001600160a01b039283166001600160a01b0319918216179091557f3b60124079255925a9b0c57f1ed870358d719ce06c4ae9645b74322357c0b4028054929093169116179055565b005b80356001600160a01b038116811461010d57600080fd5b919050565b6000806000806080858703121561012857600080fd5b843593506020850135925061013f604086016100f6565b915061014d606086016100f6565b90509295919450925056fea2646970667358221220cbd59b59430d95614441af48524b3c759bd23d9f81bdacdd7b25050a24a347df64736f6c634300081a0033",
        "nonce": "0x2b5",
        "chainId": "0x14a34"
      },
      "additionalContracts": [],
      "isFixedGasLimit": false
    },
    {
      "hash": "0xf223fa55a54af92e895ed59288ab04389c8e42a6cc9ac3eefa500ee68058e919",
      "transactionType": "CREATE",
      "contractName": "AddApprovedTokens",
      "contractAddress": "0x7f6F4df4E20fd5CB1E85A28fBbe7a9c5BffA7076",
      "function": null,
      "arguments": null,
      "transaction": {
        "from": "0x5AC7577C0B0F8E7f55B9144fBcB64AB4778084d5",
        "gas": "0x4bee6",
        "value": "0x0",
        "input": "0x6080604052348015600f57600080fd5b5061035e8061001f6000396000f3fe608060405234801561001057600080fd5b506004361061002b5760003560e01c8063ffa1a33a14610030575b600080fd5b61004361003e366004610252565b610045565b005b7f3b60124079255925a9b0c57f1ed870358d719ce06c4ae9645b74322357c0b40160005b8281101561024c576000848483818110610085576100856102c9565b905060200201602081019061009a91906102df565b90506001600160a01b0381166100b05750610244565b60005b600784015481101561014657816001600160a01b03168460070182815481106100de576100de6102c9565b6000918252602090912001546001600160a01b03160361013e5760405162461bcd60e51b8152602060048201526016602482015275151bdad95b88185b1c9958591e48185c1c1c9bdd995960521b60448201526064015b60405180910390fd5b6001016100b3565b50604051636eb1769f60e11b815233600482015230602482015281906000906001600160a01b0383169063dd62ed3e90604401602060405180830381865afa158015610196573d6000803e3d6000fd5b505050506040513d601f19601f820116820180604052508101906101ba919061030f565b90506000811161020c5760405162461bcd60e51b815260206004820152601760248201527f546f6b656e20616c6c6f77616e6365206973207a65726f0000000000000000006044820152606401610135565b5050600783018054600181018255600091825260209091200180546001600160a01b0319166001600160a01b03929092169190911790555b600101610069565b50505050565b6000806020838503121561026557600080fd5b823567ffffffffffffffff81111561027c57600080fd5b8301601f8101851361028d57600080fd5b803567ffffffffffffffff8111156102a457600080fd5b8560208260051b84010111156102b957600080fd5b6020919091019590945092505050565b634e487b7160e01b600052603260045260246000fd5b6000602082840312156102f157600080fd5b81356001600160a01b038116811461030857600080fd5b9392505050565b60006020828403121561032157600080fd5b505191905056fea26469706673582212202e6f0d740c13fa2d372f501f0a4f73158391ff6323abba453b45d33d93873ddc64736f6c634300081a0033",
        "nonce": "0x2b6",
        "chainId": "0x14a34"
      },
      "additionalContracts": [],
      "isFixedGasLimit": false
    },
    {
      "hash": "0x623cd7420971eacd82534de16dd681843006d0137ef058a69aa1e56663c07209",
      "transactionType": "CREATE",
      "contractName": "CancelInheritance",
      "contractAddress": "0xAa64846Ee7356737c586F2A037E0AF699168eE21",
      "function": null,
      "arguments": null,
      "transaction": {
        "from": "0x5AC7577C0B0F8E7f55B9144fBcB64AB4778084d5",
        "gas": "0x57d75",
        "value": "0x0",
        "input": "0x6080604052348015600f57600080fd5b5061040b8061001f6000396000f3fe608060405234801561001057600080fd5b506004361061002b5760003560e01c8063aa14cc6b14610030575b600080fd5b61003861003a565b005b7f3b60124079255925a9b0c57f1ed870358d719ce06c4ae9645b74322357c0b40180546001600160a01b031633146100c75760405162461bcd60e51b815260206004820152602560248201527f4f6e6c7920746865206f776e65722063616e2063616e63656c20696e6865726960448201526474616e636560d81b60648201526084015b60405180910390fd5b600781015461010d5760405162461bcd60e51b81526020600482015260126024820152714e6f20617070726f76656420746f6b656e7360701b60448201526064016100be565b6003810154610100900460ff16156101675760405162461bcd60e51b815260206004820152601a60248201527f436f6e747261637420697320616c7265616479206b696c6c656400000000000060448201526064016100be565b60005b60078201548110156102d057600082600701828154811061018d5761018d61032e565b60009182526020822001546040516370a0823160e01b81523060048201526001600160a01b03909116925082906370a0823190602401602060405180830381865afa1580156101e0573d6000803e3d6000fd5b505050506040513d601f19601f820116820180604052508101906102049190610344565b905080156102c657835460405163a9059cbb60e01b81526001600160a01b039182166004820152602481018390529083169063a9059cbb906044016020604051808303816000875af115801561025e573d6000803e3d6000fd5b505050506040513d601f19601f82011682018060405250810190610282919061035d565b6102c65760405162461bcd60e51b8152602060048201526015602482015274151bdad95b881d1c985b9cd9995c8819985a5b1959605a1b60448201526064016100be565b505060010161016a565b5060038101805461ff00191661010017905580546040516001600160a01b03909116907fab0a913ab4dd78ca2bbd7ceca1e2d18600fba897fc0c92bfc1c94e80c0190d0490610323906007850190610386565b60405180910390a250565b634e487b7160e01b600052603260045260246000fd5b60006020828403121561035657600080fd5b5051919050565b60006020828403121561036f57600080fd5b8151801515811461037f57600080fd5b9392505050565b602080825282548282018190526000848152918220906040840190835b818110156103ca5783546001600160a01b03168352600193840193602090930192016103a3565b50909594505050505056fea26469706673582212206267e634b74a7f706820212214b7d5ca1a1f0dfaec9bce8f5a1366060828de3264736f6c634300081a0033",
        "nonce": "0x2b7",
        "chainId": "0x14a34"
      },
      "additionalContracts": [],
      "isFixedGasLimit": false
    },
    {
      "hash": "0x29761e41676f90a4cf8e06d8d6b362feb19a3fb5736707de149304bc2c25e248",
      "transactionType": "CREATE",
      "contractName": "WithdrawTokens",
      "contractAddress": "0xDC9F4EF96610e6E40970A65288Dfc7Fd3B575d31",
      "function": null,
      "arguments": null,
      "transaction": {
        "from": "0x5AC7577C0B0F8E7f55B9144fBcB64AB4778084d5",
        "gas": "0xe3705",
        "value": "0x0",
        "input": "0x6080604052348015600f57600080fd5b50610c018061001f6000396000f3fe608060405234801561001057600080fd5b506004361061002b5760003560e01c8063985e127c14610030575b600080fd5b61004361003e366004610734565b610045565b005b8382146100a45760405162461bcd60e51b815260206004820152602260248201527f546f6b656e7320616e6420616d6f756e7473206c656e677468206d69736d61746044820152610c6d60f31b60648201526084015b60405180910390fd5b7f3b60124079255925a9b0c57f1ed870358d719ce06c4ae9645b74322357c0b40160006100de6100d9368590038501856108e4565b6106a2565b600383015490915060ff1680156100ff57506003820154610100900460ff16155b6101605760405162461bcd60e51b815260206004820152602c60248201527f436f6e7472616374206973206e6f7420696e206c6f636b65642073746174652060448201526b1bdc881a5cc81ada5b1b195960a21b606482015260840161009b565b816004015482600501546101749190610997565b4210156101c35760405162461bcd60e51b815260206004820152601960248201527f4c6f636b20706572696f6420686173206e6f7420656e64656400000000000000604482015260640161009b565b600081815260088301602052604090205460ff16156102195760405162461bcd60e51b8152602060048201526012602482015271141c9bdbd988185b1c9958591e481d5cd95960721b604482015260640161009b565b6002820154610100840135146102715760405162461bcd60e51b815260206004820152601c60248201527f496e76616c69642070726f6f663a2068617368206d69736d6174636800000000604482015260640161009b565b60005b86811015610396576000888883818110610290576102906109be565b90506020020160208101906102a591906109f0565b6001600160a01b03161461038e576000805b6007850154811015610333578460070181815481106102d8576102d86109be565b6000918252602090912001546001600160a01b03168a8a858181106102ff576102ff6109be565b905060200201602081019061031491906109f0565b6001600160a01b03160361032b5760019150610333565b6001016102b7565b508061038c5760405162461bcd60e51b815260206004820152602260248201527f546f6b656e207468617420646964206e6f74206c6f636b2077617320666f756e604482015261321760f11b606482015260840161009b565b505b600101610274565b506001820154604080516343753b4d60e01b81526001600160a01b03909216916343753b4d916103d891879182019060c0830190610100840190600401610a12565b602060405180830381865afa1580156103f5573d6000803e3d6000fd5b505050506040513d601f19601f820116820180604052508101906104199190610a62565b6104585760405162461bcd60e51b815260206004820152601060248201526f24b73b30b634b2102d2590383937b7b360811b604482015260640161009b565b60008181526008830160205260408120805460ff191660011790555b86811015610651576000888883818110610490576104906109be565b90506020020160208101906104a591906109f0565b6001600160a01b0316146106495760008888838181106104c7576104c76109be565b90506020020160208101906104dc91906109f0565b6040516370a0823160e01b81523060048201529091506000906001600160a01b038316906370a0823190602401602060405180830381865afa158015610526573d6000803e3d6000fd5b505050506040513d601f19601f8201168201806040525081019061054a9190610a84565b9050600081898986818110610561576105616109be565b905060200201351161058b5788888581811061057f5761057f6109be565b9050602002013561058d565b815b60405163a9059cbb60e01b8152336004820152602481018290529091506001600160a01b0384169063a9059cbb906044016020604051808303816000875af11580156105dd573d6000803e3d6000fd5b505050506040513d601f19601f820116820180604052508101906106019190610a62565b6106455760405162461bcd60e51b8152602060048201526015602482015274151bdad95b881d1c985b9cd9995c8819985a5b1959605a1b604482015260640161009b565b5050505b600101610474565b50336001600160a01b03167fac36971df326c5d24b63183927b8fe4cf71b792277ff128d73f0729a653323e3888888886040516106919493929190610a9d565b60405180910390a250505050505050565b600081600001518260200151836040015184606001516040516020016106cb9493929190610b42565b604051602081830303815290604052805190602001209050919050565b60008083601f8401126106fa57600080fd5b50813567ffffffffffffffff81111561071257600080fd5b6020830191508360208260051b850101111561072d57600080fd5b9250929050565b600080600080600085870361016081121561074e57600080fd5b863567ffffffffffffffff81111561076557600080fd5b61077189828a016106e8565b909750955050602087013567ffffffffffffffff81111561079157600080fd5b61079d89828a016106e8565b909550935050610120603f19820112156107b657600080fd5b506040860190509295509295909350565b634e487b7160e01b600052604160045260246000fd5b6040516080810167ffffffffffffffff81118282101715610800576108006107c7565b60405290565b604051601f8201601f1916810167ffffffffffffffff8111828210171561082f5761082f6107c7565b604052919050565b600082601f83011261084857600080fd5b60006108546040610806565b905080604084018581111561086857600080fd5b845b8181101561088257803583526020928301920161086a565b509195945050505050565b600082601f83011261089e57600080fd5b600060206108ab81610806565b91508160208501868111156108bf57600080fd5b855b818110156108d857803583529183019183016108c1565b50929695505050505050565b60006101208284031280156108f857600080fd5b5060006109036107dd565b61090d8585610837565b815284605f85011261091d578182fd5b604061092881610806565b8060c0870188811115610939578586fd5b6040880195505b80861015610963576109528987610837565b835294830194602090920191610940565b8160208601526109738982610837565b60408601525050505061098a85610100860161088d565b6060820152949350505050565b808201808211156109b857634e487b7160e01b600052601160045260246000fd5b92915050565b634e487b7160e01b600052603260045260246000fd5b80356001600160a01b03811681146109eb57600080fd5b919050565b600060208284031215610a0257600080fd5b610a0b826109d4565b9392505050565b61012081016040868337604082018560005b6002811015610a455760408284376040928301929190910190600101610a24565b50505060408460c084013760208361010084013795945050505050565b600060208284031215610a7457600080fd5b81518015158114610a0b57600080fd5b600060208284031215610a9657600080fd5b5051919050565b6040808252810184905260008560608301825b87811015610ade576001600160a01b03610ac9846109d4565b16825260209283019290910190600101610ab0565b5083810360208501528481526001600160fb1b03851115610afe57600080fd5b8460051b915081866020830137016020019695505050505050565b8060005b6002811015610b3c578151845260209384019390910190600101610b1d565b50505050565b610b4c8186610b19565b6000604082018560005b6002811015610b8057610b6a838351610b19565b6040929092019160209190910190600101610b56565b505050610b9060c0830185610b19565b61010082018360005b6001811015610bb8578151835260209283019290910190600101610b99565b505050610120820190509594505050505056fea2646970667358221220c779f6b4d95ad6a9778d8c7bd5a0699492740aca0c979be1a53e8779eb0688b364736f6c634300081a0033",
        "nonce": "0x2b8",
        "chainId": "0x14a34"
      },
      "additionalContracts": [],
      "isFixedGasLimit": false
    },
    {
      "hash": "0xfe1c8c0bd85a6ba1a7fd56495d13b5f99fb31fe1a00df81500dc77ee0ecadb89",
      "transactionType": "CREATE",
      "contractName": "InitiateInheritance",
      "contractAddress": "0x8fD1BD8E8e4E338C0485b5358CafEf490C249787",
      "function": null,
      "arguments": null,
      "transaction": {
        "from": "0x5AC7577C0B0F8E7f55B9144fBcB64AB4778084d5",
        "gas": "0xd2a35",
        "value": "0x0",
        "input": "0x6080604052348015600f57600080fd5b50610b0c8061001f6000396000f3fe608060405234801561001057600080fd5b506004361061002b5760003560e01c8063e6424a5e14610030575b600080fd5b61004361003e366004610721565b610045565b005b7f3b60124079255925a9b0c57f1ed870358d719ce06c4ae9645b74322357c0b401600061007f61007a3685900385018561085a565b6106c1565b600383015490915060ff16156100ea5760405162461bcd60e51b815260206004820152602560248201527f496e6865726974616e63652070726f6365737320616c726561647920696e69746044820152641a585d195960da1b60648201526084015b60405180910390fd5b6003820154610100900460ff16156101445760405162461bcd60e51b815260206004820152601e60248201527f496e6865726974616e636520636f6e7472616374206973206b696c6c6564000060448201526064016100e1565b600081815260088301602052604090205460ff161561019a5760405162461bcd60e51b8152602060048201526012602482015271141c9bdbd988185b1c9958591e481d5cd95960721b60448201526064016100e1565b6002820154610100840135146101f25760405162461bcd60e51b815260206004820152601c60248201527f496e76616c69642070726f6f663a2068617368206d69736d617463680000000060448201526064016100e1565b6001820154604080516343753b4d60e01b81526001600160a01b03909216916343753b4d9161023391879182019060c0830190610100840190600401610923565b602060405180830381865afa158015610250573d6000803e3d6000fd5b505050506040513d601f19601f820116820180604052508101906102749190610973565b6102b35760405162461bcd60e51b815260206004820152601060248201526f24b73b30b634b2102d2590383937b7b360811b60448201526064016100e1565b60008181526008830160205260408120805460ff191660011790555b60078301548110156105985760008360070182815481106102f2576102f261090d565b60009182526020822001548554604051636eb1769f60e11b81526001600160a01b03918216600482015230602482015291169250829063dd62ed3e90604401602060405180830381865afa15801561034e573d6000803e3d6000fd5b505050506040513d601f19601f82011682018060405250810190610372919061099c565b9050806000036104415760078501805461038e906001906109cb565b8154811061039e5761039e61090d565b6000918252602090912001546007860180546001600160a01b0390921691859081106103cc576103cc61090d565b9060005260206000200160006101000a8154816001600160a01b0302191690836001600160a01b031602179055508460070180548061040d5761040d6109de565b600082815260209020810160001990810180546001600160a01b031916905501905582610439816109f4565b935050610583565b84546040516370a0823160e01b81526001600160a01b0391821660048201526000918416906370a0823190602401602060405180830381865afa15801561048c573d6000803e3d6000fd5b505050506040513d601f19601f820116820180604052508101906104b0919061099c565b905060006104be8383610707565b87546040516323b872dd60e01b81526001600160a01b039182166004820152306024820152604481018390529192508516906323b872dd906064016020604051808303816000875af1158015610518573d6000803e3d6000fd5b505050506040513d601f19601f8201168201806040525081019061053c9190610973565b6105805760405162461bcd60e51b8152602060048201526015602482015274151bdad95b881d1c985b9cd9995c8819985a5b1959605a1b60448201526064016100e1565b50505b5050808061059090610a0b565b9150506102cf565b506001820154825460405163247830b760e11b81526001600160a01b0391821660048201529116906348f0616e906024016020604051808303816000875af11580156105e8573d6000803e3d6000fd5b505050506040513d601f19601f8201168201806040525081019061060c9190610973565b6106585760405162461bcd60e51b815260206004820152601c60248201527f507573682073656e644e6f74696669636174696f6e206661696c65640000000060448201526064016100e1565b426005830181905560038301805460ff1916600117905582546040516001600160a01b03909116917f7a0f49890d59fc33e7e656a749b3fe9fd171e07359ee7104abb21f18243539d9916106b491858252602082015260400190565b60405180910390a2505050565b600081600001518260200151836040015184606001516040516020016106ea9493929190610a4d565b604051602081830303815290604052805190602001209050919050565b60008183106107165781610718565b825b90505b92915050565b600061012082840312801561073557600080fd5b509092915050565b634e487b7160e01b600052604160045260246000fd5b6040516080810167ffffffffffffffff811182821017156107765761077661073d565b60405290565b604051601f8201601f1916810167ffffffffffffffff811182821017156107a5576107a561073d565b604052919050565b600082601f8301126107be57600080fd5b60006107ca604061077c565b90508060408401858111156107de57600080fd5b845b818110156107f85780358352602092830192016107e0565b509195945050505050565b600082601f83011261081457600080fd5b600060206108218161077c565b915081602085018681111561083557600080fd5b855b8181101561084e5780358352918301918301610837565b50929695505050505050565b600061012082840312801561086e57600080fd5b506000610879610753565b61088385856107ad565b815284605f850112610893578182fd5b604061089e8161077c565b8060c08701888111156108af578586fd5b6040880195505b808610156108d9576108c889876107ad565b8352948301946020909201916108b6565b8160208601526108e989826107ad565b604086015250505050610900856101008601610803565b6060820152949350505050565b634e487b7160e01b600052603260045260246000fd5b61012081016040868337604082018560005b60028110156109565760408284376040928301929190910190600101610935565b50505060408460c084013760208361010084013795945050505050565b60006020828403121561098557600080fd5b8151801515811461099557600080fd5b9392505050565b6000602082840312156109ae57600080fd5b5051919050565b634e487b7160e01b600052601160045260246000fd5b8181038181111561071b5761071b6109b5565b634e487b7160e01b600052603160045260246000fd5b600081610a0357610a036109b5565b506000190190565b600060018201610a1d57610a1d6109b5565b5060010190565b8060005b6002811015610a47578151845260209384019390910190600101610a28565b50505050565b610a578186610a24565b6000604082018560005b6002811015610a8b57610a75838351610a24565b6040929092019160209190910190600101610a61565b505050610a9b60c0830185610a24565b61010082018360005b6001811015610ac3578151835260209283019290910190600101610aa4565b505050610120820190509594505050505056fea26469706673582212202e85b75f6dfcbd7d3344522eeec3656b7704db7db844e92e9f8137295cff1a3164736f6c634300081a0033",
        "nonce": "0x2b9",
        "chainId": "0x14a34"
      },
      "additionalContracts": [],
      "isFixedGasLimit": false
    },
    {
      "hash": "0xea40b7ef0cbc14597a6df99400f9bbff85960e08f55958ac6aaacbe5e65f805e",
      "transactionType": "CREATE",
      "contractName": "InheritanceStateViewer",
      "contractAddress": "0xF5aFF67F7b3D4eDDDF75B5d4b4e08e654B6A52e5",
      "function": null,
      "arguments": null,
      "transaction": {
        "from": "0x5AC7577C0B0F8E7f55B9144fBcB64AB4778084d5",
        "gas": "0x7540e",
        "value": "0x0",
        "input": "0x6080604052348015600f57600080fd5b506105b88061001f6000396000f3fe608060405234801561001057600080fd5b50600436106100a95760003560e01c80638fe8a101116100715780638fe8a1011461017257806396c705e5146101a1578063a4e2d634146101b6578063affed0e0146101e0578063c30a0f2514610207578063d25746081461024957600080fd5b806304554443146100ae57806309bd5a60146100e4578063272aade51461010b57806362c7fa76146101235780638da5cb5b1461014a575b600080fd5b7f3b60124079255925a9b0c57f1ed870358d719ce06c4ae9645b74322357c0b405545b6040519081526020015b60405180910390f35b7f3b60124079255925a9b0c57f1ed870358d719ce06c4ae9645b74322357c0b403546100d1565b610113610251565b60405190151581526020016100db565b7f3b60124079255925a9b0c57f1ed870358d719ce06c4ae9645b74322357c0b406546100d1565b600080516020610563833981519152546040516001600160a01b0390911681526020016100db565b7f3b60124079255925a9b0c57f1ed870358d719ce06c4ae9645b74322357c0b40454610100900460ff16610113565b6101a96102d3565b6040516100db91906104a7565b7f3b60124079255925a9b0c57f1ed870358d719ce06c4ae9645b74322357c0b4045460ff16610113565b7f3b60124079255925a9b0c57f1ed870358d719ce06c4ae9645b74322357c0b407546100d1565b6101136102153660046104f3565b60009081527f3b60124079255925a9b0c57f1ed870358d719ce06c4ae9645b74322357c0b409602052604090205460ff1690565b610113610345565b7f3b60124079255925a9b0c57f1ed870358d719ce06c4ae9645b74322357c0b405547f3b60124079255925a9b0c57f1ed870358d719ce06c4ae9645b74322357c0b406546000916000805160206105638339815191529183916102b39161050c565b600383015490915060ff166102cb5760009250505090565b421192915050565b606060008051602061056383398151915260070180548060200260200160405190810160405280929190818152602001828054801561033b57602002820191906000526020600020905b81546001600160a01b0316815260019091019060200180831161031d575b5050505050905090565b7f3b60124079255925a9b0c57f1ed870358d719ce06c4ae9645b74322357c0b4088054604080516020808402820181019092528281526000936000805160206105638339815191529385938301828280156103c957602002820191906000526020600020905b81546001600160a01b031681526001909101906020018083116103ab575b5050505060038401549192505060ff166103e65760009250505090565b60005b815181101561049d57600082828151811061040657610406610533565b60209081029190910101516040516370a0823160e01b81523060048201529091506000906001600160a01b038316906370a0823190602401602060405180830381865afa15801561045b573d6000803e3d6000fd5b505050506040513d601f19601f8201168201806040525081019061047f9190610549565b905080156104935760009550505050505090565b50506001016103e9565b5060019250505090565b602080825282518282018190526000918401906040840190835b818110156104e85783516001600160a01b03168352602093840193909201916001016104c1565b509095945050505050565b60006020828403121561050557600080fd5b5035919050565b8082018082111561052d57634e487b7160e01b600052601160045260246000fd5b92915050565b634e487b7160e01b600052603260045260246000fd5b60006020828403121561055b57600080fd5b505191905056fe3b60124079255925a9b0c57f1ed870358d719ce06c4ae9645b74322357c0b401a2646970667358221220f53d62a10031d21c36a21b4f375d32eaf5cb841ae3ad3cd1ed033f56a30f5cf964736f6c634300081a0033",
        "nonce": "0x2ba",
        "chainId": "0x14a34"
      },
      "additionalContracts": [],
      "isFixedGasLimit": false
    },
    {
      "hash": "0x4dd78cf3d552c55a3f88a9286cf417dbfa1a8fbcab8deb8adb1fa8d0cf371030",
      "transactionType": "CREATE",
      "contractName": "InheritanceFacade",
      "contractAddress": "0x39f13A85db2C8E0dd5302Cbe01cA38F5cB652a4e",
      "function": null,
      "arguments": null,
      "transaction": {
        "from": "0x5AC7577C0B0F8E7f55B9144fBcB64AB4778084d5",
        "gas": "0x54bf8",
        "value": "0x0",
        "input": "0x6080604052348015600f57600080fd5b506103de8061001f6000396000f3fe608060405234801561001057600080fd5b50600436106101005760003560e01c8063a4e2d63411610097578063c30a0f2511610066578063c30a0f2514610174578063d257460814610119578063e6424a5e14610188578063ffa1a33a1461019957600080fd5b8063a4e2d63414610119578063a6ab36f214610161578063aa14cc6b1461015f578063affed0e01461010557600080fd5b80638da5cb5b116100d35780638da5cb5b1461012c5780638fe8a1011461011957806396c705e51461013b578063985e127c1461014a57600080fd5b8063045544431461010557806309bd5a6014610105578063272aade51461011957806362c7fa7614610105575b600080fd5b604051600081526020015b60405180910390f35b60005b6040519015158152602001610110565b60405160008152602001610110565b606060405161011091906101ab565b61015f61015836600461025c565b5050505050565b005b61015f61016f3660046102e4565b505050565b61011c610182366004610329565b50600090565b61015f610196366004610342565b50565b61015f6101a7366004610366565b5050565b602080825282518282018190526000918401906040840190835b818110156101ec5783516001600160a01b03168352602093840193909201916001016101c5565b509095945050505050565b60008083601f84011261020957600080fd5b50813567ffffffffffffffff81111561022157600080fd5b6020830191508360208260051b850101111561023c57600080fd5b9250929050565b6000610120828403121561025657600080fd5b50919050565b6000806000806000610160868803121561027557600080fd5b853567ffffffffffffffff81111561028c57600080fd5b610298888289016101f7565b909650945050602086013567ffffffffffffffff8111156102b857600080fd5b6102c4888289016101f7565b90945092506102d890508760408801610243565b90509295509295909350565b6000806000606084860312156102f957600080fd5b833592506020840135915060408401356001600160a01b038116811461031e57600080fd5b809150509250925092565b60006020828403121561033b57600080fd5b5035919050565b6000610120828403121561035557600080fd5b61035f8383610243565b9392505050565b6000806020838503121561037957600080fd5b823567ffffffffffffffff81111561039057600080fd5b61039c858286016101f7565b9096909550935050505056fea26469706673582212200d21cb0791b818e865c42f9a8588137fb84662321f9bfaa35d07a5cf16e467ee64736f6c634300081a0033",
        "nonce": "0x2bb",
        "chainId": "0x14a34"
      },
      "additionalContracts": [],
      "isFixedGasLimit": false
    },
    {
      "hash": "0xa100a4cf23034b0dec3f614234a2da392715515fb2484ca2881474abdb10824b",
      "transactionType": "CREATE",
      "contractName": "Dictionary_0",
      "contractAddress": "0xCCc8b365126200d924dFeDAE53d11EF074Afb15F",
      "function": null,
      "arguments": [
        "0x5AC7577C0B0F8E7f55B9144fBcB64AB4778084d5"
      ],
      "transaction": {
        "from": "0x5AC7577C0B0F8E7f55B9144fBcB64AB4778084d5",
        "gas": "0xa7856",
        "value": "0x0",
        "input": "0x608060405234801561001057600080fd5b5060405161091438038061091483398101604081905261002f916100c0565b806001600160a01b03811661005e57604051631e4fbdf760e01b81526000600482015260240160405180910390fd5b6100678161006e565b50506100f0565b600380546001600160a01b038381166001600160a01b0319831681179093556040519116919082907f8be0079c531659141344cd1fd0a4f28419497f9722a3daafe3b4186f6b6457e090600090a35050565b6000602082840312156100d257600080fd5b81516001600160a01b03811681146100e957600080fd5b9392505050565b610815806100ff6000396000f3fe608060405234801561001057600080fd5b50600436106100935760003560e01c8063715018a611610066578063715018a61461012f5780638da5cb5b14610137578063a5954dd714610148578063dc9cc6451461015d578063f2fde38b1461017057600080fd5b806301ffc9a7146100985780630815f6fd146100e25780635c60da1b146100f7578063651dc03d1461011c575b600080fd5b6100cd6100a63660046106f5565b6001600160e01b0319166000908152602081905260409020546001600160a01b0316151590565b60405190151581526020015b60405180910390f35b6100f56100f036600461072e565b610183565b005b6002546001600160a01b03165b6040516001600160a01b0390911681526020016100d9565b6100f561012a366004610761565b610199565b6100f56101ad565b6003546001600160a01b0316610104565b6101506101c1565b6040516100d9919061077c565b61010461016b3660046106f5565b610246565b6100f561017e366004610761565b6102df565b61018b61031a565b6101958282610347565b5050565b6101a161031a565b6101aa81610371565b50565b6101b561031a565b6101bf60006103c6565b565b6060600180548060200260200160405190810160405280929190818152602001828054801561023c57602002820191906000526020600020906000905b82829054906101000a900460e01b6001600160e01b031916815260200190600401906020826003010492830192600103820291508084116101fe5790505b5050505050905090565b6001600160e01b031981166000908152602081905260408120546001600160a01b031680156102755792915050565b5060008080526020527fad3228b676f7d3cd4284a5443f17f1962b36e491b30a40b2405849e597ba5fb5546001600160a01b031680156102b55792915050565b60405163404ceef760e11b81526001600160e01b0319841660048201526024015b60405180910390fd5b6102e761031a565b6001600160a01b03811661031157604051631e4fbdf760e01b8152600060048201526024016102d6565b6101aa816103c6565b6003546001600160a01b031633146101bf5760405163118cdaa760e01b81523360048201526024016102d6565b6001600160a01b03811661035e5761019582610418565b61036782610514565b61019582826105bb565b600280546001600160a01b0319166001600160a01b0383169081179091556040519081527f159f10d3da077d18f228d52be447d552e7d1892d10f7af8f615658160e374729906020015b60405180910390a150565b600380546001600160a01b038381166001600160a01b0319831681179093556040519116919082907f8be0079c531659141344cd1fd0a4f28419497f9722a3daafe3b4186f6b6457e090600090a35050565b60005b6001548110156104bd57816001600160e01b03191660018281548110610443576104436107c9565b90600052602060002090600891828204019190066004029054906101000a900460e01b6001600160e01b031916036104b55760018181548110610488576104886107c9565b90600052602060002090600891828204019190066004026101000a81549063ffffffff02191690556104bd565b60010161041b565b506001600160e01b031981166000818152602081815260409182902080546001600160a01b031916905590519182527fb0f2f3a9229724df0b95683e95488b72aed817bc1a5bd6fe1d2e7504e92871cb91016103bb565b61051d81610660565b156105255750565b6001805480820182556000919091527fb10e2d527612073b26eecdfd717e6a320cf44b4afac2b0732d9fcbe2b7fa0cf66008820401805463ffffffff60079093166004026101000a928302191660e084901c929092029190911790556040516001600160e01b0319821681527fbe533f538959a17d76f1b09e966e741ee3b1183099682f96216c93d21feaecba906020016103bb565b806001600160a01b03163b6000036105f157604051630c76093760e01b81526001600160a01b03821660048201526024016102d6565b6001600160e01b031982166000818152602081815260409182902080546001600160a01b0319166001600160a01b0386169081179091558251938452908301527fda3c8142b3c1d27633026f55bfcb4eeb0b5b8db0daa0a3e10c2213a441722ad1910160405180910390a15050565b6000805b6001548110156106cf57826001600160e01b0319166001828154811061068c5761068c6107c9565b90600052602060002090600891828204019190066004029054906101000a900460e01b6001600160e01b031916036106c75750600192915050565b600101610664565b50600092915050565b80356001600160e01b0319811681146106f057600080fd5b919050565b60006020828403121561070757600080fd5b610710826106d8565b9392505050565b80356001600160a01b03811681146106f057600080fd5b6000806040838503121561074157600080fd5b61074a836106d8565b915061075860208401610717565b90509250929050565b60006020828403121561077357600080fd5b61071082610717565b602080825282518282018190526000918401906040840190835b818110156107be5783516001600160e01b031916835260209384019390920191600101610796565b509095945050505050565b634e487b7160e01b600052603260045260246000fdfea264697066735822122030e03adf87fe5bf67b35fe3db01417128809f7583f8c66cea25eada57ba43bce64736f6c634300081a00330000000000000000000000005ac7577c0b0f8e7f55b9144fbcb64ab4778084d5",
        "nonce": "0x2bc",
        "chainId": "0x14a34"
      },
      "additionalContracts": [],
      "isFixedGasLimit": false
    },
    {
      "hash": "0xddd6be7a5ef4ac160f96882f6b71baf966f3e7c459d11fbe0aef28a315283b80",
      "transactionType": "CALL",
      "contractName": "Dictionary_0",
      "contractAddress": "0xCCc8b365126200d924dFeDAE53d11EF074Afb15F",
      "function": "setImplementation(bytes4,address)",
      "arguments": [
        "0x019e2729",
        "0xFD0f73D353a25235F874524C9E204E09911B51D3"
      ],
      "transaction": {
        "from": "0x5AC7577C0B0F8E7f55B9144fBcB64AB4778084d5",
        "to": "0xCCc8b365126200d924dFeDAE53d11EF074Afb15F",
        "gas": "0x206fc",
        "value": "0x0",
        "input": "0x0815f6fd019e272900000000000000000000000000000000000000000000000000000000000000000000000000000000fd0f73d353a25235f874524c9e204e09911b51d3",
        "nonce": "0x2bd",
        "chainId": "0x14a34"
      },
      "additionalContracts": [],
      "isFixedGasLimit": false
    },
    {
      "hash": "0xd7c435f71823324e3932e60efdcee0887d0d998896d9dc8db135b6407fc4deff",
      "transactionType": "CALL",
      "contractName": "Dictionary_0",
      "contractAddress": "0xCCc8b365126200d924dFeDAE53d11EF074Afb15F",
      "function": "setImplementation(bytes4,address)",
      "arguments": [
        "0xffa1a33a",
        "0x7f6F4df4E20fd5CB1E85A28fBbe7a9c5BffA7076"
      ],
      "transaction": {
        "from": "0x5AC7577C0B0F8E7f55B9144fBcB64AB4778084d5",
        "to": "0xCCc8b365126200d924dFeDAE53d11EF074Afb15F",
        "gas": "0x151c0",
        "value": "0x0",
        "input": "0x0815f6fdffa1a33a000000000000000000000000000000000000000000000000000000000000000000000000000000007f6f4df4e20fd5cb1e85a28fbbe7a9c5bffa7076",
        "nonce": "0x2be",
        "chainId": "0x14a34"
      },
      "additionalContracts": [],
      "isFixedGasLimit": false
    },
    {
      "hash": "0x797ab5841e5b65e5d5440e68040238abd3f20992ca2c33c30706761771aaf5ce",
      "transactionType": "CALL",
      "contractName": "Dictionary_0",
      "contractAddress": "0xCCc8b365126200d924dFeDAE53d11EF074Afb15F",
      "function": "setImplementation(bytes4,address)",
      "arguments": [
        "0xaa14cc6b",
        "0xAa64846Ee7356737c586F2A037E0AF699168eE21"
      ],
      "transaction": {
        "from": "0x5AC7577C0B0F8E7f55B9144fBcB64AB4778084d5",
        "to": "0xCCc8b365126200d924dFeDAE53d11EF074Afb15F",
        "gas": "0x1691b",
        "value": "0x0",
        "input": "0x0815f6fdaa14cc6b00000000000000000000000000000000000000000000000000000000000000000000000000000000aa64846ee7356737c586f2a037e0af699168ee21",
        "nonce": "0x2bf",
        "chainId": "0x14a34"
      },
      "additionalContracts": [],
      "isFixedGasLimit": false
    },
    {
      "hash": "0xdb5b064cf7db3c401fe1ccfc4bc95daa21e1510f730b5601c88f90f311720d57",
      "transactionType": "CALL",
      "contractName": "Dictionary_0",
      "contractAddress": "0xCCc8b365126200d924dFeDAE53d11EF074Afb15F",
      "function": "setImplementation(bytes4,address)",
      "arguments": [
        "0x985e127c",
        "0xDC9F4EF96610e6E40970A65288Dfc7Fd3B575d31"
      ],
      "transaction": {
        "from": "0x5AC7577C0B0F8E7f55B9144fBcB64AB4778084d5",
        "to": "0xCCc8b365126200d924dFeDAE53d11EF074Afb15F",
        "gas": "0x16c96",
        "value": "0x0",
        "input": "0x0815f6fd985e127c00000000000000000000000000000000000000000000000000000000000000000000000000000000dc9f4ef96610e6e40970a65288dfc7fd3b575d31",
        "nonce": "0x2c0",
        "chainId": "0x14a34"
      },
      "additionalContracts": [],
      "isFixedGasLimit": false
    },
    {
      "hash": "0x07b67c91169675a62967234f0b1178fffc24ae5ec6dc7b864090e2f0261a1514",
      "transactionType": "CALL",
      "contractName": "Dictionary_0",
      "contractAddress": "0xCCc8b365126200d924dFeDAE53d11EF074Afb15F",
      "function": "setImplementation(bytes4,address)",
      "arguments": [
        "0xe6424a5e",
        "0x8fD1BD8E8e4E338C0485b5358CafEf490C249787"
      ],
      "transaction": {
        "from": "0x5AC7577C0B0F8E7f55B9144fBcB64AB4778084d5",
        "to": "0xCCc8b365126200d924dFeDAE53d11EF074Afb15F",
        "gas": "0x15b9f",
        "value": "0x0",
        "input": "0x0815f6fde6424a5e000000000000000000000000000000000000000000000000000000000000000000000000000000008fd1bd8e8e4e338c0485b5358cafef490c249787",
        "nonce": "0x2c1",
        "chainId": "0x14a34"
      },
      "additionalContracts": [],
      "isFixedGasLimit": false
    },
    {
      "hash": "0xe008d7270d4085ce6fae28ccd57b104589fe263779713080a23a038a3c476bd1",
      "transactionType": "CALL",
      "contractName": "Dictionary_0",
      "contractAddress": "0xCCc8b365126200d924dFeDAE53d11EF074Afb15F",
      "function": "setImplementation(bytes4,address)",
      "arguments": [
        "0x8da5cb5b",
        "0xF5aFF67F7b3D4eDDDF75B5d4b4e08e654B6A52e5"
      ],
      "transaction": {
        "from": "0x5AC7577C0B0F8E7f55B9144fBcB64AB4778084d5",
        "to": "0xCCc8b365126200d924dFeDAE53d11EF074Afb15F",
        "gas": "0x15ee9",
        "value": "0x0",
        "input": "0x0815f6fd8da5cb5b00000000000000000000000000000000000000000000000000000000000000000000000000000000f5aff67f7b3d4edddf75b5d4b4e08e654b6a52e5",
        "nonce": "0x2c2",
        "chainId": "0x14a34"
      },
      "additionalContracts": [],
      "isFixedGasLimit": false
    },
    {
      "hash": "0x2c6ed2458878283078e2a48b170741cbf5f4855e8f153fb3b6f80f51712e0569",
      "transactionType": "CALL",
      "contractName": "Dictionary_0",
      "contractAddress": "0xCCc8b365126200d924dFeDAE53d11EF074Afb15F",
      "function": "setImplementation(bytes4,address)",
      "arguments": [
        "0x09bd5a60",
        "0xF5aFF67F7b3D4eDDDF75B5d4b4e08e654B6A52e5"
      ],
      "transaction": {
        "from": "0x5AC7577C0B0F8E7f55B9144fBcB64AB4778084d5",
        "to": "0xCCc8b365126200d924dFeDAE53d11EF074Afb15F",
        "gas": "0x1770b",
        "value": "0x0",
        "input": "0x0815f6fd09bd5a6000000000000000000000000000000000000000000000000000000000000000000000000000000000f5aff67f7b3d4edddf75b5d4b4e08e654b6a52e5",
        "nonce": "0x2c3",
        "chainId": "0x14a34"
      },
      "additionalContracts": [],
      "isFixedGasLimit": false
    },
    {
      "hash": "0xfde777f70f1e431252877ea0cfb4903d7e833ffa9115b9f3624d7f4619bea9b5",
      "transactionType": "CALL",
      "contractName": "Dictionary_0",
      "contractAddress": "0xCCc8b365126200d924dFeDAE53d11EF074Afb15F",
      "function": "setImplementation(bytes4,address)",
      "arguments": [
        "0xa4e2d634",
        "0xF5aFF67F7b3D4eDDDF75B5d4b4e08e654B6A52e5"
      ],
      "transaction": {
        "from": "0x5AC7577C0B0F8E7f55B9144fBcB64AB4778084d5",
        "to": "0xCCc8b365126200d924dFeDAE53d11EF074Afb15F",
        "gas": "0x17a87",
        "value": "0x0",
        "input": "0x0815f6fda4e2d63400000000000000000000000000000000000000000000000000000000000000000000000000000000f5aff67f7b3d4edddf75b5d4b4e08e654b6a52e5",
        "nonce": "0x2c4",
        "chainId": "0x14a34"
      },
      "additionalContracts": [],
      "isFixedGasLimit": false
    },
    {
      "hash": "0xafe2f856f79e19348abd87f44ff8a3f37c00bd1de7aef7f1469f0b1b926a0275",
      "transactionType": "CALL",
      "contractName": "Dictionary_0",
      "contractAddress": "0xCCc8b365126200d924dFeDAE53d11EF074Afb15F",
      "function": "setImplementation(bytes4,address)",
      "arguments": [
        "0x8fe8a101",
        "0xF5aFF67F7b3D4eDDDF75B5d4b4e08e654B6A52e5"
      ],
      "transaction": {
        "from": "0x5AC7577C0B0F8E7f55B9144fBcB64AB4778084d5",
        "to": "0xCCc8b365126200d924dFeDAE53d11EF074Afb15F",
        "gas": "0x1cf92",
        "value": "0x0",
        "input": "0x0815f6fd8fe8a10100000000000000000000000000000000000000000000000000000000000000000000000000000000f5aff67f7b3d4edddf75b5d4b4e08e654b6a52e5",
        "nonce": "0x2c5",
        "chainId": "0x14a34"
      },
      "additionalContracts": [],
      "isFixedGasLimit": false
    },
    {
      "hash": "0xad3982950a602790e7573d56d56ee06e1b860ecd5dd81f51903b5d3809729cf1",
      "transactionType": "CALL",
      "contractName": "Dictionary_0",
      "contractAddress": "0xCCc8b365126200d924dFeDAE53d11EF074Afb15F",
      "function": "setImplementation(bytes4,address)",
      "arguments": [
        "0x272aade5",
        "0xF5aFF67F7b3D4eDDDF75B5d4b4e08e654B6A52e5"
      ],
      "transaction": {
        "from": "0x5AC7577C0B0F8E7f55B9144fBcB64AB4778084d5",
        "to": "0xCCc8b365126200d924dFeDAE53d11EF074Afb15F",
        "gas": "0x1769a",
        "value": "0x0",
        "input": "0x0815f6fd272aade500000000000000000000000000000000000000000000000000000000000000000000000000000000f5aff67f7b3d4edddf75b5d4b4e08e654b6a52e5",
        "nonce": "0x2c6",
        "chainId": "0x14a34"
      },
      "additionalContracts": [],
      "isFixedGasLimit": false
    },
    {
      "hash": "0x621e989bae6e7cd8ef119ee4b3f2a060588d1262fe650f1cd8f8eab056afc942",
      "transactionType": "CALL",
      "contractName": "Dictionary_0",
      "contractAddress": "0xCCc8b365126200d924dFeDAE53d11EF074Afb15F",
      "function": "setImplementation(bytes4,address)",
      "arguments": [
        "0xd2574608",
        "0xF5aFF67F7b3D4eDDDF75B5d4b4e08e654B6A52e5"
      ],
      "transaction": {
        "from": "0x5AC7577C0B0F8E7f55B9144fBcB64AB4778084d5",
        "to": "0xCCc8b365126200d924dFeDAE53d11EF074Afb15F",
        "gas": "0x179e4",
        "value": "0x0",
        "input": "0x0815f6fdd257460800000000000000000000000000000000000000000000000000000000000000000000000000000000f5aff67f7b3d4edddf75b5d4b4e08e654b6a52e5",
        "nonce": "0x2c7",
        "chainId": "0x14a34"
      },
      "additionalContracts": [],
      "isFixedGasLimit": false
    },
    {
      "hash": "0x4502b3cb96e6592ce8f66685e3040976394a82ed4bb318370f771538d0f23cd2",
      "transactionType": "CALL",
      "contractName": "Dictionary_0",
      "contractAddress": "0xCCc8b365126200d924dFeDAE53d11EF074Afb15F",
      "function": "setImplementation(bytes4,address)",
      "arguments": [
        "0x04554443",
        "0xF5aFF67F7b3D4eDDDF75B5d4b4e08e654B6A52e5"
      ],
      "transaction": {
        "from": "0x5AC7577C0B0F8E7f55B9144fBcB64AB4778084d5",
        "to": "0xCCc8b365126200d924dFeDAE53d11EF074Afb15F",
        "gas": "0x1939c",
        "value": "0x0",
        "input": "0x0815f6fd0455444300000000000000000000000000000000000000000000000000000000000000000000000000000000f5aff67f7b3d4edddf75b5d4b4e08e654b6a52e5",
        "nonce": "0x2c8",
        "chainId": "0x14a34"
      },
      "additionalContracts": [],
      "isFixedGasLimit": false
    },
    {
      "hash": "0x663db6b341fd4f711fb6be2bc25df830306f47950621380097c64bd1712e8c6f",
      "transactionType": "CALL",
      "contractName": "Dictionary_0",
      "contractAddress": "0xCCc8b365126200d924dFeDAE53d11EF074Afb15F",
      "function": "setImplementation(bytes4,address)",
      "arguments": [
        "0x62c7fa76",
        "0xF5aFF67F7b3D4eDDDF75B5d4b4e08e654B6A52e5"
      ],
      "transaction": {
        "from": "0x5AC7577C0B0F8E7f55B9144fBcB64AB4778084d5",
        "to": "0xCCc8b365126200d924dFeDAE53d11EF074Afb15F",
        "gas": "0x19717",
        "value": "0x0",
        "input": "0x0815f6fd62c7fa7600000000000000000000000000000000000000000000000000000000000000000000000000000000f5aff67f7b3d4edddf75b5d4b4e08e654b6a52e5",
        "nonce": "0x2c9",
        "chainId": "0x14a34"
      },
      "additionalContracts": [],
      "isFixedGasLimit": false
    },
    {
      "hash": "0xf3ef283c0e8c3fdf879a0608f2a7941268e9b1a909baa4aca3615f05fd5410f9",
      "transactionType": "CALL",
      "contractName": "Dictionary_0",
      "contractAddress": "0xCCc8b365126200d924dFeDAE53d11EF074Afb15F",
      "function": "setImplementation(bytes4,address)",
      "arguments": [
        "0xaffed0e0",
        "0xF5aFF67F7b3D4eDDDF75B5d4b4e08e654B6A52e5"
      ],
      "transaction": {
        "from": "0x5AC7577C0B0F8E7f55B9144fBcB64AB4778084d5",
        "to": "0xCCc8b365126200d924dFeDAE53d11EF074Afb15F",
        "gas": "0x183c4",
        "value": "0x0",
        "input": "0x0815f6fdaffed0e000000000000000000000000000000000000000000000000000000000000000000000000000000000f5aff67f7b3d4edddf75b5d4b4e08e654b6a52e5",
        "nonce": "0x2ca",
        "chainId": "0x14a34"
      },
      "additionalContracts": [],
      "isFixedGasLimit": false
    },
    {
      "hash": "0x7a4b112c598b1e7a6515871fb08efbaaa9ae0c92f4a52ddeef459ec42347c554",
      "transactionType": "CALL",
      "contractName": "Dictionary_0",
      "contractAddress": "0xCCc8b365126200d924dFeDAE53d11EF074Afb15F",
      "function": "setImplementation(bytes4,address)",
      "arguments": [
        "0x96c705e5",
        "0xF5aFF67F7b3D4eDDDF75B5d4b4e08e654B6A52e5"
      ],
      "transaction": {
        "from": "0x5AC7577C0B0F8E7f55B9144fBcB64AB4778084d5",
        "to": "0xCCc8b365126200d924dFeDAE53d11EF074Afb15F",
        "gas": "0x1870e",
        "value": "0x0",
        "input": "0x0815f6fd96c705e500000000000000000000000000000000000000000000000000000000000000000000000000000000f5aff67f7b3d4edddf75b5d4b4e08e654b6a52e5",
        "nonce": "0x2cb",
        "chainId": "0x14a34"
      },
      "additionalContracts": [],
      "isFixedGasLimit": false
    },
    {
      "hash": "0x1acd730fdea3466ea9c1f0d44c266368f99faee2e92b8daed80d0f12e8df6934",
      "transactionType": "CALL",
      "contractName": "Dictionary_0",
      "contractAddress": "0xCCc8b365126200d924dFeDAE53d11EF074Afb15F",
      "function": "setImplementation(bytes4,address)",
      "arguments": [
        "0xc30a0f25",
        "0xF5aFF67F7b3D4eDDDF75B5d4b4e08e654B6A52e5"
      ],
      "transaction": {
        "from": "0x5AC7577C0B0F8E7f55B9144fBcB64AB4778084d5",
        "to": "0xCCc8b365126200d924dFeDAE53d11EF074Afb15F",
        "gas": "0x1a18c",
        "value": "0x0",
        "input": "0x0815f6fdc30a0f2500000000000000000000000000000000000000000000000000000000000000000000000000000000f5aff67f7b3d4edddf75b5d4b4e08e654b6a52e5",
        "nonce": "0x2cc",
        "chainId": "0x14a34"
      },
      "additionalContracts": [],
      "isFixedGasLimit": false
    },
    {
      "hash": "0x1254cdcde982fa41053bd39a0105c9481f8a379edf6b1990240c0c6180b2378f",
      "transactionType": "CALL",
      "contractName": "Dictionary_0",
      "contractAddress": "0xCCc8b365126200d924dFeDAE53d11EF074Afb15F",
      "function": "upgradeFacade(address)",
      "arguments": [
        "0x39f13A85db2C8E0dd5302Cbe01cA38F5cB652a4e"
      ],
      "transaction": {
        "from": "0x5AC7577C0B0F8E7f55B9144fBcB64AB4778084d5",
        "to": "0xCCc8b365126200d924dFeDAE53d11EF074Afb15F",
        "gas": "0x10dbe",
        "value": "0x0",
        "input": "0x651dc03d00000000000000000000000039f13a85db2c8e0dd5302cbe01ca38f5cb652a4e",
        "nonce": "0x2cd",
        "chainId": "0x14a34"
      },
      "additionalContracts": [],
      "isFixedGasLimit": false
    }
  ],
  "receipts": [
    {
      "status": "0x1",
      "cumulativeGasUsed": "0xecfff",
      "logs": [],
      "logsBloom": "0x00000000000000000000000000000000000000000000000000000000000000000000000000000000000000000000000000000000000000000000000000000000000000000000000000000000000000000000000000000000000000000000000000000000000000000000000000000000000000000000000000000000000000000000000000000000000000000000000000000000000000000000000000000000000000000000000000000000000000000000000000000000000000000000000000000000000000000000000000000000000000000000000000000000000000000000000000000000000000000000000000000000000000000000000000000000",
      "type": "0x2",
      "transactionHash": "0x7dcb126b9660dc044fd366bba7d50a82622078b2b8bd8bf84ecaedc1040a954b",
      "transactionIndex": "0x6",
      "blockHash": "0xb52695b021458f5900b259ae6d67556d6d75fb7d2dd6e73cad79a118fee7eea1",
      "blockNumber": "0x1203935",
      "gasUsed": "0x22069",
      "effectiveGasPrice": "0x368",
      "from": "0x5AC7577C0B0F8E7f55B9144fBcB64AB4778084d5",
      "to": null,
      "contractAddress": "0xFD0f73D353a25235F874524C9E204E09911B51D3",
      "l1BaseFeeScalar": "0x44d",
      "l1BlobBaseFee": "0x1",
      "l1BlobBaseFeeScalar": "0xa118b",
      "l1Fee": "0x4e88b2ed",
      "l1GasPrice": "0xea34457",
      "l1GasUsed": "0x1308"
    },
    {
      "status": "0x1",
      "cumulativeGasUsed": "0x1276c1",
      "logs": [],
      "logsBloom": "0x00000000000000000000000000000000000000000000000000000000000000000000000000000000000000000000000000000000000000000000000000000000000000000000000000000000000000000000000000000000000000000000000000000000000000000000000000000000000000000000000000000000000000000000000000000000000000000000000000000000000000000000000000000000000000000000000000000000000000000000000000000000000000000000000000000000000000000000000000000000000000000000000000000000000000000000000000000000000000000000000000000000000000000000000000000000",
      "type": "0x2",
      "transactionHash": "0xf223fa55a54af92e895ed59288ab04389c8e42a6cc9ac3eefa500ee68058e919",
      "transactionIndex": "0x7",
      "blockHash": "0xb52695b021458f5900b259ae6d67556d6d75fb7d2dd6e73cad79a118fee7eea1",
      "blockNumber": "0x1203935",
      "gasUsed": "0x3a6c2",
      "effectiveGasPrice": "0x368",
      "from": "0x5AC7577C0B0F8E7f55B9144fBcB64AB4778084d5",
      "to": null,
      "contractAddress": "0x7f6F4df4E20fd5CB1E85A28fBbe7a9c5BffA7076",
      "l1BaseFeeScalar": "0x44d",
      "l1BlobBaseFee": "0x1",
      "l1BlobBaseFeeScalar": "0xa118b",
      "l1Fee": "0xac942670",
      "l1GasPrice": "0xea34457",
      "l1GasUsed": "0x29d4"
    },
    {
      "status": "0x1",
      "cumulativeGasUsed": "0x16b024",
      "logs": [],
      "logsBloom": "0x00000000000000000000000000000000000000000000000000000000000000000000000000000000000000000000000000000000000000000000000000000000000000000000000000000000000000000000000000000000000000000000000000000000000000000000000000000000000000000000000000000000000000000000000000000000000000000000000000000000000000000000000000000000000000000000000000000000000000000000000000000000000000000000000000000000000000000000000000000000000000000000000000000000000000000000000000000000000000000000000000000000000000000000000000000000",
      "type": "0x2",
      "transactionHash": "0x623cd7420971eacd82534de16dd681843006d0137ef058a69aa1e56663c07209",
      "transactionIndex": "0x8",
      "blockHash": "0xb52695b021458f5900b259ae6d67556d6d75fb7d2dd6e73cad79a118fee7eea1",
      "blockNumber": "0x1203935",
      "gasUsed": "0x43963",
      "effectiveGasPrice": "0x368",
      "from": "0x5AC7577C0B0F8E7f55B9144fBcB64AB4778084d5",
      "to": null,
      "contractAddress": "0xAa64846Ee7356737c586F2A037E0AF699168eE21",
      "l1BaseFeeScalar": "0x44d",
      "l1BlobBaseFee": "0x1",
      "l1BlobBaseFeeScalar": "0xa118b",
      "l1Fee": "0xc4170351",
      "l1GasPrice": "0xea34457",
      "l1GasUsed": "0x2f87"
    },
    {
      "status": "0x1",
      "cumulativeGasUsed": "0x21a025",
      "logs": [],
      "logsBloom": "0x00000000000000000000000000000000000000000000000000000000000000000000000000000000000000000000000000000000000000000000000000000000000000000000000000000000000000000000000000000000000000000000000000000000000000000000000000000000000000000000000000000000000000000000000000000000000000000000000000000000000000000000000000000000000000000000000000000000000000000000000000000000000000000000000000000000000000000000000000000000000000000000000000000000000000000000000000000000000000000000000000000000000000000000000000000000",
      "type": "0x2",
      "transactionHash": "0x29761e41676f90a4cf8e06d8d6b362feb19a3fb5736707de149304bc2c25e248",
      "transactionIndex": "0x9",
      "blockHash": "0xb52695b021458f5900b259ae6d67556d6d75fb7d2dd6e73cad79a118fee7eea1",
      "blockNumber": "0x1203935",
      "gasUsed": "0xaf001",
      "effectiveGasPrice": "0x368",
      "from": "0x5AC7577C0B0F8E7f55B9144fBcB64AB4778084d5",
      "to": null,
      "contractAddress": "0xDC9F4EF96610e6E40970A65288Dfc7Fd3B575d31",
      "l1BaseFeeScalar": "0x44d",
      "l1BlobBaseFee": "0x1",
      "l1BlobBaseFeeScalar": "0xa118b",
      "l1Fee": "0x1ed1b78f2",
      "l1GasPrice": "0xea34457",
      "l1GasUsed": "0x7785"
    },
    {
      "status": "0x1",
      "cumulativeGasUsed": "0x2bc151",
      "logs": [],
      "logsBloom": "0x00000000000000000000000000000000000000000000000000000000000000000000000000000000000000000000000000000000000000000000000000000000000000000000000000000000000000000000000000000000000000000000000000000000000000000000000000000000000000000000000000000000000000000000000000000000000000000000000000000000000000000000000000000000000000000000000000000000000000000000000000000000000000000000000000000000000000000000000000000000000000000000000000000000000000000000000000000000000000000000000000000000000000000000000000000000",
      "type": "0x2",
      "transactionHash": "0xfe1c8c0bd85a6ba1a7fd56495d13b5f99fb31fe1a00df81500dc77ee0ecadb89",
      "transactionIndex": "0xa",
      "blockHash": "0xb52695b021458f5900b259ae6d67556d6d75fb7d2dd6e73cad79a118fee7eea1",
      "blockNumber": "0x1203935",
      "gasUsed": "0xa212c",
      "effectiveGasPrice": "0x368",
      "from": "0x5AC7577C0B0F8E7f55B9144fBcB64AB4778084d5",
      "to": null,
      "contractAddress": "0x8fD1BD8E8e4E338C0485b5358CafEf490C249787",
      "l1BaseFeeScalar": "0x44d",
      "l1BlobBaseFee": "0x1",
      "l1BlobBaseFeeScalar": "0xa118b",
      "l1Fee": "0x1c29d5821",
      "l1GasPrice": "0xea34457",
      "l1GasUsed": "0x6d38"
    },
    {
      "status": "0x1",
      "cumulativeGasUsed": "0x3164ce",
      "logs": [],
      "logsBloom": "0x00000000000000000000000000000000000000000000000000000000000000000000000000000000000000000000000000000000000000000000000000000000000000000000000000000000000000000000000000000000000000000000000000000000000000000000000000000000000000000000000000000000000000000000000000000000000000000000000000000000000000000000000000000000000000000000000000000000000000000000000000000000000000000000000000000000000000000000000000000000000000000000000000000000000000000000000000000000000000000000000000000000000000000000000000000000",
      "type": "0x2",
      "transactionHash": "0xea40b7ef0cbc14597a6df99400f9bbff85960e08f55958ac6aaacbe5e65f805e",
      "transactionIndex": "0xb",
      "blockHash": "0xb52695b021458f5900b259ae6d67556d6d75fb7d2dd6e73cad79a118fee7eea1",
      "blockNumber": "0x1203935",
      "gasUsed": "0x5a37d",
      "effectiveGasPrice": "0x368",
      "from": "0x5AC7577C0B0F8E7f55B9144fBcB64AB4778084d5",
      "to": null,
      "contractAddress": "0xF5aFF67F7b3D4eDDDF75B5d4b4e08e654B6A52e5",
      "l1BaseFeeScalar": "0x44d",
      "l1BlobBaseFee": "0x1",
      "l1BlobBaseFeeScalar": "0xa118b",
      "l1Fee": "0xe0fe5951",
      "l1GasPrice": "0xea34457",
      "l1GasUsed": "0x3688"
    },
    {
      "status": "0x1",
      "cumulativeGasUsed": "0x35781c",
      "logs": [],
      "logsBloom": "0x00000000000000000000000000000000000000000000000000000000000000000000000000000000000000000000000000000000000000000000000000000000000000000000000000000000000000000000000000000000000000000000000000000000000000000000000000000000000000000000000000000000000000000000000000000000000000000000000000000000000000000000000000000000000000000000000000000000000000000000000000000000000000000000000000000000000000000000000000000000000000000000000000000000000000000000000000000000000000000000000000000000000000000000000000000000",
      "type": "0x2",
      "transactionHash": "0x4dd78cf3d552c55a3f88a9286cf417dbfa1a8fbcab8deb8adb1fa8d0cf371030",
      "transactionIndex": "0xc",
      "blockHash": "0xb52695b021458f5900b259ae6d67556d6d75fb7d2dd6e73cad79a118fee7eea1",
      "blockNumber": "0x1203935",
      "gasUsed": "0x4134e",
      "effectiveGasPrice": "0x368",
      "from": "0x5AC7577C0B0F8E7f55B9144fBcB64AB4778084d5",
      "to": null,
      "contractAddress": "0x39f13A85db2C8E0dd5302Cbe01cA38F5cB652a4e",
      "l1BaseFeeScalar": "0x44d",
      "l1BlobBaseFee": "0x1",
      "l1BlobBaseFeeScalar": "0xa118b",
      "l1Fee": "0xb725e0a2",
      "l1GasPrice": "0xea34457",
      "l1GasUsed": "0x2c64"
    },
    {
      "status": "0x1",
      "cumulativeGasUsed": "0x3d867c",
      "logs": [
        {
          "address": "0xCCc8b365126200d924dFeDAE53d11EF074Afb15F",
          "topics": [
            "0x8be0079c531659141344cd1fd0a4f28419497f9722a3daafe3b4186f6b6457e0",
            "0x0000000000000000000000000000000000000000000000000000000000000000",
            "0x0000000000000000000000005ac7577c0b0f8e7f55b9144fbcb64ab4778084d5"
          ],
          "data": "0x",
          "blockHash": "0xb52695b021458f5900b259ae6d67556d6d75fb7d2dd6e73cad79a118fee7eea1",
          "blockNumber": "0x1203935",
          "transactionHash": "0xa100a4cf23034b0dec3f614234a2da392715515fb2484ca2881474abdb10824b",
          "transactionIndex": "0xd",
          "logIndex": "0xf",
          "removed": false
        }
      ],
      "logsBloom": "0x00000000002000000000000000000000000000000000000000800000000000000000000000000000000000000000000000000000000000000000000000000000000000000000000000000000000000000001000000000000000000000000000000000000020000000000000000000800000000020000000000000000000000400000000000000000000000100000000000000000000000000000000000000000000000000000000000000000000000000400000000000000000000000000000000000000000000000000000000000000000000000000000000000000000020000000080000001000000000000000000000000000000000000000000000000000",
      "type": "0x2",
      "transactionHash": "0xa100a4cf23034b0dec3f614234a2da392715515fb2484ca2881474abdb10824b",
      "transactionIndex": "0xd",
      "blockHash": "0xb52695b021458f5900b259ae6d67556d6d75fb7d2dd6e73cad79a118fee7eea1",
      "blockNumber": "0x1203935",
      "gasUsed": "0x80e60",
      "effectiveGasPrice": "0x368",
      "from": "0x5AC7577C0B0F8E7f55B9144fBcB64AB4778084d5",
      "to": null,
      "contractAddress": "0xCCc8b365126200d924dFeDAE53d11EF074Afb15F",
      "l1BaseFeeScalar": "0x44d",
      "l1BlobBaseFee": "0x1",
      "l1BlobBaseFeeScalar": "0xa118b",
      "l1Fee": "0x17b6f195c",
      "l1GasPrice": "0xea34457",
      "l1GasUsed": "0x5bf7"
    },
    {
      "status": "0x1",
      "cumulativeGasUsed": "0x3efe39",
      "logs": [
        {
          "address": "0xCCc8b365126200d924dFeDAE53d11EF074Afb15F",
          "topics": [
            "0xbe533f538959a17d76f1b09e966e741ee3b1183099682f96216c93d21feaecba"
          ],
          "data": "0x019e272900000000000000000000000000000000000000000000000000000000",
          "blockHash": "0xb52695b021458f5900b259ae6d67556d6d75fb7d2dd6e73cad79a118fee7eea1",
          "blockNumber": "0x1203935",
          "transactionHash": "0xddd6be7a5ef4ac160f96882f6b71baf966f3e7c459d11fbe0aef28a315283b80",
          "transactionIndex": "0xe",
          "logIndex": "0x10",
          "removed": false
        },
        {
          "address": "0xCCc8b365126200d924dFeDAE53d11EF074Afb15F",
          "topics": [
            "0xda3c8142b3c1d27633026f55bfcb4eeb0b5b8db0daa0a3e10c2213a441722ad1"
          ],
          "data": "0x019e272900000000000000000000000000000000000000000000000000000000000000000000000000000000fd0f73d353a25235f874524c9e204e09911b51d3",
          "blockHash": "0xb52695b021458f5900b259ae6d67556d6d75fb7d2dd6e73cad79a118fee7eea1",
          "blockNumber": "0x1203935",
          "transactionHash": "0xddd6be7a5ef4ac160f96882f6b71baf966f3e7c459d11fbe0aef28a315283b80",
          "transactionIndex": "0xe",
          "logIndex": "0x11",
          "removed": false
        }
      ],
      "logsBloom": "0x00000000002000000000000000000000000000000000000000000000000000080000000000000000000000000000000000000000000000000000000000000000000000000000000000000000000000000000000000000000000000000000000000000000000000000000200000000000000000020000000010000000000000000000000000000000000000000000100000000000000000000000000000000000000000000000000000004000080000000000000000000000000000000000000000000000000000000000000000000000000000000000000000000000000000000000080000000000000000000000000000000000000000000000000000000000",
      "type": "0x2",
      "transactionHash": "0xddd6be7a5ef4ac160f96882f6b71baf966f3e7c459d11fbe0aef28a315283b80",
      "transactionIndex": "0xe",
      "blockHash": "0xb52695b021458f5900b259ae6d67556d6d75fb7d2dd6e73cad79a118fee7eea1",
      "blockNumber": "0x1203935",
      "gasUsed": "0x177bd",
      "effectiveGasPrice": "0x368",
      "from": "0x5AC7577C0B0F8E7f55B9144fBcB64AB4778084d5",
      "to": "0xCCc8b365126200d924dFeDAE53d11EF074Afb15F",
      "contractAddress": null,
      "l1BaseFeeScalar": "0x44d",
      "l1BlobBaseFee": "0x1",
      "l1BlobBaseFeeScalar": "0xa118b",
      "l1Fee": "0x19c92fbc",
      "l1GasPrice": "0xea34457",
      "l1GasUsed": "0x640"
    },
    {
      "status": "0x1",
      "cumulativeGasUsed": "0x3ff2c0",
      "logs": [
        {
          "address": "0xCCc8b365126200d924dFeDAE53d11EF074Afb15F",
          "topics": [
            "0xbe533f538959a17d76f1b09e966e741ee3b1183099682f96216c93d21feaecba"
          ],
          "data": "0xffa1a33a00000000000000000000000000000000000000000000000000000000",
          "blockHash": "0xb52695b021458f5900b259ae6d67556d6d75fb7d2dd6e73cad79a118fee7eea1",
          "blockNumber": "0x1203935",
          "transactionHash": "0xd7c435f71823324e3932e60efdcee0887d0d998896d9dc8db135b6407fc4deff",
          "transactionIndex": "0xf",
          "logIndex": "0x12",
          "removed": false
        },
        {
          "address": "0xCCc8b365126200d924dFeDAE53d11EF074Afb15F",
          "topics": [
            "0xda3c8142b3c1d27633026f55bfcb4eeb0b5b8db0daa0a3e10c2213a441722ad1"
          ],
          "data": "0xffa1a33a000000000000000000000000000000000000000000000000000000000000000000000000000000007f6f4df4e20fd5cb1e85a28fbbe7a9c5bffa7076",
          "blockHash": "0xb52695b021458f5900b259ae6d67556d6d75fb7d2dd6e73cad79a118fee7eea1",
          "blockNumber": "0x1203935",
          "transactionHash": "0xd7c435f71823324e3932e60efdcee0887d0d998896d9dc8db135b6407fc4deff",
          "transactionIndex": "0xf",
          "logIndex": "0x13",
          "removed": false
        }
      ],
      "logsBloom": "0x00000000002000000000000000000000000000000000000000000000000000080000000000000000000000000000000000000000000000000000000000000000000000000000000000000000000000000000000000000000000000000000000000000000000000000000200000000000000000020000000010000000000000000000000000000000000000000000100000000000000000000000000000000000000000000000000000004000080000000000000000000000000000000000000000000000000000000000000000000000000000000000000000000000000000000000080000000000000000000000000000000000000000000000000000000000",
      "type": "0x2",
      "transactionHash": "0xd7c435f71823324e3932e60efdcee0887d0d998896d9dc8db135b6407fc4deff",
      "transactionIndex": "0xf",
      "blockHash": "0xb52695b021458f5900b259ae6d67556d6d75fb7d2dd6e73cad79a118fee7eea1",
      "blockNumber": "0x1203935",
      "gasUsed": "0xf487",
      "effectiveGasPrice": "0x368",
      "from": "0x5AC7577C0B0F8E7f55B9144fBcB64AB4778084d5",
      "to": "0xCCc8b365126200d924dFeDAE53d11EF074Afb15F",
      "contractAddress": null,
      "l1BaseFeeScalar": "0x44d",
      "l1BlobBaseFee": "0x1",
      "l1BlobBaseFeeScalar": "0xa118b",
      "l1Fee": "0x19c92fbc",
      "l1GasPrice": "0xea34457",
      "l1GasUsed": "0x640"
    },
    {
      "status": "0x1",
      "cumulativeGasUsed": "0x40e9a9",
      "logs": [
        {
          "address": "0xCCc8b365126200d924dFeDAE53d11EF074Afb15F",
          "topics": [
            "0xbe533f538959a17d76f1b09e966e741ee3b1183099682f96216c93d21feaecba"
          ],
          "data": "0xaa14cc6b00000000000000000000000000000000000000000000000000000000",
          "blockHash": "0xb52695b021458f5900b259ae6d67556d6d75fb7d2dd6e73cad79a118fee7eea1",
          "blockNumber": "0x1203935",
          "transactionHash": "0x797ab5841e5b65e5d5440e68040238abd3f20992ca2c33c30706761771aaf5ce",
          "transactionIndex": "0x10",
          "logIndex": "0x14",
          "removed": false
        },
        {
          "address": "0xCCc8b365126200d924dFeDAE53d11EF074Afb15F",
          "topics": [
            "0xda3c8142b3c1d27633026f55bfcb4eeb0b5b8db0daa0a3e10c2213a441722ad1"
          ],
          "data": "0xaa14cc6b00000000000000000000000000000000000000000000000000000000000000000000000000000000aa64846ee7356737c586f2a037e0af699168ee21",
          "blockHash": "0xb52695b021458f5900b259ae6d67556d6d75fb7d2dd6e73cad79a118fee7eea1",
          "blockNumber": "0x1203935",
          "transactionHash": "0x797ab5841e5b65e5d5440e68040238abd3f20992ca2c33c30706761771aaf5ce",
          "transactionIndex": "0x10",
          "logIndex": "0x15",
          "removed": false
        }
      ],
      "logsBloom": "0x00000000002000000000000000000000000000000000000000000000000000080000000000000000000000000000000000000000000000000000000000000000000000000000000000000000000000000000000000000000000000000000000000000000000000000000200000000000000000020000000010000000000000000000000000000000000000000000100000000000000000000000000000000000000000000000000000004000080000000000000000000000000000000000000000000000000000000000000000000000000000000000000000000000000000000000080000000000000000000000000000000000000000000000000000000000",
      "type": "0x2",
      "transactionHash": "0x797ab5841e5b65e5d5440e68040238abd3f20992ca2c33c30706761771aaf5ce",
      "transactionIndex": "0x10",
      "blockHash": "0xb52695b021458f5900b259ae6d67556d6d75fb7d2dd6e73cad79a118fee7eea1",
      "blockNumber": "0x1203935",
      "gasUsed": "0xf6e9",
      "effectiveGasPrice": "0x368",
      "from": "0x5AC7577C0B0F8E7f55B9144fBcB64AB4778084d5",
      "to": "0xCCc8b365126200d924dFeDAE53d11EF074Afb15F",
      "contractAddress": null,
      "l1BaseFeeScalar": "0x44d",
      "l1BlobBaseFee": "0x1",
      "l1BlobBaseFeeScalar": "0xa118b",
      "l1Fee": "0x19c92fbc",
      "l1GasPrice": "0xea34457",
      "l1GasUsed": "0x640"
    },
    {
      "status": "0x1",
      "cumulativeGasUsed": "0x41e2f4",
      "logs": [
        {
          "address": "0xCCc8b365126200d924dFeDAE53d11EF074Afb15F",
          "topics": [
            "0xbe533f538959a17d76f1b09e966e741ee3b1183099682f96216c93d21feaecba"
          ],
          "data": "0x985e127c00000000000000000000000000000000000000000000000000000000",
          "blockHash": "0xb52695b021458f5900b259ae6d67556d6d75fb7d2dd6e73cad79a118fee7eea1",
          "blockNumber": "0x1203935",
          "transactionHash": "0xdb5b064cf7db3c401fe1ccfc4bc95daa21e1510f730b5601c88f90f311720d57",
          "transactionIndex": "0x11",
          "logIndex": "0x16",
          "removed": false
        },
        {
          "address": "0xCCc8b365126200d924dFeDAE53d11EF074Afb15F",
          "topics": [
            "0xda3c8142b3c1d27633026f55bfcb4eeb0b5b8db0daa0a3e10c2213a441722ad1"
          ],
          "data": "0x985e127c00000000000000000000000000000000000000000000000000000000000000000000000000000000dc9f4ef96610e6e40970a65288dfc7fd3b575d31",
          "blockHash": "0xb52695b021458f5900b259ae6d67556d6d75fb7d2dd6e73cad79a118fee7eea1",
          "blockNumber": "0x1203935",
          "transactionHash": "0xdb5b064cf7db3c401fe1ccfc4bc95daa21e1510f730b5601c88f90f311720d57",
          "transactionIndex": "0x11",
          "logIndex": "0x17",
          "removed": false
        }
      ],
      "logsBloom": "0x00000000002000000000000000000000000000000000000000000000000000080000000000000000000000000000000000000000000000000000000000000000000000000000000000000000000000000000000000000000000000000000000000000000000000000000200000000000000000020000000010000000000000000000000000000000000000000000100000000000000000000000000000000000000000000000000000004000080000000000000000000000000000000000000000000000000000000000000000000000000000000000000000000000000000000000080000000000000000000000000000000000000000000000000000000000",
      "type": "0x2",
      "transactionHash": "0xdb5b064cf7db3c401fe1ccfc4bc95daa21e1510f730b5601c88f90f311720d57",
      "transactionIndex": "0x11",
      "blockHash": "0xb52695b021458f5900b259ae6d67556d6d75fb7d2dd6e73cad79a118fee7eea1",
      "blockNumber": "0x1203935",
      "gasUsed": "0xf94b",
      "effectiveGasPrice": "0x368",
      "from": "0x5AC7577C0B0F8E7f55B9144fBcB64AB4778084d5",
      "to": "0xCCc8b365126200d924dFeDAE53d11EF074Afb15F",
      "contractAddress": null,
      "l1BaseFeeScalar": "0x44d",
      "l1BlobBaseFee": "0x1",
      "l1BlobBaseFeeScalar": "0xa118b",
      "l1Fee": "0x19c92fbc",
      "l1GasPrice": "0xea34457",
      "l1GasUsed": "0x640"
    },
    {
      "status": "0x1",
      "cumulativeGasUsed": "0x42dea1",
      "logs": [
        {
          "address": "0xCCc8b365126200d924dFeDAE53d11EF074Afb15F",
          "topics": [
            "0xbe533f538959a17d76f1b09e966e741ee3b1183099682f96216c93d21feaecba"
          ],
          "data": "0xe6424a5e00000000000000000000000000000000000000000000000000000000",
          "blockHash": "0xb52695b021458f5900b259ae6d67556d6d75fb7d2dd6e73cad79a118fee7eea1",
          "blockNumber": "0x1203935",
          "transactionHash": "0x07b67c91169675a62967234f0b1178fffc24ae5ec6dc7b864090e2f0261a1514",
          "transactionIndex": "0x12",
          "logIndex": "0x18",
          "removed": false
        },
        {
          "address": "0xCCc8b365126200d924dFeDAE53d11EF074Afb15F",
          "topics": [
            "0xda3c8142b3c1d27633026f55bfcb4eeb0b5b8db0daa0a3e10c2213a441722ad1"
          ],
          "data": "0xe6424a5e000000000000000000000000000000000000000000000000000000000000000000000000000000008fd1bd8e8e4e338c0485b5358cafef490c249787",
          "blockHash": "0xb52695b021458f5900b259ae6d67556d6d75fb7d2dd6e73cad79a118fee7eea1",
          "blockNumber": "0x1203935",
          "transactionHash": "0x07b67c91169675a62967234f0b1178fffc24ae5ec6dc7b864090e2f0261a1514",
          "transactionIndex": "0x12",
          "logIndex": "0x19",
          "removed": false
        }
      ],
      "logsBloom": "0x00000000002000000000000000000000000000000000000000000000000000080000000000000000000000000000000000000000000000000000000000000000000000000000000000000000000000000000000000000000000000000000000000000000000000000000200000000000000000020000000010000000000000000000000000000000000000000000100000000000000000000000000000000000000000000000000000004000080000000000000000000000000000000000000000000000000000000000000000000000000000000000000000000000000000000000080000000000000000000000000000000000000000000000000000000000",
      "type": "0x2",
      "transactionHash": "0x07b67c91169675a62967234f0b1178fffc24ae5ec6dc7b864090e2f0261a1514",
      "transactionIndex": "0x12",
      "blockHash": "0xb52695b021458f5900b259ae6d67556d6d75fb7d2dd6e73cad79a118fee7eea1",
      "blockNumber": "0x1203935",
      "gasUsed": "0xfbad",
      "effectiveGasPrice": "0x368",
      "from": "0x5AC7577C0B0F8E7f55B9144fBcB64AB4778084d5",
      "to": "0xCCc8b365126200d924dFeDAE53d11EF074Afb15F",
      "contractAddress": null,
      "l1BaseFeeScalar": "0x44d",
      "l1BlobBaseFee": "0x1",
      "l1BlobBaseFeeScalar": "0xa118b",
      "l1Fee": "0x19c92fbc",
      "l1GasPrice": "0xea34457",
      "l1GasUsed": "0x640"
    },
    {
      "status": "0x1",
      "cumulativeGasUsed": "0x43dcb0",
      "logs": [
        {
          "address": "0xCCc8b365126200d924dFeDAE53d11EF074Afb15F",
          "topics": [
            "0xbe533f538959a17d76f1b09e966e741ee3b1183099682f96216c93d21feaecba"
          ],
          "data": "0x8da5cb5b00000000000000000000000000000000000000000000000000000000",
          "blockHash": "0xb52695b021458f5900b259ae6d67556d6d75fb7d2dd6e73cad79a118fee7eea1",
          "blockNumber": "0x1203935",
          "transactionHash": "0xe008d7270d4085ce6fae28ccd57b104589fe263779713080a23a038a3c476bd1",
          "transactionIndex": "0x13",
          "logIndex": "0x1a",
          "removed": false
        },
        {
          "address": "0xCCc8b365126200d924dFeDAE53d11EF074Afb15F",
          "topics": [
            "0xda3c8142b3c1d27633026f55bfcb4eeb0b5b8db0daa0a3e10c2213a441722ad1"
          ],
          "data": "0x8da5cb5b00000000000000000000000000000000000000000000000000000000000000000000000000000000f5aff67f7b3d4edddf75b5d4b4e08e654b6a52e5",
          "blockHash": "0xb52695b021458f5900b259ae6d67556d6d75fb7d2dd6e73cad79a118fee7eea1",
          "blockNumber": "0x1203935",
          "transactionHash": "0xe008d7270d4085ce6fae28ccd57b104589fe263779713080a23a038a3c476bd1",
          "transactionIndex": "0x13",
          "logIndex": "0x1b",
          "removed": false
        }
      ],
      "logsBloom": "0x00000000002000000000000000000000000000000000000000000000000000080000000000000000000000000000000000000000000000000000000000000000000000000000000000000000000000000000000000000000000000000000000000000000000000000000200000000000000000020000000010000000000000000000000000000000000000000000100000000000000000000000000000000000000000000000000000004000080000000000000000000000000000000000000000000000000000000000000000000000000000000000000000000000000000000000080000000000000000000000000000000000000000000000000000000000",
      "type": "0x2",
      "transactionHash": "0xe008d7270d4085ce6fae28ccd57b104589fe263779713080a23a038a3c476bd1",
      "transactionIndex": "0x13",
      "blockHash": "0xb52695b021458f5900b259ae6d67556d6d75fb7d2dd6e73cad79a118fee7eea1",
      "blockNumber": "0x1203935",
      "gasUsed": "0xfe0f",
      "effectiveGasPrice": "0x368",
      "from": "0x5AC7577C0B0F8E7f55B9144fBcB64AB4778084d5",
      "to": "0xCCc8b365126200d924dFeDAE53d11EF074Afb15F",
      "contractAddress": null,
      "l1BaseFeeScalar": "0x44d",
      "l1BlobBaseFee": "0x1",
      "l1BlobBaseFeeScalar": "0xa118b",
      "l1Fee": "0x19c92fbc",
      "l1GasPrice": "0xea34457",
      "l1GasUsed": "0x640"
    },
    {
      "status": "0x1",
      "cumulativeGasUsed": "0x44dd21",
      "logs": [
        {
          "address": "0xCCc8b365126200d924dFeDAE53d11EF074Afb15F",
          "topics": [
            "0xbe533f538959a17d76f1b09e966e741ee3b1183099682f96216c93d21feaecba"
          ],
          "data": "0x09bd5a6000000000000000000000000000000000000000000000000000000000",
          "blockHash": "0xb52695b021458f5900b259ae6d67556d6d75fb7d2dd6e73cad79a118fee7eea1",
          "blockNumber": "0x1203935",
          "transactionHash": "0x2c6ed2458878283078e2a48b170741cbf5f4855e8f153fb3b6f80f51712e0569",
          "transactionIndex": "0x14",
          "logIndex": "0x1c",
          "removed": false
        },
        {
          "address": "0xCCc8b365126200d924dFeDAE53d11EF074Afb15F",
          "topics": [
            "0xda3c8142b3c1d27633026f55bfcb4eeb0b5b8db0daa0a3e10c2213a441722ad1"
          ],
          "data": "0x09bd5a6000000000000000000000000000000000000000000000000000000000000000000000000000000000f5aff67f7b3d4edddf75b5d4b4e08e654b6a52e5",
          "blockHash": "0xb52695b021458f5900b259ae6d67556d6d75fb7d2dd6e73cad79a118fee7eea1",
          "blockNumber": "0x1203935",
          "transactionHash": "0x2c6ed2458878283078e2a48b170741cbf5f4855e8f153fb3b6f80f51712e0569",
          "transactionIndex": "0x14",
          "logIndex": "0x1d",
          "removed": false
        }
      ],
      "logsBloom": "0x00000000002000000000000000000000000000000000000000000000000000080000000000000000000000000000000000000000000000000000000000000000000000000000000000000000000000000000000000000000000000000000000000000000000000000000200000000000000000020000000010000000000000000000000000000000000000000000100000000000000000000000000000000000000000000000000000004000080000000000000000000000000000000000000000000000000000000000000000000000000000000000000000000000000000000000080000000000000000000000000000000000000000000000000000000000",
      "type": "0x2",
      "transactionHash": "0x2c6ed2458878283078e2a48b170741cbf5f4855e8f153fb3b6f80f51712e0569",
      "transactionIndex": "0x14",
      "blockHash": "0xb52695b021458f5900b259ae6d67556d6d75fb7d2dd6e73cad79a118fee7eea1",
      "blockNumber": "0x1203935",
      "gasUsed": "0x10071",
      "effectiveGasPrice": "0x368",
      "from": "0x5AC7577C0B0F8E7f55B9144fBcB64AB4778084d5",
      "to": "0xCCc8b365126200d924dFeDAE53d11EF074Afb15F",
      "contractAddress": null,
      "l1BaseFeeScalar": "0x44d",
      "l1BlobBaseFee": "0x1",
      "l1BlobBaseFeeScalar": "0xa118b",
      "l1Fee": "0x19c92fbc",
      "l1GasPrice": "0xea34457",
      "l1GasUsed": "0x640"
    },
    {
      "status": "0x1",
      "cumulativeGasUsed": "0x45dff4",
      "logs": [
        {
          "address": "0xCCc8b365126200d924dFeDAE53d11EF074Afb15F",
          "topics": [
            "0xbe533f538959a17d76f1b09e966e741ee3b1183099682f96216c93d21feaecba"
          ],
          "data": "0xa4e2d63400000000000000000000000000000000000000000000000000000000",
          "blockHash": "0xb52695b021458f5900b259ae6d67556d6d75fb7d2dd6e73cad79a118fee7eea1",
          "blockNumber": "0x1203935",
          "transactionHash": "0xfde777f70f1e431252877ea0cfb4903d7e833ffa9115b9f3624d7f4619bea9b5",
          "transactionIndex": "0x15",
          "logIndex": "0x1e",
          "removed": false
        },
        {
          "address": "0xCCc8b365126200d924dFeDAE53d11EF074Afb15F",
          "topics": [
            "0xda3c8142b3c1d27633026f55bfcb4eeb0b5b8db0daa0a3e10c2213a441722ad1"
          ],
          "data": "0xa4e2d63400000000000000000000000000000000000000000000000000000000000000000000000000000000f5aff67f7b3d4edddf75b5d4b4e08e654b6a52e5",
          "blockHash": "0xb52695b021458f5900b259ae6d67556d6d75fb7d2dd6e73cad79a118fee7eea1",
          "blockNumber": "0x1203935",
          "transactionHash": "0xfde777f70f1e431252877ea0cfb4903d7e833ffa9115b9f3624d7f4619bea9b5",
          "transactionIndex": "0x15",
          "logIndex": "0x1f",
          "removed": false
        }
      ],
      "logsBloom": "0x00000000002000000000000000000000000000000000000000000000000000080000000000000000000000000000000000000000000000000000000000000000000000000000000000000000000000000000000000000000000000000000000000000000000000000000200000000000000000020000000010000000000000000000000000000000000000000000100000000000000000000000000000000000000000000000000000004000080000000000000000000000000000000000000000000000000000000000000000000000000000000000000000000000000000000000080000000000000000000000000000000000000000000000000000000000",
      "type": "0x2",
      "transactionHash": "0xfde777f70f1e431252877ea0cfb4903d7e833ffa9115b9f3624d7f4619bea9b5",
      "transactionIndex": "0x15",
      "blockHash": "0xb52695b021458f5900b259ae6d67556d6d75fb7d2dd6e73cad79a118fee7eea1",
      "blockNumber": "0x1203935",
      "gasUsed": "0x102d3",
      "effectiveGasPrice": "0x368",
      "from": "0x5AC7577C0B0F8E7f55B9144fBcB64AB4778084d5",
      "to": "0xCCc8b365126200d924dFeDAE53d11EF074Afb15F",
      "contractAddress": null,
      "l1BaseFeeScalar": "0x44d",
      "l1BlobBaseFee": "0x1",
      "l1BlobBaseFeeScalar": "0xa118b",
      "l1Fee": "0x19c92fbc",
      "l1GasPrice": "0xea34457",
      "l1GasUsed": "0x640"
    },
    {
      "status": "0x1",
      "cumulativeGasUsed": "0x472f93",
      "logs": [
        {
          "address": "0xCCc8b365126200d924dFeDAE53d11EF074Afb15F",
          "topics": [
            "0xbe533f538959a17d76f1b09e966e741ee3b1183099682f96216c93d21feaecba"
          ],
          "data": "0x8fe8a10100000000000000000000000000000000000000000000000000000000",
          "blockHash": "0xb52695b021458f5900b259ae6d67556d6d75fb7d2dd6e73cad79a118fee7eea1",
          "blockNumber": "0x1203935",
          "transactionHash": "0xafe2f856f79e19348abd87f44ff8a3f37c00bd1de7aef7f1469f0b1b926a0275",
          "transactionIndex": "0x16",
          "logIndex": "0x20",
          "removed": false
        },
        {
          "address": "0xCCc8b365126200d924dFeDAE53d11EF074Afb15F",
          "topics": [
            "0xda3c8142b3c1d27633026f55bfcb4eeb0b5b8db0daa0a3e10c2213a441722ad1"
          ],
          "data": "0x8fe8a10100000000000000000000000000000000000000000000000000000000000000000000000000000000f5aff67f7b3d4edddf75b5d4b4e08e654b6a52e5",
          "blockHash": "0xb52695b021458f5900b259ae6d67556d6d75fb7d2dd6e73cad79a118fee7eea1",
          "blockNumber": "0x1203935",
          "transactionHash": "0xafe2f856f79e19348abd87f44ff8a3f37c00bd1de7aef7f1469f0b1b926a0275",
          "transactionIndex": "0x16",
          "logIndex": "0x21",
          "removed": false
        }
      ],
      "logsBloom": "0x00000000002000000000000000000000000000000000000000000000000000080000000000000000000000000000000000000000000000000000000000000000000000000000000000000000000000000000000000000000000000000000000000000000000000000000200000000000000000020000000010000000000000000000000000000000000000000000100000000000000000000000000000000000000000000000000000004000080000000000000000000000000000000000000000000000000000000000000000000000000000000000000000000000000000000000080000000000000000000000000000000000000000000000000000000000",
      "type": "0x2",
      "transactionHash": "0xafe2f856f79e19348abd87f44ff8a3f37c00bd1de7aef7f1469f0b1b926a0275",
      "transactionIndex": "0x16",
      "blockHash": "0xb52695b021458f5900b259ae6d67556d6d75fb7d2dd6e73cad79a118fee7eea1",
      "blockNumber": "0x1203935",
      "gasUsed": "0x14f9f",
      "effectiveGasPrice": "0x368",
      "from": "0x5AC7577C0B0F8E7f55B9144fBcB64AB4778084d5",
      "to": "0xCCc8b365126200d924dFeDAE53d11EF074Afb15F",
      "contractAddress": null,
      "l1BaseFeeScalar": "0x44d",
      "l1BlobBaseFee": "0x1",
      "l1BlobBaseFeeScalar": "0xa118b",
      "l1Fee": "0x19c92fbc",
      "l1GasPrice": "0xea34457",
      "l1GasUsed": "0x640"
    },
    {
      "status": "0x1",
      "cumulativeGasUsed": "0x61f82",
      "logs": [
        {
          "address": "0xCCc8b365126200d924dFeDAE53d11EF074Afb15F",
          "topics": [
            "0xbe533f538959a17d76f1b09e966e741ee3b1183099682f96216c93d21feaecba"
          ],
          "data": "0x272aade500000000000000000000000000000000000000000000000000000000",
          "blockHash": "0x81731d25ce87a79f0cf9cb2e1a141e7b75471dbc6d9aff3e88371d27d6be71d0",
          "blockNumber": "0x1203936",
          "transactionHash": "0xad3982950a602790e7573d56d56ee06e1b860ecd5dd81f51903b5d3809729cf1",
          "transactionIndex": "0x5",
          "logIndex": "0x5",
          "removed": false
        },
        {
          "address": "0xCCc8b365126200d924dFeDAE53d11EF074Afb15F",
          "topics": [
            "0xda3c8142b3c1d27633026f55bfcb4eeb0b5b8db0daa0a3e10c2213a441722ad1"
          ],
          "data": "0x272aade500000000000000000000000000000000000000000000000000000000000000000000000000000000f5aff67f7b3d4edddf75b5d4b4e08e654b6a52e5",
          "blockHash": "0x81731d25ce87a79f0cf9cb2e1a141e7b75471dbc6d9aff3e88371d27d6be71d0",
          "blockNumber": "0x1203936",
          "transactionHash": "0xad3982950a602790e7573d56d56ee06e1b860ecd5dd81f51903b5d3809729cf1",
          "transactionIndex": "0x5",
          "logIndex": "0x6",
          "removed": false
        }
      ],
      "logsBloom": "0x00000000002000000000000000000000000000000000000000000000000000080000000000000000000000000000000000000000000000000000000000000000000000000000000000000000000000000000000000000000000000000000000000000000000000000000200000000000000000020000000010000000000000000000000000000000000000000000100000000000000000000000000000000000000000000000000000004000080000000000000000000000000000000000000000000000000000000000000000000000000000000000000000000000000000000000080000000000000000000000000000000000000000000000000000000000",
      "type": "0x2",
      "transactionHash": "0xad3982950a602790e7573d56d56ee06e1b860ecd5dd81f51903b5d3809729cf1",
      "transactionIndex": "0x5",
      "blockHash": "0x81731d25ce87a79f0cf9cb2e1a141e7b75471dbc6d9aff3e88371d27d6be71d0",
      "blockNumber": "0x1203936",
      "gasUsed": "0x10f35",
      "effectiveGasPrice": "0x368",
      "from": "0x5AC7577C0B0F8E7f55B9144fBcB64AB4778084d5",
      "to": "0xCCc8b365126200d924dFeDAE53d11EF074Afb15F",
      "contractAddress": null,
      "l1BaseFeeScalar": "0x44d",
      "l1BlobBaseFee": "0x1",
      "l1BlobBaseFeeScalar": "0xa118b",
      "l1Fee": "0x19c92fbc",
      "l1GasPrice": "0xea34457",
      "l1GasUsed": "0x640"
    },
    {
      "status": "0x1",
      "cumulativeGasUsed": "0x12893f",
      "logs": [
        {
          "address": "0xCCc8b365126200d924dFeDAE53d11EF074Afb15F",
          "topics": [
            "0xbe533f538959a17d76f1b09e966e741ee3b1183099682f96216c93d21feaecba"
          ],
          "data": "0xd257460800000000000000000000000000000000000000000000000000000000",
          "blockHash": "0x56959273781409ef674d32d1e593dc1581bb7d0f4d59177f97c474a15404d8a6",
          "blockNumber": "0x1203937",
          "transactionHash": "0x621e989bae6e7cd8ef119ee4b3f2a060588d1262fe650f1cd8f8eab056afc942",
          "transactionIndex": "0xe",
          "logIndex": "0x1f",
          "removed": false
        },
        {
          "address": "0xCCc8b365126200d924dFeDAE53d11EF074Afb15F",
          "topics": [
            "0xda3c8142b3c1d27633026f55bfcb4eeb0b5b8db0daa0a3e10c2213a441722ad1"
          ],
          "data": "0xd257460800000000000000000000000000000000000000000000000000000000000000000000000000000000f5aff67f7b3d4edddf75b5d4b4e08e654b6a52e5",
          "blockHash": "0x56959273781409ef674d32d1e593dc1581bb7d0f4d59177f97c474a15404d8a6",
          "blockNumber": "0x1203937",
          "transactionHash": "0x621e989bae6e7cd8ef119ee4b3f2a060588d1262fe650f1cd8f8eab056afc942",
          "transactionIndex": "0xe",
          "logIndex": "0x20",
          "removed": false
        }
      ],
      "logsBloom": "0x00000000002000000000000000000000000000000000000000000000000000080000000000000000000000000000000000000000000000000000000000000000000000000000000000000000000000000000000000000000000000000000000000000000000000000000200000000000000000020000000010000000000000000000000000000000000000000000100000000000000000000000000000000000000000000000000000004000080000000000000000000000000000000000000000000000000000000000000000000000000000000000000000000000000000000000080000000000000000000000000000000000000000000000000000000000",
      "type": "0x2",
      "transactionHash": "0x621e989bae6e7cd8ef119ee4b3f2a060588d1262fe650f1cd8f8eab056afc942",
      "transactionIndex": "0xe",
      "blockHash": "0x56959273781409ef674d32d1e593dc1581bb7d0f4d59177f97c474a15404d8a6",
      "blockNumber": "0x1203937",
      "gasUsed": "0x11197",
      "effectiveGasPrice": "0x367",
      "from": "0x5AC7577C0B0F8E7f55B9144fBcB64AB4778084d5",
      "to": "0xCCc8b365126200d924dFeDAE53d11EF074Afb15F",
      "contractAddress": null,
      "l1BaseFeeScalar": "0x44d",
      "l1BlobBaseFee": "0x1",
      "l1BlobBaseFeeScalar": "0xa118b",
      "l1Fee": "0x19c92fbc",
      "l1GasPrice": "0xea34457",
      "l1GasUsed": "0x640"
    },
    {
      "status": "0x1",
      "cumulativeGasUsed": "0x139d38",
      "logs": [
        {
          "address": "0xCCc8b365126200d924dFeDAE53d11EF074Afb15F",
          "topics": [
            "0xbe533f538959a17d76f1b09e966e741ee3b1183099682f96216c93d21feaecba"
          ],
          "data": "0x0455444300000000000000000000000000000000000000000000000000000000",
          "blockHash": "0x56959273781409ef674d32d1e593dc1581bb7d0f4d59177f97c474a15404d8a6",
          "blockNumber": "0x1203937",
          "transactionHash": "0x4502b3cb96e6592ce8f66685e3040976394a82ed4bb318370f771538d0f23cd2",
          "transactionIndex": "0xf",
          "logIndex": "0x21",
          "removed": false
        },
        {
          "address": "0xCCc8b365126200d924dFeDAE53d11EF074Afb15F",
          "topics": [
            "0xda3c8142b3c1d27633026f55bfcb4eeb0b5b8db0daa0a3e10c2213a441722ad1"
          ],
          "data": "0x0455444300000000000000000000000000000000000000000000000000000000000000000000000000000000f5aff67f7b3d4edddf75b5d4b4e08e654b6a52e5",
          "blockHash": "0x56959273781409ef674d32d1e593dc1581bb7d0f4d59177f97c474a15404d8a6",
          "blockNumber": "0x1203937",
          "transactionHash": "0x4502b3cb96e6592ce8f66685e3040976394a82ed4bb318370f771538d0f23cd2",
          "transactionIndex": "0xf",
          "logIndex": "0x22",
          "removed": false
        }
      ],
      "logsBloom": "0x00000000002000000000000000000000000000000000000000000000000000080000000000000000000000000000000000000000000000000000000000000000000000000000000000000000000000000000000000000000000000000000000000000000000000000000200000000000000000020000000010000000000000000000000000000000000000000000100000000000000000000000000000000000000000000000000000004000080000000000000000000000000000000000000000000000000000000000000000000000000000000000000000000000000000000000080000000000000000000000000000000000000000000000000000000000",
      "type": "0x2",
      "transactionHash": "0x4502b3cb96e6592ce8f66685e3040976394a82ed4bb318370f771538d0f23cd2",
      "transactionIndex": "0xf",
      "blockHash": "0x56959273781409ef674d32d1e593dc1581bb7d0f4d59177f97c474a15404d8a6",
      "blockNumber": "0x1203937",
      "gasUsed": "0x113f9",
      "effectiveGasPrice": "0x367",
      "from": "0x5AC7577C0B0F8E7f55B9144fBcB64AB4778084d5",
      "to": "0xCCc8b365126200d924dFeDAE53d11EF074Afb15F",
      "contractAddress": null,
      "l1BaseFeeScalar": "0x44d",
      "l1BlobBaseFee": "0x1",
      "l1BlobBaseFeeScalar": "0xa118b",
      "l1Fee": "0x19c92fbc",
      "l1GasPrice": "0xea34457",
      "l1GasUsed": "0x640"
    },
    {
      "status": "0x1",
      "cumulativeGasUsed": "0x14b393",
      "logs": [
        {
          "address": "0xCCc8b365126200d924dFeDAE53d11EF074Afb15F",
          "topics": [
            "0xbe533f538959a17d76f1b09e966e741ee3b1183099682f96216c93d21feaecba"
          ],
          "data": "0x62c7fa7600000000000000000000000000000000000000000000000000000000",
          "blockHash": "0x56959273781409ef674d32d1e593dc1581bb7d0f4d59177f97c474a15404d8a6",
          "blockNumber": "0x1203937",
          "transactionHash": "0x663db6b341fd4f711fb6be2bc25df830306f47950621380097c64bd1712e8c6f",
          "transactionIndex": "0x10",
          "logIndex": "0x23",
          "removed": false
        },
        {
          "address": "0xCCc8b365126200d924dFeDAE53d11EF074Afb15F",
          "topics": [
            "0xda3c8142b3c1d27633026f55bfcb4eeb0b5b8db0daa0a3e10c2213a441722ad1"
          ],
          "data": "0x62c7fa7600000000000000000000000000000000000000000000000000000000000000000000000000000000f5aff67f7b3d4edddf75b5d4b4e08e654b6a52e5",
          "blockHash": "0x56959273781409ef674d32d1e593dc1581bb7d0f4d59177f97c474a15404d8a6",
          "blockNumber": "0x1203937",
          "transactionHash": "0x663db6b341fd4f711fb6be2bc25df830306f47950621380097c64bd1712e8c6f",
          "transactionIndex": "0x10",
          "logIndex": "0x24",
          "removed": false
        }
      ],
      "logsBloom": "0x00000000002000000000000000000000000000000000000000000000000000080000000000000000000000000000000000000000000000000000000000000000000000000000000000000000000000000000000000000000000000000000000000000000000000000000200000000000000000020000000010000000000000000000000000000000000000000000100000000000000000000000000000000000000000000000000000004000080000000000000000000000000000000000000000000000000000000000000000000000000000000000000000000000000000000000080000000000000000000000000000000000000000000000000000000000",
      "type": "0x2",
      "transactionHash": "0x663db6b341fd4f711fb6be2bc25df830306f47950621380097c64bd1712e8c6f",
      "transactionIndex": "0x10",
      "blockHash": "0x56959273781409ef674d32d1e593dc1581bb7d0f4d59177f97c474a15404d8a6",
      "blockNumber": "0x1203937",
      "gasUsed": "0x1165b",
      "effectiveGasPrice": "0x367",
      "from": "0x5AC7577C0B0F8E7f55B9144fBcB64AB4778084d5",
      "to": "0xCCc8b365126200d924dFeDAE53d11EF074Afb15F",
      "contractAddress": null,
      "l1BaseFeeScalar": "0x44d",
      "l1BlobBaseFee": "0x1",
      "l1BlobBaseFeeScalar": "0xa118b",
      "l1Fee": "0x19c92fbc",
      "l1GasPrice": "0xea34457",
      "l1GasUsed": "0x640"
    },
    {
      "status": "0x1",
      "cumulativeGasUsed": "0x15cc50",
      "logs": [
        {
          "address": "0xCCc8b365126200d924dFeDAE53d11EF074Afb15F",
          "topics": [
            "0xbe533f538959a17d76f1b09e966e741ee3b1183099682f96216c93d21feaecba"
          ],
          "data": "0xaffed0e000000000000000000000000000000000000000000000000000000000",
          "blockHash": "0x56959273781409ef674d32d1e593dc1581bb7d0f4d59177f97c474a15404d8a6",
          "blockNumber": "0x1203937",
          "transactionHash": "0xf3ef283c0e8c3fdf879a0608f2a7941268e9b1a909baa4aca3615f05fd5410f9",
          "transactionIndex": "0x11",
          "logIndex": "0x25",
          "removed": false
        },
        {
          "address": "0xCCc8b365126200d924dFeDAE53d11EF074Afb15F",
          "topics": [
            "0xda3c8142b3c1d27633026f55bfcb4eeb0b5b8db0daa0a3e10c2213a441722ad1"
          ],
          "data": "0xaffed0e000000000000000000000000000000000000000000000000000000000000000000000000000000000f5aff67f7b3d4edddf75b5d4b4e08e654b6a52e5",
          "blockHash": "0x56959273781409ef674d32d1e593dc1581bb7d0f4d59177f97c474a15404d8a6",
          "blockNumber": "0x1203937",
          "transactionHash": "0xf3ef283c0e8c3fdf879a0608f2a7941268e9b1a909baa4aca3615f05fd5410f9",
          "transactionIndex": "0x11",
          "logIndex": "0x26",
          "removed": false
        }
      ],
      "logsBloom": "0x00000000002000000000000000000000000000000000000000000000000000080000000000000000000000000000000000000000000000000000000000000000000000000000000000000000000000000000000000000000000000000000000000000000000000000000200000000000000000020000000010000000000000000000000000000000000000000000100000000000000000000000000000000000000000000000000000004000080000000000000000000000000000000000000000000000000000000000000000000000000000000000000000000000000000000000080000000000000000000000000000000000000000000000000000000000",
      "type": "0x2",
      "transactionHash": "0xf3ef283c0e8c3fdf879a0608f2a7941268e9b1a909baa4aca3615f05fd5410f9",
      "transactionIndex": "0x11",
      "blockHash": "0x56959273781409ef674d32d1e593dc1581bb7d0f4d59177f97c474a15404d8a6",
      "blockNumber": "0x1203937",
      "gasUsed": "0x118bd",
      "effectiveGasPrice": "0x367",
      "from": "0x5AC7577C0B0F8E7f55B9144fBcB64AB4778084d5",
      "to": "0xCCc8b365126200d924dFeDAE53d11EF074Afb15F",
      "contractAddress": null,
      "l1BaseFeeScalar": "0x44d",
      "l1BlobBaseFee": "0x1",
      "l1BlobBaseFeeScalar": "0xa118b",
      "l1Fee": "0x19c92fbc",
      "l1GasPrice": "0xea34457",
      "l1GasUsed": "0x640"
    },
    {
      "status": "0x1",
      "cumulativeGasUsed": "0x16e76f",
      "logs": [
        {
          "address": "0xCCc8b365126200d924dFeDAE53d11EF074Afb15F",
          "topics": [
            "0xbe533f538959a17d76f1b09e966e741ee3b1183099682f96216c93d21feaecba"
          ],
          "data": "0x96c705e500000000000000000000000000000000000000000000000000000000",
          "blockHash": "0x56959273781409ef674d32d1e593dc1581bb7d0f4d59177f97c474a15404d8a6",
          "blockNumber": "0x1203937",
          "transactionHash": "0x7a4b112c598b1e7a6515871fb08efbaaa9ae0c92f4a52ddeef459ec42347c554",
          "transactionIndex": "0x12",
          "logIndex": "0x27",
          "removed": false
        },
        {
          "address": "0xCCc8b365126200d924dFeDAE53d11EF074Afb15F",
          "topics": [
            "0xda3c8142b3c1d27633026f55bfcb4eeb0b5b8db0daa0a3e10c2213a441722ad1"
          ],
          "data": "0x96c705e500000000000000000000000000000000000000000000000000000000000000000000000000000000f5aff67f7b3d4edddf75b5d4b4e08e654b6a52e5",
          "blockHash": "0x56959273781409ef674d32d1e593dc1581bb7d0f4d59177f97c474a15404d8a6",
          "blockNumber": "0x1203937",
          "transactionHash": "0x7a4b112c598b1e7a6515871fb08efbaaa9ae0c92f4a52ddeef459ec42347c554",
          "transactionIndex": "0x12",
          "logIndex": "0x28",
          "removed": false
        }
      ],
      "logsBloom": "0x00000000002000000000000000000000000000000000000000000000000000080000000000000000000000000000000000000000000000000000000000000000000000000000000000000000000000000000000000000000000000000000000000000000000000000000200000000000000000020000000010000000000000000000000000000000000000000000100000000000000000000000000000000000000000000000000000004000080000000000000000000000000000000000000000000000000000000000000000000000000000000000000000000000000000000000080000000000000000000000000000000000000000000000000000000000",
      "type": "0x2",
      "transactionHash": "0x7a4b112c598b1e7a6515871fb08efbaaa9ae0c92f4a52ddeef459ec42347c554",
      "transactionIndex": "0x12",
      "blockHash": "0x56959273781409ef674d32d1e593dc1581bb7d0f4d59177f97c474a15404d8a6",
      "blockNumber": "0x1203937",
      "gasUsed": "0x11b1f",
      "effectiveGasPrice": "0x367",
      "from": "0x5AC7577C0B0F8E7f55B9144fBcB64AB4778084d5",
      "to": "0xCCc8b365126200d924dFeDAE53d11EF074Afb15F",
      "contractAddress": null,
      "l1BaseFeeScalar": "0x44d",
      "l1BlobBaseFee": "0x1",
      "l1BlobBaseFeeScalar": "0xa118b",
      "l1Fee": "0x19c92fbc",
      "l1GasPrice": "0xea34457",
      "l1GasUsed": "0x640"
    },
    {
      "status": "0x1",
      "cumulativeGasUsed": "0x1804f0",
      "logs": [
        {
          "address": "0xCCc8b365126200d924dFeDAE53d11EF074Afb15F",
          "topics": [
            "0xbe533f538959a17d76f1b09e966e741ee3b1183099682f96216c93d21feaecba"
          ],
          "data": "0xc30a0f2500000000000000000000000000000000000000000000000000000000",
          "blockHash": "0x56959273781409ef674d32d1e593dc1581bb7d0f4d59177f97c474a15404d8a6",
          "blockNumber": "0x1203937",
          "transactionHash": "0x1acd730fdea3466ea9c1f0d44c266368f99faee2e92b8daed80d0f12e8df6934",
          "transactionIndex": "0x13",
          "logIndex": "0x29",
          "removed": false
        },
        {
          "address": "0xCCc8b365126200d924dFeDAE53d11EF074Afb15F",
          "topics": [
            "0xda3c8142b3c1d27633026f55bfcb4eeb0b5b8db0daa0a3e10c2213a441722ad1"
          ],
          "data": "0xc30a0f2500000000000000000000000000000000000000000000000000000000000000000000000000000000f5aff67f7b3d4edddf75b5d4b4e08e654b6a52e5",
          "blockHash": "0x56959273781409ef674d32d1e593dc1581bb7d0f4d59177f97c474a15404d8a6",
          "blockNumber": "0x1203937",
          "transactionHash": "0x1acd730fdea3466ea9c1f0d44c266368f99faee2e92b8daed80d0f12e8df6934",
          "transactionIndex": "0x13",
          "logIndex": "0x2a",
          "removed": false
        }
      ],
      "logsBloom": "0x00000000002000000000000000000000000000000000000000000000000000080000000000000000000000000000000000000000000000000000000000000000000000000000000000000000000000000000000000000000000000000000000000000000000000000000200000000000000000020000000010000000000000000000000000000000000000000000100000000000000000000000000000000000000000000000000000004000080000000000000000000000000000000000000000000000000000000000000000000000000000000000000000000000000000000000080000000000000000000000000000000000000000000000000000000000",
      "type": "0x2",
      "transactionHash": "0x1acd730fdea3466ea9c1f0d44c266368f99faee2e92b8daed80d0f12e8df6934",
      "transactionIndex": "0x13",
      "blockHash": "0x56959273781409ef674d32d1e593dc1581bb7d0f4d59177f97c474a15404d8a6",
      "blockNumber": "0x1203937",
      "gasUsed": "0x11d81",
      "effectiveGasPrice": "0x367",
      "from": "0x5AC7577C0B0F8E7f55B9144fBcB64AB4778084d5",
      "to": "0xCCc8b365126200d924dFeDAE53d11EF074Afb15F",
      "contractAddress": null,
      "l1BaseFeeScalar": "0x44d",
      "l1BlobBaseFee": "0x1",
      "l1BlobBaseFeeScalar": "0xa118b",
      "l1Fee": "0x19c92fbc",
      "l1GasPrice": "0xea34457",
      "l1GasUsed": "0x640"
    },
    {
      "status": "0x1",
      "cumulativeGasUsed": "0x18bd61",
      "logs": [
        {
          "address": "0xCCc8b365126200d924dFeDAE53d11EF074Afb15F",
          "topics": [
            "0x159f10d3da077d18f228d52be447d552e7d1892d10f7af8f615658160e374729"
          ],
          "data": "0x00000000000000000000000039f13a85db2c8e0dd5302cbe01ca38f5cb652a4e",
          "blockHash": "0x56959273781409ef674d32d1e593dc1581bb7d0f4d59177f97c474a15404d8a6",
          "blockNumber": "0x1203937",
          "transactionHash": "0x1254cdcde982fa41053bd39a0105c9481f8a379edf6b1990240c0c6180b2378f",
          "transactionIndex": "0x14",
          "logIndex": "0x2b",
          "removed": false
        }
      ],
      "logsBloom": "0x00000000002000080000000000000000000000000000000000000000000000000000000000000000000000000200000000000000000000000000000000000000000000000000000000000000000000000000000000000000000000000000000000000000000000000000000000000000000000020000000000000000000000000000000000000000000000000000000000000000000000000000000000000000000000000000000000000000000000000000000000000000000000000000000000000000000000000000000000000000000000000000000000000000000000000000080000000000000000000010000000000000000000000000000000000000",
      "type": "0x2",
      "transactionHash": "0x1254cdcde982fa41053bd39a0105c9481f8a379edf6b1990240c0c6180b2378f",
      "transactionIndex": "0x14",
      "blockHash": "0x56959273781409ef674d32d1e593dc1581bb7d0f4d59177f97c474a15404d8a6",
      "blockNumber": "0x1203937",
      "gasUsed": "0xb871",
      "effectiveGasPrice": "0x367",
      "from": "0x5AC7577C0B0F8E7f55B9144fBcB64AB4778084d5",
      "to": "0xCCc8b365126200d924dFeDAE53d11EF074Afb15F",
      "contractAddress": null,
      "l1BaseFeeScalar": "0x44d",
      "l1BlobBaseFee": "0x1",
      "l1BlobBaseFeeScalar": "0xa118b",
      "l1Fee": "0x19c92fbc",
      "l1GasPrice": "0xea34457",
      "l1GasUsed": "0x640"
    }
  ],
  "libraries": [],
  "pending": [],
  "returns": {},
  "timestamp": 1733546490,
  "chain": 84532,
  "commit": "a12d493"
}