{
  "transactions": [
    {
      "hash": "0x8005e889896bde8f0f298d4f4403f64705be17ffde19f2a4ca11439a8ff4089b",
      "transactionType": "CREATE",
      "contractName": "Initialize",
      "contractAddress": "0x19E334F0C6e4D58f8b4a108858639dE7553698eb",
      "function": null,
      "arguments": null,
      "transaction": {
        "from": "0x5AC7577C0B0F8E7f55B9144fBcB64AB4778084d5",
        "gas": "0x2c397",
        "value": "0x0",
        "input": "0x6080604052348015600f57600080fd5b5061018e8061001f6000396000f3fe608060405234801561001057600080fd5b506004361061002b5760003560e01c8063019e272914610030575b600080fd5b6100f461003e366004610112565b7f3b60124079255925a9b0c57f1ed870358d719ce06c4ae9645b74322357c0b403939093557f3b60124079255925a9b0c57f1ed870358d719ce06c4ae9645b74322357c0b405919091557f3b60124079255925a9b0c57f1ed870358d719ce06c4ae9645b74322357c0b40180546001600160a01b039283166001600160a01b0319918216179091557f3b60124079255925a9b0c57f1ed870358d719ce06c4ae9645b74322357c0b4028054929093169116179055565b005b80356001600160a01b038116811461010d57600080fd5b919050565b6000806000806080858703121561012857600080fd5b843593506020850135925061013f604086016100f6565b915061014d606086016100f6565b90509295919450925056fea2646970667358221220cbd59b59430d95614441af48524b3c759bd23d9f81bdacdd7b25050a24a347df64736f6c634300081a0033",
        "nonce": "0x113",
        "chainId": "0x14a34"
      },
      "additionalContracts": [],
      "isFixedGasLimit": false
    },
    {
      "hash": "0x2a77cf1b669d7552f3586900e9155c5b5b2a125ac0e8eb57f00dad20cb08ea3c",
      "transactionType": "CREATE",
      "contractName": "AddApprovedTokens",
      "contractAddress": "0x500aa6348BdDC1eb7446330544510FDe95cF952e",
      "function": null,
      "arguments": null,
      "transaction": {
        "from": "0x5AC7577C0B0F8E7f55B9144fBcB64AB4778084d5",
        "gas": "0x41db8",
        "value": "0x0",
        "input": "0x6080604052348015600f57600080fd5b506102cb8061001f6000396000f3fe608060405234801561001057600080fd5b506004361061002b5760003560e01c8063ffa1a33a14610030575b600080fd5b61004361003e3660046101bf565b610045565b005b7f3b60124079255925a9b0c57f1ed870358d719ce06c4ae9645b74322357c0b40160005b828110156101b957600084848381811061008557610085610236565b905060200201602081019061009a919061024c565b90506001600160a01b0381166100b057506101b1565b604051636eb1769f60e11b815233600482015230602482015281906000906001600160a01b0383169063dd62ed3e90604401602060405180830381865afa1580156100ff573d6000803e3d6000fd5b505050506040513d601f19601f82011682018060405250810190610123919061027c565b9050600081116101795760405162461bcd60e51b815260206004820152601760248201527f546f6b656e20616c6c6f77616e6365206973207a65726f000000000000000000604482015260640160405180910390fd5b5050600783018054600181018255600091825260209091200180546001600160a01b0319166001600160a01b03929092169190911790555b600101610069565b50505050565b600080602083850312156101d257600080fd5b823567ffffffffffffffff8111156101e957600080fd5b8301601f810185136101fa57600080fd5b803567ffffffffffffffff81111561021157600080fd5b8560208260051b840101111561022657600080fd5b6020919091019590945092505050565b634e487b7160e01b600052603260045260246000fd5b60006020828403121561025e57600080fd5b81356001600160a01b038116811461027557600080fd5b9392505050565b60006020828403121561028e57600080fd5b505191905056fea264697066735822122026f20317b183880600e68b94168798fe5e6ac7682b3e33266089d7b4448ef38364736f6c634300081a0033",
        "nonce": "0x114",
        "chainId": "0x14a34"
      },
      "additionalContracts": [],
      "isFixedGasLimit": false
    },
    {
      "hash": "0x15a5f6baee9aa54f1f3fcf692bcbadb4adbd4edde19db1ec6771763b7a2ed976",
      "transactionType": "CREATE",
      "contractName": "CancelInheritance",
      "contractAddress": "0xB0C8c310144Cb4AB77677aC592DF16187A51cca3",
      "function": null,
      "arguments": null,
      "transaction": {
        "from": "0x5AC7577C0B0F8E7f55B9144fBcB64AB4778084d5",
        "gas": "0x57d75",
        "value": "0x0",
        "input": "0x6080604052348015600f57600080fd5b5061040b8061001f6000396000f3fe608060405234801561001057600080fd5b506004361061002b5760003560e01c8063aa14cc6b14610030575b600080fd5b61003861003a565b005b7f3b60124079255925a9b0c57f1ed870358d719ce06c4ae9645b74322357c0b40180546001600160a01b031633146100c75760405162461bcd60e51b815260206004820152602560248201527f4f6e6c7920746865206f776e65722063616e2063616e63656c20696e6865726960448201526474616e636560d81b60648201526084015b60405180910390fd5b600781015461010d5760405162461bcd60e51b81526020600482015260126024820152714e6f20617070726f76656420746f6b656e7360701b60448201526064016100be565b6003810154610100900460ff16156101675760405162461bcd60e51b815260206004820152601a60248201527f436f6e747261637420697320616c7265616479206b696c6c656400000000000060448201526064016100be565b60005b60078201548110156102d057600082600701828154811061018d5761018d61032e565b60009182526020822001546040516370a0823160e01b81523060048201526001600160a01b03909116925082906370a0823190602401602060405180830381865afa1580156101e0573d6000803e3d6000fd5b505050506040513d601f19601f820116820180604052508101906102049190610344565b905080156102c657835460405163a9059cbb60e01b81526001600160a01b039182166004820152602481018390529083169063a9059cbb906044016020604051808303816000875af115801561025e573d6000803e3d6000fd5b505050506040513d601f19601f82011682018060405250810190610282919061035d565b6102c65760405162461bcd60e51b8152602060048201526015602482015274151bdad95b881d1c985b9cd9995c8819985a5b1959605a1b60448201526064016100be565b505060010161016a565b5060038101805461ff00191661010017905580546040516001600160a01b03909116907fab0a913ab4dd78ca2bbd7ceca1e2d18600fba897fc0c92bfc1c94e80c0190d0490610323906007850190610386565b60405180910390a250565b634e487b7160e01b600052603260045260246000fd5b60006020828403121561035657600080fd5b5051919050565b60006020828403121561036f57600080fd5b8151801515811461037f57600080fd5b9392505050565b602080825282548282018190526000848152918220906040840190835b818110156103ca5783546001600160a01b03168352600193840193602090930192016103a3565b50909594505050505056fea2646970667358221220edd4f5902fc0ae8ce565b1270f8f927f83bb2e4bd6fd12518f8c5cde33a216ad64736f6c634300081a0033",
        "nonce": "0x115",
        "chainId": "0x14a34"
      },
      "additionalContracts": [],
      "isFixedGasLimit": false
    },
    {
      "hash": "0x74de507a1d826e1f43fb5c59b35f2ab36f1d674ba0fe48493886a4636e9f68d0",
      "transactionType": "CREATE",
      "contractName": "WithdrawTokens",
      "contractAddress": "0x841f28DcB344EfA5941a8994ed45668060c7B16c",
      "function": null,
      "arguments": null,
      "transaction": {
        "from": "0x5AC7577C0B0F8E7f55B9144fBcB64AB4778084d5",
        "gas": "0xe3705",
        "value": "0x0",
        "input": "0x6080604052348015600f57600080fd5b50610c018061001f6000396000f3fe608060405234801561001057600080fd5b506004361061002b5760003560e01c8063985e127c14610030575b600080fd5b61004361003e366004610734565b610045565b005b8382146100a45760405162461bcd60e51b815260206004820152602260248201527f546f6b656e7320616e6420616d6f756e7473206c656e677468206d69736d61746044820152610c6d60f31b60648201526084015b60405180910390fd5b7f3b60124079255925a9b0c57f1ed870358d719ce06c4ae9645b74322357c0b40160006100de6100d9368590038501856108e4565b6106a2565b600383015490915060ff1680156100ff57506003820154610100900460ff16155b6101605760405162461bcd60e51b815260206004820152602c60248201527f436f6e7472616374206973206e6f7420696e206c6f636b65642073746174652060448201526b1bdc881a5cc81ada5b1b195960a21b606482015260840161009b565b816004015482600501546101749190610997565b4210156101c35760405162461bcd60e51b815260206004820152601960248201527f4c6f636b20706572696f6420686173206e6f7420656e64656400000000000000604482015260640161009b565b600081815260088301602052604090205460ff16156102195760405162461bcd60e51b8152602060048201526012602482015271141c9bdbd988185b1c9958591e481d5cd95960721b604482015260640161009b565b6002820154610100840135146102715760405162461bcd60e51b815260206004820152601c60248201527f496e76616c69642070726f6f663a2068617368206d69736d6174636800000000604482015260640161009b565b60005b86811015610396576000888883818110610290576102906109be565b90506020020160208101906102a591906109f0565b6001600160a01b03161461038e576000805b6007850154811015610333578460070181815481106102d8576102d86109be565b6000918252602090912001546001600160a01b03168a8a858181106102ff576102ff6109be565b905060200201602081019061031491906109f0565b6001600160a01b03160361032b5760019150610333565b6001016102b7565b508061038c5760405162461bcd60e51b815260206004820152602260248201527f546f6b656e207468617420646964206e6f74206c6f636b2077617320666f756e604482015261321760f11b606482015260840161009b565b505b600101610274565b506001820154604080516343753b4d60e01b81526001600160a01b03909216916343753b4d916103d891879182019060c0830190610100840190600401610a12565b602060405180830381865afa1580156103f5573d6000803e3d6000fd5b505050506040513d601f19601f820116820180604052508101906104199190610a62565b6104585760405162461bcd60e51b815260206004820152601060248201526f24b73b30b634b2102d2590383937b7b360811b604482015260640161009b565b60008181526008830160205260408120805460ff191660011790555b86811015610651576000888883818110610490576104906109be565b90506020020160208101906104a591906109f0565b6001600160a01b0316146106495760008888838181106104c7576104c76109be565b90506020020160208101906104dc91906109f0565b6040516370a0823160e01b81523060048201529091506000906001600160a01b038316906370a0823190602401602060405180830381865afa158015610526573d6000803e3d6000fd5b505050506040513d601f19601f8201168201806040525081019061054a9190610a84565b9050600081898986818110610561576105616109be565b905060200201351161058b5788888581811061057f5761057f6109be565b9050602002013561058d565b815b60405163a9059cbb60e01b8152336004820152602481018290529091506001600160a01b0384169063a9059cbb906044016020604051808303816000875af11580156105dd573d6000803e3d6000fd5b505050506040513d601f19601f820116820180604052508101906106019190610a62565b6106455760405162461bcd60e51b8152602060048201526015602482015274151bdad95b881d1c985b9cd9995c8819985a5b1959605a1b604482015260640161009b565b5050505b600101610474565b50336001600160a01b03167fac36971df326c5d24b63183927b8fe4cf71b792277ff128d73f0729a653323e3888888886040516106919493929190610a9d565b60405180910390a250505050505050565b600081600001518260200151836040015184606001516040516020016106cb9493929190610b42565b604051602081830303815290604052805190602001209050919050565b60008083601f8401126106fa57600080fd5b50813567ffffffffffffffff81111561071257600080fd5b6020830191508360208260051b850101111561072d57600080fd5b9250929050565b600080600080600085870361016081121561074e57600080fd5b863567ffffffffffffffff81111561076557600080fd5b61077189828a016106e8565b909750955050602087013567ffffffffffffffff81111561079157600080fd5b61079d89828a016106e8565b909550935050610120603f19820112156107b657600080fd5b506040860190509295509295909350565b634e487b7160e01b600052604160045260246000fd5b6040516080810167ffffffffffffffff81118282101715610800576108006107c7565b60405290565b604051601f8201601f1916810167ffffffffffffffff8111828210171561082f5761082f6107c7565b604052919050565b600082601f83011261084857600080fd5b60006108546040610806565b905080604084018581111561086857600080fd5b845b8181101561088257803583526020928301920161086a565b509195945050505050565b600082601f83011261089e57600080fd5b600060206108ab81610806565b91508160208501868111156108bf57600080fd5b855b818110156108d857803583529183019183016108c1565b50929695505050505050565b60006101208284031280156108f857600080fd5b5060006109036107dd565b61090d8585610837565b815284605f85011261091d578182fd5b604061092881610806565b8060c0870188811115610939578586fd5b6040880195505b80861015610963576109528987610837565b835294830194602090920191610940565b8160208601526109738982610837565b60408601525050505061098a85610100860161088d565b6060820152949350505050565b808201808211156109b857634e487b7160e01b600052601160045260246000fd5b92915050565b634e487b7160e01b600052603260045260246000fd5b80356001600160a01b03811681146109eb57600080fd5b919050565b600060208284031215610a0257600080fd5b610a0b826109d4565b9392505050565b61012081016040868337604082018560005b6002811015610a455760408284376040928301929190910190600101610a24565b50505060408460c084013760208361010084013795945050505050565b600060208284031215610a7457600080fd5b81518015158114610a0b57600080fd5b600060208284031215610a9657600080fd5b5051919050565b6040808252810184905260008560608301825b87811015610ade576001600160a01b03610ac9846109d4565b16825260209283019290910190600101610ab0565b5083810360208501528481526001600160fb1b03851115610afe57600080fd5b8460051b915081866020830137016020019695505050505050565b8060005b6002811015610b3c578151845260209384019390910190600101610b1d565b50505050565b610b4c8186610b19565b6000604082018560005b6002811015610b8057610b6a838351610b19565b6040929092019160209190910190600101610b56565b505050610b9060c0830185610b19565b61010082018360005b6001811015610bb8578151835260209283019290910190600101610b99565b505050610120820190509594505050505056fea26469706673582212209ca8226d2a12de2d4f31c22bbb7e1ba7b8e934080420168a2c9884706b5f782264736f6c634300081a0033",
        "nonce": "0x116",
        "chainId": "0x14a34"
      },
      "additionalContracts": [],
      "isFixedGasLimit": false
    },
    {
      "hash": "0xa73a0bc4269f59fc6c2d9b7c11ee19f96e2a0f124ac69d7094b859066ad61eb8",
      "transactionType": "CREATE",
      "contractName": "InitiateInheritance",
      "contractAddress": "0x648ED7295EE64904994F601d2dBfe888C5d7f498",
      "function": null,
      "arguments": null,
      "transaction": {
        "from": "0x5AC7577C0B0F8E7f55B9144fBcB64AB4778084d5",
        "gas": "0xc590f",
        "value": "0x0",
        "input": "0x6080604052348015600f57600080fd5b50610a4d8061001f6000396000f3fe608060405234801561001057600080fd5b506004361061002b5760003560e01c8063e6424a5e14610030575b600080fd5b61004361003e366004610662565b610045565b005b7f3b60124079255925a9b0c57f1ed870358d719ce06c4ae9645b74322357c0b401600061007f61007a3685900385018561079b565b610602565b600383015490915060ff16156100ea5760405162461bcd60e51b815260206004820152602560248201527f496e6865726974616e63652070726f6365737320616c726561647920696e69746044820152641a585d195960da1b60648201526084015b60405180910390fd5b6003820154610100900460ff16156101445760405162461bcd60e51b815260206004820152601e60248201527f496e6865726974616e636520636f6e7472616374206973206b696c6c6564000060448201526064016100e1565b600081815260088301602052604090205460ff161561019a5760405162461bcd60e51b8152602060048201526012602482015271141c9bdbd988185b1c9958591e481d5cd95960721b60448201526064016100e1565b6002820154610100840135146101f25760405162461bcd60e51b815260206004820152601c60248201527f496e76616c69642070726f6f663a2068617368206d69736d617463680000000060448201526064016100e1565b6001820154604080516343753b4d60e01b81526001600160a01b03909216916343753b4d9161023391879182019060c0830190610100840190600401610864565b602060405180830381865afa158015610250573d6000803e3d6000fd5b505050506040513d601f19601f8201168201806040525081019061027491906108b4565b6102b35760405162461bcd60e51b815260206004820152601060248201526f24b73b30b634b2102d2590383937b7b360811b60448201526064016100e1565b60008181526008830160205260408120805460ff191660011790555b60078301548110156105985760008360070182815481106102f2576102f261084e565b60009182526020822001548554604051636eb1769f60e11b81526001600160a01b03918216600482015230602482015291169250829063dd62ed3e90604401602060405180830381865afa15801561034e573d6000803e3d6000fd5b505050506040513d601f19601f8201168201806040525081019061037291906108dd565b9050806000036104415760078501805461038e9060019061090c565b8154811061039e5761039e61084e565b6000918252602090912001546007860180546001600160a01b0390921691859081106103cc576103cc61084e565b9060005260206000200160006101000a8154816001600160a01b0302191690836001600160a01b031602179055508460070180548061040d5761040d61091f565b600082815260209020810160001990810180546001600160a01b03191690550190558261043981610935565b935050610583565b84546040516370a0823160e01b81526001600160a01b0391821660048201526000918416906370a0823190602401602060405180830381865afa15801561048c573d6000803e3d6000fd5b505050506040513d601f19601f820116820180604052508101906104b091906108dd565b905060006104be8383610648565b87546040516323b872dd60e01b81526001600160a01b039182166004820152306024820152604481018390529192508516906323b872dd906064016020604051808303816000875af1158015610518573d6000803e3d6000fd5b505050506040513d601f19601f8201168201806040525081019061053c91906108b4565b6105805760405162461bcd60e51b8152602060048201526015602482015274151bdad95b881d1c985b9cd9995c8819985a5b1959605a1b60448201526064016100e1565b50505b505080806105909061094c565b9150506102cf565b50426005830181905560038301805460ff1916600117905582546040516001600160a01b03909116917f7a0f49890d59fc33e7e656a749b3fe9fd171e07359ee7104abb21f18243539d9916105f591858252602082015260400190565b60405180910390a2505050565b6000816000015182602001518360400151846060015160405160200161062b949392919061098e565b604051602081830303815290604052805190602001209050919050565b60008183106106575781610659565b825b90505b92915050565b600061012082840312801561067657600080fd5b509092915050565b634e487b7160e01b600052604160045260246000fd5b6040516080810167ffffffffffffffff811182821017156106b7576106b761067e565b60405290565b604051601f8201601f1916810167ffffffffffffffff811182821017156106e6576106e661067e565b604052919050565b600082601f8301126106ff57600080fd5b600061070b60406106bd565b905080604084018581111561071f57600080fd5b845b81811015610739578035835260209283019201610721565b509195945050505050565b600082601f83011261075557600080fd5b60006020610762816106bd565b915081602085018681111561077657600080fd5b855b8181101561078f5780358352918301918301610778565b50929695505050505050565b60006101208284031280156107af57600080fd5b5060006107ba610694565b6107c485856106ee565b815284605f8501126107d4578182fd5b60406107df816106bd565b8060c08701888111156107f0578586fd5b6040880195505b8086101561081a5761080989876106ee565b8352948301946020909201916107f7565b81602086015261082a89826106ee565b604086015250505050610841856101008601610744565b6060820152949350505050565b634e487b7160e01b600052603260045260246000fd5b61012081016040868337604082018560005b60028110156108975760408284376040928301929190910190600101610876565b50505060408460c084013760208361010084013795945050505050565b6000602082840312156108c657600080fd5b815180151581146108d657600080fd5b9392505050565b6000602082840312156108ef57600080fd5b5051919050565b634e487b7160e01b600052601160045260246000fd5b8181038181111561065c5761065c6108f6565b634e487b7160e01b600052603160045260246000fd5b600081610944576109446108f6565b506000190190565b60006001820161095e5761095e6108f6565b5060010190565b8060005b6002811015610988578151845260209384019390910190600101610969565b50505050565b6109988186610965565b6000604082018560005b60028110156109cc576109b6838351610965565b60409290920191602091909101906001016109a2565b5050506109dc60c0830185610965565b61010082018360005b6001811015610a045781518352602092830192909101906001016109e5565b505050610120820190509594505050505056fea264697066735822122043ce75d45135c6260ce1619119a1d4ee647c9ebc760918b7ee384fbc82aa249064736f6c634300081a0033",
        "nonce": "0x117",
        "chainId": "0x14a34"
      },
      "additionalContracts": [],
      "isFixedGasLimit": false
    },
    {
      "hash": "0xb056e6f87110577826869bb064b04005dd9e02b6ff12e0334a308094d6a93715",
      "transactionType": "CREATE",
      "contractName": "InheritanceStateViewer",
      "contractAddress": "0x027763ebD87732Fc7889917a9b5F589adfe7DFD9",
      "function": null,
      "arguments": null,
      "transaction": {
        "from": "0x5AC7577C0B0F8E7f55B9144fBcB64AB4778084d5",
        "gas": "0x4b9e7",
        "value": "0x0",
        "input": "0x6080604052348015600f57600080fd5b506103588061001f6000396000f3fe608060405234801561001057600080fd5b50600436106100935760003560e01c80638fe8a101116100665780638fe8a1011461015657806396c705e514610191578063a4e2d634146101a6578063affed0e0146101d0578063c30a0f25146101f757600080fd5b8063045544431461009857806309bd5a60146100ce57806362c7fa76146100f55780638da5cb5b1461011c575b600080fd5b7f3b60124079255925a9b0c57f1ed870358d719ce06c4ae9645b74322357c0b405545b6040519081526020015b60405180910390f35b7f3b60124079255925a9b0c57f1ed870358d719ce06c4ae9645b74322357c0b403546100bb565b7f3b60124079255925a9b0c57f1ed870358d719ce06c4ae9645b74322357c0b406546100bb565b7f3b60124079255925a9b0c57f1ed870358d719ce06c4ae9645b74322357c0b401546040516001600160a01b0390911681526020016100c5565b7f3b60124079255925a9b0c57f1ed870358d719ce06c4ae9645b74322357c0b40454610100900460ff165b60405190151581526020016100c5565b610199610239565b6040516100c591906102bd565b7f3b60124079255925a9b0c57f1ed870358d719ce06c4ae9645b74322357c0b4045460ff16610181565b7f3b60124079255925a9b0c57f1ed870358d719ce06c4ae9645b74322357c0b407546100bb565b610181610205366004610309565b60009081527f3b60124079255925a9b0c57f1ed870358d719ce06c4ae9645b74322357c0b409602052604090205460ff1690565b60607f3b60124079255925a9b0c57f1ed870358d719ce06c4ae9645b74322357c0b4016007018054806020026020016040519081016040528092919081815260200182805480156102b357602002820191906000526020600020905b81546001600160a01b03168152600190910190602001808311610295575b5050505050905090565b602080825282518282018190526000918401906040840190835b818110156102fe5783516001600160a01b03168352602093840193909201916001016102d7565b509095945050505050565b60006020828403121561031b57600080fd5b503591905056fea264697066735822122024435cd05e6b5d0d889f9aeae667c061f53a55a0429aa43d9446df872f6faf1c64736f6c634300081a0033",
        "nonce": "0x118",
        "chainId": "0x14a34"
      },
      "additionalContracts": [],
      "isFixedGasLimit": false
    },
    {
      "hash": "0xcfaaa1cbcbfa3752b70140b393af2fddd63b5b9cfe877116ba7e5957f69950a2",
      "transactionType": "CREATE",
      "contractName": "InheritanceFacade",
      "contractAddress": "0x880A1b1259164C25C86aE8377fE5a2f0bb1F08dd",
      "function": null,
      "arguments": null,
      "transaction": {
        "from": "0x5AC7577C0B0F8E7f55B9144fBcB64AB4778084d5",
        "gas": "0x53369",
        "value": "0x0",
        "input": "0x6080604052348015600f57600080fd5b506103c88061001f6000396000f3fe608060405234801561001057600080fd5b50600436106100ea5760003560e01c8063a4e2d6341161008c578063affed0e011610066578063affed0e0146100ef578063c30a0f251461015e578063e6424a5e14610172578063ffa1a33a1461018357600080fd5b8063a4e2d63414610112578063a6ab36f21461014b578063aa14cc6b1461014957600080fd5b80638da5cb5b116100c85780638da5cb5b146101035780638fe8a1011461011257806396c705e514610125578063985e127c1461013457600080fd5b806304554443146100ef57806309bd5a60146100ef57806362c7fa76146100ef575b600080fd5b604051600081526020015b60405180910390f35b604051600081526020016100fa565b60005b60405190151581526020016100fa565b60606040516100fa9190610195565b610149610142366004610246565b5050505050565b005b6101496101593660046102ce565b505050565b61011561016c366004610313565b50600090565b61014961018036600461032c565b50565b610149610191366004610350565b5050565b602080825282518282018190526000918401906040840190835b818110156101d65783516001600160a01b03168352602093840193909201916001016101af565b509095945050505050565b60008083601f8401126101f357600080fd5b50813567ffffffffffffffff81111561020b57600080fd5b6020830191508360208260051b850101111561022657600080fd5b9250929050565b6000610120828403121561024057600080fd5b50919050565b6000806000806000610160868803121561025f57600080fd5b853567ffffffffffffffff81111561027657600080fd5b610282888289016101e1565b909650945050602086013567ffffffffffffffff8111156102a257600080fd5b6102ae888289016101e1565b90945092506102c29050876040880161022d565b90509295509295909350565b6000806000606084860312156102e357600080fd5b833592506020840135915060408401356001600160a01b038116811461030857600080fd5b809150509250925092565b60006020828403121561032557600080fd5b5035919050565b6000610120828403121561033f57600080fd5b610349838361022d565b9392505050565b6000806020838503121561036357600080fd5b823567ffffffffffffffff81111561037a57600080fd5b610386858286016101e1565b9096909550935050505056fea264697066735822122051e1d72468afce80449ea7ef9b6bc97fc53d3a21dbc31140b34cd0054435f12a64736f6c634300081a0033",
        "nonce": "0x119",
        "chainId": "0x14a34"
      },
      "additionalContracts": [],
      "isFixedGasLimit": false
    },
    {
      "hash": "0x0ed1b82c66544eef8ff704d34dd0cd2a76eb4f50a11eb508cc4f9982d63ed7f8",
      "transactionType": "CREATE",
      "contractName": "Dictionary_0",
      "contractAddress": "0xdbe29C77b40aC32b8f7299C16C76e1ef47FA9614",
      "function": null,
      "arguments": [
        "0x5AC7577C0B0F8E7f55B9144fBcB64AB4778084d5"
      ],
      "transaction": {
        "from": "0x5AC7577C0B0F8E7f55B9144fBcB64AB4778084d5",
        "gas": "0xa7856",
        "value": "0x0",
        "input": "0x608060405234801561001057600080fd5b5060405161091438038061091483398101604081905261002f916100c0565b806001600160a01b03811661005e57604051631e4fbdf760e01b81526000600482015260240160405180910390fd5b6100678161006e565b50506100f0565b600380546001600160a01b038381166001600160a01b0319831681179093556040519116919082907f8be0079c531659141344cd1fd0a4f28419497f9722a3daafe3b4186f6b6457e090600090a35050565b6000602082840312156100d257600080fd5b81516001600160a01b03811681146100e957600080fd5b9392505050565b610815806100ff6000396000f3fe608060405234801561001057600080fd5b50600436106100935760003560e01c8063715018a611610066578063715018a61461012f5780638da5cb5b14610137578063a5954dd714610148578063dc9cc6451461015d578063f2fde38b1461017057600080fd5b806301ffc9a7146100985780630815f6fd146100e25780635c60da1b146100f7578063651dc03d1461011c575b600080fd5b6100cd6100a63660046106f5565b6001600160e01b0319166000908152602081905260409020546001600160a01b0316151590565b60405190151581526020015b60405180910390f35b6100f56100f036600461072e565b610183565b005b6002546001600160a01b03165b6040516001600160a01b0390911681526020016100d9565b6100f561012a366004610761565b610199565b6100f56101ad565b6003546001600160a01b0316610104565b6101506101c1565b6040516100d9919061077c565b61010461016b3660046106f5565b610246565b6100f561017e366004610761565b6102df565b61018b61031a565b6101958282610347565b5050565b6101a161031a565b6101aa81610371565b50565b6101b561031a565b6101bf60006103c6565b565b6060600180548060200260200160405190810160405280929190818152602001828054801561023c57602002820191906000526020600020906000905b82829054906101000a900460e01b6001600160e01b031916815260200190600401906020826003010492830192600103820291508084116101fe5790505b5050505050905090565b6001600160e01b031981166000908152602081905260408120546001600160a01b031680156102755792915050565b5060008080526020527fad3228b676f7d3cd4284a5443f17f1962b36e491b30a40b2405849e597ba5fb5546001600160a01b031680156102b55792915050565b60405163404ceef760e11b81526001600160e01b0319841660048201526024015b60405180910390fd5b6102e761031a565b6001600160a01b03811661031157604051631e4fbdf760e01b8152600060048201526024016102d6565b6101aa816103c6565b6003546001600160a01b031633146101bf5760405163118cdaa760e01b81523360048201526024016102d6565b6001600160a01b03811661035e5761019582610418565b61036782610514565b61019582826105bb565b600280546001600160a01b0319166001600160a01b0383169081179091556040519081527f159f10d3da077d18f228d52be447d552e7d1892d10f7af8f615658160e374729906020015b60405180910390a150565b600380546001600160a01b038381166001600160a01b0319831681179093556040519116919082907f8be0079c531659141344cd1fd0a4f28419497f9722a3daafe3b4186f6b6457e090600090a35050565b60005b6001548110156104bd57816001600160e01b03191660018281548110610443576104436107c9565b90600052602060002090600891828204019190066004029054906101000a900460e01b6001600160e01b031916036104b55760018181548110610488576104886107c9565b90600052602060002090600891828204019190066004026101000a81549063ffffffff02191690556104bd565b60010161041b565b506001600160e01b031981166000818152602081815260409182902080546001600160a01b031916905590519182527fb0f2f3a9229724df0b95683e95488b72aed817bc1a5bd6fe1d2e7504e92871cb91016103bb565b61051d81610660565b156105255750565b6001805480820182556000919091527fb10e2d527612073b26eecdfd717e6a320cf44b4afac2b0732d9fcbe2b7fa0cf66008820401805463ffffffff60079093166004026101000a928302191660e084901c929092029190911790556040516001600160e01b0319821681527fbe533f538959a17d76f1b09e966e741ee3b1183099682f96216c93d21feaecba906020016103bb565b806001600160a01b03163b6000036105f157604051630c76093760e01b81526001600160a01b03821660048201526024016102d6565b6001600160e01b031982166000818152602081815260409182902080546001600160a01b0319166001600160a01b0386169081179091558251938452908301527fda3c8142b3c1d27633026f55bfcb4eeb0b5b8db0daa0a3e10c2213a441722ad1910160405180910390a15050565b6000805b6001548110156106cf57826001600160e01b0319166001828154811061068c5761068c6107c9565b90600052602060002090600891828204019190066004029054906101000a900460e01b6001600160e01b031916036106c75750600192915050565b600101610664565b50600092915050565b80356001600160e01b0319811681146106f057600080fd5b919050565b60006020828403121561070757600080fd5b610710826106d8565b9392505050565b80356001600160a01b03811681146106f057600080fd5b6000806040838503121561074157600080fd5b61074a836106d8565b915061075860208401610717565b90509250929050565b60006020828403121561077357600080fd5b61071082610717565b602080825282518282018190526000918401906040840190835b818110156107be5783516001600160e01b031916835260209384019390920191600101610796565b509095945050505050565b634e487b7160e01b600052603260045260246000fdfea264697066735822122030e03adf87fe5bf67b35fe3db01417128809f7583f8c66cea25eada57ba43bce64736f6c634300081a00330000000000000000000000005ac7577c0b0f8e7f55b9144fbcb64ab4778084d5",
        "nonce": "0x11a",
        "chainId": "0x14a34"
      },
      "additionalContracts": [],
      "isFixedGasLimit": false
    },
    {
      "hash": "0x172bdbf570354b6a2b1ca2d8784715bdf643b6fd2ff9d3d92948f43472634a70",
      "transactionType": "CALL",
      "contractName": "Dictionary_0",
      "contractAddress": "0xdbe29C77b40aC32b8f7299C16C76e1ef47FA9614",
      "function": "setImplementation(bytes4,address)",
      "arguments": [
        "0x019e2729",
        "0x19E334F0C6e4D58f8b4a108858639dE7553698eb"
      ],
      "transaction": {
        "from": "0x5AC7577C0B0F8E7f55B9144fBcB64AB4778084d5",
        "to": "0xdbe29C77b40aC32b8f7299C16C76e1ef47FA9614",
        "gas": "0x206fc",
        "value": "0x0",
        "input": "0x0815f6fd019e27290000000000000000000000000000000000000000000000000000000000000000000000000000000019e334f0c6e4d58f8b4a108858639de7553698eb",
        "nonce": "0x11b",
        "chainId": "0x14a34"
      },
      "additionalContracts": [],
      "isFixedGasLimit": false
    },
    {
      "hash": "0x5cd889febca139134f3db036b23b7416331245124a07fc7b936cbcb5aae97d17",
      "transactionType": "CALL",
      "contractName": "Dictionary_0",
      "contractAddress": "0xdbe29C77b40aC32b8f7299C16C76e1ef47FA9614",
      "function": "setImplementation(bytes4,address)",
      "arguments": [
        "0xffa1a33a",
        "0x500aa6348BdDC1eb7446330544510FDe95cF952e"
      ],
      "transaction": {
        "from": "0x5AC7577C0B0F8E7f55B9144fBcB64AB4778084d5",
        "to": "0xdbe29C77b40aC32b8f7299C16C76e1ef47FA9614",
        "gas": "0x151c0",
        "value": "0x0",
        "input": "0x0815f6fdffa1a33a00000000000000000000000000000000000000000000000000000000000000000000000000000000500aa6348bddc1eb7446330544510fde95cf952e",
        "nonce": "0x11c",
        "chainId": "0x14a34"
      },
      "additionalContracts": [],
      "isFixedGasLimit": false
    },
    {
      "hash": "0xaf9d87d09fe0f500a6d6da31d969ca877fdd1732408c634131fceeec8c2c95f4",
      "transactionType": "CALL",
      "contractName": "Dictionary_0",
      "contractAddress": "0xdbe29C77b40aC32b8f7299C16C76e1ef47FA9614",
      "function": "setImplementation(bytes4,address)",
      "arguments": [
        "0xaa14cc6b",
        "0xB0C8c310144Cb4AB77677aC592DF16187A51cca3"
      ],
      "transaction": {
        "from": "0x5AC7577C0B0F8E7f55B9144fBcB64AB4778084d5",
        "to": "0xdbe29C77b40aC32b8f7299C16C76e1ef47FA9614",
        "gas": "0x1691b",
        "value": "0x0",
        "input": "0x0815f6fdaa14cc6b00000000000000000000000000000000000000000000000000000000000000000000000000000000b0c8c310144cb4ab77677ac592df16187a51cca3",
        "nonce": "0x11d",
        "chainId": "0x14a34"
      },
      "additionalContracts": [],
      "isFixedGasLimit": false
    },
    {
      "hash": "0x155672f4cac54f12e1c43ec7737e28fec88d898af7997aa4863f5a78ea498c4c",
      "transactionType": "CALL",
      "contractName": "Dictionary_0",
      "contractAddress": "0xdbe29C77b40aC32b8f7299C16C76e1ef47FA9614",
      "function": "setImplementation(bytes4,address)",
      "arguments": [
        "0x985e127c",
        "0x841f28DcB344EfA5941a8994ed45668060c7B16c"
      ],
      "transaction": {
        "from": "0x5AC7577C0B0F8E7f55B9144fBcB64AB4778084d5",
        "to": "0xdbe29C77b40aC32b8f7299C16C76e1ef47FA9614",
        "gas": "0x16c96",
        "value": "0x0",
        "input": "0x0815f6fd985e127c00000000000000000000000000000000000000000000000000000000000000000000000000000000841f28dcb344efa5941a8994ed45668060c7b16c",
        "nonce": "0x11e",
        "chainId": "0x14a34"
      },
      "additionalContracts": [],
      "isFixedGasLimit": false
    },
    {
      "hash": "0x5de7f0cb4fc2f0c5202fea1fe508be477cc418e09c3cf74aedb4f0dc9702500c",
      "transactionType": "CALL",
      "contractName": "Dictionary_0",
      "contractAddress": "0xdbe29C77b40aC32b8f7299C16C76e1ef47FA9614",
      "function": "setImplementation(bytes4,address)",
      "arguments": [
        "0xe6424a5e",
        "0x648ED7295EE64904994F601d2dBfe888C5d7f498"
      ],
      "transaction": {
        "from": "0x5AC7577C0B0F8E7f55B9144fBcB64AB4778084d5",
        "to": "0xdbe29C77b40aC32b8f7299C16C76e1ef47FA9614",
        "gas": "0x15b9f",
        "value": "0x0",
        "input": "0x0815f6fde6424a5e00000000000000000000000000000000000000000000000000000000000000000000000000000000648ed7295ee64904994f601d2dbfe888c5d7f498",
        "nonce": "0x11f",
        "chainId": "0x14a34"
      },
      "additionalContracts": [],
      "isFixedGasLimit": false
    },
    {
      "hash": "0x3eed979473f1708bfe6c794f35f7b9006f7a76546b74365b586652cc53e121ab",
      "transactionType": "CALL",
      "contractName": "Dictionary_0",
      "contractAddress": "0xdbe29C77b40aC32b8f7299C16C76e1ef47FA9614",
      "function": "setImplementation(bytes4,address)",
      "arguments": [
        "0x8da5cb5b",
        "0x027763ebD87732Fc7889917a9b5F589adfe7DFD9"
      ],
      "transaction": {
        "from": "0x5AC7577C0B0F8E7f55B9144fBcB64AB4778084d5",
        "to": "0xdbe29C77b40aC32b8f7299C16C76e1ef47FA9614",
        "gas": "0x15ee9",
        "value": "0x0",
        "input": "0x0815f6fd8da5cb5b00000000000000000000000000000000000000000000000000000000000000000000000000000000027763ebd87732fc7889917a9b5f589adfe7dfd9",
        "nonce": "0x120",
        "chainId": "0x14a34"
      },
      "additionalContracts": [],
      "isFixedGasLimit": false
    },
    {
      "hash": "0xad6e25b578cd6bf17d5e32509a8a8bc05bd99c9cb9420e07d8e3913f7b8c6427",
      "transactionType": "CALL",
      "contractName": "Dictionary_0",
      "contractAddress": "0xdbe29C77b40aC32b8f7299C16C76e1ef47FA9614",
      "function": "setImplementation(bytes4,address)",
      "arguments": [
        "0x09bd5a60",
        "0x027763ebD87732Fc7889917a9b5F589adfe7DFD9"
      ],
      "transaction": {
        "from": "0x5AC7577C0B0F8E7f55B9144fBcB64AB4778084d5",
        "to": "0xdbe29C77b40aC32b8f7299C16C76e1ef47FA9614",
        "gas": "0x1770b",
        "value": "0x0",
        "input": "0x0815f6fd09bd5a6000000000000000000000000000000000000000000000000000000000000000000000000000000000027763ebd87732fc7889917a9b5f589adfe7dfd9",
        "nonce": "0x121",
        "chainId": "0x14a34"
      },
      "additionalContracts": [],
      "isFixedGasLimit": false
    },
    {
      "hash": "0xca828990d002e1b75cff00a29eb597e3b87d97edcbe4b6250bde16c03379243b",
      "transactionType": "CALL",
      "contractName": "Dictionary_0",
      "contractAddress": "0xdbe29C77b40aC32b8f7299C16C76e1ef47FA9614",
      "function": "setImplementation(bytes4,address)",
      "arguments": [
        "0xa4e2d634",
        "0x027763ebD87732Fc7889917a9b5F589adfe7DFD9"
      ],
      "transaction": {
        "from": "0x5AC7577C0B0F8E7f55B9144fBcB64AB4778084d5",
        "to": "0xdbe29C77b40aC32b8f7299C16C76e1ef47FA9614",
        "gas": "0x17a87",
        "value": "0x0",
        "input": "0x0815f6fda4e2d63400000000000000000000000000000000000000000000000000000000000000000000000000000000027763ebd87732fc7889917a9b5f589adfe7dfd9",
        "nonce": "0x122",
        "chainId": "0x14a34"
      },
      "additionalContracts": [],
      "isFixedGasLimit": false
    },
    {
      "hash": "0xda001d7ee192a1d533ec2d52b479fa8135d893490ef02b32db35672bd679e52a",
      "transactionType": "CALL",
      "contractName": "Dictionary_0",
      "contractAddress": "0xdbe29C77b40aC32b8f7299C16C76e1ef47FA9614",
      "function": "setImplementation(bytes4,address)",
      "arguments": [
        "0x8fe8a101",
        "0x027763ebD87732Fc7889917a9b5F589adfe7DFD9"
      ],
      "transaction": {
        "from": "0x5AC7577C0B0F8E7f55B9144fBcB64AB4778084d5",
        "to": "0xdbe29C77b40aC32b8f7299C16C76e1ef47FA9614",
        "gas": "0x1cf92",
        "value": "0x0",
        "input": "0x0815f6fd8fe8a10100000000000000000000000000000000000000000000000000000000000000000000000000000000027763ebd87732fc7889917a9b5f589adfe7dfd9",
        "nonce": "0x123",
        "chainId": "0x14a34"
      },
      "additionalContracts": [],
      "isFixedGasLimit": false
    },
    {
      "hash": "0x0f74b34f221af1e33c77110585d198da461c3631bc376fd8f72472bbc78df955",
      "transactionType": "CALL",
      "contractName": "Dictionary_0",
      "contractAddress": "0xdbe29C77b40aC32b8f7299C16C76e1ef47FA9614",
      "function": "setImplementation(bytes4,address)",
      "arguments": [
        "0x04554443",
        "0x027763ebD87732Fc7889917a9b5F589adfe7DFD9"
      ],
      "transaction": {
        "from": "0x5AC7577C0B0F8E7f55B9144fBcB64AB4778084d5",
        "to": "0xdbe29C77b40aC32b8f7299C16C76e1ef47FA9614",
        "gas": "0x1769a",
        "value": "0x0",
        "input": "0x0815f6fd0455444300000000000000000000000000000000000000000000000000000000000000000000000000000000027763ebd87732fc7889917a9b5f589adfe7dfd9",
        "nonce": "0x124",
        "chainId": "0x14a34"
      },
      "additionalContracts": [],
      "isFixedGasLimit": false
    },
    {
      "hash": "0x1a55cc3df7fd5d085d6ef50d01a6dfb761ba2ac2e3dbf010e714afbffe08d27f",
      "transactionType": "CALL",
      "contractName": "Dictionary_0",
      "contractAddress": "0xdbe29C77b40aC32b8f7299C16C76e1ef47FA9614",
      "function": "setImplementation(bytes4,address)",
      "arguments": [
        "0x62c7fa76",
        "0x027763ebD87732Fc7889917a9b5F589adfe7DFD9"
      ],
      "transaction": {
        "from": "0x5AC7577C0B0F8E7f55B9144fBcB64AB4778084d5",
        "to": "0xdbe29C77b40aC32b8f7299C16C76e1ef47FA9614",
        "gas": "0x179e4",
        "value": "0x0",
        "input": "0x0815f6fd62c7fa7600000000000000000000000000000000000000000000000000000000000000000000000000000000027763ebd87732fc7889917a9b5f589adfe7dfd9",
        "nonce": "0x125",
        "chainId": "0x14a34"
      },
      "additionalContracts": [],
      "isFixedGasLimit": false
    },
    {
      "hash": "0xfc0eb5856e66349daf3d2d4c73fd6b88d8860752e406cb47fbaba37229684ddc",
      "transactionType": "CALL",
      "contractName": "Dictionary_0",
      "contractAddress": "0xdbe29C77b40aC32b8f7299C16C76e1ef47FA9614",
      "function": "setImplementation(bytes4,address)",
      "arguments": [
        "0xaffed0e0",
        "0x027763ebD87732Fc7889917a9b5F589adfe7DFD9"
      ],
      "transaction": {
        "from": "0x5AC7577C0B0F8E7f55B9144fBcB64AB4778084d5",
        "to": "0xdbe29C77b40aC32b8f7299C16C76e1ef47FA9614",
        "gas": "0x1939c",
        "value": "0x0",
        "input": "0x0815f6fdaffed0e000000000000000000000000000000000000000000000000000000000000000000000000000000000027763ebd87732fc7889917a9b5f589adfe7dfd9",
        "nonce": "0x126",
        "chainId": "0x14a34"
      },
      "additionalContracts": [],
      "isFixedGasLimit": false
    },
    {
      "hash": "0x9b8f5852d2f5b300240e684e6ad3e78fc406081508bffe67cd4feb815893841a",
      "transactionType": "CALL",
      "contractName": "Dictionary_0",
      "contractAddress": "0xdbe29C77b40aC32b8f7299C16C76e1ef47FA9614",
      "function": "setImplementation(bytes4,address)",
      "arguments": [
        "0x96c705e5",
        "0x027763ebD87732Fc7889917a9b5F589adfe7DFD9"
      ],
      "transaction": {
        "from": "0x5AC7577C0B0F8E7f55B9144fBcB64AB4778084d5",
        "to": "0xdbe29C77b40aC32b8f7299C16C76e1ef47FA9614",
        "gas": "0x19717",
        "value": "0x0",
        "input": "0x0815f6fd96c705e500000000000000000000000000000000000000000000000000000000000000000000000000000000027763ebd87732fc7889917a9b5f589adfe7dfd9",
        "nonce": "0x127",
        "chainId": "0x14a34"
      },
      "additionalContracts": [],
      "isFixedGasLimit": false
    },
    {
      "hash": "0x31024cfaaca5354e5ed5941e9621ae3c4107b26c9d368e874e6bd3bbcd4b3d63",
      "transactionType": "CALL",
      "contractName": "Dictionary_0",
      "contractAddress": "0xdbe29C77b40aC32b8f7299C16C76e1ef47FA9614",
      "function": "setImplementation(bytes4,address)",
      "arguments": [
        "0xc30a0f25",
        "0x027763ebD87732Fc7889917a9b5F589adfe7DFD9"
      ],
      "transaction": {
        "from": "0x5AC7577C0B0F8E7f55B9144fBcB64AB4778084d5",
        "to": "0xdbe29C77b40aC32b8f7299C16C76e1ef47FA9614",
        "gas": "0x183c4",
        "value": "0x0",
        "input": "0x0815f6fdc30a0f2500000000000000000000000000000000000000000000000000000000000000000000000000000000027763ebd87732fc7889917a9b5f589adfe7dfd9",
        "nonce": "0x128",
        "chainId": "0x14a34"
      },
      "additionalContracts": [],
      "isFixedGasLimit": false
    },
    {
      "hash": "0x4327add702376c7fcef52653b8fbb46d7e3cbb83606bf7794557eb5bb89a2000",
      "transactionType": "CALL",
      "contractName": "Dictionary_0",
      "contractAddress": "0xdbe29C77b40aC32b8f7299C16C76e1ef47FA9614",
      "function": "upgradeFacade(address)",
      "arguments": [
        "0x880A1b1259164C25C86aE8377fE5a2f0bb1F08dd"
      ],
      "transaction": {
        "from": "0x5AC7577C0B0F8E7f55B9144fBcB64AB4778084d5",
        "to": "0xdbe29C77b40aC32b8f7299C16C76e1ef47FA9614",
        "gas": "0x10dbe",
        "value": "0x0",
        "input": "0x651dc03d000000000000000000000000880a1b1259164c25c86ae8377fe5a2f0bb1f08dd",
        "nonce": "0x129",
        "chainId": "0x14a34"
      },
      "additionalContracts": [],
      "isFixedGasLimit": false
    }
  ],
  "receipts": [
    {
      "status": "0x1",
      "cumulativeGasUsed": "0x90e1c",
      "logs": [],
      "logsBloom": "0x00000000000000000000000000000000000000000000000000000000000000000000000000000000000000000000000000000000000000000000000000000000000000000000000000000000000000000000000000000000000000000000000000000000000000000000000000000000000000000000000000000000000000000000000000000000000000000000000000000000000000000000000000000000000000000000000000000000000000000000000000000000000000000000000000000000000000000000000000000000000000000000000000000000000000000000000000000000000000000000000000000000000000000000000000000000",
      "type": "0x2",
      "transactionHash": "0x8005e889896bde8f0f298d4f4403f64705be17ffde19f2a4ca11439a8ff4089b",
      "transactionIndex": "0x4",
      "blockHash": "0x61222daf5770113f5442d7ca5758baf102a683cf00f3e86c71a79c6e4ce9a564",
      "blockNumber": "0x11c4948",
      "gasUsed": "0x22069",
      "effectiveGasPrice": "0xc560",
      "from": "0x5AC7577C0B0F8E7f55B9144fBcB64AB4778084d5",
      "to": null,
      "contractAddress": "0x19E334F0C6e4D58f8b4a108858639dE7553698eb",
      "l1BaseFeeScalar": "0x44d",
      "l1BlobBaseFee": "0x1",
      "l1BlobBaseFeeScalar": "0xa118b",
      "l1Fee": "0x117bce6f1",
      "l1GasPrice": "0x3423c27e",
      "l1GasUsed": "0x1308"
    },
    {
      "status": "0x1",
      "cumulativeGasUsed": "0xc38da",
      "logs": [],
      "logsBloom": "0x00000000000000000000000000000000000000000000000000000000000000000000000000000000000000000000000000000000000000000000000000000000000000000000000000000000000000000000000000000000000000000000000000000000000000000000000000000000000000000000000000000000000000000000000000000000000000000000000000000000000000000000000000000000000000000000000000000000000000000000000000000000000000000000000000000000000000000000000000000000000000000000000000000000000000000000000000000000000000000000000000000000000000000000000000000000",
      "type": "0x2",
      "transactionHash": "0x2a77cf1b669d7552f3586900e9155c5b5b2a125ac0e8eb57f00dad20cb08ea3c",
      "transactionIndex": "0x5",
      "blockHash": "0x61222daf5770113f5442d7ca5758baf102a683cf00f3e86c71a79c6e4ce9a564",
      "blockNumber": "0x11c4948",
      "gasUsed": "0x32abe",
      "effectiveGasPrice": "0xc560",
      "from": "0x5AC7577C0B0F8E7f55B9144fBcB64AB4778084d5",
      "to": null,
      "contractAddress": "0x500aa6348BdDC1eb7446330544510FDe95cF952e",
      "l1BaseFeeScalar": "0x44d",
      "l1BlobBaseFee": "0x1",
      "l1BlobBaseFeeScalar": "0xa118b",
      "l1Fee": "0x217969394",
      "l1GasPrice": "0x3423c27e",
      "l1GasUsed": "0x2471"
    },
    {
      "status": "0x1",
      "cumulativeGasUsed": "0x10723d",
      "logs": [],
      "logsBloom": "0x00000000000000000000000000000000000000000000000000000000000000000000000000000000000000000000000000000000000000000000000000000000000000000000000000000000000000000000000000000000000000000000000000000000000000000000000000000000000000000000000000000000000000000000000000000000000000000000000000000000000000000000000000000000000000000000000000000000000000000000000000000000000000000000000000000000000000000000000000000000000000000000000000000000000000000000000000000000000000000000000000000000000000000000000000000000",
      "type": "0x2",
      "transactionHash": "0x15a5f6baee9aa54f1f3fcf692bcbadb4adbd4edde19db1ec6771763b7a2ed976",
      "transactionIndex": "0x6",
      "blockHash": "0x61222daf5770113f5442d7ca5758baf102a683cf00f3e86c71a79c6e4ce9a564",
      "blockNumber": "0x11c4948",
      "gasUsed": "0x43963",
      "effectiveGasPrice": "0xc560",
      "from": "0x5AC7577C0B0F8E7f55B9144fBcB64AB4778084d5",
      "to": null,
      "contractAddress": "0xB0C8c310144Cb4AB77677aC592DF16187A51cca3",
      "l1BaseFeeScalar": "0x44d",
      "l1BlobBaseFee": "0x1",
      "l1BlobBaseFeeScalar": "0xa118b",
      "l1Fee": "0x2ba78cbab",
      "l1GasPrice": "0x3423c27e",
      "l1GasUsed": "0x2f87"
    },
    {
      "status": "0x1",
      "cumulativeGasUsed": "0x1b623e",
      "logs": [],
      "logsBloom": "0x00000000000000000000000000000000000000000000000000000000000000000000000000000000000000000000000000000000000000000000000000000000000000000000000000000000000000000000000000000000000000000000000000000000000000000000000000000000000000000000000000000000000000000000000000000000000000000000000000000000000000000000000000000000000000000000000000000000000000000000000000000000000000000000000000000000000000000000000000000000000000000000000000000000000000000000000000000000000000000000000000000000000000000000000000000000",
      "type": "0x2",
      "transactionHash": "0x74de507a1d826e1f43fb5c59b35f2ab36f1d674ba0fe48493886a4636e9f68d0",
      "transactionIndex": "0x7",
      "blockHash": "0x61222daf5770113f5442d7ca5758baf102a683cf00f3e86c71a79c6e4ce9a564",
      "blockNumber": "0x11c4948",
      "gasUsed": "0xaf001",
      "effectiveGasPrice": "0xc560",
      "from": "0x5AC7577C0B0F8E7f55B9144fBcB64AB4778084d5",
      "to": null,
      "contractAddress": "0x841f28DcB344EfA5941a8994ed45668060c7B16c",
      "l1BaseFeeScalar": "0x44d",
      "l1BlobBaseFee": "0x1",
      "l1BlobBaseFeeScalar": "0xa118b",
      "l1Fee": "0x6dbadd720",
      "l1GasPrice": "0x3423c27e",
      "l1GasUsed": "0x7777"
    },
    {
      "status": "0x1",
      "cumulativeGasUsed": "0x24e27c",
      "logs": [],
      "logsBloom": "0x00000000000000000000000000000000000000000000000000000000000000000000000000000000000000000000000000000000000000000000000000000000000000000000000000000000000000000000000000000000000000000000000000000000000000000000000000000000000000000000000000000000000000000000000000000000000000000000000000000000000000000000000000000000000000000000000000000000000000000000000000000000000000000000000000000000000000000000000000000000000000000000000000000000000000000000000000000000000000000000000000000000000000000000000000000000",
      "type": "0x2",
      "transactionHash": "0xa73a0bc4269f59fc6c2d9b7c11ee19f96e2a0f124ac69d7094b859066ad61eb8",
      "transactionIndex": "0x8",
      "blockHash": "0x61222daf5770113f5442d7ca5758baf102a683cf00f3e86c71a79c6e4ce9a564",
      "blockNumber": "0x11c4948",
      "gasUsed": "0x9803e",
      "effectiveGasPrice": "0xc560",
      "from": "0x5AC7577C0B0F8E7f55B9144fBcB64AB4778084d5",
      "to": null,
      "contractAddress": "0x648ED7295EE64904994F601d2dBfe888C5d7f498",
      "l1BaseFeeScalar": "0x44d",
      "l1BlobBaseFee": "0x1",
      "l1BlobBaseFeeScalar": "0xa118b",
      "l1Fee": "0x6061619a6",
      "l1GasPrice": "0x3423c27e",
      "l1GasUsed": "0x68ee"
    },
    {
      "status": "0x1",
      "cumulativeGasUsed": "0x288566",
      "logs": [],
      "logsBloom": "0x00000000000000000000000000000000000000000000000000000000000000000000000000000000000000000000000000000000000000000000000000000000000000000000000000000000000000000000000000000000000000000000000000000000000000000000000000000000000000000000000000000000000000000000000000000000000000000000000000000000000000000000000000000000000000000000000000000000000000000000000000000000000000000000000000000000000000000000000000000000000000000000000000000000000000000000000000000000000000000000000000000000000000000000000000000000",
      "type": "0x2",
      "transactionHash": "0xb056e6f87110577826869bb064b04005dd9e02b6ff12e0334a308094d6a93715",
      "transactionIndex": "0x9",
      "blockHash": "0x61222daf5770113f5442d7ca5758baf102a683cf00f3e86c71a79c6e4ce9a564",
      "blockNumber": "0x11c4948",
      "gasUsed": "0x3a2ea",
      "effectiveGasPrice": "0xc560",
      "from": "0x5AC7577C0B0F8E7f55B9144fBcB64AB4778084d5",
      "to": null,
      "contractAddress": "0x027763ebD87732Fc7889917a9b5F589adfe7DFD9",
      "l1BaseFeeScalar": "0x44d",
      "l1BlobBaseFee": "0x1",
      "l1BlobBaseFeeScalar": "0xa118b",
      "l1Fee": "0x1ee1954fd",
      "l1GasPrice": "0x3423c27e",
      "l1GasUsed": "0x219f"
    },
    {
      "status": "0x1",
      "cumulativeGasUsed": "0x2c85d0",
      "logs": [],
      "logsBloom": "0x00000000000000000000000000000000000000000000000000000000000000000000000000000000000000000000000000000000000000000000000000000000000000000000000000000000000000000000000000000000000000000000000000000000000000000000000000000000000000000000000000000000000000000000000000000000000000000000000000000000000000000000000000000000000000000000000000000000000000000000000000000000000000000000000000000000000000000000000000000000000000000000000000000000000000000000000000000000000000000000000000000000000000000000000000000000",
      "type": "0x2",
      "transactionHash": "0xcfaaa1cbcbfa3752b70140b393af2fddd63b5b9cfe877116ba7e5957f69950a2",
      "transactionIndex": "0xa",
      "blockHash": "0x61222daf5770113f5442d7ca5758baf102a683cf00f3e86c71a79c6e4ce9a564",
      "blockNumber": "0x11c4948",
      "gasUsed": "0x4006a",
      "effectiveGasPrice": "0xc560",
      "from": "0x5AC7577C0B0F8E7f55B9144fBcB64AB4778084d5",
      "to": null,
      "contractAddress": "0x880A1b1259164C25C86aE8377fE5a2f0bb1F08dd",
      "l1BaseFeeScalar": "0x44d",
      "l1BlobBaseFee": "0x1",
      "l1BlobBaseFeeScalar": "0xa118b",
      "l1Fee": "0x2792a2b84",
      "l1GasPrice": "0x3423c27e",
      "l1GasUsed": "0x2b15"
    },
    {
      "status": "0x1",
      "cumulativeGasUsed": "0x349430",
      "logs": [
        {
          "address": "0xdbe29C77b40aC32b8f7299C16C76e1ef47FA9614",
          "topics": [
            "0x8be0079c531659141344cd1fd0a4f28419497f9722a3daafe3b4186f6b6457e0",
            "0x0000000000000000000000000000000000000000000000000000000000000000",
            "0x0000000000000000000000005ac7577c0b0f8e7f55b9144fbcb64ab4778084d5"
          ],
          "data": "0x",
          "blockHash": "0x61222daf5770113f5442d7ca5758baf102a683cf00f3e86c71a79c6e4ce9a564",
          "blockNumber": "0x11c4948",
          "transactionHash": "0x0ed1b82c66544eef8ff704d34dd0cd2a76eb4f50a11eb508cc4f9982d63ed7f8",
          "transactionIndex": "0xb",
          "logIndex": "0xa",
          "removed": false
        }
      ],
      "logsBloom": "0x00000000000000000000000000000000000000000000000000800000000000000000000000000000000000000000000000000000000000000000000000000000000000000000000000000000000000000001000000000000000000000000000000000000020000000000000000000800000000000000000000000000000000400000000000000000000000100000000000000000000000000000000000000000000000000000000000000000004000040400000000000000000000000000000000000000000000000000000000000000000000000000000000000000000020000000000000001000000000000000000000000000000000000000000000000000",
      "type": "0x2",
      "transactionHash": "0x0ed1b82c66544eef8ff704d34dd0cd2a76eb4f50a11eb508cc4f9982d63ed7f8",
      "transactionIndex": "0xb",
      "blockHash": "0x61222daf5770113f5442d7ca5758baf102a683cf00f3e86c71a79c6e4ce9a564",
      "blockNumber": "0x11c4948",
      "gasUsed": "0x80e60",
      "effectiveGasPrice": "0xc560",
      "from": "0x5AC7577C0B0F8E7f55B9144fBcB64AB4778084d5",
      "to": null,
      "contractAddress": "0xdbe29C77b40aC32b8f7299C16C76e1ef47FA9614",
      "l1BaseFeeScalar": "0x44d",
      "l1BlobBaseFee": "0x1",
      "l1BlobBaseFeeScalar": "0xa118b",
      "l1Fee": "0x5478b0d2a",
      "l1GasPrice": "0x3423c27e",
      "l1GasUsed": "0x5bf7"
    },
    {
      "status": "0x1",
      "cumulativeGasUsed": "0x360bed",
      "logs": [
        {
          "address": "0xdbe29C77b40aC32b8f7299C16C76e1ef47FA9614",
          "topics": [
            "0xbe533f538959a17d76f1b09e966e741ee3b1183099682f96216c93d21feaecba"
          ],
          "data": "0x019e272900000000000000000000000000000000000000000000000000000000",
          "blockHash": "0x61222daf5770113f5442d7ca5758baf102a683cf00f3e86c71a79c6e4ce9a564",
          "blockNumber": "0x11c4948",
          "transactionHash": "0x172bdbf570354b6a2b1ca2d8784715bdf643b6fd2ff9d3d92948f43472634a70",
          "transactionIndex": "0xc",
          "logIndex": "0xb",
          "removed": false
        },
        {
          "address": "0xdbe29C77b40aC32b8f7299C16C76e1ef47FA9614",
          "topics": [
            "0xda3c8142b3c1d27633026f55bfcb4eeb0b5b8db0daa0a3e10c2213a441722ad1"
          ],
          "data": "0x019e27290000000000000000000000000000000000000000000000000000000000000000000000000000000019e334f0c6e4d58f8b4a108858639de7553698eb",
          "blockHash": "0x61222daf5770113f5442d7ca5758baf102a683cf00f3e86c71a79c6e4ce9a564",
          "blockNumber": "0x11c4948",
          "transactionHash": "0x172bdbf570354b6a2b1ca2d8784715bdf643b6fd2ff9d3d92948f43472634a70",
          "transactionIndex": "0xc",
          "logIndex": "0xc",
          "removed": false
        }
      ],
      "logsBloom": "0x00000000000000000000000000000000000000000000000000000000000000080000000000000000000000000000000000000000000000000000000000000000000000000000000000000000000000000000000000000000000000000000000000000000000000000000200000000000000000000000000010000000000000400000000000000000000000000000100000000000000000000000000000000000000000000000000000004000084000040000000000000000000000000000000000000000000000000000000000000000000000000000000000000000000000000000000000000000000000000000000000000000000000000000000000000000",
      "type": "0x2",
      "transactionHash": "0x172bdbf570354b6a2b1ca2d8784715bdf643b6fd2ff9d3d92948f43472634a70",
      "transactionIndex": "0xc",
      "blockHash": "0x61222daf5770113f5442d7ca5758baf102a683cf00f3e86c71a79c6e4ce9a564",
      "blockNumber": "0x11c4948",
      "gasUsed": "0x177bd",
      "effectiveGasPrice": "0xc560",
      "from": "0x5AC7577C0B0F8E7f55B9144fBcB64AB4778084d5",
      "to": "0xdbe29C77b40aC32b8f7299C16C76e1ef47FA9614",
      "contractAddress": null,
      "l1BaseFeeScalar": "0x44d",
      "l1BlobBaseFee": "0x1",
      "l1BlobBaseFeeScalar": "0xa118b",
      "l1Fee": "0x5bd96a20",
      "l1GasPrice": "0x3423c27e",
      "l1GasUsed": "0x640"
    },
    {
      "status": "0x1",
      "cumulativeGasUsed": "0x370074",
      "logs": [
        {
          "address": "0xdbe29C77b40aC32b8f7299C16C76e1ef47FA9614",
          "topics": [
            "0xbe533f538959a17d76f1b09e966e741ee3b1183099682f96216c93d21feaecba"
          ],
          "data": "0xffa1a33a00000000000000000000000000000000000000000000000000000000",
          "blockHash": "0x61222daf5770113f5442d7ca5758baf102a683cf00f3e86c71a79c6e4ce9a564",
          "blockNumber": "0x11c4948",
          "transactionHash": "0x5cd889febca139134f3db036b23b7416331245124a07fc7b936cbcb5aae97d17",
          "transactionIndex": "0xd",
          "logIndex": "0xd",
          "removed": false
        },
        {
          "address": "0xdbe29C77b40aC32b8f7299C16C76e1ef47FA9614",
          "topics": [
            "0xda3c8142b3c1d27633026f55bfcb4eeb0b5b8db0daa0a3e10c2213a441722ad1"
          ],
          "data": "0xffa1a33a00000000000000000000000000000000000000000000000000000000000000000000000000000000500aa6348bddc1eb7446330544510fde95cf952e",
          "blockHash": "0x61222daf5770113f5442d7ca5758baf102a683cf00f3e86c71a79c6e4ce9a564",
          "blockNumber": "0x11c4948",
          "transactionHash": "0x5cd889febca139134f3db036b23b7416331245124a07fc7b936cbcb5aae97d17",
          "transactionIndex": "0xd",
          "logIndex": "0xe",
          "removed": false
        }
      ],
      "logsBloom": "0x00000000000000000000000000000000000000000000000000000000000000080000000000000000000000000000000000000000000000000000000000000000000000000000000000000000000000000000000000000000000000000000000000000000000000000000200000000000000000000000000010000000000000400000000000000000000000000000100000000000000000000000000000000000000000000000000000004000084000040000000000000000000000000000000000000000000000000000000000000000000000000000000000000000000000000000000000000000000000000000000000000000000000000000000000000000",
      "type": "0x2",
      "transactionHash": "0x5cd889febca139134f3db036b23b7416331245124a07fc7b936cbcb5aae97d17",
      "transactionIndex": "0xd",
      "blockHash": "0x61222daf5770113f5442d7ca5758baf102a683cf00f3e86c71a79c6e4ce9a564",
      "blockNumber": "0x11c4948",
      "gasUsed": "0xf487",
      "effectiveGasPrice": "0xc560",
      "from": "0x5AC7577C0B0F8E7f55B9144fBcB64AB4778084d5",
      "to": "0xdbe29C77b40aC32b8f7299C16C76e1ef47FA9614",
      "contractAddress": null,
      "l1BaseFeeScalar": "0x44d",
      "l1BlobBaseFee": "0x1",
      "l1BlobBaseFeeScalar": "0xa118b",
      "l1Fee": "0x5bd96a20",
      "l1GasPrice": "0x3423c27e",
      "l1GasUsed": "0x640"
    },
    {
      "status": "0x1",
      "cumulativeGasUsed": "0x37f75d",
      "logs": [
        {
          "address": "0xdbe29C77b40aC32b8f7299C16C76e1ef47FA9614",
          "topics": [
            "0xbe533f538959a17d76f1b09e966e741ee3b1183099682f96216c93d21feaecba"
          ],
          "data": "0xaa14cc6b00000000000000000000000000000000000000000000000000000000",
          "blockHash": "0x61222daf5770113f5442d7ca5758baf102a683cf00f3e86c71a79c6e4ce9a564",
          "blockNumber": "0x11c4948",
          "transactionHash": "0xaf9d87d09fe0f500a6d6da31d969ca877fdd1732408c634131fceeec8c2c95f4",
          "transactionIndex": "0xe",
          "logIndex": "0xf",
          "removed": false
        },
        {
          "address": "0xdbe29C77b40aC32b8f7299C16C76e1ef47FA9614",
          "topics": [
            "0xda3c8142b3c1d27633026f55bfcb4eeb0b5b8db0daa0a3e10c2213a441722ad1"
          ],
          "data": "0xaa14cc6b00000000000000000000000000000000000000000000000000000000000000000000000000000000b0c8c310144cb4ab77677ac592df16187a51cca3",
          "blockHash": "0x61222daf5770113f5442d7ca5758baf102a683cf00f3e86c71a79c6e4ce9a564",
          "blockNumber": "0x11c4948",
          "transactionHash": "0xaf9d87d09fe0f500a6d6da31d969ca877fdd1732408c634131fceeec8c2c95f4",
          "transactionIndex": "0xe",
          "logIndex": "0x10",
          "removed": false
        }
      ],
      "logsBloom": "0x00000000000000000000000000000000000000000000000000000000000000080000000000000000000000000000000000000000000000000000000000000000000000000000000000000000000000000000000000000000000000000000000000000000000000000000200000000000000000000000000010000000000000400000000000000000000000000000100000000000000000000000000000000000000000000000000000004000084000040000000000000000000000000000000000000000000000000000000000000000000000000000000000000000000000000000000000000000000000000000000000000000000000000000000000000000",
      "type": "0x2",
      "transactionHash": "0xaf9d87d09fe0f500a6d6da31d969ca877fdd1732408c634131fceeec8c2c95f4",
      "transactionIndex": "0xe",
      "blockHash": "0x61222daf5770113f5442d7ca5758baf102a683cf00f3e86c71a79c6e4ce9a564",
      "blockNumber": "0x11c4948",
      "gasUsed": "0xf6e9",
      "effectiveGasPrice": "0xc560",
      "from": "0x5AC7577C0B0F8E7f55B9144fBcB64AB4778084d5",
      "to": "0xdbe29C77b40aC32b8f7299C16C76e1ef47FA9614",
      "contractAddress": null,
      "l1BaseFeeScalar": "0x44d",
      "l1BlobBaseFee": "0x1",
      "l1BlobBaseFeeScalar": "0xa118b",
      "l1Fee": "0x5bd96a20",
      "l1GasPrice": "0x3423c27e",
      "l1GasUsed": "0x640"
    },
    {
      "status": "0x1",
      "cumulativeGasUsed": "0x38f0a8",
      "logs": [
        {
          "address": "0xdbe29C77b40aC32b8f7299C16C76e1ef47FA9614",
          "topics": [
            "0xbe533f538959a17d76f1b09e966e741ee3b1183099682f96216c93d21feaecba"
          ],
          "data": "0x985e127c00000000000000000000000000000000000000000000000000000000",
          "blockHash": "0x61222daf5770113f5442d7ca5758baf102a683cf00f3e86c71a79c6e4ce9a564",
          "blockNumber": "0x11c4948",
          "transactionHash": "0x155672f4cac54f12e1c43ec7737e28fec88d898af7997aa4863f5a78ea498c4c",
          "transactionIndex": "0xf",
          "logIndex": "0x11",
          "removed": false
        },
        {
          "address": "0xdbe29C77b40aC32b8f7299C16C76e1ef47FA9614",
          "topics": [
            "0xda3c8142b3c1d27633026f55bfcb4eeb0b5b8db0daa0a3e10c2213a441722ad1"
          ],
          "data": "0x985e127c00000000000000000000000000000000000000000000000000000000000000000000000000000000841f28dcb344efa5941a8994ed45668060c7b16c",
          "blockHash": "0x61222daf5770113f5442d7ca5758baf102a683cf00f3e86c71a79c6e4ce9a564",
          "blockNumber": "0x11c4948",
          "transactionHash": "0x155672f4cac54f12e1c43ec7737e28fec88d898af7997aa4863f5a78ea498c4c",
          "transactionIndex": "0xf",
          "logIndex": "0x12",
          "removed": false
        }
      ],
      "logsBloom": "0x00000000000000000000000000000000000000000000000000000000000000080000000000000000000000000000000000000000000000000000000000000000000000000000000000000000000000000000000000000000000000000000000000000000000000000000200000000000000000000000000010000000000000400000000000000000000000000000100000000000000000000000000000000000000000000000000000004000084000040000000000000000000000000000000000000000000000000000000000000000000000000000000000000000000000000000000000000000000000000000000000000000000000000000000000000000",
      "type": "0x2",
      "transactionHash": "0x155672f4cac54f12e1c43ec7737e28fec88d898af7997aa4863f5a78ea498c4c",
      "transactionIndex": "0xf",
      "blockHash": "0x61222daf5770113f5442d7ca5758baf102a683cf00f3e86c71a79c6e4ce9a564",
      "blockNumber": "0x11c4948",
      "gasUsed": "0xf94b",
      "effectiveGasPrice": "0xc560",
      "from": "0x5AC7577C0B0F8E7f55B9144fBcB64AB4778084d5",
      "to": "0xdbe29C77b40aC32b8f7299C16C76e1ef47FA9614",
      "contractAddress": null,
      "l1BaseFeeScalar": "0x44d",
      "l1BlobBaseFee": "0x1",
      "l1BlobBaseFeeScalar": "0xa118b",
      "l1Fee": "0x5bd96a20",
      "l1GasPrice": "0x3423c27e",
      "l1GasUsed": "0x640"
    },
    {
      "status": "0x1",
      "cumulativeGasUsed": "0x39ec55",
      "logs": [
        {
          "address": "0xdbe29C77b40aC32b8f7299C16C76e1ef47FA9614",
          "topics": [
            "0xbe533f538959a17d76f1b09e966e741ee3b1183099682f96216c93d21feaecba"
          ],
          "data": "0xe6424a5e00000000000000000000000000000000000000000000000000000000",
          "blockHash": "0x61222daf5770113f5442d7ca5758baf102a683cf00f3e86c71a79c6e4ce9a564",
          "blockNumber": "0x11c4948",
          "transactionHash": "0x5de7f0cb4fc2f0c5202fea1fe508be477cc418e09c3cf74aedb4f0dc9702500c",
          "transactionIndex": "0x10",
          "logIndex": "0x13",
          "removed": false
        },
        {
          "address": "0xdbe29C77b40aC32b8f7299C16C76e1ef47FA9614",
          "topics": [
            "0xda3c8142b3c1d27633026f55bfcb4eeb0b5b8db0daa0a3e10c2213a441722ad1"
          ],
          "data": "0xe6424a5e00000000000000000000000000000000000000000000000000000000000000000000000000000000648ed7295ee64904994f601d2dbfe888c5d7f498",
          "blockHash": "0x61222daf5770113f5442d7ca5758baf102a683cf00f3e86c71a79c6e4ce9a564",
          "blockNumber": "0x11c4948",
          "transactionHash": "0x5de7f0cb4fc2f0c5202fea1fe508be477cc418e09c3cf74aedb4f0dc9702500c",
          "transactionIndex": "0x10",
          "logIndex": "0x14",
          "removed": false
        }
      ],
      "logsBloom": "0x00000000000000000000000000000000000000000000000000000000000000080000000000000000000000000000000000000000000000000000000000000000000000000000000000000000000000000000000000000000000000000000000000000000000000000000200000000000000000000000000010000000000000400000000000000000000000000000100000000000000000000000000000000000000000000000000000004000084000040000000000000000000000000000000000000000000000000000000000000000000000000000000000000000000000000000000000000000000000000000000000000000000000000000000000000000",
      "type": "0x2",
      "transactionHash": "0x5de7f0cb4fc2f0c5202fea1fe508be477cc418e09c3cf74aedb4f0dc9702500c",
      "transactionIndex": "0x10",
      "blockHash": "0x61222daf5770113f5442d7ca5758baf102a683cf00f3e86c71a79c6e4ce9a564",
      "blockNumber": "0x11c4948",
      "gasUsed": "0xfbad",
      "effectiveGasPrice": "0xc560",
      "from": "0x5AC7577C0B0F8E7f55B9144fBcB64AB4778084d5",
      "to": "0xdbe29C77b40aC32b8f7299C16C76e1ef47FA9614",
      "contractAddress": null,
      "l1BaseFeeScalar": "0x44d",
      "l1BlobBaseFee": "0x1",
      "l1BlobBaseFeeScalar": "0xa118b",
      "l1Fee": "0x5bd96a20",
      "l1GasPrice": "0x3423c27e",
      "l1GasUsed": "0x640"
    },
    {
      "status": "0x1",
      "cumulativeGasUsed": "0x3aea64",
      "logs": [
        {
          "address": "0xdbe29C77b40aC32b8f7299C16C76e1ef47FA9614",
          "topics": [
            "0xbe533f538959a17d76f1b09e966e741ee3b1183099682f96216c93d21feaecba"
          ],
          "data": "0x8da5cb5b00000000000000000000000000000000000000000000000000000000",
          "blockHash": "0x61222daf5770113f5442d7ca5758baf102a683cf00f3e86c71a79c6e4ce9a564",
          "blockNumber": "0x11c4948",
          "transactionHash": "0x3eed979473f1708bfe6c794f35f7b9006f7a76546b74365b586652cc53e121ab",
          "transactionIndex": "0x11",
          "logIndex": "0x15",
          "removed": false
        },
        {
          "address": "0xdbe29C77b40aC32b8f7299C16C76e1ef47FA9614",
          "topics": [
            "0xda3c8142b3c1d27633026f55bfcb4eeb0b5b8db0daa0a3e10c2213a441722ad1"
          ],
          "data": "0x8da5cb5b00000000000000000000000000000000000000000000000000000000000000000000000000000000027763ebd87732fc7889917a9b5f589adfe7dfd9",
          "blockHash": "0x61222daf5770113f5442d7ca5758baf102a683cf00f3e86c71a79c6e4ce9a564",
          "blockNumber": "0x11c4948",
          "transactionHash": "0x3eed979473f1708bfe6c794f35f7b9006f7a76546b74365b586652cc53e121ab",
          "transactionIndex": "0x11",
          "logIndex": "0x16",
          "removed": false
        }
      ],
      "logsBloom": "0x00000000000000000000000000000000000000000000000000000000000000080000000000000000000000000000000000000000000000000000000000000000000000000000000000000000000000000000000000000000000000000000000000000000000000000000200000000000000000000000000010000000000000400000000000000000000000000000100000000000000000000000000000000000000000000000000000004000084000040000000000000000000000000000000000000000000000000000000000000000000000000000000000000000000000000000000000000000000000000000000000000000000000000000000000000000",
      "type": "0x2",
      "transactionHash": "0x3eed979473f1708bfe6c794f35f7b9006f7a76546b74365b586652cc53e121ab",
      "transactionIndex": "0x11",
      "blockHash": "0x61222daf5770113f5442d7ca5758baf102a683cf00f3e86c71a79c6e4ce9a564",
      "blockNumber": "0x11c4948",
      "gasUsed": "0xfe0f",
      "effectiveGasPrice": "0xc560",
      "from": "0x5AC7577C0B0F8E7f55B9144fBcB64AB4778084d5",
      "to": "0xdbe29C77b40aC32b8f7299C16C76e1ef47FA9614",
      "contractAddress": null,
      "l1BaseFeeScalar": "0x44d",
      "l1BlobBaseFee": "0x1",
      "l1BlobBaseFeeScalar": "0xa118b",
      "l1Fee": "0x5bd96a20",
      "l1GasPrice": "0x3423c27e",
      "l1GasUsed": "0x640"
    },
    {
      "status": "0x1",
      "cumulativeGasUsed": "0x1f1d59",
      "logs": [
        {
          "address": "0xdbe29C77b40aC32b8f7299C16C76e1ef47FA9614",
          "topics": [
            "0xbe533f538959a17d76f1b09e966e741ee3b1183099682f96216c93d21feaecba"
          ],
          "data": "0x09bd5a6000000000000000000000000000000000000000000000000000000000",
          "blockHash": "0x869144946fee704e4478b0a0b62673eea3408c5f27c62153296d5df647c63122",
          "blockNumber": "0x11c4949",
          "transactionHash": "0xad6e25b578cd6bf17d5e32509a8a8bc05bd99c9cb9420e07d8e3913f7b8c6427",
          "transactionIndex": "0xb",
          "logIndex": "0xf",
          "removed": false
        },
        {
          "address": "0xdbe29C77b40aC32b8f7299C16C76e1ef47FA9614",
          "topics": [
            "0xda3c8142b3c1d27633026f55bfcb4eeb0b5b8db0daa0a3e10c2213a441722ad1"
          ],
          "data": "0x09bd5a6000000000000000000000000000000000000000000000000000000000000000000000000000000000027763ebd87732fc7889917a9b5f589adfe7dfd9",
          "blockHash": "0x869144946fee704e4478b0a0b62673eea3408c5f27c62153296d5df647c63122",
          "blockNumber": "0x11c4949",
          "transactionHash": "0xad6e25b578cd6bf17d5e32509a8a8bc05bd99c9cb9420e07d8e3913f7b8c6427",
          "transactionIndex": "0xb",
          "logIndex": "0x10",
          "removed": false
        }
      ],
      "logsBloom": "0x00000000000000000000000000000000000000000000000000000000000000080000000000000000000000000000000000000000000000000000000000000000000000000000000000000000000000000000000000000000000000000000000000000000000000000000200000000000000000000000000010000000000000400000000000000000000000000000100000000000000000000000000000000000000000000000000000004000084000040000000000000000000000000000000000000000000000000000000000000000000000000000000000000000000000000000000000000000000000000000000000000000000000000000000000000000",
      "type": "0x2",
      "transactionHash": "0xad6e25b578cd6bf17d5e32509a8a8bc05bd99c9cb9420e07d8e3913f7b8c6427",
      "transactionIndex": "0xb",
      "blockHash": "0x869144946fee704e4478b0a0b62673eea3408c5f27c62153296d5df647c63122",
      "blockNumber": "0x11c4949",
      "gasUsed": "0x10071",
      "effectiveGasPrice": "0xc560",
      "from": "0x5AC7577C0B0F8E7f55B9144fBcB64AB4778084d5",
      "to": "0xdbe29C77b40aC32b8f7299C16C76e1ef47FA9614",
      "contractAddress": null,
      "l1BaseFeeScalar": "0x44d",
      "l1BlobBaseFee": "0x1",
      "l1BlobBaseFeeScalar": "0xa118b",
      "l1Fee": "0x5bd96a20",
      "l1GasPrice": "0x3423c27e",
      "l1GasUsed": "0x640"
    },
    {
      "status": "0x1",
      "cumulativeGasUsed": "0x20202c",
      "logs": [
        {
          "address": "0xdbe29C77b40aC32b8f7299C16C76e1ef47FA9614",
          "topics": [
            "0xbe533f538959a17d76f1b09e966e741ee3b1183099682f96216c93d21feaecba"
          ],
          "data": "0xa4e2d63400000000000000000000000000000000000000000000000000000000",
          "blockHash": "0x869144946fee704e4478b0a0b62673eea3408c5f27c62153296d5df647c63122",
          "blockNumber": "0x11c4949",
          "transactionHash": "0xca828990d002e1b75cff00a29eb597e3b87d97edcbe4b6250bde16c03379243b",
          "transactionIndex": "0xc",
          "logIndex": "0x11",
          "removed": false
        },
        {
          "address": "0xdbe29C77b40aC32b8f7299C16C76e1ef47FA9614",
          "topics": [
            "0xda3c8142b3c1d27633026f55bfcb4eeb0b5b8db0daa0a3e10c2213a441722ad1"
          ],
          "data": "0xa4e2d63400000000000000000000000000000000000000000000000000000000000000000000000000000000027763ebd87732fc7889917a9b5f589adfe7dfd9",
          "blockHash": "0x869144946fee704e4478b0a0b62673eea3408c5f27c62153296d5df647c63122",
          "blockNumber": "0x11c4949",
          "transactionHash": "0xca828990d002e1b75cff00a29eb597e3b87d97edcbe4b6250bde16c03379243b",
          "transactionIndex": "0xc",
          "logIndex": "0x12",
          "removed": false
        }
      ],
      "logsBloom": "0x00000000000000000000000000000000000000000000000000000000000000080000000000000000000000000000000000000000000000000000000000000000000000000000000000000000000000000000000000000000000000000000000000000000000000000000200000000000000000000000000010000000000000400000000000000000000000000000100000000000000000000000000000000000000000000000000000004000084000040000000000000000000000000000000000000000000000000000000000000000000000000000000000000000000000000000000000000000000000000000000000000000000000000000000000000000",
      "type": "0x2",
      "transactionHash": "0xca828990d002e1b75cff00a29eb597e3b87d97edcbe4b6250bde16c03379243b",
      "transactionIndex": "0xc",
      "blockHash": "0x869144946fee704e4478b0a0b62673eea3408c5f27c62153296d5df647c63122",
      "blockNumber": "0x11c4949",
      "gasUsed": "0x102d3",
      "effectiveGasPrice": "0xc560",
      "from": "0x5AC7577C0B0F8E7f55B9144fBcB64AB4778084d5",
      "to": "0xdbe29C77b40aC32b8f7299C16C76e1ef47FA9614",
      "contractAddress": null,
      "l1BaseFeeScalar": "0x44d",
      "l1BlobBaseFee": "0x1",
      "l1BlobBaseFeeScalar": "0xa118b",
      "l1Fee": "0x5bd96a20",
      "l1GasPrice": "0x3423c27e",
      "l1GasUsed": "0x640"
    },
    {
      "status": "0x1",
      "cumulativeGasUsed": "0x90b6b",
      "logs": [
        {
          "address": "0xdbe29C77b40aC32b8f7299C16C76e1ef47FA9614",
          "topics": [
            "0xbe533f538959a17d76f1b09e966e741ee3b1183099682f96216c93d21feaecba"
          ],
          "data": "0x8fe8a10100000000000000000000000000000000000000000000000000000000",
          "blockHash": "0x583fcc38accb473958ca8c1e4c15b442939e9eef453e72b9cc825913e9948901",
          "blockNumber": "0x11c494a",
          "transactionHash": "0xda001d7ee192a1d533ec2d52b479fa8135d893490ef02b32db35672bd679e52a",
          "transactionIndex": "0x6",
          "logIndex": "0xb",
          "removed": false
        },
        {
          "address": "0xdbe29C77b40aC32b8f7299C16C76e1ef47FA9614",
          "topics": [
            "0xda3c8142b3c1d27633026f55bfcb4eeb0b5b8db0daa0a3e10c2213a441722ad1"
          ],
          "data": "0x8fe8a10100000000000000000000000000000000000000000000000000000000000000000000000000000000027763ebd87732fc7889917a9b5f589adfe7dfd9",
          "blockHash": "0x583fcc38accb473958ca8c1e4c15b442939e9eef453e72b9cc825913e9948901",
          "blockNumber": "0x11c494a",
          "transactionHash": "0xda001d7ee192a1d533ec2d52b479fa8135d893490ef02b32db35672bd679e52a",
          "transactionIndex": "0x6",
          "logIndex": "0xc",
          "removed": false
        }
      ],
      "logsBloom": "0x00000000000000000000000000000000000000000000000000000000000000080000000000000000000000000000000000000000000000000000000000000000000000000000000000000000000000000000000000000000000000000000000000000000000000000000200000000000000000000000000010000000000000400000000000000000000000000000100000000000000000000000000000000000000000000000000000004000084000040000000000000000000000000000000000000000000000000000000000000000000000000000000000000000000000000000000000000000000000000000000000000000000000000000000000000000",
      "type": "0x2",
      "transactionHash": "0xda001d7ee192a1d533ec2d52b479fa8135d893490ef02b32db35672bd679e52a",
      "transactionIndex": "0x6",
      "blockHash": "0x583fcc38accb473958ca8c1e4c15b442939e9eef453e72b9cc825913e9948901",
      "blockNumber": "0x11c494a",
      "gasUsed": "0x14f9f",
      "effectiveGasPrice": "0xc560",
      "from": "0x5AC7577C0B0F8E7f55B9144fBcB64AB4778084d5",
      "to": "0xdbe29C77b40aC32b8f7299C16C76e1ef47FA9614",
      "contractAddress": null,
      "l1BaseFeeScalar": "0x44d",
      "l1BlobBaseFee": "0x1",
      "l1BlobBaseFeeScalar": "0xa118b",
      "l1Fee": "0x5bd96a20",
      "l1GasPrice": "0x3423c27e",
      "l1GasUsed": "0x640"
    },
    {
      "status": "0x1",
      "cumulativeGasUsed": "0xa1aa0",
      "logs": [
        {
          "address": "0xdbe29C77b40aC32b8f7299C16C76e1ef47FA9614",
          "topics": [
            "0xbe533f538959a17d76f1b09e966e741ee3b1183099682f96216c93d21feaecba"
          ],
          "data": "0x0455444300000000000000000000000000000000000000000000000000000000",
          "blockHash": "0x583fcc38accb473958ca8c1e4c15b442939e9eef453e72b9cc825913e9948901",
          "blockNumber": "0x11c494a",
          "transactionHash": "0x0f74b34f221af1e33c77110585d198da461c3631bc376fd8f72472bbc78df955",
          "transactionIndex": "0x7",
          "logIndex": "0xd",
          "removed": false
        },
        {
          "address": "0xdbe29C77b40aC32b8f7299C16C76e1ef47FA9614",
          "topics": [
            "0xda3c8142b3c1d27633026f55bfcb4eeb0b5b8db0daa0a3e10c2213a441722ad1"
          ],
          "data": "0x0455444300000000000000000000000000000000000000000000000000000000000000000000000000000000027763ebd87732fc7889917a9b5f589adfe7dfd9",
          "blockHash": "0x583fcc38accb473958ca8c1e4c15b442939e9eef453e72b9cc825913e9948901",
          "blockNumber": "0x11c494a",
          "transactionHash": "0x0f74b34f221af1e33c77110585d198da461c3631bc376fd8f72472bbc78df955",
          "transactionIndex": "0x7",
          "logIndex": "0xe",
          "removed": false
        }
      ],
      "logsBloom": "0x00000000000000000000000000000000000000000000000000000000000000080000000000000000000000000000000000000000000000000000000000000000000000000000000000000000000000000000000000000000000000000000000000000000000000000000200000000000000000000000000010000000000000400000000000000000000000000000100000000000000000000000000000000000000000000000000000004000084000040000000000000000000000000000000000000000000000000000000000000000000000000000000000000000000000000000000000000000000000000000000000000000000000000000000000000000",
      "type": "0x2",
      "transactionHash": "0x0f74b34f221af1e33c77110585d198da461c3631bc376fd8f72472bbc78df955",
      "transactionIndex": "0x7",
      "blockHash": "0x583fcc38accb473958ca8c1e4c15b442939e9eef453e72b9cc825913e9948901",
      "blockNumber": "0x11c494a",
      "gasUsed": "0x10f35",
      "effectiveGasPrice": "0xc560",
      "from": "0x5AC7577C0B0F8E7f55B9144fBcB64AB4778084d5",
      "to": "0xdbe29C77b40aC32b8f7299C16C76e1ef47FA9614",
      "contractAddress": null,
      "l1BaseFeeScalar": "0x44d",
      "l1BlobBaseFee": "0x1",
      "l1BlobBaseFeeScalar": "0xa118b",
      "l1Fee": "0x5bd96a20",
      "l1GasPrice": "0x3423c27e",
      "l1GasUsed": "0x640"
    },
    {
      "status": "0x1",
      "cumulativeGasUsed": "0xb2c37",
      "logs": [
        {
          "address": "0xdbe29C77b40aC32b8f7299C16C76e1ef47FA9614",
          "topics": [
            "0xbe533f538959a17d76f1b09e966e741ee3b1183099682f96216c93d21feaecba"
          ],
          "data": "0x62c7fa7600000000000000000000000000000000000000000000000000000000",
          "blockHash": "0x583fcc38accb473958ca8c1e4c15b442939e9eef453e72b9cc825913e9948901",
          "blockNumber": "0x11c494a",
          "transactionHash": "0x1a55cc3df7fd5d085d6ef50d01a6dfb761ba2ac2e3dbf010e714afbffe08d27f",
          "transactionIndex": "0x8",
          "logIndex": "0xf",
          "removed": false
        },
        {
          "address": "0xdbe29C77b40aC32b8f7299C16C76e1ef47FA9614",
          "topics": [
            "0xda3c8142b3c1d27633026f55bfcb4eeb0b5b8db0daa0a3e10c2213a441722ad1"
          ],
          "data": "0x62c7fa7600000000000000000000000000000000000000000000000000000000000000000000000000000000027763ebd87732fc7889917a9b5f589adfe7dfd9",
          "blockHash": "0x583fcc38accb473958ca8c1e4c15b442939e9eef453e72b9cc825913e9948901",
          "blockNumber": "0x11c494a",
          "transactionHash": "0x1a55cc3df7fd5d085d6ef50d01a6dfb761ba2ac2e3dbf010e714afbffe08d27f",
          "transactionIndex": "0x8",
          "logIndex": "0x10",
          "removed": false
        }
      ],
      "logsBloom": "0x00000000000000000000000000000000000000000000000000000000000000080000000000000000000000000000000000000000000000000000000000000000000000000000000000000000000000000000000000000000000000000000000000000000000000000000200000000000000000000000000010000000000000400000000000000000000000000000100000000000000000000000000000000000000000000000000000004000084000040000000000000000000000000000000000000000000000000000000000000000000000000000000000000000000000000000000000000000000000000000000000000000000000000000000000000000",
      "type": "0x2",
      "transactionHash": "0x1a55cc3df7fd5d085d6ef50d01a6dfb761ba2ac2e3dbf010e714afbffe08d27f",
      "transactionIndex": "0x8",
      "blockHash": "0x583fcc38accb473958ca8c1e4c15b442939e9eef453e72b9cc825913e9948901",
      "blockNumber": "0x11c494a",
      "gasUsed": "0x11197",
      "effectiveGasPrice": "0xc560",
      "from": "0x5AC7577C0B0F8E7f55B9144fBcB64AB4778084d5",
      "to": "0xdbe29C77b40aC32b8f7299C16C76e1ef47FA9614",
      "contractAddress": null,
      "l1BaseFeeScalar": "0x44d",
      "l1BlobBaseFee": "0x1",
      "l1BlobBaseFeeScalar": "0xa118b",
      "l1Fee": "0x5bd96a20",
      "l1GasPrice": "0x3423c27e",
      "l1GasUsed": "0x640"
    },
    {
      "status": "0x1",
      "cumulativeGasUsed": "0xc4030",
      "logs": [
        {
          "address": "0xdbe29C77b40aC32b8f7299C16C76e1ef47FA9614",
          "topics": [
            "0xbe533f538959a17d76f1b09e966e741ee3b1183099682f96216c93d21feaecba"
          ],
          "data": "0xaffed0e000000000000000000000000000000000000000000000000000000000",
          "blockHash": "0x583fcc38accb473958ca8c1e4c15b442939e9eef453e72b9cc825913e9948901",
          "blockNumber": "0x11c494a",
          "transactionHash": "0xfc0eb5856e66349daf3d2d4c73fd6b88d8860752e406cb47fbaba37229684ddc",
          "transactionIndex": "0x9",
          "logIndex": "0x11",
          "removed": false
        },
        {
          "address": "0xdbe29C77b40aC32b8f7299C16C76e1ef47FA9614",
          "topics": [
            "0xda3c8142b3c1d27633026f55bfcb4eeb0b5b8db0daa0a3e10c2213a441722ad1"
          ],
          "data": "0xaffed0e000000000000000000000000000000000000000000000000000000000000000000000000000000000027763ebd87732fc7889917a9b5f589adfe7dfd9",
          "blockHash": "0x583fcc38accb473958ca8c1e4c15b442939e9eef453e72b9cc825913e9948901",
          "blockNumber": "0x11c494a",
          "transactionHash": "0xfc0eb5856e66349daf3d2d4c73fd6b88d8860752e406cb47fbaba37229684ddc",
          "transactionIndex": "0x9",
          "logIndex": "0x12",
          "removed": false
        }
      ],
      "logsBloom": "0x00000000000000000000000000000000000000000000000000000000000000080000000000000000000000000000000000000000000000000000000000000000000000000000000000000000000000000000000000000000000000000000000000000000000000000000200000000000000000000000000010000000000000400000000000000000000000000000100000000000000000000000000000000000000000000000000000004000084000040000000000000000000000000000000000000000000000000000000000000000000000000000000000000000000000000000000000000000000000000000000000000000000000000000000000000000",
      "type": "0x2",
      "transactionHash": "0xfc0eb5856e66349daf3d2d4c73fd6b88d8860752e406cb47fbaba37229684ddc",
      "transactionIndex": "0x9",
      "blockHash": "0x583fcc38accb473958ca8c1e4c15b442939e9eef453e72b9cc825913e9948901",
      "blockNumber": "0x11c494a",
      "gasUsed": "0x113f9",
      "effectiveGasPrice": "0xc560",
      "from": "0x5AC7577C0B0F8E7f55B9144fBcB64AB4778084d5",
      "to": "0xdbe29C77b40aC32b8f7299C16C76e1ef47FA9614",
      "contractAddress": null,
      "l1BaseFeeScalar": "0x44d",
      "l1BlobBaseFee": "0x1",
      "l1BlobBaseFeeScalar": "0xa118b",
      "l1Fee": "0x5bd96a20",
      "l1GasPrice": "0x3423c27e",
      "l1GasUsed": "0x640"
    },
    {
      "status": "0x1",
      "cumulativeGasUsed": "0xd568b",
      "logs": [
        {
          "address": "0xdbe29C77b40aC32b8f7299C16C76e1ef47FA9614",
          "topics": [
            "0xbe533f538959a17d76f1b09e966e741ee3b1183099682f96216c93d21feaecba"
          ],
          "data": "0x96c705e500000000000000000000000000000000000000000000000000000000",
          "blockHash": "0x583fcc38accb473958ca8c1e4c15b442939e9eef453e72b9cc825913e9948901",
          "blockNumber": "0x11c494a",
          "transactionHash": "0x9b8f5852d2f5b300240e684e6ad3e78fc406081508bffe67cd4feb815893841a",
          "transactionIndex": "0xa",
          "logIndex": "0x13",
          "removed": false
        },
        {
          "address": "0xdbe29C77b40aC32b8f7299C16C76e1ef47FA9614",
          "topics": [
            "0xda3c8142b3c1d27633026f55bfcb4eeb0b5b8db0daa0a3e10c2213a441722ad1"
          ],
          "data": "0x96c705e500000000000000000000000000000000000000000000000000000000000000000000000000000000027763ebd87732fc7889917a9b5f589adfe7dfd9",
          "blockHash": "0x583fcc38accb473958ca8c1e4c15b442939e9eef453e72b9cc825913e9948901",
          "blockNumber": "0x11c494a",
          "transactionHash": "0x9b8f5852d2f5b300240e684e6ad3e78fc406081508bffe67cd4feb815893841a",
          "transactionIndex": "0xa",
          "logIndex": "0x14",
          "removed": false
        }
      ],
      "logsBloom": "0x00000000000000000000000000000000000000000000000000000000000000080000000000000000000000000000000000000000000000000000000000000000000000000000000000000000000000000000000000000000000000000000000000000000000000000000200000000000000000000000000010000000000000400000000000000000000000000000100000000000000000000000000000000000000000000000000000004000084000040000000000000000000000000000000000000000000000000000000000000000000000000000000000000000000000000000000000000000000000000000000000000000000000000000000000000000",
      "type": "0x2",
      "transactionHash": "0x9b8f5852d2f5b300240e684e6ad3e78fc406081508bffe67cd4feb815893841a",
      "transactionIndex": "0xa",
      "blockHash": "0x583fcc38accb473958ca8c1e4c15b442939e9eef453e72b9cc825913e9948901",
      "blockNumber": "0x11c494a",
      "gasUsed": "0x1165b",
      "effectiveGasPrice": "0xc560",
      "from": "0x5AC7577C0B0F8E7f55B9144fBcB64AB4778084d5",
      "to": "0xdbe29C77b40aC32b8f7299C16C76e1ef47FA9614",
      "contractAddress": null,
      "l1BaseFeeScalar": "0x44d",
      "l1BlobBaseFee": "0x1",
      "l1BlobBaseFeeScalar": "0xa118b",
      "l1Fee": "0x5bd96a20",
      "l1GasPrice": "0x3423c27e",
      "l1GasUsed": "0x640"
    },
    {
      "status": "0x1",
      "cumulativeGasUsed": "0xe6f48",
      "logs": [
        {
          "address": "0xdbe29C77b40aC32b8f7299C16C76e1ef47FA9614",
          "topics": [
            "0xbe533f538959a17d76f1b09e966e741ee3b1183099682f96216c93d21feaecba"
          ],
          "data": "0xc30a0f2500000000000000000000000000000000000000000000000000000000",
          "blockHash": "0x583fcc38accb473958ca8c1e4c15b442939e9eef453e72b9cc825913e9948901",
          "blockNumber": "0x11c494a",
          "transactionHash": "0x31024cfaaca5354e5ed5941e9621ae3c4107b26c9d368e874e6bd3bbcd4b3d63",
          "transactionIndex": "0xb",
          "logIndex": "0x15",
          "removed": false
        },
        {
          "address": "0xdbe29C77b40aC32b8f7299C16C76e1ef47FA9614",
          "topics": [
            "0xda3c8142b3c1d27633026f55bfcb4eeb0b5b8db0daa0a3e10c2213a441722ad1"
          ],
          "data": "0xc30a0f2500000000000000000000000000000000000000000000000000000000000000000000000000000000027763ebd87732fc7889917a9b5f589adfe7dfd9",
          "blockHash": "0x583fcc38accb473958ca8c1e4c15b442939e9eef453e72b9cc825913e9948901",
          "blockNumber": "0x11c494a",
          "transactionHash": "0x31024cfaaca5354e5ed5941e9621ae3c4107b26c9d368e874e6bd3bbcd4b3d63",
          "transactionIndex": "0xb",
          "logIndex": "0x16",
          "removed": false
        }
      ],
      "logsBloom": "0x00000000000000000000000000000000000000000000000000000000000000080000000000000000000000000000000000000000000000000000000000000000000000000000000000000000000000000000000000000000000000000000000000000000000000000000200000000000000000000000000010000000000000400000000000000000000000000000100000000000000000000000000000000000000000000000000000004000084000040000000000000000000000000000000000000000000000000000000000000000000000000000000000000000000000000000000000000000000000000000000000000000000000000000000000000000",
      "type": "0x2",
      "transactionHash": "0x31024cfaaca5354e5ed5941e9621ae3c4107b26c9d368e874e6bd3bbcd4b3d63",
      "transactionIndex": "0xb",
      "blockHash": "0x583fcc38accb473958ca8c1e4c15b442939e9eef453e72b9cc825913e9948901",
      "blockNumber": "0x11c494a",
      "gasUsed": "0x118bd",
      "effectiveGasPrice": "0xc560",
      "from": "0x5AC7577C0B0F8E7f55B9144fBcB64AB4778084d5",
      "to": "0xdbe29C77b40aC32b8f7299C16C76e1ef47FA9614",
      "contractAddress": null,
      "l1BaseFeeScalar": "0x44d",
      "l1BlobBaseFee": "0x1",
      "l1BlobBaseFeeScalar": "0xa118b",
      "l1Fee": "0x5bd96a20",
      "l1GasPrice": "0x3423c27e",
      "l1GasUsed": "0x640"
    },
    {
      "status": "0x1",
      "cumulativeGasUsed": "0xf27b9",
      "logs": [
        {
          "address": "0xdbe29C77b40aC32b8f7299C16C76e1ef47FA9614",
          "topics": [
            "0x159f10d3da077d18f228d52be447d552e7d1892d10f7af8f615658160e374729"
          ],
          "data": "0x000000000000000000000000880a1b1259164c25c86ae8377fe5a2f0bb1f08dd",
          "blockHash": "0x583fcc38accb473958ca8c1e4c15b442939e9eef453e72b9cc825913e9948901",
          "blockNumber": "0x11c494a",
          "transactionHash": "0x4327add702376c7fcef52653b8fbb46d7e3cbb83606bf7794557eb5bb89a2000",
          "transactionIndex": "0xc",
          "logIndex": "0x17",
          "removed": false
        }
      ],
      "logsBloom": "0x00000000000000080000000000000000000000000000000000000000000000000000000000000000000000000200000000000000000000000000000000000000000000000000000000000000000000000000000000000000000000000000000000000000000000000000000000000000000000000000000000000000000000400000000000000000000000000000000000000000000000000000000000000000000000000000000000000000004000040000000000000000000000000000000000000000000000000000000000000000000000000000000000000000000000000000000000000000000000000010000000000000000000000000000000000000",
      "type": "0x2",
      "transactionHash": "0x4327add702376c7fcef52653b8fbb46d7e3cbb83606bf7794557eb5bb89a2000",
      "transactionIndex": "0xc",
      "blockHash": "0x583fcc38accb473958ca8c1e4c15b442939e9eef453e72b9cc825913e9948901",
      "blockNumber": "0x11c494a",
      "gasUsed": "0xb871",
      "effectiveGasPrice": "0xc560",
      "from": "0x5AC7577C0B0F8E7f55B9144fBcB64AB4778084d5",
      "to": "0xdbe29C77b40aC32b8f7299C16C76e1ef47FA9614",
      "contractAddress": null,
      "l1BaseFeeScalar": "0x44d",
      "l1BlobBaseFee": "0x1",
      "l1BlobBaseFeeScalar": "0xa118b",
      "l1Fee": "0x5bd96a20",
      "l1GasPrice": "0x3423c27e",
      "l1GasUsed": "0x640"
    }
  ],
  "libraries": [],
  "pending": [],
  "returns": {},
  "timestamp": 1733030385,
  "chain": 84532,
  "commit": "9056112"
}