{
  "transactions": [
    {
      "hash": "0xc09abff06e4877e7a7642ce7cd6f79966599d188e53321ec6e4f7214e6c820ad",
      "transactionType": "CREATE",
      "contractName": "Initialize",
      "contractAddress": "0xe6d006354c3628C12795BF637b561802E3e5d73A",
      "function": null,
      "arguments": null,
      "transaction": {
        "from": "0x5AC7577C0B0F8E7f55B9144fBcB64AB4778084d5",
        "gas": "0x2c397",
        "value": "0x0",
        "input": "0x6080604052348015600f57600080fd5b5061018e8061001f6000396000f3fe608060405234801561001057600080fd5b506004361061002b5760003560e01c8063019e272914610030575b600080fd5b6100f461003e366004610112565b7f3b60124079255925a9b0c57f1ed870358d719ce06c4ae9645b74322357c0b403939093557f3b60124079255925a9b0c57f1ed870358d719ce06c4ae9645b74322357c0b405919091557f3b60124079255925a9b0c57f1ed870358d719ce06c4ae9645b74322357c0b40180546001600160a01b039283166001600160a01b0319918216179091557f3b60124079255925a9b0c57f1ed870358d719ce06c4ae9645b74322357c0b4028054929093169116179055565b005b80356001600160a01b038116811461010d57600080fd5b919050565b6000806000806080858703121561012857600080fd5b843593506020850135925061013f604086016100f6565b915061014d606086016100f6565b90509295919450925056fea2646970667358221220cbd59b59430d95614441af48524b3c759bd23d9f81bdacdd7b25050a24a347df64736f6c634300081a0033",
        "nonce": "0x292",
        "chainId": "0x14a34"
      },
      "additionalContracts": [],
      "isFixedGasLimit": false
    },
    {
      "hash": "0xeff9806e6fadac245eda80deadd8e915e4811de9734ef04e2493c93868d1e4ff",
      "transactionType": "CREATE",
      "contractName": "AddApprovedTokens",
      "contractAddress": "0x22BaE4a6F8787C38e6eD349Be749b334E5125934",
      "function": null,
      "arguments": null,
      "transaction": {
        "from": "0x5AC7577C0B0F8E7f55B9144fBcB64AB4778084d5",
        "gas": "0x4bee6",
        "value": "0x0",
        "input": "0x6080604052348015600f57600080fd5b5061035e8061001f6000396000f3fe608060405234801561001057600080fd5b506004361061002b5760003560e01c8063ffa1a33a14610030575b600080fd5b61004361003e366004610252565b610045565b005b7f3b60124079255925a9b0c57f1ed870358d719ce06c4ae9645b74322357c0b40160005b8281101561024c576000848483818110610085576100856102c9565b905060200201602081019061009a91906102df565b90506001600160a01b0381166100b05750610244565b60005b600784015481101561014657816001600160a01b03168460070182815481106100de576100de6102c9565b6000918252602090912001546001600160a01b03160361013e5760405162461bcd60e51b8152602060048201526016602482015275151bdad95b88185b1c9958591e48185c1c1c9bdd995960521b60448201526064015b60405180910390fd5b6001016100b3565b50604051636eb1769f60e11b815233600482015230602482015281906000906001600160a01b0383169063dd62ed3e90604401602060405180830381865afa158015610196573d6000803e3d6000fd5b505050506040513d601f19601f820116820180604052508101906101ba919061030f565b90506000811161020c5760405162461bcd60e51b815260206004820152601760248201527f546f6b656e20616c6c6f77616e6365206973207a65726f0000000000000000006044820152606401610135565b5050600783018054600181018255600091825260209091200180546001600160a01b0319166001600160a01b03929092169190911790555b600101610069565b50505050565b6000806020838503121561026557600080fd5b823567ffffffffffffffff81111561027c57600080fd5b8301601f8101851361028d57600080fd5b803567ffffffffffffffff8111156102a457600080fd5b8560208260051b84010111156102b957600080fd5b6020919091019590945092505050565b634e487b7160e01b600052603260045260246000fd5b6000602082840312156102f157600080fd5b81356001600160a01b038116811461030857600080fd5b9392505050565b60006020828403121561032157600080fd5b505191905056fea26469706673582212202e6f0d740c13fa2d372f501f0a4f73158391ff6323abba453b45d33d93873ddc64736f6c634300081a0033",
        "nonce": "0x293",
        "chainId": "0x14a34"
      },
      "additionalContracts": [],
      "isFixedGasLimit": false
    },
    {
      "hash": "0x6964531145246e15fecca6b0fcf6428a1498dbb11e2bcf4646a2fda7d98a73d4",
      "transactionType": "CREATE",
      "contractName": "CancelInheritance",
      "contractAddress": "0x2A5E68883B1F64637A9B4C511AD06143Bb724f82",
      "function": null,
      "arguments": null,
      "transaction": {
        "from": "0x5AC7577C0B0F8E7f55B9144fBcB64AB4778084d5",
        "gas": "0x57d75",
        "value": "0x0",
        "input": "0x6080604052348015600f57600080fd5b5061040b8061001f6000396000f3fe608060405234801561001057600080fd5b506004361061002b5760003560e01c8063aa14cc6b14610030575b600080fd5b61003861003a565b005b7f3b60124079255925a9b0c57f1ed870358d719ce06c4ae9645b74322357c0b40180546001600160a01b031633146100c75760405162461bcd60e51b815260206004820152602560248201527f4f6e6c7920746865206f776e65722063616e2063616e63656c20696e6865726960448201526474616e636560d81b60648201526084015b60405180910390fd5b600781015461010d5760405162461bcd60e51b81526020600482015260126024820152714e6f20617070726f76656420746f6b656e7360701b60448201526064016100be565b6003810154610100900460ff16156101675760405162461bcd60e51b815260206004820152601a60248201527f436f6e747261637420697320616c7265616479206b696c6c656400000000000060448201526064016100be565b60005b60078201548110156102d057600082600701828154811061018d5761018d61032e565b60009182526020822001546040516370a0823160e01b81523060048201526001600160a01b03909116925082906370a0823190602401602060405180830381865afa1580156101e0573d6000803e3d6000fd5b505050506040513d601f19601f820116820180604052508101906102049190610344565b905080156102c657835460405163a9059cbb60e01b81526001600160a01b039182166004820152602481018390529083169063a9059cbb906044016020604051808303816000875af115801561025e573d6000803e3d6000fd5b505050506040513d601f19601f82011682018060405250810190610282919061035d565b6102c65760405162461bcd60e51b8152602060048201526015602482015274151bdad95b881d1c985b9cd9995c8819985a5b1959605a1b60448201526064016100be565b505060010161016a565b5060038101805461ff00191661010017905580546040516001600160a01b03909116907fab0a913ab4dd78ca2bbd7ceca1e2d18600fba897fc0c92bfc1c94e80c0190d0490610323906007850190610386565b60405180910390a250565b634e487b7160e01b600052603260045260246000fd5b60006020828403121561035657600080fd5b5051919050565b60006020828403121561036f57600080fd5b8151801515811461037f57600080fd5b9392505050565b602080825282548282018190526000848152918220906040840190835b818110156103ca5783546001600160a01b03168352600193840193602090930192016103a3565b50909594505050505056fea26469706673582212206267e634b74a7f706820212214b7d5ca1a1f0dfaec9bce8f5a1366060828de3264736f6c634300081a0033",
        "nonce": "0x294",
        "chainId": "0x14a34"
      },
      "additionalContracts": [],
      "isFixedGasLimit": false
    },
    {
      "hash": "0xf006a3934612110b3936b32de56ec7d029b3d1acfa12ffc1308f27a65c252cd9",
      "transactionType": "CREATE",
      "contractName": "WithdrawTokens",
      "contractAddress": "0x45d62E4357Ba27bfa81d6d69921e8F251E3BFaEc",
      "function": null,
      "arguments": null,
      "transaction": {
        "from": "0x5AC7577C0B0F8E7f55B9144fBcB64AB4778084d5",
        "gas": "0xe3705",
        "value": "0x0",
        "input": "0x6080604052348015600f57600080fd5b50610c018061001f6000396000f3fe608060405234801561001057600080fd5b506004361061002b5760003560e01c8063985e127c14610030575b600080fd5b61004361003e366004610734565b610045565b005b8382146100a45760405162461bcd60e51b815260206004820152602260248201527f546f6b656e7320616e6420616d6f756e7473206c656e677468206d69736d61746044820152610c6d60f31b60648201526084015b60405180910390fd5b7f3b60124079255925a9b0c57f1ed870358d719ce06c4ae9645b74322357c0b40160006100de6100d9368590038501856108e4565b6106a2565b600383015490915060ff1680156100ff57506003820154610100900460ff16155b6101605760405162461bcd60e51b815260206004820152602c60248201527f436f6e7472616374206973206e6f7420696e206c6f636b65642073746174652060448201526b1bdc881a5cc81ada5b1b195960a21b606482015260840161009b565b816004015482600501546101749190610997565b4210156101c35760405162461bcd60e51b815260206004820152601960248201527f4c6f636b20706572696f6420686173206e6f7420656e64656400000000000000604482015260640161009b565b600081815260088301602052604090205460ff16156102195760405162461bcd60e51b8152602060048201526012602482015271141c9bdbd988185b1c9958591e481d5cd95960721b604482015260640161009b565b6002820154610100840135146102715760405162461bcd60e51b815260206004820152601c60248201527f496e76616c69642070726f6f663a2068617368206d69736d6174636800000000604482015260640161009b565b60005b86811015610396576000888883818110610290576102906109be565b90506020020160208101906102a591906109f0565b6001600160a01b03161461038e576000805b6007850154811015610333578460070181815481106102d8576102d86109be565b6000918252602090912001546001600160a01b03168a8a858181106102ff576102ff6109be565b905060200201602081019061031491906109f0565b6001600160a01b03160361032b5760019150610333565b6001016102b7565b508061038c5760405162461bcd60e51b815260206004820152602260248201527f546f6b656e207468617420646964206e6f74206c6f636b2077617320666f756e604482015261321760f11b606482015260840161009b565b505b600101610274565b506001820154604080516343753b4d60e01b81526001600160a01b03909216916343753b4d916103d891879182019060c0830190610100840190600401610a12565b602060405180830381865afa1580156103f5573d6000803e3d6000fd5b505050506040513d601f19601f820116820180604052508101906104199190610a62565b6104585760405162461bcd60e51b815260206004820152601060248201526f24b73b30b634b2102d2590383937b7b360811b604482015260640161009b565b60008181526008830160205260408120805460ff191660011790555b86811015610651576000888883818110610490576104906109be565b90506020020160208101906104a591906109f0565b6001600160a01b0316146106495760008888838181106104c7576104c76109be565b90506020020160208101906104dc91906109f0565b6040516370a0823160e01b81523060048201529091506000906001600160a01b038316906370a0823190602401602060405180830381865afa158015610526573d6000803e3d6000fd5b505050506040513d601f19601f8201168201806040525081019061054a9190610a84565b9050600081898986818110610561576105616109be565b905060200201351161058b5788888581811061057f5761057f6109be565b9050602002013561058d565b815b60405163a9059cbb60e01b8152336004820152602481018290529091506001600160a01b0384169063a9059cbb906044016020604051808303816000875af11580156105dd573d6000803e3d6000fd5b505050506040513d601f19601f820116820180604052508101906106019190610a62565b6106455760405162461bcd60e51b8152602060048201526015602482015274151bdad95b881d1c985b9cd9995c8819985a5b1959605a1b604482015260640161009b565b5050505b600101610474565b50336001600160a01b03167fac36971df326c5d24b63183927b8fe4cf71b792277ff128d73f0729a653323e3888888886040516106919493929190610a9d565b60405180910390a250505050505050565b600081600001518260200151836040015184606001516040516020016106cb9493929190610b42565b604051602081830303815290604052805190602001209050919050565b60008083601f8401126106fa57600080fd5b50813567ffffffffffffffff81111561071257600080fd5b6020830191508360208260051b850101111561072d57600080fd5b9250929050565b600080600080600085870361016081121561074e57600080fd5b863567ffffffffffffffff81111561076557600080fd5b61077189828a016106e8565b909750955050602087013567ffffffffffffffff81111561079157600080fd5b61079d89828a016106e8565b909550935050610120603f19820112156107b657600080fd5b506040860190509295509295909350565b634e487b7160e01b600052604160045260246000fd5b6040516080810167ffffffffffffffff81118282101715610800576108006107c7565b60405290565b604051601f8201601f1916810167ffffffffffffffff8111828210171561082f5761082f6107c7565b604052919050565b600082601f83011261084857600080fd5b60006108546040610806565b905080604084018581111561086857600080fd5b845b8181101561088257803583526020928301920161086a565b509195945050505050565b600082601f83011261089e57600080fd5b600060206108ab81610806565b91508160208501868111156108bf57600080fd5b855b818110156108d857803583529183019183016108c1565b50929695505050505050565b60006101208284031280156108f857600080fd5b5060006109036107dd565b61090d8585610837565b815284605f85011261091d578182fd5b604061092881610806565b8060c0870188811115610939578586fd5b6040880195505b80861015610963576109528987610837565b835294830194602090920191610940565b8160208601526109738982610837565b60408601525050505061098a85610100860161088d565b6060820152949350505050565b808201808211156109b857634e487b7160e01b600052601160045260246000fd5b92915050565b634e487b7160e01b600052603260045260246000fd5b80356001600160a01b03811681146109eb57600080fd5b919050565b600060208284031215610a0257600080fd5b610a0b826109d4565b9392505050565b61012081016040868337604082018560005b6002811015610a455760408284376040928301929190910190600101610a24565b50505060408460c084013760208361010084013795945050505050565b600060208284031215610a7457600080fd5b81518015158114610a0b57600080fd5b600060208284031215610a9657600080fd5b5051919050565b6040808252810184905260008560608301825b87811015610ade576001600160a01b03610ac9846109d4565b16825260209283019290910190600101610ab0565b5083810360208501528481526001600160fb1b03851115610afe57600080fd5b8460051b915081866020830137016020019695505050505050565b8060005b6002811015610b3c578151845260209384019390910190600101610b1d565b50505050565b610b4c8186610b19565b6000604082018560005b6002811015610b8057610b6a838351610b19565b6040929092019160209190910190600101610b56565b505050610b9060c0830185610b19565b61010082018360005b6001811015610bb8578151835260209283019290910190600101610b99565b505050610120820190509594505050505056fea2646970667358221220c779f6b4d95ad6a9778d8c7bd5a0699492740aca0c979be1a53e8779eb0688b364736f6c634300081a0033",
        "nonce": "0x295",
        "chainId": "0x14a34"
      },
      "additionalContracts": [],
      "isFixedGasLimit": false
    },
    {
      "hash": "0x1dc1833c839aa4119c9e88272fcb76badbcbddf2ec1ea8512ff716e6834ea592",
      "transactionType": "CREATE",
      "contractName": "InitiateInheritance",
      "contractAddress": "0xa8132f4819725CC4f0Ebfb61554b1773e33409fC",
      "function": null,
      "arguments": null,
      "transaction": {
        "from": "0x5AC7577C0B0F8E7f55B9144fBcB64AB4778084d5",
        "gas": "0xd2a35",
        "value": "0x0",
        "input": "0x6080604052348015600f57600080fd5b50610b0c8061001f6000396000f3fe608060405234801561001057600080fd5b506004361061002b5760003560e01c8063e6424a5e14610030575b600080fd5b61004361003e366004610721565b610045565b005b7f3b60124079255925a9b0c57f1ed870358d719ce06c4ae9645b74322357c0b401600061007f61007a3685900385018561085a565b6106c1565b600383015490915060ff16156100ea5760405162461bcd60e51b815260206004820152602560248201527f496e6865726974616e63652070726f6365737320616c726561647920696e69746044820152641a585d195960da1b60648201526084015b60405180910390fd5b6003820154610100900460ff16156101445760405162461bcd60e51b815260206004820152601e60248201527f496e6865726974616e636520636f6e7472616374206973206b696c6c6564000060448201526064016100e1565b600081815260088301602052604090205460ff161561019a5760405162461bcd60e51b8152602060048201526012602482015271141c9bdbd988185b1c9958591e481d5cd95960721b60448201526064016100e1565b6002820154610100840135146101f25760405162461bcd60e51b815260206004820152601c60248201527f496e76616c69642070726f6f663a2068617368206d69736d617463680000000060448201526064016100e1565b6001820154604080516343753b4d60e01b81526001600160a01b03909216916343753b4d9161023391879182019060c0830190610100840190600401610923565b602060405180830381865afa158015610250573d6000803e3d6000fd5b505050506040513d601f19601f820116820180604052508101906102749190610973565b6102b35760405162461bcd60e51b815260206004820152601060248201526f24b73b30b634b2102d2590383937b7b360811b60448201526064016100e1565b60008181526008830160205260408120805460ff191660011790555b60078301548110156105985760008360070182815481106102f2576102f261090d565b60009182526020822001548554604051636eb1769f60e11b81526001600160a01b03918216600482015230602482015291169250829063dd62ed3e90604401602060405180830381865afa15801561034e573d6000803e3d6000fd5b505050506040513d601f19601f82011682018060405250810190610372919061099c565b9050806000036104415760078501805461038e906001906109cb565b8154811061039e5761039e61090d565b6000918252602090912001546007860180546001600160a01b0390921691859081106103cc576103cc61090d565b9060005260206000200160006101000a8154816001600160a01b0302191690836001600160a01b031602179055508460070180548061040d5761040d6109de565b600082815260209020810160001990810180546001600160a01b031916905501905582610439816109f4565b935050610583565b84546040516370a0823160e01b81526001600160a01b0391821660048201526000918416906370a0823190602401602060405180830381865afa15801561048c573d6000803e3d6000fd5b505050506040513d601f19601f820116820180604052508101906104b0919061099c565b905060006104be8383610707565b87546040516323b872dd60e01b81526001600160a01b039182166004820152306024820152604481018390529192508516906323b872dd906064016020604051808303816000875af1158015610518573d6000803e3d6000fd5b505050506040513d601f19601f8201168201806040525081019061053c9190610973565b6105805760405162461bcd60e51b8152602060048201526015602482015274151bdad95b881d1c985b9cd9995c8819985a5b1959605a1b60448201526064016100e1565b50505b5050808061059090610a0b565b9150506102cf565b506001820154825460405163247830b760e11b81526001600160a01b0391821660048201529116906348f0616e906024016020604051808303816000875af11580156105e8573d6000803e3d6000fd5b505050506040513d601f19601f8201168201806040525081019061060c9190610973565b6106585760405162461bcd60e51b815260206004820152601c60248201527f507573682073656e644e6f74696669636174696f6e206661696c65640000000060448201526064016100e1565b426005830181905560038301805460ff1916600117905582546040516001600160a01b03909116917f7a0f49890d59fc33e7e656a749b3fe9fd171e07359ee7104abb21f18243539d9916106b491858252602082015260400190565b60405180910390a2505050565b600081600001518260200151836040015184606001516040516020016106ea9493929190610a4d565b604051602081830303815290604052805190602001209050919050565b60008183106107165781610718565b825b90505b92915050565b600061012082840312801561073557600080fd5b509092915050565b634e487b7160e01b600052604160045260246000fd5b6040516080810167ffffffffffffffff811182821017156107765761077661073d565b60405290565b604051601f8201601f1916810167ffffffffffffffff811182821017156107a5576107a561073d565b604052919050565b600082601f8301126107be57600080fd5b60006107ca604061077c565b90508060408401858111156107de57600080fd5b845b818110156107f85780358352602092830192016107e0565b509195945050505050565b600082601f83011261081457600080fd5b600060206108218161077c565b915081602085018681111561083557600080fd5b855b8181101561084e5780358352918301918301610837565b50929695505050505050565b600061012082840312801561086e57600080fd5b506000610879610753565b61088385856107ad565b815284605f850112610893578182fd5b604061089e8161077c565b8060c08701888111156108af578586fd5b6040880195505b808610156108d9576108c889876107ad565b8352948301946020909201916108b6565b8160208601526108e989826107ad565b604086015250505050610900856101008601610803565b6060820152949350505050565b634e487b7160e01b600052603260045260246000fd5b61012081016040868337604082018560005b60028110156109565760408284376040928301929190910190600101610935565b50505060408460c084013760208361010084013795945050505050565b60006020828403121561098557600080fd5b8151801515811461099557600080fd5b9392505050565b6000602082840312156109ae57600080fd5b5051919050565b634e487b7160e01b600052601160045260246000fd5b8181038181111561071b5761071b6109b5565b634e487b7160e01b600052603160045260246000fd5b600081610a0357610a036109b5565b506000190190565b600060018201610a1d57610a1d6109b5565b5060010190565b8060005b6002811015610a47578151845260209384019390910190600101610a28565b50505050565b610a578186610a24565b6000604082018560005b6002811015610a8b57610a75838351610a24565b6040929092019160209190910190600101610a61565b505050610a9b60c0830185610a24565b61010082018360005b6001811015610ac3578151835260209283019290910190600101610aa4565b505050610120820190509594505050505056fea26469706673582212202e85b75f6dfcbd7d3344522eeec3656b7704db7db844e92e9f8137295cff1a3164736f6c634300081a0033",
        "nonce": "0x296",
        "chainId": "0x14a34"
      },
      "additionalContracts": [],
      "isFixedGasLimit": false
    },
    {
      "hash": "0x2751e77bc9d6fe4da3f975b79b49f9318b93fc2d192dbf33005e90bea50ef143",
      "transactionType": "CREATE",
      "contractName": "InheritanceStateViewer",
      "contractAddress": "0xc7B85087e7d946491FbFFa5De5bED1c800E98be6",
      "function": null,
      "arguments": null,
      "transaction": {
        "from": "0x5AC7577C0B0F8E7f55B9144fBcB64AB4778084d5",
        "gas": "0x7540e",
        "value": "0x0",
        "input": "0x6080604052348015600f57600080fd5b506105b88061001f6000396000f3fe608060405234801561001057600080fd5b50600436106100a95760003560e01c80638fe8a101116100715780638fe8a1011461017257806396c705e5146101a1578063a4e2d634146101b6578063affed0e0146101e0578063c30a0f2514610207578063d25746081461024957600080fd5b806304554443146100ae57806309bd5a60146100e4578063272aade51461010b57806362c7fa76146101235780638da5cb5b1461014a575b600080fd5b7f3b60124079255925a9b0c57f1ed870358d719ce06c4ae9645b74322357c0b405545b6040519081526020015b60405180910390f35b7f3b60124079255925a9b0c57f1ed870358d719ce06c4ae9645b74322357c0b403546100d1565b610113610251565b60405190151581526020016100db565b7f3b60124079255925a9b0c57f1ed870358d719ce06c4ae9645b74322357c0b406546100d1565b600080516020610563833981519152546040516001600160a01b0390911681526020016100db565b7f3b60124079255925a9b0c57f1ed870358d719ce06c4ae9645b74322357c0b40454610100900460ff16610113565b6101a96102d3565b6040516100db91906104a7565b7f3b60124079255925a9b0c57f1ed870358d719ce06c4ae9645b74322357c0b4045460ff16610113565b7f3b60124079255925a9b0c57f1ed870358d719ce06c4ae9645b74322357c0b407546100d1565b6101136102153660046104f3565b60009081527f3b60124079255925a9b0c57f1ed870358d719ce06c4ae9645b74322357c0b409602052604090205460ff1690565b610113610345565b7f3b60124079255925a9b0c57f1ed870358d719ce06c4ae9645b74322357c0b405547f3b60124079255925a9b0c57f1ed870358d719ce06c4ae9645b74322357c0b406546000916000805160206105638339815191529183916102b39161050c565b600383015490915060ff166102cb5760009250505090565b421192915050565b606060008051602061056383398151915260070180548060200260200160405190810160405280929190818152602001828054801561033b57602002820191906000526020600020905b81546001600160a01b0316815260019091019060200180831161031d575b5050505050905090565b7f3b60124079255925a9b0c57f1ed870358d719ce06c4ae9645b74322357c0b4088054604080516020808402820181019092528281526000936000805160206105638339815191529385938301828280156103c957602002820191906000526020600020905b81546001600160a01b031681526001909101906020018083116103ab575b5050505060038401549192505060ff166103e65760009250505090565b60005b815181101561049d57600082828151811061040657610406610533565b60209081029190910101516040516370a0823160e01b81523060048201529091506000906001600160a01b038316906370a0823190602401602060405180830381865afa15801561045b573d6000803e3d6000fd5b505050506040513d601f19601f8201168201806040525081019061047f9190610549565b905080156104935760009550505050505090565b50506001016103e9565b5060019250505090565b602080825282518282018190526000918401906040840190835b818110156104e85783516001600160a01b03168352602093840193909201916001016104c1565b509095945050505050565b60006020828403121561050557600080fd5b5035919050565b8082018082111561052d57634e487b7160e01b600052601160045260246000fd5b92915050565b634e487b7160e01b600052603260045260246000fd5b60006020828403121561055b57600080fd5b505191905056fe3b60124079255925a9b0c57f1ed870358d719ce06c4ae9645b74322357c0b401a2646970667358221220f53d62a10031d21c36a21b4f375d32eaf5cb841ae3ad3cd1ed033f56a30f5cf964736f6c634300081a0033",
        "nonce": "0x297",
        "chainId": "0x14a34"
      },
      "additionalContracts": [],
      "isFixedGasLimit": false
    },
    {
      "hash": "0x7c833795af978a00248b8f4a0be05116728cbc1ecb1002b455bfccf6cbd987a4",
      "transactionType": "CREATE",
      "contractName": "InheritanceFacade",
      "contractAddress": "0x335C0C398b15110D5B8Ee03cE6B05B75B65b042A",
      "function": null,
      "arguments": null,
      "transaction": {
        "from": "0x5AC7577C0B0F8E7f55B9144fBcB64AB4778084d5",
        "gas": "0x54bf8",
        "value": "0x0",
        "input": "0x6080604052348015600f57600080fd5b506103de8061001f6000396000f3fe608060405234801561001057600080fd5b50600436106101005760003560e01c8063a4e2d63411610097578063c30a0f2511610066578063c30a0f2514610174578063d257460814610119578063e6424a5e14610188578063ffa1a33a1461019957600080fd5b8063a4e2d63414610119578063a6ab36f214610161578063aa14cc6b1461015f578063affed0e01461010557600080fd5b80638da5cb5b116100d35780638da5cb5b1461012c5780638fe8a1011461011957806396c705e51461013b578063985e127c1461014a57600080fd5b8063045544431461010557806309bd5a6014610105578063272aade51461011957806362c7fa7614610105575b600080fd5b604051600081526020015b60405180910390f35b60005b6040519015158152602001610110565b60405160008152602001610110565b606060405161011091906101ab565b61015f61015836600461025c565b5050505050565b005b61015f61016f3660046102e4565b505050565b61011c610182366004610329565b50600090565b61015f610196366004610342565b50565b61015f6101a7366004610366565b5050565b602080825282518282018190526000918401906040840190835b818110156101ec5783516001600160a01b03168352602093840193909201916001016101c5565b509095945050505050565b60008083601f84011261020957600080fd5b50813567ffffffffffffffff81111561022157600080fd5b6020830191508360208260051b850101111561023c57600080fd5b9250929050565b6000610120828403121561025657600080fd5b50919050565b6000806000806000610160868803121561027557600080fd5b853567ffffffffffffffff81111561028c57600080fd5b610298888289016101f7565b909650945050602086013567ffffffffffffffff8111156102b857600080fd5b6102c4888289016101f7565b90945092506102d890508760408801610243565b90509295509295909350565b6000806000606084860312156102f957600080fd5b833592506020840135915060408401356001600160a01b038116811461031e57600080fd5b809150509250925092565b60006020828403121561033b57600080fd5b5035919050565b6000610120828403121561035557600080fd5b61035f8383610243565b9392505050565b6000806020838503121561037957600080fd5b823567ffffffffffffffff81111561039057600080fd5b61039c858286016101f7565b9096909550935050505056fea26469706673582212200d21cb0791b818e865c42f9a8588137fb84662321f9bfaa35d07a5cf16e467ee64736f6c634300081a0033",
        "nonce": "0x298",
        "chainId": "0x14a34"
      },
      "additionalContracts": [],
      "isFixedGasLimit": false
    },
    {
      "hash": "0x0db729f663de6190ea1679027c39f25e188948115cb618e7abc7b9c1bfcf9b6d",
      "transactionType": "CREATE",
      "contractName": "Dictionary_0",
      "contractAddress": "0xAaE7eDD12Fb4Df7be43D7F5398AAB3f7BDF3B994",
      "function": null,
      "arguments": [
        "0x5AC7577C0B0F8E7f55B9144fBcB64AB4778084d5"
      ],
      "transaction": {
        "from": "0x5AC7577C0B0F8E7f55B9144fBcB64AB4778084d5",
        "gas": "0xa7856",
        "value": "0x0",
        "input": "0x608060405234801561001057600080fd5b5060405161091438038061091483398101604081905261002f916100c0565b806001600160a01b03811661005e57604051631e4fbdf760e01b81526000600482015260240160405180910390fd5b6100678161006e565b50506100f0565b600380546001600160a01b038381166001600160a01b0319831681179093556040519116919082907f8be0079c531659141344cd1fd0a4f28419497f9722a3daafe3b4186f6b6457e090600090a35050565b6000602082840312156100d257600080fd5b81516001600160a01b03811681146100e957600080fd5b9392505050565b610815806100ff6000396000f3fe608060405234801561001057600080fd5b50600436106100935760003560e01c8063715018a611610066578063715018a61461012f5780638da5cb5b14610137578063a5954dd714610148578063dc9cc6451461015d578063f2fde38b1461017057600080fd5b806301ffc9a7146100985780630815f6fd146100e25780635c60da1b146100f7578063651dc03d1461011c575b600080fd5b6100cd6100a63660046106f5565b6001600160e01b0319166000908152602081905260409020546001600160a01b0316151590565b60405190151581526020015b60405180910390f35b6100f56100f036600461072e565b610183565b005b6002546001600160a01b03165b6040516001600160a01b0390911681526020016100d9565b6100f561012a366004610761565b610199565b6100f56101ad565b6003546001600160a01b0316610104565b6101506101c1565b6040516100d9919061077c565b61010461016b3660046106f5565b610246565b6100f561017e366004610761565b6102df565b61018b61031a565b6101958282610347565b5050565b6101a161031a565b6101aa81610371565b50565b6101b561031a565b6101bf60006103c6565b565b6060600180548060200260200160405190810160405280929190818152602001828054801561023c57602002820191906000526020600020906000905b82829054906101000a900460e01b6001600160e01b031916815260200190600401906020826003010492830192600103820291508084116101fe5790505b5050505050905090565b6001600160e01b031981166000908152602081905260408120546001600160a01b031680156102755792915050565b5060008080526020527fad3228b676f7d3cd4284a5443f17f1962b36e491b30a40b2405849e597ba5fb5546001600160a01b031680156102b55792915050565b60405163404ceef760e11b81526001600160e01b0319841660048201526024015b60405180910390fd5b6102e761031a565b6001600160a01b03811661031157604051631e4fbdf760e01b8152600060048201526024016102d6565b6101aa816103c6565b6003546001600160a01b031633146101bf5760405163118cdaa760e01b81523360048201526024016102d6565b6001600160a01b03811661035e5761019582610418565b61036782610514565b61019582826105bb565b600280546001600160a01b0319166001600160a01b0383169081179091556040519081527f159f10d3da077d18f228d52be447d552e7d1892d10f7af8f615658160e374729906020015b60405180910390a150565b600380546001600160a01b038381166001600160a01b0319831681179093556040519116919082907f8be0079c531659141344cd1fd0a4f28419497f9722a3daafe3b4186f6b6457e090600090a35050565b60005b6001548110156104bd57816001600160e01b03191660018281548110610443576104436107c9565b90600052602060002090600891828204019190066004029054906101000a900460e01b6001600160e01b031916036104b55760018181548110610488576104886107c9565b90600052602060002090600891828204019190066004026101000a81549063ffffffff02191690556104bd565b60010161041b565b506001600160e01b031981166000818152602081815260409182902080546001600160a01b031916905590519182527fb0f2f3a9229724df0b95683e95488b72aed817bc1a5bd6fe1d2e7504e92871cb91016103bb565b61051d81610660565b156105255750565b6001805480820182556000919091527fb10e2d527612073b26eecdfd717e6a320cf44b4afac2b0732d9fcbe2b7fa0cf66008820401805463ffffffff60079093166004026101000a928302191660e084901c929092029190911790556040516001600160e01b0319821681527fbe533f538959a17d76f1b09e966e741ee3b1183099682f96216c93d21feaecba906020016103bb565b806001600160a01b03163b6000036105f157604051630c76093760e01b81526001600160a01b03821660048201526024016102d6565b6001600160e01b031982166000818152602081815260409182902080546001600160a01b0319166001600160a01b0386169081179091558251938452908301527fda3c8142b3c1d27633026f55bfcb4eeb0b5b8db0daa0a3e10c2213a441722ad1910160405180910390a15050565b6000805b6001548110156106cf57826001600160e01b0319166001828154811061068c5761068c6107c9565b90600052602060002090600891828204019190066004029054906101000a900460e01b6001600160e01b031916036106c75750600192915050565b600101610664565b50600092915050565b80356001600160e01b0319811681146106f057600080fd5b919050565b60006020828403121561070757600080fd5b610710826106d8565b9392505050565b80356001600160a01b03811681146106f057600080fd5b6000806040838503121561074157600080fd5b61074a836106d8565b915061075860208401610717565b90509250929050565b60006020828403121561077357600080fd5b61071082610717565b602080825282518282018190526000918401906040840190835b818110156107be5783516001600160e01b031916835260209384019390920191600101610796565b509095945050505050565b634e487b7160e01b600052603260045260246000fdfea264697066735822122030e03adf87fe5bf67b35fe3db01417128809f7583f8c66cea25eada57ba43bce64736f6c634300081a00330000000000000000000000005ac7577c0b0f8e7f55b9144fbcb64ab4778084d5",
        "nonce": "0x299",
        "chainId": "0x14a34"
      },
      "additionalContracts": [],
      "isFixedGasLimit": false
    },
    {
      "hash": "0x530988071c9c3a0b80408173dc80edca303c6c4655421c8850fbb662cc5dfdc9",
      "transactionType": "CALL",
      "contractName": "Dictionary_0",
      "contractAddress": "0xAaE7eDD12Fb4Df7be43D7F5398AAB3f7BDF3B994",
      "function": "setImplementation(bytes4,address)",
      "arguments": [
        "0x019e2729",
        "0xe6d006354c3628C12795BF637b561802E3e5d73A"
      ],
      "transaction": {
        "from": "0x5AC7577C0B0F8E7f55B9144fBcB64AB4778084d5",
        "to": "0xAaE7eDD12Fb4Df7be43D7F5398AAB3f7BDF3B994",
        "gas": "0x206fc",
        "value": "0x0",
        "input": "0x0815f6fd019e272900000000000000000000000000000000000000000000000000000000000000000000000000000000e6d006354c3628c12795bf637b561802e3e5d73a",
        "nonce": "0x29a",
        "chainId": "0x14a34"
      },
      "additionalContracts": [],
      "isFixedGasLimit": false
    },
    {
      "hash": "0xeea654b4e4bc0204f8ba98f22d8743a60f6d25bb0985b019c1c23d43f346e8fe",
      "transactionType": "CALL",
      "contractName": "Dictionary_0",
      "contractAddress": "0xAaE7eDD12Fb4Df7be43D7F5398AAB3f7BDF3B994",
      "function": "setImplementation(bytes4,address)",
      "arguments": [
        "0xffa1a33a",
        "0x22BaE4a6F8787C38e6eD349Be749b334E5125934"
      ],
      "transaction": {
        "from": "0x5AC7577C0B0F8E7f55B9144fBcB64AB4778084d5",
        "to": "0xAaE7eDD12Fb4Df7be43D7F5398AAB3f7BDF3B994",
        "gas": "0x151c0",
        "value": "0x0",
        "input": "0x0815f6fdffa1a33a0000000000000000000000000000000000000000000000000000000000000000000000000000000022bae4a6f8787c38e6ed349be749b334e5125934",
        "nonce": "0x29b",
        "chainId": "0x14a34"
      },
      "additionalContracts": [],
      "isFixedGasLimit": false
    },
    {
      "hash": "0x4a96317fdbc0cf977e454f771cf854b1494ed233a1a047f81804d8f4cfbda015",
      "transactionType": "CALL",
      "contractName": "Dictionary_0",
      "contractAddress": "0xAaE7eDD12Fb4Df7be43D7F5398AAB3f7BDF3B994",
      "function": "setImplementation(bytes4,address)",
      "arguments": [
        "0xaa14cc6b",
        "0x2A5E68883B1F64637A9B4C511AD06143Bb724f82"
      ],
      "transaction": {
        "from": "0x5AC7577C0B0F8E7f55B9144fBcB64AB4778084d5",
        "to": "0xAaE7eDD12Fb4Df7be43D7F5398AAB3f7BDF3B994",
        "gas": "0x1691b",
        "value": "0x0",
        "input": "0x0815f6fdaa14cc6b000000000000000000000000000000000000000000000000000000000000000000000000000000002a5e68883b1f64637a9b4c511ad06143bb724f82",
        "nonce": "0x29c",
        "chainId": "0x14a34"
      },
      "additionalContracts": [],
      "isFixedGasLimit": false
    },
    {
      "hash": "0x615bebd790914f700a086f63756143330c9431cc049dce6e6cf23b0e5b33f19f",
      "transactionType": "CALL",
      "contractName": "Dictionary_0",
      "contractAddress": "0xAaE7eDD12Fb4Df7be43D7F5398AAB3f7BDF3B994",
      "function": "setImplementation(bytes4,address)",
      "arguments": [
        "0x985e127c",
        "0x45d62E4357Ba27bfa81d6d69921e8F251E3BFaEc"
      ],
      "transaction": {
        "from": "0x5AC7577C0B0F8E7f55B9144fBcB64AB4778084d5",
        "to": "0xAaE7eDD12Fb4Df7be43D7F5398AAB3f7BDF3B994",
        "gas": "0x16c96",
        "value": "0x0",
        "input": "0x0815f6fd985e127c0000000000000000000000000000000000000000000000000000000000000000000000000000000045d62e4357ba27bfa81d6d69921e8f251e3bfaec",
        "nonce": "0x29d",
        "chainId": "0x14a34"
      },
      "additionalContracts": [],
      "isFixedGasLimit": false
    },
    {
      "hash": "0xb4410e3e6fcbc86300d565050e74778282ffe00f0a807d923f697966391216b7",
      "transactionType": "CALL",
      "contractName": "Dictionary_0",
      "contractAddress": "0xAaE7eDD12Fb4Df7be43D7F5398AAB3f7BDF3B994",
      "function": "setImplementation(bytes4,address)",
      "arguments": [
        "0xe6424a5e",
        "0xa8132f4819725CC4f0Ebfb61554b1773e33409fC"
      ],
      "transaction": {
        "from": "0x5AC7577C0B0F8E7f55B9144fBcB64AB4778084d5",
        "to": "0xAaE7eDD12Fb4Df7be43D7F5398AAB3f7BDF3B994",
        "gas": "0x15b9f",
        "value": "0x0",
        "input": "0x0815f6fde6424a5e00000000000000000000000000000000000000000000000000000000000000000000000000000000a8132f4819725cc4f0ebfb61554b1773e33409fc",
        "nonce": "0x29e",
        "chainId": "0x14a34"
      },
      "additionalContracts": [],
      "isFixedGasLimit": false
    },
    {
      "hash": "0xf7fd84258ec4829761ccd9186f66ee37f8e8180e896bee512d9e188d94f449f5",
      "transactionType": "CALL",
      "contractName": "Dictionary_0",
      "contractAddress": "0xAaE7eDD12Fb4Df7be43D7F5398AAB3f7BDF3B994",
      "function": "setImplementation(bytes4,address)",
      "arguments": [
        "0x8da5cb5b",
        "0xc7B85087e7d946491FbFFa5De5bED1c800E98be6"
      ],
      "transaction": {
        "from": "0x5AC7577C0B0F8E7f55B9144fBcB64AB4778084d5",
        "to": "0xAaE7eDD12Fb4Df7be43D7F5398AAB3f7BDF3B994",
        "gas": "0x1737d",
        "value": "0x0",
        "input": "0x0815f6fd8da5cb5b00000000000000000000000000000000000000000000000000000000000000000000000000000000c7b85087e7d946491fbffa5de5bed1c800e98be6",
        "nonce": "0x29f",
        "chainId": "0x14a34"
      },
      "additionalContracts": [],
      "isFixedGasLimit": false
    },
    {
      "hash": "0x4f5de0355710dee586b8a43ec1b931f806f155c823fe825802078cb56ea0cf4f",
      "transactionType": "CALL",
      "contractName": "Dictionary_0",
      "contractAddress": "0xAaE7eDD12Fb4Df7be43D7F5398AAB3f7BDF3B994",
      "function": "setImplementation(bytes4,address)",
      "arguments": [
        "0x09bd5a60",
        "0xc7B85087e7d946491FbFFa5De5bED1c800E98be6"
      ],
      "transaction": {
        "from": "0x5AC7577C0B0F8E7f55B9144fBcB64AB4778084d5",
        "to": "0xAaE7eDD12Fb4Df7be43D7F5398AAB3f7BDF3B994",
        "gas": "0x16224",
        "value": "0x0",
        "input": "0x0815f6fd09bd5a6000000000000000000000000000000000000000000000000000000000000000000000000000000000c7b85087e7d946491fbffa5de5bed1c800e98be6",
        "nonce": "0x2a0",
        "chainId": "0x14a34"
      },
      "additionalContracts": [],
      "isFixedGasLimit": false
    },
    {
      "hash": "0xcd1ddd2e78f15387350a5ca9e2c269dbffd0ef17389d33f4c87ef2a42bb304a7",
      "transactionType": "CALL",
      "contractName": "Dictionary_0",
      "contractAddress": "0xAaE7eDD12Fb4Df7be43D7F5398AAB3f7BDF3B994",
      "function": "setImplementation(bytes4,address)",
      "arguments": [
        "0xa4e2d634",
        "0xc7B85087e7d946491FbFFa5De5bED1c800E98be6"
      ],
      "transaction": {
        "from": "0x5AC7577C0B0F8E7f55B9144fBcB64AB4778084d5",
        "to": "0xAaE7eDD12Fb4Df7be43D7F5398AAB3f7BDF3B994",
        "gas": "0x1656f",
        "value": "0x0",
        "input": "0x0815f6fda4e2d63400000000000000000000000000000000000000000000000000000000000000000000000000000000c7b85087e7d946491fbffa5de5bed1c800e98be6",
        "nonce": "0x2a1",
        "chainId": "0x14a34"
      },
      "additionalContracts": [],
      "isFixedGasLimit": false
    },
    {
      "hash": "0xce6c4080714606ac514f62f83a73b854383d7bf162360dd5d6d33ec8015a300c",
      "transactionType": "CALL",
      "contractName": "Dictionary_0",
      "contractAddress": "0xAaE7eDD12Fb4Df7be43D7F5398AAB3f7BDF3B994",
      "function": "setImplementation(bytes4,address)",
      "arguments": [
        "0x8fe8a101",
        "0xc7B85087e7d946491FbFFa5De5bED1c800E98be6"
      ],
      "transaction": {
        "from": "0x5AC7577C0B0F8E7f55B9144fBcB64AB4778084d5",
        "to": "0xAaE7eDD12Fb4Df7be43D7F5398AAB3f7BDF3B994",
        "gas": "0x1eac6",
        "value": "0x0",
        "input": "0x0815f6fd8fe8a10100000000000000000000000000000000000000000000000000000000000000000000000000000000c7b85087e7d946491fbffa5de5bed1c800e98be6",
        "nonce": "0x2a2",
        "chainId": "0x14a34"
      },
      "additionalContracts": [],
      "isFixedGasLimit": false
    },
    {
      "hash": "0x13c6445ecc5a7126a03ba235bafa6c4fac85cc480442a6f7243c75ddd3dcce51",
      "transactionType": "CALL",
      "contractName": "Dictionary_0",
      "contractAddress": "0xAaE7eDD12Fb4Df7be43D7F5398AAB3f7BDF3B994",
      "function": "setImplementation(bytes4,address)",
      "arguments": [
        "0x272aade5",
        "0xc7B85087e7d946491FbFFa5De5bED1c800E98be6"
      ],
      "transaction": {
        "from": "0x5AC7577C0B0F8E7f55B9144fBcB64AB4778084d5",
        "to": "0xAaE7eDD12Fb4Df7be43D7F5398AAB3f7BDF3B994",
        "gas": "0x18c92",
        "value": "0x0",
        "input": "0x0815f6fd272aade500000000000000000000000000000000000000000000000000000000000000000000000000000000c7b85087e7d946491fbffa5de5bed1c800e98be6",
        "nonce": "0x2a3",
        "chainId": "0x14a34"
      },
      "additionalContracts": [],
      "isFixedGasLimit": false
    },
    {
      "hash": "0x0b3827fd8b3d6e01b7fd2a5fc46085a8d5e54478fc077a1ff7729f1503354bca",
      "transactionType": "CALL",
      "contractName": "Dictionary_0",
      "contractAddress": "0xAaE7eDD12Fb4Df7be43D7F5398AAB3f7BDF3B994",
      "function": "setImplementation(bytes4,address)",
      "arguments": [
        "0xd2574608",
        "0xc7B85087e7d946491FbFFa5De5bED1c800E98be6"
      ],
      "transaction": {
        "from": "0x5AC7577C0B0F8E7f55B9144fBcB64AB4778084d5",
        "to": "0xAaE7eDD12Fb4Df7be43D7F5398AAB3f7BDF3B994",
        "gas": "0x1900e",
        "value": "0x0",
        "input": "0x0815f6fdd257460800000000000000000000000000000000000000000000000000000000000000000000000000000000c7b85087e7d946491fbffa5de5bed1c800e98be6",
        "nonce": "0x2a4",
        "chainId": "0x14a34"
      },
      "additionalContracts": [],
      "isFixedGasLimit": false
    },
    {
      "hash": "0x7c681ddaf6dbb69d4cd84af85e4d7a3d1099b5dd3540c5ae43600d994300c9c3",
      "transactionType": "CALL",
      "contractName": "Dictionary_0",
      "contractAddress": "0xAaE7eDD12Fb4Df7be43D7F5398AAB3f7BDF3B994",
      "function": "setImplementation(bytes4,address)",
      "arguments": [
        "0x04554443",
        "0xc7B85087e7d946491FbFFa5De5bED1c800E98be6"
      ],
      "transaction": {
        "from": "0x5AC7577C0B0F8E7f55B9144fBcB64AB4778084d5",
        "to": "0xAaE7eDD12Fb4Df7be43D7F5398AAB3f7BDF3B994",
        "gas": "0x17d1e",
        "value": "0x0",
        "input": "0x0815f6fd0455444300000000000000000000000000000000000000000000000000000000000000000000000000000000c7b85087e7d946491fbffa5de5bed1c800e98be6",
        "nonce": "0x2a5",
        "chainId": "0x14a34"
      },
      "additionalContracts": [],
      "isFixedGasLimit": false
    },
    {
      "hash": "0x2dfcacdb5b52e238c0a9886f33cd6b2894074b48ca1a1e3daadbe3e3e5bd7543",
      "transactionType": "CALL",
      "contractName": "Dictionary_0",
      "contractAddress": "0xAaE7eDD12Fb4Df7be43D7F5398AAB3f7BDF3B994",
      "function": "setImplementation(bytes4,address)",
      "arguments": [
        "0x62c7fa76",
        "0xc7B85087e7d946491FbFFa5De5bED1c800E98be6"
      ],
      "transaction": {
        "from": "0x5AC7577C0B0F8E7f55B9144fBcB64AB4778084d5",
        "to": "0xAaE7eDD12Fb4Df7be43D7F5398AAB3f7BDF3B994",
        "gas": "0x18068",
        "value": "0x0",
        "input": "0x0815f6fd62c7fa7600000000000000000000000000000000000000000000000000000000000000000000000000000000c7b85087e7d946491fbffa5de5bed1c800e98be6",
        "nonce": "0x2a6",
        "chainId": "0x14a34"
      },
      "additionalContracts": [],
      "isFixedGasLimit": false
    },
    {
      "hash": "0xec94d6b2a4500756fd283956971d8e7b004dbf143b598a94accf90c6617c07e6",
      "transactionType": "CALL",
      "contractName": "Dictionary_0",
      "contractAddress": "0xAaE7eDD12Fb4Df7be43D7F5398AAB3f7BDF3B994",
      "function": "setImplementation(bytes4,address)",
      "arguments": [
        "0xaffed0e0",
        "0xc7B85087e7d946491FbFFa5De5bED1c800E98be6"
      ],
      "transaction": {
        "from": "0x5AC7577C0B0F8E7f55B9144fBcB64AB4778084d5",
        "to": "0xAaE7eDD12Fb4Df7be43D7F5398AAB3f7BDF3B994",
        "gas": "0x19a82",
        "value": "0x0",
        "input": "0x0815f6fdaffed0e000000000000000000000000000000000000000000000000000000000000000000000000000000000c7b85087e7d946491fbffa5de5bed1c800e98be6",
        "nonce": "0x2a7",
        "chainId": "0x14a34"
      },
      "additionalContracts": [],
      "isFixedGasLimit": false
    },
    {
      "hash": "0x29076624587298bc8249aefb468fb1a9fba171cc889d53b769e42c8917cb6bdb",
      "transactionType": "CALL",
      "contractName": "Dictionary_0",
      "contractAddress": "0xAaE7eDD12Fb4Df7be43D7F5398AAB3f7BDF3B994",
      "function": "setImplementation(bytes4,address)",
      "arguments": [
        "0x96c705e5",
        "0xc7B85087e7d946491FbFFa5De5bED1c800E98be6"
      ],
      "transaction": {
        "from": "0x5AC7577C0B0F8E7f55B9144fBcB64AB4778084d5",
        "to": "0xAaE7eDD12Fb4Df7be43D7F5398AAB3f7BDF3B994",
        "gas": "0x19dfe",
        "value": "0x0",
        "input": "0x0815f6fd96c705e500000000000000000000000000000000000000000000000000000000000000000000000000000000c7b85087e7d946491fbffa5de5bed1c800e98be6",
        "nonce": "0x2a8",
        "chainId": "0x14a34"
      },
      "additionalContracts": [],
      "isFixedGasLimit": false
    },
    {
      "hash": "0x316d3d7e188f486190a42ea5a362053c893c2503536487ed2ca364753fe6f783",
      "transactionType": "CALL",
      "contractName": "Dictionary_0",
      "contractAddress": "0xAaE7eDD12Fb4Df7be43D7F5398AAB3f7BDF3B994",
      "function": "setImplementation(bytes4,address)",
      "arguments": [
        "0xc30a0f25",
        "0xc7B85087e7d946491FbFFa5De5bED1c800E98be6"
      ],
      "transaction": {
        "from": "0x5AC7577C0B0F8E7f55B9144fBcB64AB4778084d5",
        "to": "0xAaE7eDD12Fb4Df7be43D7F5398AAB3f7BDF3B994",
        "gas": "0x18a49",
        "value": "0x0",
        "input": "0x0815f6fdc30a0f2500000000000000000000000000000000000000000000000000000000000000000000000000000000c7b85087e7d946491fbffa5de5bed1c800e98be6",
        "nonce": "0x2a9",
        "chainId": "0x14a34"
      },
      "additionalContracts": [],
      "isFixedGasLimit": false
    },
    {
      "hash": "0x53ac51ebfa58e3be7044b4484736dea594f712885eff8256145d4b562f2aae50",
      "transactionType": "CALL",
      "contractName": "Dictionary_0",
      "contractAddress": "0xAaE7eDD12Fb4Df7be43D7F5398AAB3f7BDF3B994",
      "function": "upgradeFacade(address)",
      "arguments": [
        "0x335C0C398b15110D5B8Ee03cE6B05B75B65b042A"
      ],
      "transaction": {
        "from": "0x5AC7577C0B0F8E7f55B9144fBcB64AB4778084d5",
        "to": "0xAaE7eDD12Fb4Df7be43D7F5398AAB3f7BDF3B994",
        "gas": "0x10dbe",
        "value": "0x0",
        "input": "0x651dc03d000000000000000000000000335c0c398b15110d5b8ee03ce6b05b75b65b042a",
        "nonce": "0x2aa",
        "chainId": "0x14a34"
      },
      "additionalContracts": [],
      "isFixedGasLimit": false
    }
  ],
  "receipts": [
    {
      "status": "0x1",
      "cumulativeGasUsed": "0xce927c",
      "logs": [],
      "logsBloom": "0x00000000000000000000000000000000000000000000000000000000000000000000000000000000000000000000000000000000000000000000000000000000000000000000000000000000000000000000000000000000000000000000000000000000000000000000000000000000000000000000000000000000000000000000000000000000000000000000000000000000000000000000000000000000000000000000000000000000000000000000000000000000000000000000000000000000000000000000000000000000000000000000000000000000000000000000000000000000000000000000000000000000000000000000000000000000",
      "type": "0x2",
      "transactionHash": "0xc09abff06e4877e7a7642ce7cd6f79966599d188e53321ec6e4f7214e6c820ad",
      "transactionIndex": "0x5",
      "blockHash": "0x5cab7ebfedd39d6dd811878404cd77712340fb5668993c617085509b0c981867",
      "blockNumber": "0x11f9101",
      "gasUsed": "0x22069",
      "effectiveGasPrice": "0x13ee05",
      "from": "0x5AC7577C0B0F8E7f55B9144fBcB64AB4778084d5",
      "to": null,
      "contractAddress": "0xe6d006354c3628C12795BF637b561802E3e5d73A",
      "l1BaseFeeScalar": "0x44d",
      "l1BlobBaseFee": "0xb2",
      "l1BlobBaseFeeScalar": "0xa118b",
      "l1Fee": "0xc799d314",
      "l1GasPrice": "0x24ffdee6",
      "l1GasUsed": "0x1323"
    },
    {
      "status": "0x1",
      "cumulativeGasUsed": "0xd2393e",
      "logs": [],
      "logsBloom": "0x00000000000000000000000000000000000000000000000000000000000000000000000000000000000000000000000000000000000000000000000000000000000000000000000000000000000000000000000000000000000000000000000000000000000000000000000000000000000000000000000000000000000000000000000000000000000000000000000000000000000000000000000000000000000000000000000000000000000000000000000000000000000000000000000000000000000000000000000000000000000000000000000000000000000000000000000000000000000000000000000000000000000000000000000000000000",
      "type": "0x2",
      "transactionHash": "0xeff9806e6fadac245eda80deadd8e915e4811de9734ef04e2493c93868d1e4ff",
      "transactionIndex": "0x6",
      "blockHash": "0x5cab7ebfedd39d6dd811878404cd77712340fb5668993c617085509b0c981867",
      "blockNumber": "0x11f9101",
      "gasUsed": "0x3a6c2",
      "effectiveGasPrice": "0x13ee05",
      "from": "0x5AC7577C0B0F8E7f55B9144fBcB64AB4778084d5",
      "to": null,
      "contractAddress": "0x22BaE4a6F8787C38e6eD349Be749b334E5125934",
      "l1BaseFeeScalar": "0x44d",
      "l1BlobBaseFee": "0xb2",
      "l1BlobBaseFeeScalar": "0xa118b",
      "l1Fee": "0x1b5515ecb",
      "l1GasPrice": "0x24ffdee6",
      "l1GasUsed": "0x29ef"
    },
    {
      "status": "0x1",
      "cumulativeGasUsed": "0xd672a1",
      "logs": [],
      "logsBloom": "0x00000000000000000000000000000000000000000000000000000000000000000000000000000000000000000000000000000000000000000000000000000000000000000000000000000000000000000000000000000000000000000000000000000000000000000000000000000000000000000000000000000000000000000000000000000000000000000000000000000000000000000000000000000000000000000000000000000000000000000000000000000000000000000000000000000000000000000000000000000000000000000000000000000000000000000000000000000000000000000000000000000000000000000000000000000000",
      "type": "0x2",
      "transactionHash": "0x6964531145246e15fecca6b0fcf6428a1498dbb11e2bcf4646a2fda7d98a73d4",
      "transactionIndex": "0x7",
      "blockHash": "0x5cab7ebfedd39d6dd811878404cd77712340fb5668993c617085509b0c981867",
      "blockNumber": "0x11f9101",
      "gasUsed": "0x43963",
      "effectiveGasPrice": "0x13ee05",
      "from": "0x5AC7577C0B0F8E7f55B9144fBcB64AB4778084d5",
      "to": null,
      "contractAddress": "0x2A5E68883B1F64637A9B4C511AD06143Bb724f82",
      "l1BaseFeeScalar": "0x44d",
      "l1BlobBaseFee": "0xb2",
      "l1BlobBaseFeeScalar": "0xa118b",
      "l1Fee": "0x1f0bf41b9",
      "l1GasPrice": "0x24ffdee6",
      "l1GasUsed": "0x2fa2"
    },
    {
      "status": "0x1",
      "cumulativeGasUsed": "0xe162a2",
      "logs": [],
      "logsBloom": "0x00000000000000000000000000000000000000000000000000000000000000000000000000000000000000000000000000000000000000000000000000000000000000000000000000000000000000000000000000000000000000000000000000000000000000000000000000000000000000000000000000000000000000000000000000000000000000000000000000000000000000000000000000000000000000000000000000000000000000000000000000000000000000000000000000000000000000000000000000000000000000000000000000000000000000000000000000000000000000000000000000000000000000000000000000000000",
      "type": "0x2",
      "transactionHash": "0xf006a3934612110b3936b32de56ec7d029b3d1acfa12ffc1308f27a65c252cd9",
      "transactionIndex": "0x8",
      "blockHash": "0x5cab7ebfedd39d6dd811878404cd77712340fb5668993c617085509b0c981867",
      "blockNumber": "0x11f9101",
      "gasUsed": "0xaf001",
      "effectiveGasPrice": "0x13ee05",
      "from": "0x5AC7577C0B0F8E7f55B9144fBcB64AB4778084d5",
      "to": null,
      "contractAddress": "0x45d62E4357Ba27bfa81d6d69921e8F251E3BFaEc",
      "l1BaseFeeScalar": "0x44d",
      "l1BlobBaseFee": "0xb2",
      "l1BlobBaseFeeScalar": "0xa118b",
      "l1Fee": "0x4df84b3f1",
      "l1GasPrice": "0x24ffdee6",
      "l1GasUsed": "0x779f"
    },
    {
      "status": "0x1",
      "cumulativeGasUsed": "0xca155",
      "logs": [],
      "logsBloom": "0x00000000000000000000000000000000000000000000000000000000000000000000000000000000000000000000000000000000000000000000000000000000000000000000000000000000000000000000000000000000000000000000000000000000000000000000000000000000000000000000000000000000000000000000000000000000000000000000000000000000000000000000000000000000000000000000000000000000000000000000000000000000000000000000000000000000000000000000000000000000000000000000000000000000000000000000000000000000000000000000000000000000000000000000000000000000",
      "type": "0x2",
      "transactionHash": "0x1dc1833c839aa4119c9e88272fcb76badbcbddf2ec1ea8512ff716e6834ea592",
      "transactionIndex": "0x3",
      "blockHash": "0x8fdc981fa775eabfe11b6f37f9a3a297144d21e22f1da5efa53f5ec95c37a7cf",
      "blockNumber": "0x11f9102",
      "gasUsed": "0xa212c",
      "effectiveGasPrice": "0x13f7e4",
      "from": "0x5AC7577C0B0F8E7f55B9144fBcB64AB4778084d5",
      "to": null,
      "contractAddress": "0xa8132f4819725CC4f0Ebfb61554b1773e33409fC",
      "l1BaseFeeScalar": "0x44d",
      "l1BlobBaseFee": "0xb2",
      "l1BlobBaseFeeScalar": "0xa118b",
      "l1Fee": "0x4741c0bb6",
      "l1GasPrice": "0x24ffdee6",
      "l1GasUsed": "0x6d53"
    },
    {
      "status": "0x1",
      "cumulativeGasUsed": "0x1244d2",
      "logs": [],
      "logsBloom": "0x00000000000000000000000000000000000000000000000000000000000000000000000000000000000000000000000000000000000000000000000000000000000000000000000000000000000000000000000000000000000000000000000000000000000000000000000000000000000000000000000000000000000000000000000000000000000000000000000000000000000000000000000000000000000000000000000000000000000000000000000000000000000000000000000000000000000000000000000000000000000000000000000000000000000000000000000000000000000000000000000000000000000000000000000000000000",
      "type": "0x2",
      "transactionHash": "0x2751e77bc9d6fe4da3f975b79b49f9318b93fc2d192dbf33005e90bea50ef143",
      "transactionIndex": "0x4",
      "blockHash": "0x8fdc981fa775eabfe11b6f37f9a3a297144d21e22f1da5efa53f5ec95c37a7cf",
      "blockNumber": "0x11f9102",
      "gasUsed": "0x5a37d",
      "effectiveGasPrice": "0x13f7e4",
      "from": "0x5AC7577C0B0F8E7f55B9144fBcB64AB4778084d5",
      "to": null,
      "contractAddress": "0xc7B85087e7d946491FbFFa5De5bED1c800E98be6",
      "l1BaseFeeScalar": "0x44d",
      "l1BlobBaseFee": "0xb2",
      "l1BlobBaseFeeScalar": "0xa118b",
      "l1Fee": "0x239ce9111",
      "l1GasPrice": "0x24ffdee6",
      "l1GasUsed": "0x36a3"
    },
    {
      "status": "0x1",
      "cumulativeGasUsed": "0x165820",
      "logs": [],
      "logsBloom": "0x00000000000000000000000000000000000000000000000000000000000000000000000000000000000000000000000000000000000000000000000000000000000000000000000000000000000000000000000000000000000000000000000000000000000000000000000000000000000000000000000000000000000000000000000000000000000000000000000000000000000000000000000000000000000000000000000000000000000000000000000000000000000000000000000000000000000000000000000000000000000000000000000000000000000000000000000000000000000000000000000000000000000000000000000000000000",
      "type": "0x2",
      "transactionHash": "0x7c833795af978a00248b8f4a0be05116728cbc1ecb1002b455bfccf6cbd987a4",
      "transactionIndex": "0x5",
      "blockHash": "0x8fdc981fa775eabfe11b6f37f9a3a297144d21e22f1da5efa53f5ec95c37a7cf",
      "blockNumber": "0x11f9102",
      "gasUsed": "0x4134e",
      "effectiveGasPrice": "0x13f7e4",
      "from": "0x5AC7577C0B0F8E7f55B9144fBcB64AB4778084d5",
      "to": null,
      "contractAddress": "0x335C0C398b15110D5B8Ee03cE6B05B75B65b042A",
      "l1BaseFeeScalar": "0x44d",
      "l1BlobBaseFee": "0xb2",
      "l1BlobBaseFeeScalar": "0xa118b",
      "l1Fee": "0x1d008a3ed",
      "l1GasPrice": "0x24ffdee6",
      "l1GasUsed": "0x2c7e"
    },
    {
      "status": "0x1",
      "cumulativeGasUsed": "0x1e6680",
      "logs": [
        {
          "address": "0xAaE7eDD12Fb4Df7be43D7F5398AAB3f7BDF3B994",
          "topics": [
            "0x8be0079c531659141344cd1fd0a4f28419497f9722a3daafe3b4186f6b6457e0",
            "0x0000000000000000000000000000000000000000000000000000000000000000",
            "0x0000000000000000000000005ac7577c0b0f8e7f55b9144fbcb64ab4778084d5"
          ],
          "data": "0x",
          "blockHash": "0x8fdc981fa775eabfe11b6f37f9a3a297144d21e22f1da5efa53f5ec95c37a7cf",
          "blockNumber": "0x11f9102",
          "transactionHash": "0x0db729f663de6190ea1679027c39f25e188948115cb618e7abc7b9c1bfcf9b6d",
          "transactionIndex": "0x6",
          "logIndex": "0x1",
          "removed": false
        }
      ],
      "logsBloom": "0x00000000000000000000000000000000000000000000000000800000000000000000000000000000000000000000000000000000000000000000000000000000000000000000000000000000000000000001000000000000000000000000000000000000020000000000000000000800000000000000000000000000000000400000000000000000000000100000010000000000000000000000000000000000000000010000000000000000000000000400000000000000000000000000010000000000000000000000000000000000000000000000000000000000000020000000000000001000000000000000000000000000000000000000000000000000",
      "type": "0x2",
      "transactionHash": "0x0db729f663de6190ea1679027c39f25e188948115cb618e7abc7b9c1bfcf9b6d",
      "transactionIndex": "0x6",
      "blockHash": "0x8fdc981fa775eabfe11b6f37f9a3a297144d21e22f1da5efa53f5ec95c37a7cf",
      "blockNumber": "0x11f9102",
      "gasUsed": "0x80e60",
      "effectiveGasPrice": "0x13f7e4",
      "from": "0x5AC7577C0B0F8E7f55B9144fBcB64AB4778084d5",
      "to": null,
      "contractAddress": "0xAaE7eDD12Fb4Df7be43D7F5398AAB3f7BDF3B994",
      "l1BaseFeeScalar": "0x44d",
      "l1BlobBaseFee": "0xb2",
      "l1BlobBaseFeeScalar": "0xa118b",
      "l1Fee": "0x3c02fa7d5",
      "l1GasPrice": "0x24ffdee6",
      "l1GasUsed": "0x5c12"
    },
    {
      "status": "0x1",
      "cumulativeGasUsed": "0x1fde3d",
      "logs": [
        {
          "address": "0xAaE7eDD12Fb4Df7be43D7F5398AAB3f7BDF3B994",
          "topics": [
            "0xbe533f538959a17d76f1b09e966e741ee3b1183099682f96216c93d21feaecba"
          ],
          "data": "0x019e272900000000000000000000000000000000000000000000000000000000",
          "blockHash": "0x8fdc981fa775eabfe11b6f37f9a3a297144d21e22f1da5efa53f5ec95c37a7cf",
          "blockNumber": "0x11f9102",
          "transactionHash": "0x530988071c9c3a0b80408173dc80edca303c6c4655421c8850fbb662cc5dfdc9",
          "transactionIndex": "0x7",
          "logIndex": "0x2",
          "removed": false
        },
        {
          "address": "0xAaE7eDD12Fb4Df7be43D7F5398AAB3f7BDF3B994",
          "topics": [
            "0xda3c8142b3c1d27633026f55bfcb4eeb0b5b8db0daa0a3e10c2213a441722ad1"
          ],
          "data": "0x019e272900000000000000000000000000000000000000000000000000000000000000000000000000000000e6d006354c3628c12795bf637b561802e3e5d73a",
          "blockHash": "0x8fdc981fa775eabfe11b6f37f9a3a297144d21e22f1da5efa53f5ec95c37a7cf",
          "blockNumber": "0x11f9102",
          "transactionHash": "0x530988071c9c3a0b80408173dc80edca303c6c4655421c8850fbb662cc5dfdc9",
          "transactionIndex": "0x7",
          "logIndex": "0x3",
          "removed": false
        }
      ],
      "logsBloom": "0x00000000000000000000000000000000000000000000000000000000000000080000000000000000000000000000000000000000000000000000000000000000000000000000000000000000000000000000000000000000000000000000000000000000000000000000200000000000000000000000000010000000000000000000000000000000000000000000110000000000000000000000000000000000000000010000000000004000080000000000000000000000000000000000010000000000000000000000000000000000000000000000000000000000000000000000000000000000000000000000000000000000000000000000000000000000",
      "type": "0x2",
      "transactionHash": "0x530988071c9c3a0b80408173dc80edca303c6c4655421c8850fbb662cc5dfdc9",
      "transactionIndex": "0x7",
      "blockHash": "0x8fdc981fa775eabfe11b6f37f9a3a297144d21e22f1da5efa53f5ec95c37a7cf",
      "blockNumber": "0x11f9102",
      "gasUsed": "0x177bd",
      "effectiveGasPrice": "0x13f7e4",
      "from": "0x5AC7577C0B0F8E7f55B9144fBcB64AB4778084d5",
      "to": "0xAaE7eDD12Fb4Df7be43D7F5398AAB3f7BDF3B994",
      "contractAddress": null,
      "l1BaseFeeScalar": "0x44d",
      "l1BlobBaseFee": "0xb2",
      "l1BlobBaseFeeScalar": "0xa118b",
      "l1Fee": "0x412dd39e",
      "l1GasPrice": "0x24ffdee6",
      "l1GasUsed": "0x640"
    },
    {
      "status": "0x1",
      "cumulativeGasUsed": "0x20d2c4",
      "logs": [
        {
          "address": "0xAaE7eDD12Fb4Df7be43D7F5398AAB3f7BDF3B994",
          "topics": [
            "0xbe533f538959a17d76f1b09e966e741ee3b1183099682f96216c93d21feaecba"
          ],
          "data": "0xffa1a33a00000000000000000000000000000000000000000000000000000000",
          "blockHash": "0x8fdc981fa775eabfe11b6f37f9a3a297144d21e22f1da5efa53f5ec95c37a7cf",
          "blockNumber": "0x11f9102",
          "transactionHash": "0xeea654b4e4bc0204f8ba98f22d8743a60f6d25bb0985b019c1c23d43f346e8fe",
          "transactionIndex": "0x8",
          "logIndex": "0x4",
          "removed": false
        },
        {
          "address": "0xAaE7eDD12Fb4Df7be43D7F5398AAB3f7BDF3B994",
          "topics": [
            "0xda3c8142b3c1d27633026f55bfcb4eeb0b5b8db0daa0a3e10c2213a441722ad1"
          ],
          "data": "0xffa1a33a0000000000000000000000000000000000000000000000000000000000000000000000000000000022bae4a6f8787c38e6ed349be749b334e5125934",
          "blockHash": "0x8fdc981fa775eabfe11b6f37f9a3a297144d21e22f1da5efa53f5ec95c37a7cf",
          "blockNumber": "0x11f9102",
          "transactionHash": "0xeea654b4e4bc0204f8ba98f22d8743a60f6d25bb0985b019c1c23d43f346e8fe",
          "transactionIndex": "0x8",
          "logIndex": "0x5",
          "removed": false
        }
      ],
      "logsBloom": "0x00000000000000000000000000000000000000000000000000000000000000080000000000000000000000000000000000000000000000000000000000000000000000000000000000000000000000000000000000000000000000000000000000000000000000000000200000000000000000000000000010000000000000000000000000000000000000000000110000000000000000000000000000000000000000010000000000004000080000000000000000000000000000000000010000000000000000000000000000000000000000000000000000000000000000000000000000000000000000000000000000000000000000000000000000000000",
      "type": "0x2",
      "transactionHash": "0xeea654b4e4bc0204f8ba98f22d8743a60f6d25bb0985b019c1c23d43f346e8fe",
      "transactionIndex": "0x8",
      "blockHash": "0x8fdc981fa775eabfe11b6f37f9a3a297144d21e22f1da5efa53f5ec95c37a7cf",
      "blockNumber": "0x11f9102",
      "gasUsed": "0xf487",
      "effectiveGasPrice": "0x13f7e4",
      "from": "0x5AC7577C0B0F8E7f55B9144fBcB64AB4778084d5",
      "to": "0xAaE7eDD12Fb4Df7be43D7F5398AAB3f7BDF3B994",
      "contractAddress": null,
      "l1BaseFeeScalar": "0x44d",
      "l1BlobBaseFee": "0xb2",
      "l1BlobBaseFeeScalar": "0xa118b",
      "l1Fee": "0x412dd39e",
      "l1GasPrice": "0x24ffdee6",
      "l1GasUsed": "0x640"
    },
    {
      "status": "0x1",
      "cumulativeGasUsed": "0x21c9ad",
      "logs": [
        {
          "address": "0xAaE7eDD12Fb4Df7be43D7F5398AAB3f7BDF3B994",
          "topics": [
            "0xbe533f538959a17d76f1b09e966e741ee3b1183099682f96216c93d21feaecba"
          ],
          "data": "0xaa14cc6b00000000000000000000000000000000000000000000000000000000",
          "blockHash": "0x8fdc981fa775eabfe11b6f37f9a3a297144d21e22f1da5efa53f5ec95c37a7cf",
          "blockNumber": "0x11f9102",
          "transactionHash": "0x4a96317fdbc0cf977e454f771cf854b1494ed233a1a047f81804d8f4cfbda015",
          "transactionIndex": "0x9",
          "logIndex": "0x6",
          "removed": false
        },
        {
          "address": "0xAaE7eDD12Fb4Df7be43D7F5398AAB3f7BDF3B994",
          "topics": [
            "0xda3c8142b3c1d27633026f55bfcb4eeb0b5b8db0daa0a3e10c2213a441722ad1"
          ],
          "data": "0xaa14cc6b000000000000000000000000000000000000000000000000000000000000000000000000000000002a5e68883b1f64637a9b4c511ad06143bb724f82",
          "blockHash": "0x8fdc981fa775eabfe11b6f37f9a3a297144d21e22f1da5efa53f5ec95c37a7cf",
          "blockNumber": "0x11f9102",
          "transactionHash": "0x4a96317fdbc0cf977e454f771cf854b1494ed233a1a047f81804d8f4cfbda015",
          "transactionIndex": "0x9",
          "logIndex": "0x7",
          "removed": false
        }
      ],
      "logsBloom": "0x00000000000000000000000000000000000000000000000000000000000000080000000000000000000000000000000000000000000000000000000000000000000000000000000000000000000000000000000000000000000000000000000000000000000000000000200000000000000000000000000010000000000000000000000000000000000000000000110000000000000000000000000000000000000000010000000000004000080000000000000000000000000000000000010000000000000000000000000000000000000000000000000000000000000000000000000000000000000000000000000000000000000000000000000000000000",
      "type": "0x2",
      "transactionHash": "0x4a96317fdbc0cf977e454f771cf854b1494ed233a1a047f81804d8f4cfbda015",
      "transactionIndex": "0x9",
      "blockHash": "0x8fdc981fa775eabfe11b6f37f9a3a297144d21e22f1da5efa53f5ec95c37a7cf",
      "blockNumber": "0x11f9102",
      "gasUsed": "0xf6e9",
      "effectiveGasPrice": "0x13f7e4",
      "from": "0x5AC7577C0B0F8E7f55B9144fBcB64AB4778084d5",
      "to": "0xAaE7eDD12Fb4Df7be43D7F5398AAB3f7BDF3B994",
      "contractAddress": null,
      "l1BaseFeeScalar": "0x44d",
      "l1BlobBaseFee": "0xb2",
      "l1BlobBaseFeeScalar": "0xa118b",
      "l1Fee": "0x412dd39e",
      "l1GasPrice": "0x24ffdee6",
      "l1GasUsed": "0x640"
    },
    {
      "status": "0x1",
      "cumulativeGasUsed": "0x22c2f8",
      "logs": [
        {
          "address": "0xAaE7eDD12Fb4Df7be43D7F5398AAB3f7BDF3B994",
          "topics": [
            "0xbe533f538959a17d76f1b09e966e741ee3b1183099682f96216c93d21feaecba"
          ],
          "data": "0x985e127c00000000000000000000000000000000000000000000000000000000",
          "blockHash": "0x8fdc981fa775eabfe11b6f37f9a3a297144d21e22f1da5efa53f5ec95c37a7cf",
          "blockNumber": "0x11f9102",
          "transactionHash": "0x615bebd790914f700a086f63756143330c9431cc049dce6e6cf23b0e5b33f19f",
          "transactionIndex": "0xa",
          "logIndex": "0x8",
          "removed": false
        },
        {
          "address": "0xAaE7eDD12Fb4Df7be43D7F5398AAB3f7BDF3B994",
          "topics": [
            "0xda3c8142b3c1d27633026f55bfcb4eeb0b5b8db0daa0a3e10c2213a441722ad1"
          ],
          "data": "0x985e127c0000000000000000000000000000000000000000000000000000000000000000000000000000000045d62e4357ba27bfa81d6d69921e8f251e3bfaec",
          "blockHash": "0x8fdc981fa775eabfe11b6f37f9a3a297144d21e22f1da5efa53f5ec95c37a7cf",
          "blockNumber": "0x11f9102",
          "transactionHash": "0x615bebd790914f700a086f63756143330c9431cc049dce6e6cf23b0e5b33f19f",
          "transactionIndex": "0xa",
          "logIndex": "0x9",
          "removed": false
        }
      ],
      "logsBloom": "0x00000000000000000000000000000000000000000000000000000000000000080000000000000000000000000000000000000000000000000000000000000000000000000000000000000000000000000000000000000000000000000000000000000000000000000000200000000000000000000000000010000000000000000000000000000000000000000000110000000000000000000000000000000000000000010000000000004000080000000000000000000000000000000000010000000000000000000000000000000000000000000000000000000000000000000000000000000000000000000000000000000000000000000000000000000000",
      "type": "0x2",
      "transactionHash": "0x615bebd790914f700a086f63756143330c9431cc049dce6e6cf23b0e5b33f19f",
      "transactionIndex": "0xa",
      "blockHash": "0x8fdc981fa775eabfe11b6f37f9a3a297144d21e22f1da5efa53f5ec95c37a7cf",
      "blockNumber": "0x11f9102",
      "gasUsed": "0xf94b",
      "effectiveGasPrice": "0x13f7e4",
      "from": "0x5AC7577C0B0F8E7f55B9144fBcB64AB4778084d5",
      "to": "0xAaE7eDD12Fb4Df7be43D7F5398AAB3f7BDF3B994",
      "contractAddress": null,
      "l1BaseFeeScalar": "0x44d",
      "l1BlobBaseFee": "0xb2",
      "l1BlobBaseFeeScalar": "0xa118b",
      "l1Fee": "0x412dd39e",
      "l1GasPrice": "0x24ffdee6",
      "l1GasUsed": "0x640"
    },
    {
      "status": "0x1",
      "cumulativeGasUsed": "0x23bea5",
      "logs": [
        {
          "address": "0xAaE7eDD12Fb4Df7be43D7F5398AAB3f7BDF3B994",
          "topics": [
            "0xbe533f538959a17d76f1b09e966e741ee3b1183099682f96216c93d21feaecba"
          ],
          "data": "0xe6424a5e00000000000000000000000000000000000000000000000000000000",
          "blockHash": "0x8fdc981fa775eabfe11b6f37f9a3a297144d21e22f1da5efa53f5ec95c37a7cf",
          "blockNumber": "0x11f9102",
          "transactionHash": "0xb4410e3e6fcbc86300d565050e74778282ffe00f0a807d923f697966391216b7",
          "transactionIndex": "0xb",
          "logIndex": "0xa",
          "removed": false
        },
        {
          "address": "0xAaE7eDD12Fb4Df7be43D7F5398AAB3f7BDF3B994",
          "topics": [
            "0xda3c8142b3c1d27633026f55bfcb4eeb0b5b8db0daa0a3e10c2213a441722ad1"
          ],
          "data": "0xe6424a5e00000000000000000000000000000000000000000000000000000000000000000000000000000000a8132f4819725cc4f0ebfb61554b1773e33409fc",
          "blockHash": "0x8fdc981fa775eabfe11b6f37f9a3a297144d21e22f1da5efa53f5ec95c37a7cf",
          "blockNumber": "0x11f9102",
          "transactionHash": "0xb4410e3e6fcbc86300d565050e74778282ffe00f0a807d923f697966391216b7",
          "transactionIndex": "0xb",
          "logIndex": "0xb",
          "removed": false
        }
      ],
      "logsBloom": "0x00000000000000000000000000000000000000000000000000000000000000080000000000000000000000000000000000000000000000000000000000000000000000000000000000000000000000000000000000000000000000000000000000000000000000000000200000000000000000000000000010000000000000000000000000000000000000000000110000000000000000000000000000000000000000010000000000004000080000000000000000000000000000000000010000000000000000000000000000000000000000000000000000000000000000000000000000000000000000000000000000000000000000000000000000000000",
      "type": "0x2",
      "transactionHash": "0xb4410e3e6fcbc86300d565050e74778282ffe00f0a807d923f697966391216b7",
      "transactionIndex": "0xb",
      "blockHash": "0x8fdc981fa775eabfe11b6f37f9a3a297144d21e22f1da5efa53f5ec95c37a7cf",
      "blockNumber": "0x11f9102",
      "gasUsed": "0xfbad",
      "effectiveGasPrice": "0x13f7e4",
      "from": "0x5AC7577C0B0F8E7f55B9144fBcB64AB4778084d5",
      "to": "0xAaE7eDD12Fb4Df7be43D7F5398AAB3f7BDF3B994",
      "contractAddress": null,
      "l1BaseFeeScalar": "0x44d",
      "l1BlobBaseFee": "0xb2",
      "l1BlobBaseFeeScalar": "0xa118b",
      "l1Fee": "0x412dd39e",
      "l1GasPrice": "0x24ffdee6",
      "l1GasUsed": "0x640"
    },
    {
      "status": "0x1",
      "cumulativeGasUsed": "0x24bca8",
      "logs": [
        {
          "address": "0xAaE7eDD12Fb4Df7be43D7F5398AAB3f7BDF3B994",
          "topics": [
            "0xbe533f538959a17d76f1b09e966e741ee3b1183099682f96216c93d21feaecba"
          ],
          "data": "0x8da5cb5b00000000000000000000000000000000000000000000000000000000",
          "blockHash": "0x8fdc981fa775eabfe11b6f37f9a3a297144d21e22f1da5efa53f5ec95c37a7cf",
          "blockNumber": "0x11f9102",
          "transactionHash": "0xf7fd84258ec4829761ccd9186f66ee37f8e8180e896bee512d9e188d94f449f5",
          "transactionIndex": "0xc",
          "logIndex": "0xc",
          "removed": false
        },
        {
          "address": "0xAaE7eDD12Fb4Df7be43D7F5398AAB3f7BDF3B994",
          "topics": [
            "0xda3c8142b3c1d27633026f55bfcb4eeb0b5b8db0daa0a3e10c2213a441722ad1"
          ],
          "data": "0x8da5cb5b00000000000000000000000000000000000000000000000000000000000000000000000000000000c7b85087e7d946491fbffa5de5bed1c800e98be6",
          "blockHash": "0x8fdc981fa775eabfe11b6f37f9a3a297144d21e22f1da5efa53f5ec95c37a7cf",
          "blockNumber": "0x11f9102",
          "transactionHash": "0xf7fd84258ec4829761ccd9186f66ee37f8e8180e896bee512d9e188d94f449f5",
          "transactionIndex": "0xc",
          "logIndex": "0xd",
          "removed": false
        }
      ],
      "logsBloom": "0x00000000000000000000000000000000000000000000000000000000000000080000000000000000000000000000000000000000000000000000000000000000000000000000000000000000000000000000000000000000000000000000000000000000000000000000200000000000000000000000000010000000000000000000000000000000000000000000110000000000000000000000000000000000000000010000000000004000080000000000000000000000000000000000010000000000000000000000000000000000000000000000000000000000000000000000000000000000000000000000000000000000000000000000000000000000",
      "type": "0x2",
      "transactionHash": "0xf7fd84258ec4829761ccd9186f66ee37f8e8180e896bee512d9e188d94f449f5",
      "transactionIndex": "0xc",
      "blockHash": "0x8fdc981fa775eabfe11b6f37f9a3a297144d21e22f1da5efa53f5ec95c37a7cf",
      "blockNumber": "0x11f9102",
      "gasUsed": "0xfe03",
      "effectiveGasPrice": "0x13f7e4",
      "from": "0x5AC7577C0B0F8E7f55B9144fBcB64AB4778084d5",
      "to": "0xAaE7eDD12Fb4Df7be43D7F5398AAB3f7BDF3B994",
      "contractAddress": null,
      "l1BaseFeeScalar": "0x44d",
      "l1BlobBaseFee": "0xb2",
      "l1BlobBaseFeeScalar": "0xa118b",
      "l1Fee": "0x412dd39e",
      "l1GasPrice": "0x24ffdee6",
      "l1GasUsed": "0x640"
    },
    {
      "status": "0x1",
      "cumulativeGasUsed": "0x25bd0d",
      "logs": [
        {
          "address": "0xAaE7eDD12Fb4Df7be43D7F5398AAB3f7BDF3B994",
          "topics": [
            "0xbe533f538959a17d76f1b09e966e741ee3b1183099682f96216c93d21feaecba"
          ],
          "data": "0x09bd5a6000000000000000000000000000000000000000000000000000000000",
          "blockHash": "0x8fdc981fa775eabfe11b6f37f9a3a297144d21e22f1da5efa53f5ec95c37a7cf",
          "blockNumber": "0x11f9102",
          "transactionHash": "0x4f5de0355710dee586b8a43ec1b931f806f155c823fe825802078cb56ea0cf4f",
          "transactionIndex": "0xd",
          "logIndex": "0xe",
          "removed": false
        },
        {
          "address": "0xAaE7eDD12Fb4Df7be43D7F5398AAB3f7BDF3B994",
          "topics": [
            "0xda3c8142b3c1d27633026f55bfcb4eeb0b5b8db0daa0a3e10c2213a441722ad1"
          ],
          "data": "0x09bd5a6000000000000000000000000000000000000000000000000000000000000000000000000000000000c7b85087e7d946491fbffa5de5bed1c800e98be6",
          "blockHash": "0x8fdc981fa775eabfe11b6f37f9a3a297144d21e22f1da5efa53f5ec95c37a7cf",
          "blockNumber": "0x11f9102",
          "transactionHash": "0x4f5de0355710dee586b8a43ec1b931f806f155c823fe825802078cb56ea0cf4f",
          "transactionIndex": "0xd",
          "logIndex": "0xf",
          "removed": false
        }
      ],
      "logsBloom": "0x00000000000000000000000000000000000000000000000000000000000000080000000000000000000000000000000000000000000000000000000000000000000000000000000000000000000000000000000000000000000000000000000000000000000000000000200000000000000000000000000010000000000000000000000000000000000000000000110000000000000000000000000000000000000000010000000000004000080000000000000000000000000000000000010000000000000000000000000000000000000000000000000000000000000000000000000000000000000000000000000000000000000000000000000000000000",
      "type": "0x2",
      "transactionHash": "0x4f5de0355710dee586b8a43ec1b931f806f155c823fe825802078cb56ea0cf4f",
      "transactionIndex": "0xd",
      "blockHash": "0x8fdc981fa775eabfe11b6f37f9a3a297144d21e22f1da5efa53f5ec95c37a7cf",
      "blockNumber": "0x11f9102",
      "gasUsed": "0x10065",
      "effectiveGasPrice": "0x13f7e4",
      "from": "0x5AC7577C0B0F8E7f55B9144fBcB64AB4778084d5",
      "to": "0xAaE7eDD12Fb4Df7be43D7F5398AAB3f7BDF3B994",
      "contractAddress": null,
      "l1BaseFeeScalar": "0x44d",
      "l1BlobBaseFee": "0xb2",
      "l1BlobBaseFeeScalar": "0xa118b",
      "l1Fee": "0x412dd39e",
      "l1GasPrice": "0x24ffdee6",
      "l1GasUsed": "0x640"
    },
    {
      "status": "0x1",
      "cumulativeGasUsed": "0x26bfd4",
      "logs": [
        {
          "address": "0xAaE7eDD12Fb4Df7be43D7F5398AAB3f7BDF3B994",
          "topics": [
            "0xbe533f538959a17d76f1b09e966e741ee3b1183099682f96216c93d21feaecba"
          ],
          "data": "0xa4e2d63400000000000000000000000000000000000000000000000000000000",
          "blockHash": "0x8fdc981fa775eabfe11b6f37f9a3a297144d21e22f1da5efa53f5ec95c37a7cf",
          "blockNumber": "0x11f9102",
          "transactionHash": "0xcd1ddd2e78f15387350a5ca9e2c269dbffd0ef17389d33f4c87ef2a42bb304a7",
          "transactionIndex": "0xe",
          "logIndex": "0x10",
          "removed": false
        },
        {
          "address": "0xAaE7eDD12Fb4Df7be43D7F5398AAB3f7BDF3B994",
          "topics": [
            "0xda3c8142b3c1d27633026f55bfcb4eeb0b5b8db0daa0a3e10c2213a441722ad1"
          ],
          "data": "0xa4e2d63400000000000000000000000000000000000000000000000000000000000000000000000000000000c7b85087e7d946491fbffa5de5bed1c800e98be6",
          "blockHash": "0x8fdc981fa775eabfe11b6f37f9a3a297144d21e22f1da5efa53f5ec95c37a7cf",
          "blockNumber": "0x11f9102",
          "transactionHash": "0xcd1ddd2e78f15387350a5ca9e2c269dbffd0ef17389d33f4c87ef2a42bb304a7",
          "transactionIndex": "0xe",
          "logIndex": "0x11",
          "removed": false
        }
      ],
      "logsBloom": "0x00000000000000000000000000000000000000000000000000000000000000080000000000000000000000000000000000000000000000000000000000000000000000000000000000000000000000000000000000000000000000000000000000000000000000000000200000000000000000000000000010000000000000000000000000000000000000000000110000000000000000000000000000000000000000010000000000004000080000000000000000000000000000000000010000000000000000000000000000000000000000000000000000000000000000000000000000000000000000000000000000000000000000000000000000000000",
      "type": "0x2",
      "transactionHash": "0xcd1ddd2e78f15387350a5ca9e2c269dbffd0ef17389d33f4c87ef2a42bb304a7",
      "transactionIndex": "0xe",
      "blockHash": "0x8fdc981fa775eabfe11b6f37f9a3a297144d21e22f1da5efa53f5ec95c37a7cf",
      "blockNumber": "0x11f9102",
      "gasUsed": "0x102c7",
      "effectiveGasPrice": "0x13f7e4",
      "from": "0x5AC7577C0B0F8E7f55B9144fBcB64AB4778084d5",
      "to": "0xAaE7eDD12Fb4Df7be43D7F5398AAB3f7BDF3B994",
      "contractAddress": null,
      "l1BaseFeeScalar": "0x44d",
      "l1BlobBaseFee": "0xb2",
      "l1BlobBaseFeeScalar": "0xa118b",
      "l1Fee": "0x412dd39e",
      "l1GasPrice": "0x24ffdee6",
      "l1GasUsed": "0x640"
    },
    {
      "status": "0x1",
      "cumulativeGasUsed": "0x280f67",
      "logs": [
        {
          "address": "0xAaE7eDD12Fb4Df7be43D7F5398AAB3f7BDF3B994",
          "topics": [
            "0xbe533f538959a17d76f1b09e966e741ee3b1183099682f96216c93d21feaecba"
          ],
          "data": "0x8fe8a10100000000000000000000000000000000000000000000000000000000",
          "blockHash": "0x8fdc981fa775eabfe11b6f37f9a3a297144d21e22f1da5efa53f5ec95c37a7cf",
          "blockNumber": "0x11f9102",
          "transactionHash": "0xce6c4080714606ac514f62f83a73b854383d7bf162360dd5d6d33ec8015a300c",
          "transactionIndex": "0xf",
          "logIndex": "0x12",
          "removed": false
        },
        {
          "address": "0xAaE7eDD12Fb4Df7be43D7F5398AAB3f7BDF3B994",
          "topics": [
            "0xda3c8142b3c1d27633026f55bfcb4eeb0b5b8db0daa0a3e10c2213a441722ad1"
          ],
          "data": "0x8fe8a10100000000000000000000000000000000000000000000000000000000000000000000000000000000c7b85087e7d946491fbffa5de5bed1c800e98be6",
          "blockHash": "0x8fdc981fa775eabfe11b6f37f9a3a297144d21e22f1da5efa53f5ec95c37a7cf",
          "blockNumber": "0x11f9102",
          "transactionHash": "0xce6c4080714606ac514f62f83a73b854383d7bf162360dd5d6d33ec8015a300c",
          "transactionIndex": "0xf",
          "logIndex": "0x13",
          "removed": false
        }
      ],
      "logsBloom": "0x00000000000000000000000000000000000000000000000000000000000000080000000000000000000000000000000000000000000000000000000000000000000000000000000000000000000000000000000000000000000000000000000000000000000000000000200000000000000000000000000010000000000000000000000000000000000000000000110000000000000000000000000000000000000000010000000000004000080000000000000000000000000000000000010000000000000000000000000000000000000000000000000000000000000000000000000000000000000000000000000000000000000000000000000000000000",
      "type": "0x2",
      "transactionHash": "0xce6c4080714606ac514f62f83a73b854383d7bf162360dd5d6d33ec8015a300c",
      "transactionIndex": "0xf",
      "blockHash": "0x8fdc981fa775eabfe11b6f37f9a3a297144d21e22f1da5efa53f5ec95c37a7cf",
      "blockNumber": "0x11f9102",
      "gasUsed": "0x14f93",
      "effectiveGasPrice": "0x13f7e4",
      "from": "0x5AC7577C0B0F8E7f55B9144fBcB64AB4778084d5",
      "to": "0xAaE7eDD12Fb4Df7be43D7F5398AAB3f7BDF3B994",
      "contractAddress": null,
      "l1BaseFeeScalar": "0x44d",
      "l1BlobBaseFee": "0xb2",
      "l1BlobBaseFeeScalar": "0xa118b",
      "l1Fee": "0x412dd39e",
      "l1GasPrice": "0x24ffdee6",
      "l1GasUsed": "0x640"
    },
    {
      "status": "0x1",
      "cumulativeGasUsed": "0x21aa4",
      "logs": [
        {
          "address": "0xAaE7eDD12Fb4Df7be43D7F5398AAB3f7BDF3B994",
          "topics": [
            "0xbe533f538959a17d76f1b09e966e741ee3b1183099682f96216c93d21feaecba"
          ],
          "data": "0x272aade500000000000000000000000000000000000000000000000000000000",
          "blockHash": "0xaff302725a7c6d5d3487604dad07817cec1369a5a48a8691ba78c7fab9233bfd",
          "blockNumber": "0x11f9103",
          "transactionHash": "0x13c6445ecc5a7126a03ba235bafa6c4fac85cc480442a6f7243c75ddd3dcce51",
          "transactionIndex": "0x2",
          "logIndex": "0x0",
          "removed": false
        },
        {
          "address": "0xAaE7eDD12Fb4Df7be43D7F5398AAB3f7BDF3B994",
          "topics": [
            "0xda3c8142b3c1d27633026f55bfcb4eeb0b5b8db0daa0a3e10c2213a441722ad1"
          ],
          "data": "0x272aade500000000000000000000000000000000000000000000000000000000000000000000000000000000c7b85087e7d946491fbffa5de5bed1c800e98be6",
          "blockHash": "0xaff302725a7c6d5d3487604dad07817cec1369a5a48a8691ba78c7fab9233bfd",
          "blockNumber": "0x11f9103",
          "transactionHash": "0x13c6445ecc5a7126a03ba235bafa6c4fac85cc480442a6f7243c75ddd3dcce51",
          "transactionIndex": "0x2",
          "logIndex": "0x1",
          "removed": false
        }
      ],
      "logsBloom": "0x00000000000000000000000000000000000000000000000000000000000000080000000000000000000000000000000000000000000000000000000000000000000000000000000000000000000000000000000000000000000000000000000000000000000000000000200000000000000000000000000010000000000000000000000000000000000000000000110000000000000000000000000000000000000000010000000000004000080000000000000000000000000000000000010000000000000000000000000000000000000000000000000000000000000000000000000000000000000000000000000000000000000000000000000000000000",
      "type": "0x2",
      "transactionHash": "0x13c6445ecc5a7126a03ba235bafa6c4fac85cc480442a6f7243c75ddd3dcce51",
      "transactionIndex": "0x2",
      "blockHash": "0xaff302725a7c6d5d3487604dad07817cec1369a5a48a8691ba78c7fab9233bfd",
      "blockNumber": "0x11f9103",
      "gasUsed": "0x10f29",
      "effectiveGasPrice": "0x13f51f",
      "from": "0x5AC7577C0B0F8E7f55B9144fBcB64AB4778084d5",
      "to": "0xAaE7eDD12Fb4Df7be43D7F5398AAB3f7BDF3B994",
      "contractAddress": null,
      "l1BaseFeeScalar": "0x44d",
      "l1BlobBaseFee": "0xb2",
      "l1BlobBaseFeeScalar": "0xa118b",
      "l1Fee": "0x412dd39e",
      "l1GasPrice": "0x24ffdee6",
      "l1GasUsed": "0x640"
    },
    {
      "status": "0x1",
      "cumulativeGasUsed": "0x32c2f",
      "logs": [
        {
          "address": "0xAaE7eDD12Fb4Df7be43D7F5398AAB3f7BDF3B994",
          "topics": [
            "0xbe533f538959a17d76f1b09e966e741ee3b1183099682f96216c93d21feaecba"
          ],
          "data": "0xd257460800000000000000000000000000000000000000000000000000000000",
          "blockHash": "0xaff302725a7c6d5d3487604dad07817cec1369a5a48a8691ba78c7fab9233bfd",
          "blockNumber": "0x11f9103",
          "transactionHash": "0x0b3827fd8b3d6e01b7fd2a5fc46085a8d5e54478fc077a1ff7729f1503354bca",
          "transactionIndex": "0x3",
          "logIndex": "0x2",
          "removed": false
        },
        {
          "address": "0xAaE7eDD12Fb4Df7be43D7F5398AAB3f7BDF3B994",
          "topics": [
            "0xda3c8142b3c1d27633026f55bfcb4eeb0b5b8db0daa0a3e10c2213a441722ad1"
          ],
          "data": "0xd257460800000000000000000000000000000000000000000000000000000000000000000000000000000000c7b85087e7d946491fbffa5de5bed1c800e98be6",
          "blockHash": "0xaff302725a7c6d5d3487604dad07817cec1369a5a48a8691ba78c7fab9233bfd",
          "blockNumber": "0x11f9103",
          "transactionHash": "0x0b3827fd8b3d6e01b7fd2a5fc46085a8d5e54478fc077a1ff7729f1503354bca",
          "transactionIndex": "0x3",
          "logIndex": "0x3",
          "removed": false
        }
      ],
      "logsBloom": "0x00000000000000000000000000000000000000000000000000000000000000080000000000000000000000000000000000000000000000000000000000000000000000000000000000000000000000000000000000000000000000000000000000000000000000000000200000000000000000000000000010000000000000000000000000000000000000000000110000000000000000000000000000000000000000010000000000004000080000000000000000000000000000000000010000000000000000000000000000000000000000000000000000000000000000000000000000000000000000000000000000000000000000000000000000000000",
      "type": "0x2",
      "transactionHash": "0x0b3827fd8b3d6e01b7fd2a5fc46085a8d5e54478fc077a1ff7729f1503354bca",
      "transactionIndex": "0x3",
      "blockHash": "0xaff302725a7c6d5d3487604dad07817cec1369a5a48a8691ba78c7fab9233bfd",
      "blockNumber": "0x11f9103",
      "gasUsed": "0x1118b",
      "effectiveGasPrice": "0x13f51f",
      "from": "0x5AC7577C0B0F8E7f55B9144fBcB64AB4778084d5",
      "to": "0xAaE7eDD12Fb4Df7be43D7F5398AAB3f7BDF3B994",
      "contractAddress": null,
      "l1BaseFeeScalar": "0x44d",
      "l1BlobBaseFee": "0xb2",
      "l1BlobBaseFeeScalar": "0xa118b",
      "l1Fee": "0x412dd39e",
      "l1GasPrice": "0x24ffdee6",
      "l1GasUsed": "0x640"
    },
    {
      "status": "0x1",
      "cumulativeGasUsed": "0x4401c",
      "logs": [
        {
          "address": "0xAaE7eDD12Fb4Df7be43D7F5398AAB3f7BDF3B994",
          "topics": [
            "0xbe533f538959a17d76f1b09e966e741ee3b1183099682f96216c93d21feaecba"
          ],
          "data": "0x0455444300000000000000000000000000000000000000000000000000000000",
          "blockHash": "0xaff302725a7c6d5d3487604dad07817cec1369a5a48a8691ba78c7fab9233bfd",
          "blockNumber": "0x11f9103",
          "transactionHash": "0x7c681ddaf6dbb69d4cd84af85e4d7a3d1099b5dd3540c5ae43600d994300c9c3",
          "transactionIndex": "0x4",
          "logIndex": "0x4",
          "removed": false
        },
        {
          "address": "0xAaE7eDD12Fb4Df7be43D7F5398AAB3f7BDF3B994",
          "topics": [
            "0xda3c8142b3c1d27633026f55bfcb4eeb0b5b8db0daa0a3e10c2213a441722ad1"
          ],
          "data": "0x0455444300000000000000000000000000000000000000000000000000000000000000000000000000000000c7b85087e7d946491fbffa5de5bed1c800e98be6",
          "blockHash": "0xaff302725a7c6d5d3487604dad07817cec1369a5a48a8691ba78c7fab9233bfd",
          "blockNumber": "0x11f9103",
          "transactionHash": "0x7c681ddaf6dbb69d4cd84af85e4d7a3d1099b5dd3540c5ae43600d994300c9c3",
          "transactionIndex": "0x4",
          "logIndex": "0x5",
          "removed": false
        }
      ],
      "logsBloom": "0x00000000000000000000000000000000000000000000000000000000000000080000000000000000000000000000000000000000000000000000000000000000000000000000000000000000000000000000000000000000000000000000000000000000000000000000200000000000000000000000000010000000000000000000000000000000000000000000110000000000000000000000000000000000000000010000000000004000080000000000000000000000000000000000010000000000000000000000000000000000000000000000000000000000000000000000000000000000000000000000000000000000000000000000000000000000",
      "type": "0x2",
      "transactionHash": "0x7c681ddaf6dbb69d4cd84af85e4d7a3d1099b5dd3540c5ae43600d994300c9c3",
      "transactionIndex": "0x4",
      "blockHash": "0xaff302725a7c6d5d3487604dad07817cec1369a5a48a8691ba78c7fab9233bfd",
      "blockNumber": "0x11f9103",
      "gasUsed": "0x113ed",
      "effectiveGasPrice": "0x13f51f",
      "from": "0x5AC7577C0B0F8E7f55B9144fBcB64AB4778084d5",
      "to": "0xAaE7eDD12Fb4Df7be43D7F5398AAB3f7BDF3B994",
      "contractAddress": null,
      "l1BaseFeeScalar": "0x44d",
      "l1BlobBaseFee": "0xb2",
      "l1BlobBaseFeeScalar": "0xa118b",
      "l1Fee": "0x412dd39e",
      "l1GasPrice": "0x24ffdee6",
      "l1GasUsed": "0x640"
    },
    {
      "status": "0x1",
      "cumulativeGasUsed": "0x5566b",
      "logs": [
        {
          "address": "0xAaE7eDD12Fb4Df7be43D7F5398AAB3f7BDF3B994",
          "topics": [
            "0xbe533f538959a17d76f1b09e966e741ee3b1183099682f96216c93d21feaecba"
          ],
          "data": "0x62c7fa7600000000000000000000000000000000000000000000000000000000",
          "blockHash": "0xaff302725a7c6d5d3487604dad07817cec1369a5a48a8691ba78c7fab9233bfd",
          "blockNumber": "0x11f9103",
          "transactionHash": "0x2dfcacdb5b52e238c0a9886f33cd6b2894074b48ca1a1e3daadbe3e3e5bd7543",
          "transactionIndex": "0x5",
          "logIndex": "0x6",
          "removed": false
        },
        {
          "address": "0xAaE7eDD12Fb4Df7be43D7F5398AAB3f7BDF3B994",
          "topics": [
            "0xda3c8142b3c1d27633026f55bfcb4eeb0b5b8db0daa0a3e10c2213a441722ad1"
          ],
          "data": "0x62c7fa7600000000000000000000000000000000000000000000000000000000000000000000000000000000c7b85087e7d946491fbffa5de5bed1c800e98be6",
          "blockHash": "0xaff302725a7c6d5d3487604dad07817cec1369a5a48a8691ba78c7fab9233bfd",
          "blockNumber": "0x11f9103",
          "transactionHash": "0x2dfcacdb5b52e238c0a9886f33cd6b2894074b48ca1a1e3daadbe3e3e5bd7543",
          "transactionIndex": "0x5",
          "logIndex": "0x7",
          "removed": false
        }
      ],
      "logsBloom": "0x00000000000000000000000000000000000000000000000000000000000000080000000000000000000000000000000000000000000000000000000000000000000000000000000000000000000000000000000000000000000000000000000000000000000000000000200000000000000000000000000010000000000000000000000000000000000000000000110000000000000000000000000000000000000000010000000000004000080000000000000000000000000000000000010000000000000000000000000000000000000000000000000000000000000000000000000000000000000000000000000000000000000000000000000000000000",
      "type": "0x2",
      "transactionHash": "0x2dfcacdb5b52e238c0a9886f33cd6b2894074b48ca1a1e3daadbe3e3e5bd7543",
      "transactionIndex": "0x5",
      "blockHash": "0xaff302725a7c6d5d3487604dad07817cec1369a5a48a8691ba78c7fab9233bfd",
      "blockNumber": "0x11f9103",
      "gasUsed": "0x1164f",
      "effectiveGasPrice": "0x13f51f",
      "from": "0x5AC7577C0B0F8E7f55B9144fBcB64AB4778084d5",
      "to": "0xAaE7eDD12Fb4Df7be43D7F5398AAB3f7BDF3B994",
      "contractAddress": null,
      "l1BaseFeeScalar": "0x44d",
      "l1BlobBaseFee": "0xb2",
      "l1BlobBaseFeeScalar": "0xa118b",
      "l1Fee": "0x412dd39e",
      "l1GasPrice": "0x24ffdee6",
      "l1GasUsed": "0x640"
    },
    {
      "status": "0x1",
      "cumulativeGasUsed": "0x66f1c",
      "logs": [
        {
          "address": "0xAaE7eDD12Fb4Df7be43D7F5398AAB3f7BDF3B994",
          "topics": [
            "0xbe533f538959a17d76f1b09e966e741ee3b1183099682f96216c93d21feaecba"
          ],
          "data": "0xaffed0e000000000000000000000000000000000000000000000000000000000",
          "blockHash": "0xaff302725a7c6d5d3487604dad07817cec1369a5a48a8691ba78c7fab9233bfd",
          "blockNumber": "0x11f9103",
          "transactionHash": "0xec94d6b2a4500756fd283956971d8e7b004dbf143b598a94accf90c6617c07e6",
          "transactionIndex": "0x6",
          "logIndex": "0x8",
          "removed": false
        },
        {
          "address": "0xAaE7eDD12Fb4Df7be43D7F5398AAB3f7BDF3B994",
          "topics": [
            "0xda3c8142b3c1d27633026f55bfcb4eeb0b5b8db0daa0a3e10c2213a441722ad1"
          ],
          "data": "0xaffed0e000000000000000000000000000000000000000000000000000000000000000000000000000000000c7b85087e7d946491fbffa5de5bed1c800e98be6",
          "blockHash": "0xaff302725a7c6d5d3487604dad07817cec1369a5a48a8691ba78c7fab9233bfd",
          "blockNumber": "0x11f9103",
          "transactionHash": "0xec94d6b2a4500756fd283956971d8e7b004dbf143b598a94accf90c6617c07e6",
          "transactionIndex": "0x6",
          "logIndex": "0x9",
          "removed": false
        }
      ],
      "logsBloom": "0x00000000000000000000000000000000000000000000000000000000000000080000000000000000000000000000000000000000000000000000000000000000000000000000000000000000000000000000000000000000000000000000000000000000000000000000200000000000000000000000000010000000000000000000000000000000000000000000110000000000000000000000000000000000000000010000000000004000080000000000000000000000000000000000010000000000000000000000000000000000000000000000000000000000000000000000000000000000000000000000000000000000000000000000000000000000",
      "type": "0x2",
      "transactionHash": "0xec94d6b2a4500756fd283956971d8e7b004dbf143b598a94accf90c6617c07e6",
      "transactionIndex": "0x6",
      "blockHash": "0xaff302725a7c6d5d3487604dad07817cec1369a5a48a8691ba78c7fab9233bfd",
      "blockNumber": "0x11f9103",
      "gasUsed": "0x118b1",
      "effectiveGasPrice": "0x13f51f",
      "from": "0x5AC7577C0B0F8E7f55B9144fBcB64AB4778084d5",
      "to": "0xAaE7eDD12Fb4Df7be43D7F5398AAB3f7BDF3B994",
      "contractAddress": null,
      "l1BaseFeeScalar": "0x44d",
      "l1BlobBaseFee": "0xb2",
      "l1BlobBaseFeeScalar": "0xa118b",
      "l1Fee": "0x412dd39e",
      "l1GasPrice": "0x24ffdee6",
      "l1GasUsed": "0x640"
    },
    {
      "status": "0x1",
      "cumulativeGasUsed": "0x78a2f",
      "logs": [
        {
          "address": "0xAaE7eDD12Fb4Df7be43D7F5398AAB3f7BDF3B994",
          "topics": [
            "0xbe533f538959a17d76f1b09e966e741ee3b1183099682f96216c93d21feaecba"
          ],
          "data": "0x96c705e500000000000000000000000000000000000000000000000000000000",
          "blockHash": "0xaff302725a7c6d5d3487604dad07817cec1369a5a48a8691ba78c7fab9233bfd",
          "blockNumber": "0x11f9103",
          "transactionHash": "0x29076624587298bc8249aefb468fb1a9fba171cc889d53b769e42c8917cb6bdb",
          "transactionIndex": "0x7",
          "logIndex": "0xa",
          "removed": false
        },
        {
          "address": "0xAaE7eDD12Fb4Df7be43D7F5398AAB3f7BDF3B994",
          "topics": [
            "0xda3c8142b3c1d27633026f55bfcb4eeb0b5b8db0daa0a3e10c2213a441722ad1"
          ],
          "data": "0x96c705e500000000000000000000000000000000000000000000000000000000000000000000000000000000c7b85087e7d946491fbffa5de5bed1c800e98be6",
          "blockHash": "0xaff302725a7c6d5d3487604dad07817cec1369a5a48a8691ba78c7fab9233bfd",
          "blockNumber": "0x11f9103",
          "transactionHash": "0x29076624587298bc8249aefb468fb1a9fba171cc889d53b769e42c8917cb6bdb",
          "transactionIndex": "0x7",
          "logIndex": "0xb",
          "removed": false
        }
      ],
      "logsBloom": "0x00000000000000000000000000000000000000000000000000000000000000080000000000000000000000000000000000000000000000000000000000000000000000000000000000000000000000000000000000000000000000000000000000000000000000000000200000000000000000000000000010000000000000000000000000000000000000000000110000000000000000000000000000000000000000010000000000004000080000000000000000000000000000000000010000000000000000000000000000000000000000000000000000000000000000000000000000000000000000000000000000000000000000000000000000000000",
      "type": "0x2",
      "transactionHash": "0x29076624587298bc8249aefb468fb1a9fba171cc889d53b769e42c8917cb6bdb",
      "transactionIndex": "0x7",
      "blockHash": "0xaff302725a7c6d5d3487604dad07817cec1369a5a48a8691ba78c7fab9233bfd",
      "blockNumber": "0x11f9103",
      "gasUsed": "0x11b13",
      "effectiveGasPrice": "0x13f51f",
      "from": "0x5AC7577C0B0F8E7f55B9144fBcB64AB4778084d5",
      "to": "0xAaE7eDD12Fb4Df7be43D7F5398AAB3f7BDF3B994",
      "contractAddress": null,
      "l1BaseFeeScalar": "0x44d",
      "l1BlobBaseFee": "0xb2",
      "l1BlobBaseFeeScalar": "0xa118b",
      "l1Fee": "0x412dd39e",
      "l1GasPrice": "0x24ffdee6",
      "l1GasUsed": "0x640"
    },
    {
      "status": "0x1",
      "cumulativeGasUsed": "0x8a7a4",
      "logs": [
        {
          "address": "0xAaE7eDD12Fb4Df7be43D7F5398AAB3f7BDF3B994",
          "topics": [
            "0xbe533f538959a17d76f1b09e966e741ee3b1183099682f96216c93d21feaecba"
          ],
          "data": "0xc30a0f2500000000000000000000000000000000000000000000000000000000",
          "blockHash": "0xaff302725a7c6d5d3487604dad07817cec1369a5a48a8691ba78c7fab9233bfd",
          "blockNumber": "0x11f9103",
          "transactionHash": "0x316d3d7e188f486190a42ea5a362053c893c2503536487ed2ca364753fe6f783",
          "transactionIndex": "0x8",
          "logIndex": "0xc",
          "removed": false
        },
        {
          "address": "0xAaE7eDD12Fb4Df7be43D7F5398AAB3f7BDF3B994",
          "topics": [
            "0xda3c8142b3c1d27633026f55bfcb4eeb0b5b8db0daa0a3e10c2213a441722ad1"
          ],
          "data": "0xc30a0f2500000000000000000000000000000000000000000000000000000000000000000000000000000000c7b85087e7d946491fbffa5de5bed1c800e98be6",
          "blockHash": "0xaff302725a7c6d5d3487604dad07817cec1369a5a48a8691ba78c7fab9233bfd",
          "blockNumber": "0x11f9103",
          "transactionHash": "0x316d3d7e188f486190a42ea5a362053c893c2503536487ed2ca364753fe6f783",
          "transactionIndex": "0x8",
          "logIndex": "0xd",
          "removed": false
        }
      ],
      "logsBloom": "0x00000000000000000000000000000000000000000000000000000000000000080000000000000000000000000000000000000000000000000000000000000000000000000000000000000000000000000000000000000000000000000000000000000000000000000000200000000000000000000000000010000000000000000000000000000000000000000000110000000000000000000000000000000000000000010000000000004000080000000000000000000000000000000000010000000000000000000000000000000000000000000000000000000000000000000000000000000000000000000000000000000000000000000000000000000000",
      "type": "0x2",
      "transactionHash": "0x316d3d7e188f486190a42ea5a362053c893c2503536487ed2ca364753fe6f783",
      "transactionIndex": "0x8",
      "blockHash": "0xaff302725a7c6d5d3487604dad07817cec1369a5a48a8691ba78c7fab9233bfd",
      "blockNumber": "0x11f9103",
      "gasUsed": "0x11d75",
      "effectiveGasPrice": "0x13f51f",
      "from": "0x5AC7577C0B0F8E7f55B9144fBcB64AB4778084d5",
      "to": "0xAaE7eDD12Fb4Df7be43D7F5398AAB3f7BDF3B994",
      "contractAddress": null,
      "l1BaseFeeScalar": "0x44d",
      "l1BlobBaseFee": "0xb2",
      "l1BlobBaseFeeScalar": "0xa118b",
      "l1Fee": "0x412dd39e",
      "l1GasPrice": "0x24ffdee6",
      "l1GasUsed": "0x640"
    },
    {
      "status": "0x1",
      "cumulativeGasUsed": "0x96015",
      "logs": [
        {
          "address": "0xAaE7eDD12Fb4Df7be43D7F5398AAB3f7BDF3B994",
          "topics": [
            "0x159f10d3da077d18f228d52be447d552e7d1892d10f7af8f615658160e374729"
          ],
          "data": "0x000000000000000000000000335c0c398b15110d5b8ee03ce6b05b75b65b042a",
          "blockHash": "0xaff302725a7c6d5d3487604dad07817cec1369a5a48a8691ba78c7fab9233bfd",
          "blockNumber": "0x11f9103",
          "transactionHash": "0x53ac51ebfa58e3be7044b4484736dea594f712885eff8256145d4b562f2aae50",
          "transactionIndex": "0x9",
          "logIndex": "0xe",
          "removed": false
        }
      ],
      "logsBloom": "0x00000000000000080000000000000000000000000000000000000000000000000000000000000000000000000200000000000000000000000000000000000000000000000000000000000000000000000000000000000000000000000000000000000000000000000000000000000000000000000000000000000000000000000000000000000000000000000000010000000000000000000000000000000000000000010000000000000000000000000000000000000000000000000000010000000000000000000000000000000000000000000000000000000000000000000000000000000000000000000010000000000000000000000000000000000000",
      "type": "0x2",
      "transactionHash": "0x53ac51ebfa58e3be7044b4484736dea594f712885eff8256145d4b562f2aae50",
      "transactionIndex": "0x9",
      "blockHash": "0xaff302725a7c6d5d3487604dad07817cec1369a5a48a8691ba78c7fab9233bfd",
      "blockNumber": "0x11f9103",
      "gasUsed": "0xb871",
      "effectiveGasPrice": "0x13f51f",
      "from": "0x5AC7577C0B0F8E7f55B9144fBcB64AB4778084d5",
      "to": "0xAaE7eDD12Fb4Df7be43D7F5398AAB3f7BDF3B994",
      "contractAddress": null,
      "l1BaseFeeScalar": "0x44d",
      "l1BlobBaseFee": "0xb2",
      "l1BlobBaseFeeScalar": "0xa118b",
      "l1Fee": "0x412dd39e",
      "l1GasPrice": "0x24ffdee6",
      "l1GasUsed": "0x640"
    }
  ],
  "libraries": [],
  "pending": [],
  "returns": {},
  "timestamp": 1733460338,
  "chain": 84532,
  "commit": "bfc5215"
}