{
  "transactions": [
    {
      "hash": "0x9ca0a5a708eb796be9ce458412f130761f62bd8a69c3b0e2fa919d071bd0f166",
      "transactionType": "CREATE",
      "contractName": "Initialize",
      "contractAddress": "0xC94553c249D029cfb687E522De2D48f191B4e882",
      "function": null,
      "arguments": null,
      "transaction": {
        "from": "0x5AC7577C0B0F8E7f55B9144fBcB64AB4778084d5",
        "gas": "0x2c397",
        "value": "0x0",
        "input": "0x6080604052348015600f57600080fd5b5061018e8061001f6000396000f3fe608060405234801561001057600080fd5b506004361061002b5760003560e01c8063019e272914610030575b600080fd5b6100f461003e366004610112565b7f3b60124079255925a9b0c57f1ed870358d719ce06c4ae9645b74322357c0b403939093557f3b60124079255925a9b0c57f1ed870358d719ce06c4ae9645b74322357c0b405919091557f3b60124079255925a9b0c57f1ed870358d719ce06c4ae9645b74322357c0b40180546001600160a01b039283166001600160a01b0319918216179091557f3b60124079255925a9b0c57f1ed870358d719ce06c4ae9645b74322357c0b4028054929093169116179055565b005b80356001600160a01b038116811461010d57600080fd5b919050565b6000806000806080858703121561012857600080fd5b843593506020850135925061013f604086016100f6565b915061014d606086016100f6565b90509295919450925056fea2646970667358221220cbd59b59430d95614441af48524b3c759bd23d9f81bdacdd7b25050a24a347df64736f6c634300081a0033",
        "nonce": "0xed",
        "chainId": "0x14a34"
      },
      "additionalContracts": [],
      "isFixedGasLimit": false
    },
    {
      "hash": "0x859780bbd7ff89209429ba1645ca9961ff597ccaeee714f35230d2496d29beab",
      "transactionType": "CREATE",
      "contractName": "AddApprovedTokens",
      "contractAddress": "0x8CCE9214723B04Da13a09A5aD4299EFB9bBd05A6",
      "function": null,
      "arguments": null,
      "transaction": {
        "from": "0x5AC7577C0B0F8E7f55B9144fBcB64AB4778084d5",
        "gas": "0x307d7",
        "value": "0x0",
        "input": "0x6080604052348015600f57600080fd5b506101cd8061001f6000396000f3fe608060405234801561001057600080fd5b506004361061002b5760003560e01c8063ffa1a33a14610030575b600080fd5b61004361003e3660046100da565b610045565b005b7f3b60124079255925a9b0c57f1ed870358d719ce06c4ae9645b74322357c0b40160005b828110156100d4578160070184848381811061008757610087610151565b905060200201602081019061009c9190610167565b815460018082018455600093845260209093200180546001600160a01b0319166001600160a01b039290921691909117905501610069565b50505050565b600080602083850312156100ed57600080fd5b823567ffffffffffffffff81111561010457600080fd5b8301601f8101851361011557600080fd5b803567ffffffffffffffff81111561012c57600080fd5b8560208260051b840101111561014157600080fd5b6020919091019590945092505050565b634e487b7160e01b600052603260045260246000fd5b60006020828403121561017957600080fd5b81356001600160a01b038116811461019057600080fd5b939250505056fea2646970667358221220fcdf3e6ae42442451444da21518da134a46a0106f42c226ebc0ac5e3bf73df8e64736f6c634300081a0033",
        "nonce": "0xee",
        "chainId": "0x14a34"
      },
      "additionalContracts": [],
      "isFixedGasLimit": false
    },
    {
      "hash": "0xd42e84e37253db1f11ef9b488b127a954327dd963ff6372f2f81747ac485f58a",
      "transactionType": "CREATE",
      "contractName": "CancelInheritance",
      "contractAddress": "0x3CC8F4357FA7044960D4A5530329C982Ab0727ce",
      "function": null,
      "arguments": null,
      "transaction": {
        "from": "0x5AC7577C0B0F8E7f55B9144fBcB64AB4778084d5",
        "gas": "0x57d75",
        "value": "0x0",
        "input": "0x6080604052348015600f57600080fd5b5061040b8061001f6000396000f3fe608060405234801561001057600080fd5b506004361061002b5760003560e01c8063aa14cc6b14610030575b600080fd5b61003861003a565b005b7f3b60124079255925a9b0c57f1ed870358d719ce06c4ae9645b74322357c0b40180546001600160a01b031633146100c75760405162461bcd60e51b815260206004820152602560248201527f4f6e6c7920746865206f776e65722063616e2063616e63656c20696e6865726960448201526474616e636560d81b60648201526084015b60405180910390fd5b600781015461010d5760405162461bcd60e51b81526020600482015260126024820152714e6f20617070726f76656420746f6b656e7360701b60448201526064016100be565b6003810154610100900460ff16156101675760405162461bcd60e51b815260206004820152601a60248201527f436f6e747261637420697320616c7265616479206b696c6c656400000000000060448201526064016100be565b60005b60078201548110156102d057600082600701828154811061018d5761018d61032e565b60009182526020822001546040516370a0823160e01b81523060048201526001600160a01b03909116925082906370a0823190602401602060405180830381865afa1580156101e0573d6000803e3d6000fd5b505050506040513d601f19601f820116820180604052508101906102049190610344565b905080156102c657835460405163a9059cbb60e01b81526001600160a01b039182166004820152602481018390529083169063a9059cbb906044016020604051808303816000875af115801561025e573d6000803e3d6000fd5b505050506040513d601f19601f82011682018060405250810190610282919061035d565b6102c65760405162461bcd60e51b8152602060048201526015602482015274151bdad95b881d1c985b9cd9995c8819985a5b1959605a1b60448201526064016100be565b505060010161016a565b5060038101805461ff00191661010017905580546040516001600160a01b03909116907fab0a913ab4dd78ca2bbd7ceca1e2d18600fba897fc0c92bfc1c94e80c0190d0490610323906007850190610386565b60405180910390a250565b634e487b7160e01b600052603260045260246000fd5b60006020828403121561035657600080fd5b5051919050565b60006020828403121561036f57600080fd5b8151801515811461037f57600080fd5b9392505050565b602080825282548282018190526000848152918220906040840190835b818110156103ca5783546001600160a01b03168352600193840193602090930192016103a3565b50909594505050505056fea2646970667358221220edd4f5902fc0ae8ce565b1270f8f927f83bb2e4bd6fd12518f8c5cde33a216ad64736f6c634300081a0033",
        "nonce": "0xef",
        "chainId": "0x14a34"
      },
      "additionalContracts": [],
      "isFixedGasLimit": false
    },
    {
      "hash": "0xa4099a3baf7076d68e0a20cc24578948cd7d62a2eea2b7d50e4e8f8f9457e453",
      "transactionType": "CREATE",
      "contractName": "WithdrawTokens",
      "contractAddress": "0xA6917BD88a3a8427de30dE145803381B54C0d95f",
      "function": null,
      "arguments": null,
      "transaction": {
        "from": "0x5AC7577C0B0F8E7f55B9144fBcB64AB4778084d5",
        "gas": "0xdbc48",
        "value": "0x0",
        "input": "0x6080604052348015600f57600080fd5b50610b918061001f6000396000f3fe608060405234801561001057600080fd5b506004361061002b5760003560e01c8063985e127c14610030575b600080fd5b61004361003e3660046106c4565b610045565b005b8382146100a45760405162461bcd60e51b815260206004820152602260248201527f546f6b656e7320616e6420616d6f756e7473206c656e677468206d69736d61746044820152610c6d60f31b60648201526084015b60405180910390fd5b7f3b60124079255925a9b0c57f1ed870358d719ce06c4ae9645b74322357c0b40160006100de6100d936859003850185610874565b610632565b600383015490915060ff1680156100ff57506003820154610100900460ff16155b6101605760405162461bcd60e51b815260206004820152602c60248201527f436f6e7472616374206973206e6f7420696e206c6f636b65642073746174652060448201526b1bdc881a5cc81ada5b1b195960a21b606482015260840161009b565b816004015482600501546101749190610927565b4210156101c35760405162461bcd60e51b815260206004820152601960248201527f4c6f636b20706572696f6420686173206e6f7420656e64656400000000000000604482015260640161009b565b600081815260088301602052604090205460ff16156102195760405162461bcd60e51b8152602060048201526012602482015271141c9bdbd988185b1c9958591e481d5cd95960721b604482015260640161009b565b6002820154610100840135146102715760405162461bcd60e51b815260206004820152601c60248201527f496e76616c69642070726f6f663a2068617368206d69736d6174636800000000604482015260640161009b565b60005b8681101561035e576000805b60078501548110156102fc578460070181815481106102a1576102a161094e565b6000918252602090912001546001600160a01b03168a8a858181106102c8576102c861094e565b90506020020160208101906102dd9190610980565b6001600160a01b0316036102f457600191506102fc565b600101610280565b50806103555760405162461bcd60e51b815260206004820152602260248201527f546f6b656e207468617420646964206e6f74206c6f636b2077617320666f756e604482015261321760f11b606482015260840161009b565b50600101610274565b506001820154604080516343753b4d60e01b81526001600160a01b03909216916343753b4d916103a091879182019060c08301906101008401906004016109a2565b602060405180830381865afa1580156103bd573d6000803e3d6000fd5b505050506040513d601f19601f820116820180604052508101906103e191906109f2565b6104205760405162461bcd60e51b815260206004820152601060248201526f24b73b30b634b2102d2590383937b7b360811b604482015260640161009b565b60008181526008830160205260408120805460ff191660011790555b868110156105e15760008888838181106104585761045861094e565b905060200201602081019061046d9190610980565b6040516370a0823160e01b81523060048201529091506000906001600160a01b038316906370a0823190602401602060405180830381865afa1580156104b7573d6000803e3d6000fd5b505050506040513d601f19601f820116820180604052508101906104db9190610a14565b90506000818989868181106104f2576104f261094e565b905060200201351161051c578888858181106105105761051061094e565b9050602002013561051e565b815b60405163a9059cbb60e01b8152336004820152602481018290529091506001600160a01b0384169063a9059cbb906044016020604051808303816000875af115801561056e573d6000803e3d6000fd5b505050506040513d601f19601f8201168201806040525081019061059291906109f2565b6105d65760405162461bcd60e51b8152602060048201526015602482015274151bdad95b881d1c985b9cd9995c8819985a5b1959605a1b604482015260640161009b565b50505060010161043c565b50336001600160a01b03167fac36971df326c5d24b63183927b8fe4cf71b792277ff128d73f0729a653323e3888888886040516106219493929190610a2d565b60405180910390a250505050505050565b6000816000015182602001518360400151846060015160405160200161065b9493929190610ad2565b604051602081830303815290604052805190602001209050919050565b60008083601f84011261068a57600080fd5b50813567ffffffffffffffff8111156106a257600080fd5b6020830191508360208260051b85010111156106bd57600080fd5b9250929050565b60008060008060008587036101608112156106de57600080fd5b863567ffffffffffffffff8111156106f557600080fd5b61070189828a01610678565b909750955050602087013567ffffffffffffffff81111561072157600080fd5b61072d89828a01610678565b909550935050610120603f198201121561074657600080fd5b506040860190509295509295909350565b634e487b7160e01b600052604160045260246000fd5b6040516080810167ffffffffffffffff8111828210171561079057610790610757565b60405290565b604051601f8201601f1916810167ffffffffffffffff811182821017156107bf576107bf610757565b604052919050565b600082601f8301126107d857600080fd5b60006107e46040610796565b90508060408401858111156107f857600080fd5b845b818110156108125780358352602092830192016107fa565b509195945050505050565b600082601f83011261082e57600080fd5b6000602061083b81610796565b915081602085018681111561084f57600080fd5b855b818110156108685780358352918301918301610851565b50929695505050505050565b600061012082840312801561088857600080fd5b50600061089361076d565b61089d85856107c7565b815284605f8501126108ad578182fd5b60406108b881610796565b8060c08701888111156108c9578586fd5b6040880195505b808610156108f3576108e289876107c7565b8352948301946020909201916108d0565b81602086015261090389826107c7565b60408601525050505061091a85610100860161081d565b6060820152949350505050565b8082018082111561094857634e487b7160e01b600052601160045260246000fd5b92915050565b634e487b7160e01b600052603260045260246000fd5b80356001600160a01b038116811461097b57600080fd5b919050565b60006020828403121561099257600080fd5b61099b82610964565b9392505050565b61012081016040868337604082018560005b60028110156109d557604082843760409283019291909101906001016109b4565b50505060408460c084013760208361010084013795945050505050565b600060208284031215610a0457600080fd5b8151801515811461099b57600080fd5b600060208284031215610a2657600080fd5b5051919050565b6040808252810184905260008560608301825b87811015610a6e576001600160a01b03610a5984610964565b16825260209283019290910190600101610a40565b5083810360208501528481526001600160fb1b03851115610a8e57600080fd5b8460051b915081866020830137016020019695505050505050565b8060005b6002811015610acc578151845260209384019390910190600101610aad565b50505050565b610adc8186610aa9565b6000604082018560005b6002811015610b1057610afa838351610aa9565b6040929092019160209190910190600101610ae6565b505050610b2060c0830185610aa9565b61010082018360005b6001811015610b48578151835260209283019290910190600101610b29565b505050610120820190509594505050505056fea2646970667358221220a3f5066939b38d93f3bb8279b89d21a3119f0245664bcb52263d1f79737a8d3464736f6c634300081a0033",
        "nonce": "0xf0",
        "chainId": "0x14a34"
      },
      "additionalContracts": [],
      "isFixedGasLimit": false
    },
    {
      "hash": "0x952a8b4a0e68f36b46280d04b0765295afd71b9576c87973e9965eeb95b3e977",
      "transactionType": "CREATE",
      "contractName": "InitiateInheritance",
      "contractAddress": "0xDe3B5A733C44cf5fDC4513e1711362cf1e9c2E6e",
      "function": null,
      "arguments": null,
      "transaction": {
        "from": "0x5AC7577C0B0F8E7f55B9144fBcB64AB4778084d5",
        "gas": "0xc590f",
        "value": "0x0",
        "input": "0x6080604052348015600f57600080fd5b50610a4d8061001f6000396000f3fe608060405234801561001057600080fd5b506004361061002b5760003560e01c8063e6424a5e14610030575b600080fd5b61004361003e366004610662565b610045565b005b7f3b60124079255925a9b0c57f1ed870358d719ce06c4ae9645b74322357c0b401600061007f61007a3685900385018561079b565b610602565b600383015490915060ff16156100ea5760405162461bcd60e51b815260206004820152602560248201527f496e6865726974616e63652070726f6365737320616c726561647920696e69746044820152641a585d195960da1b60648201526084015b60405180910390fd5b6003820154610100900460ff16156101445760405162461bcd60e51b815260206004820152601e60248201527f496e6865726974616e636520636f6e7472616374206973206b696c6c6564000060448201526064016100e1565b600081815260088301602052604090205460ff161561019a5760405162461bcd60e51b8152602060048201526012602482015271141c9bdbd988185b1c9958591e481d5cd95960721b60448201526064016100e1565b6002820154610100840135146101f25760405162461bcd60e51b815260206004820152601c60248201527f496e76616c69642070726f6f663a2068617368206d69736d617463680000000060448201526064016100e1565b6001820154604080516343753b4d60e01b81526001600160a01b03909216916343753b4d9161023391879182019060c0830190610100840190600401610864565b602060405180830381865afa158015610250573d6000803e3d6000fd5b505050506040513d601f19601f8201168201806040525081019061027491906108b4565b6102b35760405162461bcd60e51b815260206004820152601060248201526f24b73b30b634b2102d2590383937b7b360811b60448201526064016100e1565b60008181526008830160205260408120805460ff191660011790555b60078301548110156105985760008360070182815481106102f2576102f261084e565b60009182526020822001548554604051636eb1769f60e11b81526001600160a01b03918216600482015230602482015291169250829063dd62ed3e90604401602060405180830381865afa15801561034e573d6000803e3d6000fd5b505050506040513d601f19601f8201168201806040525081019061037291906108dd565b9050806000036104415760078501805461038e9060019061090c565b8154811061039e5761039e61084e565b6000918252602090912001546007860180546001600160a01b0390921691859081106103cc576103cc61084e565b9060005260206000200160006101000a8154816001600160a01b0302191690836001600160a01b031602179055508460070180548061040d5761040d61091f565b600082815260209020810160001990810180546001600160a01b03191690550190558261043981610935565b935050610583565b84546040516370a0823160e01b81526001600160a01b0391821660048201526000918416906370a0823190602401602060405180830381865afa15801561048c573d6000803e3d6000fd5b505050506040513d601f19601f820116820180604052508101906104b091906108dd565b905060006104be8383610648565b87546040516323b872dd60e01b81526001600160a01b039182166004820152306024820152604481018390529192508516906323b872dd906064016020604051808303816000875af1158015610518573d6000803e3d6000fd5b505050506040513d601f19601f8201168201806040525081019061053c91906108b4565b6105805760405162461bcd60e51b8152602060048201526015602482015274151bdad95b881d1c985b9cd9995c8819985a5b1959605a1b60448201526064016100e1565b50505b505080806105909061094c565b9150506102cf565b50426005830181905560038301805460ff1916600117905582546040516001600160a01b03909116917f7a0f49890d59fc33e7e656a749b3fe9fd171e07359ee7104abb21f18243539d9916105f591858252602082015260400190565b60405180910390a2505050565b6000816000015182602001518360400151846060015160405160200161062b949392919061098e565b604051602081830303815290604052805190602001209050919050565b60008183106106575781610659565b825b90505b92915050565b600061012082840312801561067657600080fd5b509092915050565b634e487b7160e01b600052604160045260246000fd5b6040516080810167ffffffffffffffff811182821017156106b7576106b761067e565b60405290565b604051601f8201601f1916810167ffffffffffffffff811182821017156106e6576106e661067e565b604052919050565b600082601f8301126106ff57600080fd5b600061070b60406106bd565b905080604084018581111561071f57600080fd5b845b81811015610739578035835260209283019201610721565b509195945050505050565b600082601f83011261075557600080fd5b60006020610762816106bd565b915081602085018681111561077657600080fd5b855b8181101561078f5780358352918301918301610778565b50929695505050505050565b60006101208284031280156107af57600080fd5b5060006107ba610694565b6107c485856106ee565b815284605f8501126107d4578182fd5b60406107df816106bd565b8060c08701888111156107f0578586fd5b6040880195505b8086101561081a5761080989876106ee565b8352948301946020909201916107f7565b81602086015261082a89826106ee565b604086015250505050610841856101008601610744565b6060820152949350505050565b634e487b7160e01b600052603260045260246000fd5b61012081016040868337604082018560005b60028110156108975760408284376040928301929190910190600101610876565b50505060408460c084013760208361010084013795945050505050565b6000602082840312156108c657600080fd5b815180151581146108d657600080fd5b9392505050565b6000602082840312156108ef57600080fd5b5051919050565b634e487b7160e01b600052601160045260246000fd5b8181038181111561065c5761065c6108f6565b634e487b7160e01b600052603160045260246000fd5b600081610944576109446108f6565b506000190190565b60006001820161095e5761095e6108f6565b5060010190565b8060005b6002811015610988578151845260209384019390910190600101610969565b50505050565b6109988186610965565b6000604082018560005b60028110156109cc576109b6838351610965565b60409290920191602091909101906001016109a2565b5050506109dc60c0830185610965565b61010082018360005b6001811015610a045781518352602092830192909101906001016109e5565b505050610120820190509594505050505056fea264697066735822122043ce75d45135c6260ce1619119a1d4ee647c9ebc760918b7ee384fbc82aa249064736f6c634300081a0033",
        "nonce": "0xf1",
        "chainId": "0x14a34"
      },
      "additionalContracts": [],
      "isFixedGasLimit": false
    },
    {
      "hash": "0x5392b5b47bb8082922c692a41378a31679892eac302bc33239b7c98e5210c92c",
      "transactionType": "CREATE",
      "contractName": "InheritanceStateViewer",
      "contractAddress": "0x7483362085fb67e51Edc343C8045020e3375d278",
      "function": null,
      "arguments": null,
      "transaction": {
        "from": "0x5AC7577C0B0F8E7f55B9144fBcB64AB4778084d5",
        "gas": "0x4b9e7",
        "value": "0x0",
        "input": "0x6080604052348015600f57600080fd5b506103588061001f6000396000f3fe608060405234801561001057600080fd5b50600436106100935760003560e01c80638fe8a101116100665780638fe8a1011461015657806396c705e514610191578063a4e2d634146101a6578063affed0e0146101d0578063c30a0f25146101f757600080fd5b8063045544431461009857806309bd5a60146100ce57806362c7fa76146100f55780638da5cb5b1461011c575b600080fd5b7f3b60124079255925a9b0c57f1ed870358d719ce06c4ae9645b74322357c0b405545b6040519081526020015b60405180910390f35b7f3b60124079255925a9b0c57f1ed870358d719ce06c4ae9645b74322357c0b403546100bb565b7f3b60124079255925a9b0c57f1ed870358d719ce06c4ae9645b74322357c0b406546100bb565b7f3b60124079255925a9b0c57f1ed870358d719ce06c4ae9645b74322357c0b401546040516001600160a01b0390911681526020016100c5565b7f3b60124079255925a9b0c57f1ed870358d719ce06c4ae9645b74322357c0b40454610100900460ff165b60405190151581526020016100c5565b610199610239565b6040516100c591906102bd565b7f3b60124079255925a9b0c57f1ed870358d719ce06c4ae9645b74322357c0b4045460ff16610181565b7f3b60124079255925a9b0c57f1ed870358d719ce06c4ae9645b74322357c0b407546100bb565b610181610205366004610309565b60009081527f3b60124079255925a9b0c57f1ed870358d719ce06c4ae9645b74322357c0b409602052604090205460ff1690565b60607f3b60124079255925a9b0c57f1ed870358d719ce06c4ae9645b74322357c0b4016007018054806020026020016040519081016040528092919081815260200182805480156102b357602002820191906000526020600020905b81546001600160a01b03168152600190910190602001808311610295575b5050505050905090565b602080825282518282018190526000918401906040840190835b818110156102fe5783516001600160a01b03168352602093840193909201916001016102d7565b509095945050505050565b60006020828403121561031b57600080fd5b503591905056fea264697066735822122024435cd05e6b5d0d889f9aeae667c061f53a55a0429aa43d9446df872f6faf1c64736f6c634300081a0033",
        "nonce": "0xf2",
        "chainId": "0x14a34"
      },
      "additionalContracts": [],
      "isFixedGasLimit": false
    },
    {
      "hash": "0xa15a7fc639613c0acb43adb4d027f4c6902623504f522e8d19a6573655850efe",
      "transactionType": "CREATE",
      "contractName": "InheritanceFacade",
      "contractAddress": "0x8693d7164347bE2915F04C67D0C845E084B1eA04",
      "function": null,
      "arguments": null,
      "transaction": {
        "from": "0x5AC7577C0B0F8E7f55B9144fBcB64AB4778084d5",
        "gas": "0x53369",
        "value": "0x0",
        "input": "0x6080604052348015600f57600080fd5b506103c88061001f6000396000f3fe608060405234801561001057600080fd5b50600436106100ea5760003560e01c8063a4e2d6341161008c578063affed0e011610066578063affed0e0146100ef578063c30a0f251461015e578063e6424a5e14610172578063ffa1a33a1461018357600080fd5b8063a4e2d63414610112578063a6ab36f21461014b578063aa14cc6b1461014957600080fd5b80638da5cb5b116100c85780638da5cb5b146101035780638fe8a1011461011257806396c705e514610125578063985e127c1461013457600080fd5b806304554443146100ef57806309bd5a60146100ef57806362c7fa76146100ef575b600080fd5b604051600081526020015b60405180910390f35b604051600081526020016100fa565b60005b60405190151581526020016100fa565b60606040516100fa9190610195565b610149610142366004610246565b5050505050565b005b6101496101593660046102ce565b505050565b61011561016c366004610313565b50600090565b61014961018036600461032c565b50565b610149610191366004610350565b5050565b602080825282518282018190526000918401906040840190835b818110156101d65783516001600160a01b03168352602093840193909201916001016101af565b509095945050505050565b60008083601f8401126101f357600080fd5b50813567ffffffffffffffff81111561020b57600080fd5b6020830191508360208260051b850101111561022657600080fd5b9250929050565b6000610120828403121561024057600080fd5b50919050565b6000806000806000610160868803121561025f57600080fd5b853567ffffffffffffffff81111561027657600080fd5b610282888289016101e1565b909650945050602086013567ffffffffffffffff8111156102a257600080fd5b6102ae888289016101e1565b90945092506102c29050876040880161022d565b90509295509295909350565b6000806000606084860312156102e357600080fd5b833592506020840135915060408401356001600160a01b038116811461030857600080fd5b809150509250925092565b60006020828403121561032557600080fd5b5035919050565b6000610120828403121561033f57600080fd5b610349838361022d565b9392505050565b6000806020838503121561036357600080fd5b823567ffffffffffffffff81111561037a57600080fd5b610386858286016101e1565b9096909550935050505056fea264697066735822122051e1d72468afce80449ea7ef9b6bc97fc53d3a21dbc31140b34cd0054435f12a64736f6c634300081a0033",
        "nonce": "0xf3",
        "chainId": "0x14a34"
      },
      "additionalContracts": [],
      "isFixedGasLimit": false
    },
    {
      "hash": "0xab51ea8a363b1a9d9f80ee97f854288f20f82ea47f91dd322ffb2d88a4864986",
      "transactionType": "CREATE",
      "contractName": "Dictionary_0",
      "contractAddress": "0xbDbB051b19A543A390fc1A6c0c22c32C6b234DA6",
      "function": null,
      "arguments": [
        "0x5AC7577C0B0F8E7f55B9144fBcB64AB4778084d5"
      ],
      "transaction": {
        "from": "0x5AC7577C0B0F8E7f55B9144fBcB64AB4778084d5",
        "gas": "0xa7856",
        "value": "0x0",
        "input": "0x608060405234801561001057600080fd5b5060405161091438038061091483398101604081905261002f916100c0565b806001600160a01b03811661005e57604051631e4fbdf760e01b81526000600482015260240160405180910390fd5b6100678161006e565b50506100f0565b600380546001600160a01b038381166001600160a01b0319831681179093556040519116919082907f8be0079c531659141344cd1fd0a4f28419497f9722a3daafe3b4186f6b6457e090600090a35050565b6000602082840312156100d257600080fd5b81516001600160a01b03811681146100e957600080fd5b9392505050565b610815806100ff6000396000f3fe608060405234801561001057600080fd5b50600436106100935760003560e01c8063715018a611610066578063715018a61461012f5780638da5cb5b14610137578063a5954dd714610148578063dc9cc6451461015d578063f2fde38b1461017057600080fd5b806301ffc9a7146100985780630815f6fd146100e25780635c60da1b146100f7578063651dc03d1461011c575b600080fd5b6100cd6100a63660046106f5565b6001600160e01b0319166000908152602081905260409020546001600160a01b0316151590565b60405190151581526020015b60405180910390f35b6100f56100f036600461072e565b610183565b005b6002546001600160a01b03165b6040516001600160a01b0390911681526020016100d9565b6100f561012a366004610761565b610199565b6100f56101ad565b6003546001600160a01b0316610104565b6101506101c1565b6040516100d9919061077c565b61010461016b3660046106f5565b610246565b6100f561017e366004610761565b6102df565b61018b61031a565b6101958282610347565b5050565b6101a161031a565b6101aa81610371565b50565b6101b561031a565b6101bf60006103c6565b565b6060600180548060200260200160405190810160405280929190818152602001828054801561023c57602002820191906000526020600020906000905b82829054906101000a900460e01b6001600160e01b031916815260200190600401906020826003010492830192600103820291508084116101fe5790505b5050505050905090565b6001600160e01b031981166000908152602081905260408120546001600160a01b031680156102755792915050565b5060008080526020527fad3228b676f7d3cd4284a5443f17f1962b36e491b30a40b2405849e597ba5fb5546001600160a01b031680156102b55792915050565b60405163404ceef760e11b81526001600160e01b0319841660048201526024015b60405180910390fd5b6102e761031a565b6001600160a01b03811661031157604051631e4fbdf760e01b8152600060048201526024016102d6565b6101aa816103c6565b6003546001600160a01b031633146101bf5760405163118cdaa760e01b81523360048201526024016102d6565b6001600160a01b03811661035e5761019582610418565b61036782610514565b61019582826105bb565b600280546001600160a01b0319166001600160a01b0383169081179091556040519081527f159f10d3da077d18f228d52be447d552e7d1892d10f7af8f615658160e374729906020015b60405180910390a150565b600380546001600160a01b038381166001600160a01b0319831681179093556040519116919082907f8be0079c531659141344cd1fd0a4f28419497f9722a3daafe3b4186f6b6457e090600090a35050565b60005b6001548110156104bd57816001600160e01b03191660018281548110610443576104436107c9565b90600052602060002090600891828204019190066004029054906101000a900460e01b6001600160e01b031916036104b55760018181548110610488576104886107c9565b90600052602060002090600891828204019190066004026101000a81549063ffffffff02191690556104bd565b60010161041b565b506001600160e01b031981166000818152602081815260409182902080546001600160a01b031916905590519182527fb0f2f3a9229724df0b95683e95488b72aed817bc1a5bd6fe1d2e7504e92871cb91016103bb565b61051d81610660565b156105255750565b6001805480820182556000919091527fb10e2d527612073b26eecdfd717e6a320cf44b4afac2b0732d9fcbe2b7fa0cf66008820401805463ffffffff60079093166004026101000a928302191660e084901c929092029190911790556040516001600160e01b0319821681527fbe533f538959a17d76f1b09e966e741ee3b1183099682f96216c93d21feaecba906020016103bb565b806001600160a01b03163b6000036105f157604051630c76093760e01b81526001600160a01b03821660048201526024016102d6565b6001600160e01b031982166000818152602081815260409182902080546001600160a01b0319166001600160a01b0386169081179091558251938452908301527fda3c8142b3c1d27633026f55bfcb4eeb0b5b8db0daa0a3e10c2213a441722ad1910160405180910390a15050565b6000805b6001548110156106cf57826001600160e01b0319166001828154811061068c5761068c6107c9565b90600052602060002090600891828204019190066004029054906101000a900460e01b6001600160e01b031916036106c75750600192915050565b600101610664565b50600092915050565b80356001600160e01b0319811681146106f057600080fd5b919050565b60006020828403121561070757600080fd5b610710826106d8565b9392505050565b80356001600160a01b03811681146106f057600080fd5b6000806040838503121561074157600080fd5b61074a836106d8565b915061075860208401610717565b90509250929050565b60006020828403121561077357600080fd5b61071082610717565b602080825282518282018190526000918401906040840190835b818110156107be5783516001600160e01b031916835260209384019390920191600101610796565b509095945050505050565b634e487b7160e01b600052603260045260246000fdfea264697066735822122030e03adf87fe5bf67b35fe3db01417128809f7583f8c66cea25eada57ba43bce64736f6c634300081a00330000000000000000000000005ac7577c0b0f8e7f55b9144fbcb64ab4778084d5",
        "nonce": "0xf4",
        "chainId": "0x14a34"
      },
      "additionalContracts": [],
      "isFixedGasLimit": false
    },
    {
      "hash": "0xed7753b02bded22dda88c4aac651428ccbbd8627481519fbcb75d3b84ea93ff9",
      "transactionType": "CALL",
      "contractName": "Dictionary_0",
      "contractAddress": "0xbDbB051b19A543A390fc1A6c0c22c32C6b234DA6",
      "function": "setImplementation(bytes4,address)",
      "arguments": [
        "0x019e2729",
        "0xC94553c249D029cfb687E522De2D48f191B4e882"
      ],
      "transaction": {
        "from": "0x5AC7577C0B0F8E7f55B9144fBcB64AB4778084d5",
        "to": "0xbDbB051b19A543A390fc1A6c0c22c32C6b234DA6",
        "gas": "0x206fc",
        "value": "0x0",
        "input": "0x0815f6fd019e272900000000000000000000000000000000000000000000000000000000000000000000000000000000c94553c249d029cfb687e522de2d48f191b4e882",
        "nonce": "0xf5",
        "chainId": "0x14a34"
      },
      "additionalContracts": [],
      "isFixedGasLimit": false
    },
    {
      "hash": "0xc05abbcf8fff980c75c35bb48aa56cb844f95c43b19f853f28671ff9b4b68067",
      "transactionType": "CALL",
      "contractName": "Dictionary_0",
      "contractAddress": "0xbDbB051b19A543A390fc1A6c0c22c32C6b234DA6",
      "function": "setImplementation(bytes4,address)",
      "arguments": [
        "0xffa1a33a",
        "0x8CCE9214723B04Da13a09A5aD4299EFB9bBd05A6"
      ],
      "transaction": {
        "from": "0x5AC7577C0B0F8E7f55B9144fBcB64AB4778084d5",
        "to": "0xbDbB051b19A543A390fc1A6c0c22c32C6b234DA6",
        "gas": "0x151c0",
        "value": "0x0",
        "input": "0x0815f6fdffa1a33a000000000000000000000000000000000000000000000000000000000000000000000000000000008cce9214723b04da13a09a5ad4299efb9bbd05a6",
        "nonce": "0xf6",
        "chainId": "0x14a34"
      },
      "additionalContracts": [],
      "isFixedGasLimit": false
    },
    {
      "hash": "0x586e8a1670392422ae9cc9aa62ab7918d452404b9208c19356762c3f9276e049",
      "transactionType": "CALL",
      "contractName": "Dictionary_0",
      "contractAddress": "0xbDbB051b19A543A390fc1A6c0c22c32C6b234DA6",
      "function": "setImplementation(bytes4,address)",
      "arguments": [
        "0xaa14cc6b",
        "0x3CC8F4357FA7044960D4A5530329C982Ab0727ce"
      ],
      "transaction": {
        "from": "0x5AC7577C0B0F8E7f55B9144fBcB64AB4778084d5",
        "to": "0xbDbB051b19A543A390fc1A6c0c22c32C6b234DA6",
        "gas": "0x1691b",
        "value": "0x0",
        "input": "0x0815f6fdaa14cc6b000000000000000000000000000000000000000000000000000000000000000000000000000000003cc8f4357fa7044960d4a5530329c982ab0727ce",
        "nonce": "0xf7",
        "chainId": "0x14a34"
      },
      "additionalContracts": [],
      "isFixedGasLimit": false
    },
    {
      "hash": "0xb589247645ad11984dc753704af2fa8d99fab13eccec450fb2d1774dbdc0e164",
      "transactionType": "CALL",
      "contractName": "Dictionary_0",
      "contractAddress": "0xbDbB051b19A543A390fc1A6c0c22c32C6b234DA6",
      "function": "setImplementation(bytes4,address)",
      "arguments": [
        "0x985e127c",
        "0xA6917BD88a3a8427de30dE145803381B54C0d95f"
      ],
      "transaction": {
        "from": "0x5AC7577C0B0F8E7f55B9144fBcB64AB4778084d5",
        "to": "0xbDbB051b19A543A390fc1A6c0c22c32C6b234DA6",
        "gas": "0x16c96",
        "value": "0x0",
        "input": "0x0815f6fd985e127c00000000000000000000000000000000000000000000000000000000000000000000000000000000a6917bd88a3a8427de30de145803381b54c0d95f",
        "nonce": "0xf8",
        "chainId": "0x14a34"
      },
      "additionalContracts": [],
      "isFixedGasLimit": false
    },
    {
      "hash": "0x84347fa403ec5f3400c49074d490e1cb090f3244fbd2cac99620328e436d1f81",
      "transactionType": "CALL",
      "contractName": "Dictionary_0",
      "contractAddress": "0xbDbB051b19A543A390fc1A6c0c22c32C6b234DA6",
      "function": "setImplementation(bytes4,address)",
      "arguments": [
        "0xe6424a5e",
        "0xDe3B5A733C44cf5fDC4513e1711362cf1e9c2E6e"
      ],
      "transaction": {
        "from": "0x5AC7577C0B0F8E7f55B9144fBcB64AB4778084d5",
        "to": "0xbDbB051b19A543A390fc1A6c0c22c32C6b234DA6",
        "gas": "0x15b9f",
        "value": "0x0",
        "input": "0x0815f6fde6424a5e00000000000000000000000000000000000000000000000000000000000000000000000000000000de3b5a733c44cf5fdc4513e1711362cf1e9c2e6e",
        "nonce": "0xf9",
        "chainId": "0x14a34"
      },
      "additionalContracts": [],
      "isFixedGasLimit": false
    },
    {
      "hash": "0xde6489b40d0823ce9b3cad63e50454b3174c8b795ac2532f7d4882493fb6456b",
      "transactionType": "CALL",
      "contractName": "Dictionary_0",
      "contractAddress": "0xbDbB051b19A543A390fc1A6c0c22c32C6b234DA6",
      "function": "setImplementation(bytes4,address)",
      "arguments": [
        "0x8da5cb5b",
        "0x7483362085fb67e51Edc343C8045020e3375d278"
      ],
      "transaction": {
        "from": "0x5AC7577C0B0F8E7f55B9144fBcB64AB4778084d5",
        "to": "0xbDbB051b19A543A390fc1A6c0c22c32C6b234DA6",
        "gas": "0x15ee9",
        "value": "0x0",
        "input": "0x0815f6fd8da5cb5b000000000000000000000000000000000000000000000000000000000000000000000000000000007483362085fb67e51edc343c8045020e3375d278",
        "nonce": "0xfa",
        "chainId": "0x14a34"
      },
      "additionalContracts": [],
      "isFixedGasLimit": false
    },
    {
      "hash": "0xaf824efd0c97ba028cf38ff4160a2074ee4da4c6a0b8a3701b48a41a9f7325f3",
      "transactionType": "CALL",
      "contractName": "Dictionary_0",
      "contractAddress": "0xbDbB051b19A543A390fc1A6c0c22c32C6b234DA6",
      "function": "setImplementation(bytes4,address)",
      "arguments": [
        "0x09bd5a60",
        "0x7483362085fb67e51Edc343C8045020e3375d278"
      ],
      "transaction": {
        "from": "0x5AC7577C0B0F8E7f55B9144fBcB64AB4778084d5",
        "to": "0xbDbB051b19A543A390fc1A6c0c22c32C6b234DA6",
        "gas": "0x1770b",
        "value": "0x0",
        "input": "0x0815f6fd09bd5a60000000000000000000000000000000000000000000000000000000000000000000000000000000007483362085fb67e51edc343c8045020e3375d278",
        "nonce": "0xfb",
        "chainId": "0x14a34"
      },
      "additionalContracts": [],
      "isFixedGasLimit": false
    },
    {
      "hash": "0x9233867cbb7d64a78f0c596b0a665a751f0fec6d012d429bc0575493652dbcbb",
      "transactionType": "CALL",
      "contractName": "Dictionary_0",
      "contractAddress": "0xbDbB051b19A543A390fc1A6c0c22c32C6b234DA6",
      "function": "setImplementation(bytes4,address)",
      "arguments": [
        "0xa4e2d634",
        "0x7483362085fb67e51Edc343C8045020e3375d278"
      ],
      "transaction": {
        "from": "0x5AC7577C0B0F8E7f55B9144fBcB64AB4778084d5",
        "to": "0xbDbB051b19A543A390fc1A6c0c22c32C6b234DA6",
        "gas": "0x17a87",
        "value": "0x0",
        "input": "0x0815f6fda4e2d634000000000000000000000000000000000000000000000000000000000000000000000000000000007483362085fb67e51edc343c8045020e3375d278",
        "nonce": "0xfc",
        "chainId": "0x14a34"
      },
      "additionalContracts": [],
      "isFixedGasLimit": false
    },
    {
      "hash": "0x77a617f7f57101c68662b67b1e39d127b1ff98a777e503eff34784a87f3c50a2",
      "transactionType": "CALL",
      "contractName": "Dictionary_0",
      "contractAddress": "0xbDbB051b19A543A390fc1A6c0c22c32C6b234DA6",
      "function": "setImplementation(bytes4,address)",
      "arguments": [
        "0x8fe8a101",
        "0x7483362085fb67e51Edc343C8045020e3375d278"
      ],
      "transaction": {
        "from": "0x5AC7577C0B0F8E7f55B9144fBcB64AB4778084d5",
        "to": "0xbDbB051b19A543A390fc1A6c0c22c32C6b234DA6",
        "gas": "0x1cf92",
        "value": "0x0",
        "input": "0x0815f6fd8fe8a101000000000000000000000000000000000000000000000000000000000000000000000000000000007483362085fb67e51edc343c8045020e3375d278",
        "nonce": "0xfd",
        "chainId": "0x14a34"
      },
      "additionalContracts": [],
      "isFixedGasLimit": false
    },
    {
      "hash": "0x9aabe49e58be425fee8b387429e0359edb69d3d55d862886f2ac65ef6617037d",
      "transactionType": "CALL",
      "contractName": "Dictionary_0",
      "contractAddress": "0xbDbB051b19A543A390fc1A6c0c22c32C6b234DA6",
      "function": "setImplementation(bytes4,address)",
      "arguments": [
        "0x04554443",
        "0x7483362085fb67e51Edc343C8045020e3375d278"
      ],
      "transaction": {
        "from": "0x5AC7577C0B0F8E7f55B9144fBcB64AB4778084d5",
        "to": "0xbDbB051b19A543A390fc1A6c0c22c32C6b234DA6",
        "gas": "0x1769a",
        "value": "0x0",
        "input": "0x0815f6fd04554443000000000000000000000000000000000000000000000000000000000000000000000000000000007483362085fb67e51edc343c8045020e3375d278",
        "nonce": "0xfe",
        "chainId": "0x14a34"
      },
      "additionalContracts": [],
      "isFixedGasLimit": false
    },
    {
      "hash": "0x82888d55d84269fcfb758fae66b74c445d2c5bc4dcf647dd6237ae9970680a15",
      "transactionType": "CALL",
      "contractName": "Dictionary_0",
      "contractAddress": "0xbDbB051b19A543A390fc1A6c0c22c32C6b234DA6",
      "function": "setImplementation(bytes4,address)",
      "arguments": [
        "0x62c7fa76",
        "0x7483362085fb67e51Edc343C8045020e3375d278"
      ],
      "transaction": {
        "from": "0x5AC7577C0B0F8E7f55B9144fBcB64AB4778084d5",
        "to": "0xbDbB051b19A543A390fc1A6c0c22c32C6b234DA6",
        "gas": "0x179e4",
        "value": "0x0",
        "input": "0x0815f6fd62c7fa76000000000000000000000000000000000000000000000000000000000000000000000000000000007483362085fb67e51edc343c8045020e3375d278",
        "nonce": "0xff",
        "chainId": "0x14a34"
      },
      "additionalContracts": [],
      "isFixedGasLimit": false
    },
    {
      "hash": "0x1fd35a2d4dfcff9394cbf27c88e5e4cec6e3cfc7f5ff7dc244e440b5ef58043c",
      "transactionType": "CALL",
      "contractName": "Dictionary_0",
      "contractAddress": "0xbDbB051b19A543A390fc1A6c0c22c32C6b234DA6",
      "function": "setImplementation(bytes4,address)",
      "arguments": [
        "0xaffed0e0",
        "0x7483362085fb67e51Edc343C8045020e3375d278"
      ],
      "transaction": {
        "from": "0x5AC7577C0B0F8E7f55B9144fBcB64AB4778084d5",
        "to": "0xbDbB051b19A543A390fc1A6c0c22c32C6b234DA6",
        "gas": "0x1939c",
        "value": "0x0",
        "input": "0x0815f6fdaffed0e0000000000000000000000000000000000000000000000000000000000000000000000000000000007483362085fb67e51edc343c8045020e3375d278",
        "nonce": "0x100",
        "chainId": "0x14a34"
      },
      "additionalContracts": [],
      "isFixedGasLimit": false
    },
    {
      "hash": "0xfdb79894a524d8951773993bb1b43fe3565b54c926c5acc575527f9b273be2c5",
      "transactionType": "CALL",
      "contractName": "Dictionary_0",
      "contractAddress": "0xbDbB051b19A543A390fc1A6c0c22c32C6b234DA6",
      "function": "setImplementation(bytes4,address)",
      "arguments": [
        "0x96c705e5",
        "0x7483362085fb67e51Edc343C8045020e3375d278"
      ],
      "transaction": {
        "from": "0x5AC7577C0B0F8E7f55B9144fBcB64AB4778084d5",
        "to": "0xbDbB051b19A543A390fc1A6c0c22c32C6b234DA6",
        "gas": "0x19717",
        "value": "0x0",
        "input": "0x0815f6fd96c705e5000000000000000000000000000000000000000000000000000000000000000000000000000000007483362085fb67e51edc343c8045020e3375d278",
        "nonce": "0x101",
        "chainId": "0x14a34"
      },
      "additionalContracts": [],
      "isFixedGasLimit": false
    },
    {
      "hash": "0x9d54cf5c3c0cf80318b347472f4ebf2b8e2319f3304f7f083d98d78d466ccffb",
      "transactionType": "CALL",
      "contractName": "Dictionary_0",
      "contractAddress": "0xbDbB051b19A543A390fc1A6c0c22c32C6b234DA6",
      "function": "setImplementation(bytes4,address)",
      "arguments": [
        "0xc30a0f25",
        "0x7483362085fb67e51Edc343C8045020e3375d278"
      ],
      "transaction": {
        "from": "0x5AC7577C0B0F8E7f55B9144fBcB64AB4778084d5",
        "to": "0xbDbB051b19A543A390fc1A6c0c22c32C6b234DA6",
        "gas": "0x183c4",
        "value": "0x0",
        "input": "0x0815f6fdc30a0f25000000000000000000000000000000000000000000000000000000000000000000000000000000007483362085fb67e51edc343c8045020e3375d278",
        "nonce": "0x102",
        "chainId": "0x14a34"
      },
      "additionalContracts": [],
      "isFixedGasLimit": false
    },
    {
      "hash": "0x89903d635f9d9125ce954ec31527dc855fb27cfea1bd9aaa77a4c92ef17ef068",
      "transactionType": "CALL",
      "contractName": "Dictionary_0",
      "contractAddress": "0xbDbB051b19A543A390fc1A6c0c22c32C6b234DA6",
      "function": "upgradeFacade(address)",
      "arguments": [
        "0x8693d7164347bE2915F04C67D0C845E084B1eA04"
      ],
      "transaction": {
        "from": "0x5AC7577C0B0F8E7f55B9144fBcB64AB4778084d5",
        "to": "0xbDbB051b19A543A390fc1A6c0c22c32C6b234DA6",
        "gas": "0x10dbe",
        "value": "0x0",
        "input": "0x651dc03d0000000000000000000000008693d7164347be2915f04c67d0c845e084b1ea04",
        "nonce": "0x103",
        "chainId": "0x14a34"
      },
      "additionalContracts": [],
      "isFixedGasLimit": false
    }
  ],
  "receipts": [
    {
      "status": "0x1",
      "cumulativeGasUsed": "0x11788e",
      "logs": [],
      "logsBloom": "0x00000000000000000000000000000000000000000000000000000000000000000000000000000000000000000000000000000000000000000000000000000000000000000000000000000000000000000000000000000000000000000000000000000000000000000000000000000000000000000000000000000000000000000000000000000000000000000000000000000000000000000000000000000000000000000000000000000000000000000000000000000000000000000000000000000000000000000000000000000000000000000000000000000000000000000000000000000000000000000000000000000000000000000000000000000000",
      "type": "0x2",
      "transactionHash": "0x9ca0a5a708eb796be9ce458412f130761f62bd8a69c3b0e2fa919d071bd0f166",
      "transactionIndex": "0x7",
      "blockHash": "0x5fddbe8c57b502ad75a788aa049b3b8c9e3c52fd5f5370e8647c8293784e29c2",
      "blockNumber": "0x11c4426",
      "gasUsed": "0x22069",
      "effectiveGasPrice": "0x957a",
      "from": "0x5AC7577C0B0F8E7f55B9144fBcB64AB4778084d5",
      "to": null,
      "contractAddress": "0xC94553c249D029cfb687E522De2D48f191B4e882",
      "l1BaseFeeScalar": "0x44d",
      "l1BlobBaseFee": "0x1",
      "l1BlobBaseFeeScalar": "0xa118b",
      "l1Fee": "0xfd5fde23",
      "l1GasPrice": "0x2f5b1ebd",
      "l1GasUsed": "0x12fb"
    },
    {
      "status": "0x1",
      "cumulativeGasUsed": "0x13cd7b",
      "logs": [],
      "logsBloom": "0x00000000000000000000000000000000000000000000000000000000000000000000000000000000000000000000000000000000000000000000000000000000000000000000000000000000000000000000000000000000000000000000000000000000000000000000000000000000000000000000000000000000000000000000000000000000000000000000000000000000000000000000000000000000000000000000000000000000000000000000000000000000000000000000000000000000000000000000000000000000000000000000000000000000000000000000000000000000000000000000000000000000000000000000000000000000",
      "type": "0x2",
      "transactionHash": "0x859780bbd7ff89209429ba1645ca9961ff597ccaeee714f35230d2496d29beab",
      "transactionIndex": "0x8",
      "blockHash": "0x5fddbe8c57b502ad75a788aa049b3b8c9e3c52fd5f5370e8647c8293784e29c2",
      "blockNumber": "0x11c4426",
      "gasUsed": "0x254ed",
      "effectiveGasPrice": "0x957a",
      "from": "0x5AC7577C0B0F8E7f55B9144fBcB64AB4778084d5",
      "to": null,
      "contractAddress": "0x8CCE9214723B04Da13a09A5aD4299EFB9bBd05A6",
      "l1BaseFeeScalar": "0x44d",
      "l1BlobBaseFee": "0x1",
      "l1BlobBaseFeeScalar": "0xa118b",
      "l1Fee": "0x1506a776c",
      "l1GasPrice": "0x2f5b1ebd",
      "l1GasUsed": "0x1934"
    },
    {
      "status": "0x1",
      "cumulativeGasUsed": "0x1806de",
      "logs": [],
      "logsBloom": "0x00000000000000000000000000000000000000000000000000000000000000000000000000000000000000000000000000000000000000000000000000000000000000000000000000000000000000000000000000000000000000000000000000000000000000000000000000000000000000000000000000000000000000000000000000000000000000000000000000000000000000000000000000000000000000000000000000000000000000000000000000000000000000000000000000000000000000000000000000000000000000000000000000000000000000000000000000000000000000000000000000000000000000000000000000000000",
      "type": "0x2",
      "transactionHash": "0xd42e84e37253db1f11ef9b488b127a954327dd963ff6372f2f81747ac485f58a",
      "transactionIndex": "0x9",
      "blockHash": "0x5fddbe8c57b502ad75a788aa049b3b8c9e3c52fd5f5370e8647c8293784e29c2",
      "blockNumber": "0x11c4426",
      "gasUsed": "0x43963",
      "effectiveGasPrice": "0x957a",
      "from": "0x5AC7577C0B0F8E7f55B9144fBcB64AB4778084d5",
      "to": null,
      "contractAddress": "0x3CC8F4357FA7044960D4A5530329C982Ab0727ce",
      "l1BaseFeeScalar": "0x44d",
      "l1BlobBaseFee": "0x1",
      "l1BlobBaseFeeScalar": "0xa118b",
      "l1Fee": "0x279b0ad60",
      "l1GasPrice": "0x2f5b1ebd",
      "l1GasUsed": "0x2f79"
    },
    {
      "status": "0x1",
      "cumulativeGasUsed": "0x22986f",
      "logs": [],
      "logsBloom": "0x00000000000000000000000000000000000000000000000000000000000000000000000000000000000000000000000000000000000000000000000000000000000000000000000000000000000000000000000000000000000000000000000000000000000000000000000000000000000000000000000000000000000000000000000000000000000000000000000000000000000000000000000000000000000000000000000000000000000000000000000000000000000000000000000000000000000000000000000000000000000000000000000000000000000000000000000000000000000000000000000000000000000000000000000000000000",
      "type": "0x2",
      "transactionHash": "0xa4099a3baf7076d68e0a20cc24578948cd7d62a2eea2b7d50e4e8f8f9457e453",
      "transactionIndex": "0xa",
      "blockHash": "0x5fddbe8c57b502ad75a788aa049b3b8c9e3c52fd5f5370e8647c8293784e29c2",
      "blockNumber": "0x11c4426",
      "gasUsed": "0xa9191",
      "effectiveGasPrice": "0x957a",
      "from": "0x5AC7577C0B0F8E7f55B9144fBcB64AB4778084d5",
      "to": null,
      "contractAddress": "0xA6917BD88a3a8427de30dE145803381B54C0d95f",
      "l1BaseFeeScalar": "0x44d",
      "l1BlobBaseFee": "0x1",
      "l1BlobBaseFeeScalar": "0xa118b",
      "l1Fee": "0x619ccc7fe",
      "l1GasPrice": "0x2f5b1ebd",
      "l1GasUsed": "0x7502"
    },
    {
      "status": "0x1",
      "cumulativeGasUsed": "0x2c18ad",
      "logs": [],
      "logsBloom": "0x00000000000000000000000000000000000000000000000000000000000000000000000000000000000000000000000000000000000000000000000000000000000000000000000000000000000000000000000000000000000000000000000000000000000000000000000000000000000000000000000000000000000000000000000000000000000000000000000000000000000000000000000000000000000000000000000000000000000000000000000000000000000000000000000000000000000000000000000000000000000000000000000000000000000000000000000000000000000000000000000000000000000000000000000000000000",
      "type": "0x2",
      "transactionHash": "0x952a8b4a0e68f36b46280d04b0765295afd71b9576c87973e9965eeb95b3e977",
      "transactionIndex": "0xb",
      "blockHash": "0x5fddbe8c57b502ad75a788aa049b3b8c9e3c52fd5f5370e8647c8293784e29c2",
      "blockNumber": "0x11c4426",
      "gasUsed": "0x9803e",
      "effectiveGasPrice": "0x957a",
      "from": "0x5AC7577C0B0F8E7f55B9144fBcB64AB4778084d5",
      "to": null,
      "contractAddress": "0xDe3B5A733C44cf5fDC4513e1711362cf1e9c2E6e",
      "l1BaseFeeScalar": "0x44d",
      "l1BlobBaseFee": "0x1",
      "l1BlobBaseFeeScalar": "0xa118b",
      "l1Fee": "0x577e7721f",
      "l1GasPrice": "0x2f5b1ebd",
      "l1GasUsed": "0x68e1"
    },
    {
      "status": "0x1",
      "cumulativeGasUsed": "0x2fbb97",
      "logs": [],
      "logsBloom": "0x00000000000000000000000000000000000000000000000000000000000000000000000000000000000000000000000000000000000000000000000000000000000000000000000000000000000000000000000000000000000000000000000000000000000000000000000000000000000000000000000000000000000000000000000000000000000000000000000000000000000000000000000000000000000000000000000000000000000000000000000000000000000000000000000000000000000000000000000000000000000000000000000000000000000000000000000000000000000000000000000000000000000000000000000000000000",
      "type": "0x2",
      "transactionHash": "0x5392b5b47bb8082922c692a41378a31679892eac302bc33239b7c98e5210c92c",
      "transactionIndex": "0xc",
      "blockHash": "0x5fddbe8c57b502ad75a788aa049b3b8c9e3c52fd5f5370e8647c8293784e29c2",
      "blockNumber": "0x11c4426",
      "gasUsed": "0x3a2ea",
      "effectiveGasPrice": "0x957a",
      "from": "0x5AC7577C0B0F8E7f55B9144fBcB64AB4778084d5",
      "to": null,
      "contractAddress": "0x7483362085fb67e51Edc343C8045020e3375d278",
      "l1BaseFeeScalar": "0x44d",
      "l1BlobBaseFee": "0x1",
      "l1BlobBaseFeeScalar": "0xa118b",
      "l1Fee": "0x1c01174da",
      "l1GasPrice": "0x2f5b1ebd",
      "l1GasUsed": "0x2191"
    },
    {
      "status": "0x1",
      "cumulativeGasUsed": "0x33bc01",
      "logs": [],
      "logsBloom": "0x00000000000000000000000000000000000000000000000000000000000000000000000000000000000000000000000000000000000000000000000000000000000000000000000000000000000000000000000000000000000000000000000000000000000000000000000000000000000000000000000000000000000000000000000000000000000000000000000000000000000000000000000000000000000000000000000000000000000000000000000000000000000000000000000000000000000000000000000000000000000000000000000000000000000000000000000000000000000000000000000000000000000000000000000000000000",
      "type": "0x2",
      "transactionHash": "0xa15a7fc639613c0acb43adb4d027f4c6902623504f522e8d19a6573655850efe",
      "transactionIndex": "0xd",
      "blockHash": "0x5fddbe8c57b502ad75a788aa049b3b8c9e3c52fd5f5370e8647c8293784e29c2",
      "blockNumber": "0x11c4426",
      "gasUsed": "0x4006a",
      "effectiveGasPrice": "0x957a",
      "from": "0x5AC7577C0B0F8E7f55B9144fBcB64AB4778084d5",
      "to": null,
      "contractAddress": "0x8693d7164347bE2915F04C67D0C845E084B1eA04",
      "l1BaseFeeScalar": "0x44d",
      "l1BlobBaseFee": "0x1",
      "l1BlobBaseFeeScalar": "0xa118b",
      "l1Fee": "0x23e5ff6be",
      "l1GasPrice": "0x2f5b1ebd",
      "l1GasUsed": "0x2b08"
    },
    {
      "status": "0x1",
      "cumulativeGasUsed": "0x3bca61",
      "logs": [
        {
          "address": "0xbDbB051b19A543A390fc1A6c0c22c32C6b234DA6",
          "topics": [
            "0x8be0079c531659141344cd1fd0a4f28419497f9722a3daafe3b4186f6b6457e0",
            "0x0000000000000000000000000000000000000000000000000000000000000000",
            "0x0000000000000000000000005ac7577c0b0f8e7f55b9144fbcb64ab4778084d5"
          ],
          "data": "0x",
          "blockHash": "0x5fddbe8c57b502ad75a788aa049b3b8c9e3c52fd5f5370e8647c8293784e29c2",
          "blockNumber": "0x11c4426",
          "transactionHash": "0xab51ea8a363b1a9d9f80ee97f854288f20f82ea47f91dd322ffb2d88a4864986",
          "transactionIndex": "0xe",
          "logIndex": "0x1b",
          "removed": false
        }
      ],
      "logsBloom": "0x00000000000000000000000000000000000000000040000000800000000000000000000000000000000000000000000000000000000000000000000000000000000000000000000000000000000000000001000000000000000000000000000000000000020000000000000000000800000000000000000000000000000000400000000000000000000000100000000000000000000000000000000000000000000000000000000000000000000000000400000000000000000000000000000000180000000000000000000000000000000000000000000000000000000020000000000000001000000000000000000000000000000000000000000000000000",
      "type": "0x2",
      "transactionHash": "0xab51ea8a363b1a9d9f80ee97f854288f20f82ea47f91dd322ffb2d88a4864986",
      "transactionIndex": "0xe",
      "blockHash": "0x5fddbe8c57b502ad75a788aa049b3b8c9e3c52fd5f5370e8647c8293784e29c2",
      "blockNumber": "0x11c4426",
      "gasUsed": "0x80e60",
      "effectiveGasPrice": "0x957a",
      "from": "0x5AC7577C0B0F8E7f55B9144fBcB64AB4778084d5",
      "to": null,
      "contractAddress": "0xbDbB051b19A543A390fc1A6c0c22c32C6b234DA6",
      "l1BaseFeeScalar": "0x44d",
      "l1BlobBaseFee": "0x1",
      "l1BlobBaseFeeScalar": "0xa118b",
      "l1Fee": "0x4cad7cfb5",
      "l1GasPrice": "0x2f5b1ebd",
      "l1GasUsed": "0x5bea"
    },
    {
      "status": "0x1",
      "cumulativeGasUsed": "0x3d421e",
      "logs": [
        {
          "address": "0xbDbB051b19A543A390fc1A6c0c22c32C6b234DA6",
          "topics": [
            "0xbe533f538959a17d76f1b09e966e741ee3b1183099682f96216c93d21feaecba"
          ],
          "data": "0x019e272900000000000000000000000000000000000000000000000000000000",
          "blockHash": "0x5fddbe8c57b502ad75a788aa049b3b8c9e3c52fd5f5370e8647c8293784e29c2",
          "blockNumber": "0x11c4426",
          "transactionHash": "0xed7753b02bded22dda88c4aac651428ccbbd8627481519fbcb75d3b84ea93ff9",
          "transactionIndex": "0xf",
          "logIndex": "0x1c",
          "removed": false
        },
        {
          "address": "0xbDbB051b19A543A390fc1A6c0c22c32C6b234DA6",
          "topics": [
            "0xda3c8142b3c1d27633026f55bfcb4eeb0b5b8db0daa0a3e10c2213a441722ad1"
          ],
          "data": "0x019e272900000000000000000000000000000000000000000000000000000000000000000000000000000000c94553c249d029cfb687e522de2d48f191b4e882",
          "blockHash": "0x5fddbe8c57b502ad75a788aa049b3b8c9e3c52fd5f5370e8647c8293784e29c2",
          "blockNumber": "0x11c4426",
          "transactionHash": "0xed7753b02bded22dda88c4aac651428ccbbd8627481519fbcb75d3b84ea93ff9",
          "transactionIndex": "0xf",
          "logIndex": "0x1d",
          "removed": false
        }
      ],
      "logsBloom": "0x00000000000000000000000000000000000000000040000000000000000000080000000000000000000000000000000000000000000000000000000000000000000000000000000000000000000000000000000000000000000000000000000000000000000000000000200000000000000000000000000010000000000000000000000000000000000000000000100000000000000000000000000000000000000000000000000000004000080000000000000000000000000000000000000000180000000000000000000000000000000000000000000000000000000000000000000000000000000000000000000000000000000000000000000000000000",
      "type": "0x2",
      "transactionHash": "0xed7753b02bded22dda88c4aac651428ccbbd8627481519fbcb75d3b84ea93ff9",
      "transactionIndex": "0xf",
      "blockHash": "0x5fddbe8c57b502ad75a788aa049b3b8c9e3c52fd5f5370e8647c8293784e29c2",
      "blockNumber": "0x11c4426",
      "gasUsed": "0x177bd",
      "effectiveGasPrice": "0x957a",
      "from": "0x5AC7577C0B0F8E7f55B9144fBcB64AB4778084d5",
      "to": "0xbDbB051b19A543A390fc1A6c0c22c32C6b234DA6",
      "contractAddress": null,
      "l1BaseFeeScalar": "0x44d",
      "l1BlobBaseFee": "0x1",
      "l1BlobBaseFeeScalar": "0xa118b",
      "l1Fee": "0x536c16dd",
      "l1GasPrice": "0x2f5b1ebd",
      "l1GasUsed": "0x640"
    },
    {
      "status": "0x1",
      "cumulativeGasUsed": "0x3e36a5",
      "logs": [
        {
          "address": "0xbDbB051b19A543A390fc1A6c0c22c32C6b234DA6",
          "topics": [
            "0xbe533f538959a17d76f1b09e966e741ee3b1183099682f96216c93d21feaecba"
          ],
          "data": "0xffa1a33a00000000000000000000000000000000000000000000000000000000",
          "blockHash": "0x5fddbe8c57b502ad75a788aa049b3b8c9e3c52fd5f5370e8647c8293784e29c2",
          "blockNumber": "0x11c4426",
          "transactionHash": "0xc05abbcf8fff980c75c35bb48aa56cb844f95c43b19f853f28671ff9b4b68067",
          "transactionIndex": "0x10",
          "logIndex": "0x1e",
          "removed": false
        },
        {
          "address": "0xbDbB051b19A543A390fc1A6c0c22c32C6b234DA6",
          "topics": [
            "0xda3c8142b3c1d27633026f55bfcb4eeb0b5b8db0daa0a3e10c2213a441722ad1"
          ],
          "data": "0xffa1a33a000000000000000000000000000000000000000000000000000000000000000000000000000000008cce9214723b04da13a09a5ad4299efb9bbd05a6",
          "blockHash": "0x5fddbe8c57b502ad75a788aa049b3b8c9e3c52fd5f5370e8647c8293784e29c2",
          "blockNumber": "0x11c4426",
          "transactionHash": "0xc05abbcf8fff980c75c35bb48aa56cb844f95c43b19f853f28671ff9b4b68067",
          "transactionIndex": "0x10",
          "logIndex": "0x1f",
          "removed": false
        }
      ],
      "logsBloom": "0x00000000000000000000000000000000000000000040000000000000000000080000000000000000000000000000000000000000000000000000000000000000000000000000000000000000000000000000000000000000000000000000000000000000000000000000200000000000000000000000000010000000000000000000000000000000000000000000100000000000000000000000000000000000000000000000000000004000080000000000000000000000000000000000000000180000000000000000000000000000000000000000000000000000000000000000000000000000000000000000000000000000000000000000000000000000",
      "type": "0x2",
      "transactionHash": "0xc05abbcf8fff980c75c35bb48aa56cb844f95c43b19f853f28671ff9b4b68067",
      "transactionIndex": "0x10",
      "blockHash": "0x5fddbe8c57b502ad75a788aa049b3b8c9e3c52fd5f5370e8647c8293784e29c2",
      "blockNumber": "0x11c4426",
      "gasUsed": "0xf487",
      "effectiveGasPrice": "0x957a",
      "from": "0x5AC7577C0B0F8E7f55B9144fBcB64AB4778084d5",
      "to": "0xbDbB051b19A543A390fc1A6c0c22c32C6b234DA6",
      "contractAddress": null,
      "l1BaseFeeScalar": "0x44d",
      "l1BlobBaseFee": "0x1",
      "l1BlobBaseFeeScalar": "0xa118b",
      "l1Fee": "0x536c16dd",
      "l1GasPrice": "0x2f5b1ebd",
      "l1GasUsed": "0x640"
    },
    {
      "status": "0x1",
      "cumulativeGasUsed": "0x3f2d8e",
      "logs": [
        {
          "address": "0xbDbB051b19A543A390fc1A6c0c22c32C6b234DA6",
          "topics": [
            "0xbe533f538959a17d76f1b09e966e741ee3b1183099682f96216c93d21feaecba"
          ],
          "data": "0xaa14cc6b00000000000000000000000000000000000000000000000000000000",
          "blockHash": "0x5fddbe8c57b502ad75a788aa049b3b8c9e3c52fd5f5370e8647c8293784e29c2",
          "blockNumber": "0x11c4426",
          "transactionHash": "0x586e8a1670392422ae9cc9aa62ab7918d452404b9208c19356762c3f9276e049",
          "transactionIndex": "0x11",
          "logIndex": "0x20",
          "removed": false
        },
        {
          "address": "0xbDbB051b19A543A390fc1A6c0c22c32C6b234DA6",
          "topics": [
            "0xda3c8142b3c1d27633026f55bfcb4eeb0b5b8db0daa0a3e10c2213a441722ad1"
          ],
          "data": "0xaa14cc6b000000000000000000000000000000000000000000000000000000000000000000000000000000003cc8f4357fa7044960d4a5530329c982ab0727ce",
          "blockHash": "0x5fddbe8c57b502ad75a788aa049b3b8c9e3c52fd5f5370e8647c8293784e29c2",
          "blockNumber": "0x11c4426",
          "transactionHash": "0x586e8a1670392422ae9cc9aa62ab7918d452404b9208c19356762c3f9276e049",
          "transactionIndex": "0x11",
          "logIndex": "0x21",
          "removed": false
        }
      ],
      "logsBloom": "0x00000000000000000000000000000000000000000040000000000000000000080000000000000000000000000000000000000000000000000000000000000000000000000000000000000000000000000000000000000000000000000000000000000000000000000000200000000000000000000000000010000000000000000000000000000000000000000000100000000000000000000000000000000000000000000000000000004000080000000000000000000000000000000000000000180000000000000000000000000000000000000000000000000000000000000000000000000000000000000000000000000000000000000000000000000000",
      "type": "0x2",
      "transactionHash": "0x586e8a1670392422ae9cc9aa62ab7918d452404b9208c19356762c3f9276e049",
      "transactionIndex": "0x11",
      "blockHash": "0x5fddbe8c57b502ad75a788aa049b3b8c9e3c52fd5f5370e8647c8293784e29c2",
      "blockNumber": "0x11c4426",
      "gasUsed": "0xf6e9",
      "effectiveGasPrice": "0x957a",
      "from": "0x5AC7577C0B0F8E7f55B9144fBcB64AB4778084d5",
      "to": "0xbDbB051b19A543A390fc1A6c0c22c32C6b234DA6",
      "contractAddress": null,
      "l1BaseFeeScalar": "0x44d",
      "l1BlobBaseFee": "0x1",
      "l1BlobBaseFeeScalar": "0xa118b",
      "l1Fee": "0x536c16dd",
      "l1GasPrice": "0x2f5b1ebd",
      "l1GasUsed": "0x640"
    },
    {
      "status": "0x1",
      "cumulativeGasUsed": "0x4026d9",
      "logs": [
        {
          "address": "0xbDbB051b19A543A390fc1A6c0c22c32C6b234DA6",
          "topics": [
            "0xbe533f538959a17d76f1b09e966e741ee3b1183099682f96216c93d21feaecba"
          ],
          "data": "0x985e127c00000000000000000000000000000000000000000000000000000000",
          "blockHash": "0x5fddbe8c57b502ad75a788aa049b3b8c9e3c52fd5f5370e8647c8293784e29c2",
          "blockNumber": "0x11c4426",
          "transactionHash": "0xb589247645ad11984dc753704af2fa8d99fab13eccec450fb2d1774dbdc0e164",
          "transactionIndex": "0x12",
          "logIndex": "0x22",
          "removed": false
        },
        {
          "address": "0xbDbB051b19A543A390fc1A6c0c22c32C6b234DA6",
          "topics": [
            "0xda3c8142b3c1d27633026f55bfcb4eeb0b5b8db0daa0a3e10c2213a441722ad1"
          ],
          "data": "0x985e127c00000000000000000000000000000000000000000000000000000000000000000000000000000000a6917bd88a3a8427de30de145803381b54c0d95f",
          "blockHash": "0x5fddbe8c57b502ad75a788aa049b3b8c9e3c52fd5f5370e8647c8293784e29c2",
          "blockNumber": "0x11c4426",
          "transactionHash": "0xb589247645ad11984dc753704af2fa8d99fab13eccec450fb2d1774dbdc0e164",
          "transactionIndex": "0x12",
          "logIndex": "0x23",
          "removed": false
        }
      ],
      "logsBloom": "0x00000000000000000000000000000000000000000040000000000000000000080000000000000000000000000000000000000000000000000000000000000000000000000000000000000000000000000000000000000000000000000000000000000000000000000000200000000000000000000000000010000000000000000000000000000000000000000000100000000000000000000000000000000000000000000000000000004000080000000000000000000000000000000000000000180000000000000000000000000000000000000000000000000000000000000000000000000000000000000000000000000000000000000000000000000000",
      "type": "0x2",
      "transactionHash": "0xb589247645ad11984dc753704af2fa8d99fab13eccec450fb2d1774dbdc0e164",
      "transactionIndex": "0x12",
      "blockHash": "0x5fddbe8c57b502ad75a788aa049b3b8c9e3c52fd5f5370e8647c8293784e29c2",
      "blockNumber": "0x11c4426",
      "gasUsed": "0xf94b",
      "effectiveGasPrice": "0x957a",
      "from": "0x5AC7577C0B0F8E7f55B9144fBcB64AB4778084d5",
      "to": "0xbDbB051b19A543A390fc1A6c0c22c32C6b234DA6",
      "contractAddress": null,
      "l1BaseFeeScalar": "0x44d",
      "l1BlobBaseFee": "0x1",
      "l1BlobBaseFeeScalar": "0xa118b",
      "l1Fee": "0x536c16dd",
      "l1GasPrice": "0x2f5b1ebd",
      "l1GasUsed": "0x640"
    },
    {
      "status": "0x1",
      "cumulativeGasUsed": "0x412286",
      "logs": [
        {
          "address": "0xbDbB051b19A543A390fc1A6c0c22c32C6b234DA6",
          "topics": [
            "0xbe533f538959a17d76f1b09e966e741ee3b1183099682f96216c93d21feaecba"
          ],
          "data": "0xe6424a5e00000000000000000000000000000000000000000000000000000000",
          "blockHash": "0x5fddbe8c57b502ad75a788aa049b3b8c9e3c52fd5f5370e8647c8293784e29c2",
          "blockNumber": "0x11c4426",
          "transactionHash": "0x84347fa403ec5f3400c49074d490e1cb090f3244fbd2cac99620328e436d1f81",
          "transactionIndex": "0x13",
          "logIndex": "0x24",
          "removed": false
        },
        {
          "address": "0xbDbB051b19A543A390fc1A6c0c22c32C6b234DA6",
          "topics": [
            "0xda3c8142b3c1d27633026f55bfcb4eeb0b5b8db0daa0a3e10c2213a441722ad1"
          ],
          "data": "0xe6424a5e00000000000000000000000000000000000000000000000000000000000000000000000000000000de3b5a733c44cf5fdc4513e1711362cf1e9c2e6e",
          "blockHash": "0x5fddbe8c57b502ad75a788aa049b3b8c9e3c52fd5f5370e8647c8293784e29c2",
          "blockNumber": "0x11c4426",
          "transactionHash": "0x84347fa403ec5f3400c49074d490e1cb090f3244fbd2cac99620328e436d1f81",
          "transactionIndex": "0x13",
          "logIndex": "0x25",
          "removed": false
        }
      ],
      "logsBloom": "0x00000000000000000000000000000000000000000040000000000000000000080000000000000000000000000000000000000000000000000000000000000000000000000000000000000000000000000000000000000000000000000000000000000000000000000000200000000000000000000000000010000000000000000000000000000000000000000000100000000000000000000000000000000000000000000000000000004000080000000000000000000000000000000000000000180000000000000000000000000000000000000000000000000000000000000000000000000000000000000000000000000000000000000000000000000000",
      "type": "0x2",
      "transactionHash": "0x84347fa403ec5f3400c49074d490e1cb090f3244fbd2cac99620328e436d1f81",
      "transactionIndex": "0x13",
      "blockHash": "0x5fddbe8c57b502ad75a788aa049b3b8c9e3c52fd5f5370e8647c8293784e29c2",
      "blockNumber": "0x11c4426",
      "gasUsed": "0xfbad",
      "effectiveGasPrice": "0x957a",
      "from": "0x5AC7577C0B0F8E7f55B9144fBcB64AB4778084d5",
      "to": "0xbDbB051b19A543A390fc1A6c0c22c32C6b234DA6",
      "contractAddress": null,
      "l1BaseFeeScalar": "0x44d",
      "l1BlobBaseFee": "0x1",
      "l1BlobBaseFeeScalar": "0xa118b",
      "l1Fee": "0x536c16dd",
      "l1GasPrice": "0x2f5b1ebd",
      "l1GasUsed": "0x640"
    },
    {
      "status": "0x1",
      "cumulativeGasUsed": "0x422095",
      "logs": [
        {
          "address": "0xbDbB051b19A543A390fc1A6c0c22c32C6b234DA6",
          "topics": [
            "0xbe533f538959a17d76f1b09e966e741ee3b1183099682f96216c93d21feaecba"
          ],
          "data": "0x8da5cb5b00000000000000000000000000000000000000000000000000000000",
          "blockHash": "0x5fddbe8c57b502ad75a788aa049b3b8c9e3c52fd5f5370e8647c8293784e29c2",
          "blockNumber": "0x11c4426",
          "transactionHash": "0xde6489b40d0823ce9b3cad63e50454b3174c8b795ac2532f7d4882493fb6456b",
          "transactionIndex": "0x14",
          "logIndex": "0x26",
          "removed": false
        },
        {
          "address": "0xbDbB051b19A543A390fc1A6c0c22c32C6b234DA6",
          "topics": [
            "0xda3c8142b3c1d27633026f55bfcb4eeb0b5b8db0daa0a3e10c2213a441722ad1"
          ],
          "data": "0x8da5cb5b000000000000000000000000000000000000000000000000000000000000000000000000000000007483362085fb67e51edc343c8045020e3375d278",
          "blockHash": "0x5fddbe8c57b502ad75a788aa049b3b8c9e3c52fd5f5370e8647c8293784e29c2",
          "blockNumber": "0x11c4426",
          "transactionHash": "0xde6489b40d0823ce9b3cad63e50454b3174c8b795ac2532f7d4882493fb6456b",
          "transactionIndex": "0x14",
          "logIndex": "0x27",
          "removed": false
        }
      ],
      "logsBloom": "0x00000000000000000000000000000000000000000040000000000000000000080000000000000000000000000000000000000000000000000000000000000000000000000000000000000000000000000000000000000000000000000000000000000000000000000000200000000000000000000000000010000000000000000000000000000000000000000000100000000000000000000000000000000000000000000000000000004000080000000000000000000000000000000000000000180000000000000000000000000000000000000000000000000000000000000000000000000000000000000000000000000000000000000000000000000000",
      "type": "0x2",
      "transactionHash": "0xde6489b40d0823ce9b3cad63e50454b3174c8b795ac2532f7d4882493fb6456b",
      "transactionIndex": "0x14",
      "blockHash": "0x5fddbe8c57b502ad75a788aa049b3b8c9e3c52fd5f5370e8647c8293784e29c2",
      "blockNumber": "0x11c4426",
      "gasUsed": "0xfe0f",
      "effectiveGasPrice": "0x957a",
      "from": "0x5AC7577C0B0F8E7f55B9144fBcB64AB4778084d5",
      "to": "0xbDbB051b19A543A390fc1A6c0c22c32C6b234DA6",
      "contractAddress": null,
      "l1BaseFeeScalar": "0x44d",
      "l1BlobBaseFee": "0x1",
      "l1BlobBaseFeeScalar": "0xa118b",
      "l1Fee": "0x536c16dd",
      "l1GasPrice": "0x2f5b1ebd",
      "l1GasUsed": "0x640"
    },
    {
      "status": "0x1",
      "cumulativeGasUsed": "0x432106",
      "logs": [
        {
          "address": "0xbDbB051b19A543A390fc1A6c0c22c32C6b234DA6",
          "topics": [
            "0xbe533f538959a17d76f1b09e966e741ee3b1183099682f96216c93d21feaecba"
          ],
          "data": "0x09bd5a6000000000000000000000000000000000000000000000000000000000",
          "blockHash": "0x5fddbe8c57b502ad75a788aa049b3b8c9e3c52fd5f5370e8647c8293784e29c2",
          "blockNumber": "0x11c4426",
          "transactionHash": "0xaf824efd0c97ba028cf38ff4160a2074ee4da4c6a0b8a3701b48a41a9f7325f3",
          "transactionIndex": "0x15",
          "logIndex": "0x28",
          "removed": false
        },
        {
          "address": "0xbDbB051b19A543A390fc1A6c0c22c32C6b234DA6",
          "topics": [
            "0xda3c8142b3c1d27633026f55bfcb4eeb0b5b8db0daa0a3e10c2213a441722ad1"
          ],
          "data": "0x09bd5a60000000000000000000000000000000000000000000000000000000000000000000000000000000007483362085fb67e51edc343c8045020e3375d278",
          "blockHash": "0x5fddbe8c57b502ad75a788aa049b3b8c9e3c52fd5f5370e8647c8293784e29c2",
          "blockNumber": "0x11c4426",
          "transactionHash": "0xaf824efd0c97ba028cf38ff4160a2074ee4da4c6a0b8a3701b48a41a9f7325f3",
          "transactionIndex": "0x15",
          "logIndex": "0x29",
          "removed": false
        }
      ],
      "logsBloom": "0x00000000000000000000000000000000000000000040000000000000000000080000000000000000000000000000000000000000000000000000000000000000000000000000000000000000000000000000000000000000000000000000000000000000000000000000200000000000000000000000000010000000000000000000000000000000000000000000100000000000000000000000000000000000000000000000000000004000080000000000000000000000000000000000000000180000000000000000000000000000000000000000000000000000000000000000000000000000000000000000000000000000000000000000000000000000",
      "type": "0x2",
      "transactionHash": "0xaf824efd0c97ba028cf38ff4160a2074ee4da4c6a0b8a3701b48a41a9f7325f3",
      "transactionIndex": "0x15",
      "blockHash": "0x5fddbe8c57b502ad75a788aa049b3b8c9e3c52fd5f5370e8647c8293784e29c2",
      "blockNumber": "0x11c4426",
      "gasUsed": "0x10071",
      "effectiveGasPrice": "0x957a",
      "from": "0x5AC7577C0B0F8E7f55B9144fBcB64AB4778084d5",
      "to": "0xbDbB051b19A543A390fc1A6c0c22c32C6b234DA6",
      "contractAddress": null,
      "l1BaseFeeScalar": "0x44d",
      "l1BlobBaseFee": "0x1",
      "l1BlobBaseFeeScalar": "0xa118b",
      "l1Fee": "0x536c16dd",
      "l1GasPrice": "0x2f5b1ebd",
      "l1GasUsed": "0x640"
    },
    {
      "status": "0x1",
      "cumulativeGasUsed": "0x4423d9",
      "logs": [
        {
          "address": "0xbDbB051b19A543A390fc1A6c0c22c32C6b234DA6",
          "topics": [
            "0xbe533f538959a17d76f1b09e966e741ee3b1183099682f96216c93d21feaecba"
          ],
          "data": "0xa4e2d63400000000000000000000000000000000000000000000000000000000",
          "blockHash": "0x5fddbe8c57b502ad75a788aa049b3b8c9e3c52fd5f5370e8647c8293784e29c2",
          "blockNumber": "0x11c4426",
          "transactionHash": "0x9233867cbb7d64a78f0c596b0a665a751f0fec6d012d429bc0575493652dbcbb",
          "transactionIndex": "0x16",
          "logIndex": "0x2a",
          "removed": false
        },
        {
          "address": "0xbDbB051b19A543A390fc1A6c0c22c32C6b234DA6",
          "topics": [
            "0xda3c8142b3c1d27633026f55bfcb4eeb0b5b8db0daa0a3e10c2213a441722ad1"
          ],
          "data": "0xa4e2d634000000000000000000000000000000000000000000000000000000000000000000000000000000007483362085fb67e51edc343c8045020e3375d278",
          "blockHash": "0x5fddbe8c57b502ad75a788aa049b3b8c9e3c52fd5f5370e8647c8293784e29c2",
          "blockNumber": "0x11c4426",
          "transactionHash": "0x9233867cbb7d64a78f0c596b0a665a751f0fec6d012d429bc0575493652dbcbb",
          "transactionIndex": "0x16",
          "logIndex": "0x2b",
          "removed": false
        }
      ],
      "logsBloom": "0x00000000000000000000000000000000000000000040000000000000000000080000000000000000000000000000000000000000000000000000000000000000000000000000000000000000000000000000000000000000000000000000000000000000000000000000200000000000000000000000000010000000000000000000000000000000000000000000100000000000000000000000000000000000000000000000000000004000080000000000000000000000000000000000000000180000000000000000000000000000000000000000000000000000000000000000000000000000000000000000000000000000000000000000000000000000",
      "type": "0x2",
      "transactionHash": "0x9233867cbb7d64a78f0c596b0a665a751f0fec6d012d429bc0575493652dbcbb",
      "transactionIndex": "0x16",
      "blockHash": "0x5fddbe8c57b502ad75a788aa049b3b8c9e3c52fd5f5370e8647c8293784e29c2",
      "blockNumber": "0x11c4426",
      "gasUsed": "0x102d3",
      "effectiveGasPrice": "0x957a",
      "from": "0x5AC7577C0B0F8E7f55B9144fBcB64AB4778084d5",
      "to": "0xbDbB051b19A543A390fc1A6c0c22c32C6b234DA6",
      "contractAddress": null,
      "l1BaseFeeScalar": "0x44d",
      "l1BlobBaseFee": "0x1",
      "l1BlobBaseFeeScalar": "0xa118b",
      "l1Fee": "0x536c16dd",
      "l1GasPrice": "0x2f5b1ebd",
      "l1GasUsed": "0x640"
    },
    {
      "status": "0x1",
      "cumulativeGasUsed": "0xdd95d",
      "logs": [
        {
          "address": "0xbDbB051b19A543A390fc1A6c0c22c32C6b234DA6",
          "topics": [
            "0xbe533f538959a17d76f1b09e966e741ee3b1183099682f96216c93d21feaecba"
          ],
          "data": "0x8fe8a10100000000000000000000000000000000000000000000000000000000",
          "blockHash": "0xb4e041c755dd291af22c9d21a7eb97035b3fe0d37b5f632b58430f4b278b1825",
          "blockNumber": "0x11c4427",
          "transactionHash": "0x77a617f7f57101c68662b67b1e39d127b1ff98a777e503eff34784a87f3c50a2",
          "transactionIndex": "0x8",
          "logIndex": "0x12",
          "removed": false
        },
        {
          "address": "0xbDbB051b19A543A390fc1A6c0c22c32C6b234DA6",
          "topics": [
            "0xda3c8142b3c1d27633026f55bfcb4eeb0b5b8db0daa0a3e10c2213a441722ad1"
          ],
          "data": "0x8fe8a101000000000000000000000000000000000000000000000000000000000000000000000000000000007483362085fb67e51edc343c8045020e3375d278",
          "blockHash": "0xb4e041c755dd291af22c9d21a7eb97035b3fe0d37b5f632b58430f4b278b1825",
          "blockNumber": "0x11c4427",
          "transactionHash": "0x77a617f7f57101c68662b67b1e39d127b1ff98a777e503eff34784a87f3c50a2",
          "transactionIndex": "0x8",
          "logIndex": "0x13",
          "removed": false
        }
      ],
      "logsBloom": "0x00000000000000000000000000000000000000000040000000000000000000080000000000000000000000000000000000000000000000000000000000000000000000000000000000000000000000000000000000000000000000000000000000000000000000000000200000000000000000000000000010000000000000000000000000000000000000000000100000000000000000000000000000000000000000000000000000004000080000000000000000000000000000000000000000180000000000000000000000000000000000000000000000000000000000000000000000000000000000000000000000000000000000000000000000000000",
      "type": "0x2",
      "transactionHash": "0x77a617f7f57101c68662b67b1e39d127b1ff98a777e503eff34784a87f3c50a2",
      "transactionIndex": "0x8",
      "blockHash": "0xb4e041c755dd291af22c9d21a7eb97035b3fe0d37b5f632b58430f4b278b1825",
      "blockNumber": "0x11c4427",
      "gasUsed": "0x14f9f",
      "effectiveGasPrice": "0x957a",
      "from": "0x5AC7577C0B0F8E7f55B9144fBcB64AB4778084d5",
      "to": "0xbDbB051b19A543A390fc1A6c0c22c32C6b234DA6",
      "contractAddress": null,
      "l1BaseFeeScalar": "0x44d",
      "l1BlobBaseFee": "0x1",
      "l1BlobBaseFeeScalar": "0xa118b",
      "l1Fee": "0x51e12836",
      "l1GasPrice": "0x2e7aee39",
      "l1GasUsed": "0x640"
    },
    {
      "status": "0x1",
      "cumulativeGasUsed": "0xee892",
      "logs": [
        {
          "address": "0xbDbB051b19A543A390fc1A6c0c22c32C6b234DA6",
          "topics": [
            "0xbe533f538959a17d76f1b09e966e741ee3b1183099682f96216c93d21feaecba"
          ],
          "data": "0x0455444300000000000000000000000000000000000000000000000000000000",
          "blockHash": "0xb4e041c755dd291af22c9d21a7eb97035b3fe0d37b5f632b58430f4b278b1825",
          "blockNumber": "0x11c4427",
          "transactionHash": "0x9aabe49e58be425fee8b387429e0359edb69d3d55d862886f2ac65ef6617037d",
          "transactionIndex": "0x9",
          "logIndex": "0x14",
          "removed": false
        },
        {
          "address": "0xbDbB051b19A543A390fc1A6c0c22c32C6b234DA6",
          "topics": [
            "0xda3c8142b3c1d27633026f55bfcb4eeb0b5b8db0daa0a3e10c2213a441722ad1"
          ],
          "data": "0x04554443000000000000000000000000000000000000000000000000000000000000000000000000000000007483362085fb67e51edc343c8045020e3375d278",
          "blockHash": "0xb4e041c755dd291af22c9d21a7eb97035b3fe0d37b5f632b58430f4b278b1825",
          "blockNumber": "0x11c4427",
          "transactionHash": "0x9aabe49e58be425fee8b387429e0359edb69d3d55d862886f2ac65ef6617037d",
          "transactionIndex": "0x9",
          "logIndex": "0x15",
          "removed": false
        }
      ],
      "logsBloom": "0x00000000000000000000000000000000000000000040000000000000000000080000000000000000000000000000000000000000000000000000000000000000000000000000000000000000000000000000000000000000000000000000000000000000000000000000200000000000000000000000000010000000000000000000000000000000000000000000100000000000000000000000000000000000000000000000000000004000080000000000000000000000000000000000000000180000000000000000000000000000000000000000000000000000000000000000000000000000000000000000000000000000000000000000000000000000",
      "type": "0x2",
      "transactionHash": "0x9aabe49e58be425fee8b387429e0359edb69d3d55d862886f2ac65ef6617037d",
      "transactionIndex": "0x9",
      "blockHash": "0xb4e041c755dd291af22c9d21a7eb97035b3fe0d37b5f632b58430f4b278b1825",
      "blockNumber": "0x11c4427",
      "gasUsed": "0x10f35",
      "effectiveGasPrice": "0x957a",
      "from": "0x5AC7577C0B0F8E7f55B9144fBcB64AB4778084d5",
      "to": "0xbDbB051b19A543A390fc1A6c0c22c32C6b234DA6",
      "contractAddress": null,
      "l1BaseFeeScalar": "0x44d",
      "l1BlobBaseFee": "0x1",
      "l1BlobBaseFeeScalar": "0xa118b",
      "l1Fee": "0x51e12836",
      "l1GasPrice": "0x2e7aee39",
      "l1GasUsed": "0x640"
    },
    {
      "status": "0x1",
      "cumulativeGasUsed": "0xffa29",
      "logs": [
        {
          "address": "0xbDbB051b19A543A390fc1A6c0c22c32C6b234DA6",
          "topics": [
            "0xbe533f538959a17d76f1b09e966e741ee3b1183099682f96216c93d21feaecba"
          ],
          "data": "0x62c7fa7600000000000000000000000000000000000000000000000000000000",
          "blockHash": "0xb4e041c755dd291af22c9d21a7eb97035b3fe0d37b5f632b58430f4b278b1825",
          "blockNumber": "0x11c4427",
          "transactionHash": "0x82888d55d84269fcfb758fae66b74c445d2c5bc4dcf647dd6237ae9970680a15",
          "transactionIndex": "0xa",
          "logIndex": "0x16",
          "removed": false
        },
        {
          "address": "0xbDbB051b19A543A390fc1A6c0c22c32C6b234DA6",
          "topics": [
            "0xda3c8142b3c1d27633026f55bfcb4eeb0b5b8db0daa0a3e10c2213a441722ad1"
          ],
          "data": "0x62c7fa76000000000000000000000000000000000000000000000000000000000000000000000000000000007483362085fb67e51edc343c8045020e3375d278",
          "blockHash": "0xb4e041c755dd291af22c9d21a7eb97035b3fe0d37b5f632b58430f4b278b1825",
          "blockNumber": "0x11c4427",
          "transactionHash": "0x82888d55d84269fcfb758fae66b74c445d2c5bc4dcf647dd6237ae9970680a15",
          "transactionIndex": "0xa",
          "logIndex": "0x17",
          "removed": false
        }
      ],
      "logsBloom": "0x00000000000000000000000000000000000000000040000000000000000000080000000000000000000000000000000000000000000000000000000000000000000000000000000000000000000000000000000000000000000000000000000000000000000000000000200000000000000000000000000010000000000000000000000000000000000000000000100000000000000000000000000000000000000000000000000000004000080000000000000000000000000000000000000000180000000000000000000000000000000000000000000000000000000000000000000000000000000000000000000000000000000000000000000000000000",
      "type": "0x2",
      "transactionHash": "0x82888d55d84269fcfb758fae66b74c445d2c5bc4dcf647dd6237ae9970680a15",
      "transactionIndex": "0xa",
      "blockHash": "0xb4e041c755dd291af22c9d21a7eb97035b3fe0d37b5f632b58430f4b278b1825",
      "blockNumber": "0x11c4427",
      "gasUsed": "0x11197",
      "effectiveGasPrice": "0x957a",
      "from": "0x5AC7577C0B0F8E7f55B9144fBcB64AB4778084d5",
      "to": "0xbDbB051b19A543A390fc1A6c0c22c32C6b234DA6",
      "contractAddress": null,
      "l1BaseFeeScalar": "0x44d",
      "l1BlobBaseFee": "0x1",
      "l1BlobBaseFeeScalar": "0xa118b",
      "l1Fee": "0x51e12836",
      "l1GasPrice": "0x2e7aee39",
      "l1GasUsed": "0x640"
    },
    {
      "status": "0x1",
      "cumulativeGasUsed": "0x110e22",
      "logs": [
        {
          "address": "0xbDbB051b19A543A390fc1A6c0c22c32C6b234DA6",
          "topics": [
            "0xbe533f538959a17d76f1b09e966e741ee3b1183099682f96216c93d21feaecba"
          ],
          "data": "0xaffed0e000000000000000000000000000000000000000000000000000000000",
          "blockHash": "0xb4e041c755dd291af22c9d21a7eb97035b3fe0d37b5f632b58430f4b278b1825",
          "blockNumber": "0x11c4427",
          "transactionHash": "0x1fd35a2d4dfcff9394cbf27c88e5e4cec6e3cfc7f5ff7dc244e440b5ef58043c",
          "transactionIndex": "0xb",
          "logIndex": "0x18",
          "removed": false
        },
        {
          "address": "0xbDbB051b19A543A390fc1A6c0c22c32C6b234DA6",
          "topics": [
            "0xda3c8142b3c1d27633026f55bfcb4eeb0b5b8db0daa0a3e10c2213a441722ad1"
          ],
          "data": "0xaffed0e0000000000000000000000000000000000000000000000000000000000000000000000000000000007483362085fb67e51edc343c8045020e3375d278",
          "blockHash": "0xb4e041c755dd291af22c9d21a7eb97035b3fe0d37b5f632b58430f4b278b1825",
          "blockNumber": "0x11c4427",
          "transactionHash": "0x1fd35a2d4dfcff9394cbf27c88e5e4cec6e3cfc7f5ff7dc244e440b5ef58043c",
          "transactionIndex": "0xb",
          "logIndex": "0x19",
          "removed": false
        }
      ],
      "logsBloom": "0x00000000000000000000000000000000000000000040000000000000000000080000000000000000000000000000000000000000000000000000000000000000000000000000000000000000000000000000000000000000000000000000000000000000000000000000200000000000000000000000000010000000000000000000000000000000000000000000100000000000000000000000000000000000000000000000000000004000080000000000000000000000000000000000000000180000000000000000000000000000000000000000000000000000000000000000000000000000000000000000000000000000000000000000000000000000",
      "type": "0x2",
      "transactionHash": "0x1fd35a2d4dfcff9394cbf27c88e5e4cec6e3cfc7f5ff7dc244e440b5ef58043c",
      "transactionIndex": "0xb",
      "blockHash": "0xb4e041c755dd291af22c9d21a7eb97035b3fe0d37b5f632b58430f4b278b1825",
      "blockNumber": "0x11c4427",
      "gasUsed": "0x113f9",
      "effectiveGasPrice": "0x957a",
      "from": "0x5AC7577C0B0F8E7f55B9144fBcB64AB4778084d5",
      "to": "0xbDbB051b19A543A390fc1A6c0c22c32C6b234DA6",
      "contractAddress": null,
      "l1BaseFeeScalar": "0x44d",
      "l1BlobBaseFee": "0x1",
      "l1BlobBaseFeeScalar": "0xa118b",
      "l1Fee": "0x51e12836",
      "l1GasPrice": "0x2e7aee39",
      "l1GasUsed": "0x640"
    },
    {
      "status": "0x1",
      "cumulativeGasUsed": "0x12247d",
      "logs": [
        {
          "address": "0xbDbB051b19A543A390fc1A6c0c22c32C6b234DA6",
          "topics": [
            "0xbe533f538959a17d76f1b09e966e741ee3b1183099682f96216c93d21feaecba"
          ],
          "data": "0x96c705e500000000000000000000000000000000000000000000000000000000",
          "blockHash": "0xb4e041c755dd291af22c9d21a7eb97035b3fe0d37b5f632b58430f4b278b1825",
          "blockNumber": "0x11c4427",
          "transactionHash": "0xfdb79894a524d8951773993bb1b43fe3565b54c926c5acc575527f9b273be2c5",
          "transactionIndex": "0xc",
          "logIndex": "0x1a",
          "removed": false
        },
        {
          "address": "0xbDbB051b19A543A390fc1A6c0c22c32C6b234DA6",
          "topics": [
            "0xda3c8142b3c1d27633026f55bfcb4eeb0b5b8db0daa0a3e10c2213a441722ad1"
          ],
          "data": "0x96c705e5000000000000000000000000000000000000000000000000000000000000000000000000000000007483362085fb67e51edc343c8045020e3375d278",
          "blockHash": "0xb4e041c755dd291af22c9d21a7eb97035b3fe0d37b5f632b58430f4b278b1825",
          "blockNumber": "0x11c4427",
          "transactionHash": "0xfdb79894a524d8951773993bb1b43fe3565b54c926c5acc575527f9b273be2c5",
          "transactionIndex": "0xc",
          "logIndex": "0x1b",
          "removed": false
        }
      ],
      "logsBloom": "0x00000000000000000000000000000000000000000040000000000000000000080000000000000000000000000000000000000000000000000000000000000000000000000000000000000000000000000000000000000000000000000000000000000000000000000000200000000000000000000000000010000000000000000000000000000000000000000000100000000000000000000000000000000000000000000000000000004000080000000000000000000000000000000000000000180000000000000000000000000000000000000000000000000000000000000000000000000000000000000000000000000000000000000000000000000000",
      "type": "0x2",
      "transactionHash": "0xfdb79894a524d8951773993bb1b43fe3565b54c926c5acc575527f9b273be2c5",
      "transactionIndex": "0xc",
      "blockHash": "0xb4e041c755dd291af22c9d21a7eb97035b3fe0d37b5f632b58430f4b278b1825",
      "blockNumber": "0x11c4427",
      "gasUsed": "0x1165b",
      "effectiveGasPrice": "0x957a",
      "from": "0x5AC7577C0B0F8E7f55B9144fBcB64AB4778084d5",
      "to": "0xbDbB051b19A543A390fc1A6c0c22c32C6b234DA6",
      "contractAddress": null,
      "l1BaseFeeScalar": "0x44d",
      "l1BlobBaseFee": "0x1",
      "l1BlobBaseFeeScalar": "0xa118b",
      "l1Fee": "0x51e12836",
      "l1GasPrice": "0x2e7aee39",
      "l1GasUsed": "0x640"
    },
    {
      "status": "0x1",
      "cumulativeGasUsed": "0x133d3a",
      "logs": [
        {
          "address": "0xbDbB051b19A543A390fc1A6c0c22c32C6b234DA6",
          "topics": [
            "0xbe533f538959a17d76f1b09e966e741ee3b1183099682f96216c93d21feaecba"
          ],
          "data": "0xc30a0f2500000000000000000000000000000000000000000000000000000000",
          "blockHash": "0xb4e041c755dd291af22c9d21a7eb97035b3fe0d37b5f632b58430f4b278b1825",
          "blockNumber": "0x11c4427",
          "transactionHash": "0x9d54cf5c3c0cf80318b347472f4ebf2b8e2319f3304f7f083d98d78d466ccffb",
          "transactionIndex": "0xd",
          "logIndex": "0x1c",
          "removed": false
        },
        {
          "address": "0xbDbB051b19A543A390fc1A6c0c22c32C6b234DA6",
          "topics": [
            "0xda3c8142b3c1d27633026f55bfcb4eeb0b5b8db0daa0a3e10c2213a441722ad1"
          ],
          "data": "0xc30a0f25000000000000000000000000000000000000000000000000000000000000000000000000000000007483362085fb67e51edc343c8045020e3375d278",
          "blockHash": "0xb4e041c755dd291af22c9d21a7eb97035b3fe0d37b5f632b58430f4b278b1825",
          "blockNumber": "0x11c4427",
          "transactionHash": "0x9d54cf5c3c0cf80318b347472f4ebf2b8e2319f3304f7f083d98d78d466ccffb",
          "transactionIndex": "0xd",
          "logIndex": "0x1d",
          "removed": false
        }
      ],
      "logsBloom": "0x00000000000000000000000000000000000000000040000000000000000000080000000000000000000000000000000000000000000000000000000000000000000000000000000000000000000000000000000000000000000000000000000000000000000000000000200000000000000000000000000010000000000000000000000000000000000000000000100000000000000000000000000000000000000000000000000000004000080000000000000000000000000000000000000000180000000000000000000000000000000000000000000000000000000000000000000000000000000000000000000000000000000000000000000000000000",
      "type": "0x2",
      "transactionHash": "0x9d54cf5c3c0cf80318b347472f4ebf2b8e2319f3304f7f083d98d78d466ccffb",
      "transactionIndex": "0xd",
      "blockHash": "0xb4e041c755dd291af22c9d21a7eb97035b3fe0d37b5f632b58430f4b278b1825",
      "blockNumber": "0x11c4427",
      "gasUsed": "0x118bd",
      "effectiveGasPrice": "0x957a",
      "from": "0x5AC7577C0B0F8E7f55B9144fBcB64AB4778084d5",
      "to": "0xbDbB051b19A543A390fc1A6c0c22c32C6b234DA6",
      "contractAddress": null,
      "l1BaseFeeScalar": "0x44d",
      "l1BlobBaseFee": "0x1",
      "l1BlobBaseFeeScalar": "0xa118b",
      "l1Fee": "0x51e12836",
      "l1GasPrice": "0x2e7aee39",
      "l1GasUsed": "0x640"
    },
    {
      "status": "0x1",
      "cumulativeGasUsed": "0x13f5ab",
      "logs": [
        {
          "address": "0xbDbB051b19A543A390fc1A6c0c22c32C6b234DA6",
          "topics": [
            "0x159f10d3da077d18f228d52be447d552e7d1892d10f7af8f615658160e374729"
          ],
          "data": "0x0000000000000000000000008693d7164347be2915f04c67d0c845e084b1ea04",
          "blockHash": "0xb4e041c755dd291af22c9d21a7eb97035b3fe0d37b5f632b58430f4b278b1825",
          "blockNumber": "0x11c4427",
          "transactionHash": "0x89903d635f9d9125ce954ec31527dc855fb27cfea1bd9aaa77a4c92ef17ef068",
          "transactionIndex": "0xe",
          "logIndex": "0x1e",
          "removed": false
        }
      ],
      "logsBloom": "0x00000000000000080000000000000000000000000040000000000000000000000000000000000000000000000200000000000000000000000000000000000000000000000000000000000000000000000000000000000000000000000000000000000000000000000000000000000000000000000000000000000000000000000000000000000000000000000000000000000000000000000000000000000000000000000000000000000000000000000000000000000000000000000000000000180000000000000000000000000000000000000000000000000000000000000000000000000000000000000010000000000000000000000000000000000000",
      "type": "0x2",
      "transactionHash": "0x89903d635f9d9125ce954ec31527dc855fb27cfea1bd9aaa77a4c92ef17ef068",
      "transactionIndex": "0xe",
      "blockHash": "0xb4e041c755dd291af22c9d21a7eb97035b3fe0d37b5f632b58430f4b278b1825",
      "blockNumber": "0x11c4427",
      "gasUsed": "0xb871",
      "effectiveGasPrice": "0x957a",
      "from": "0x5AC7577C0B0F8E7f55B9144fBcB64AB4778084d5",
      "to": "0xbDbB051b19A543A390fc1A6c0c22c32C6b234DA6",
      "contractAddress": null,
      "l1BaseFeeScalar": "0x44d",
      "l1BlobBaseFee": "0x1",
      "l1BlobBaseFeeScalar": "0xa118b",
      "l1Fee": "0x51e12836",
      "l1GasPrice": "0x2e7aee39",
      "l1GasUsed": "0x640"
    }
  ],
  "libraries": [],
  "pending": [],
  "returns": {},
  "timestamp": 1733027761,
  "chain": 84532,
  "commit": "9056112"
}