{
  "transactions": [
    {
      "hash": "0x69be44dc0c6fd7b7d2d86510a62ebdb2c79c38e043307216c2ed1f0d85335ee9",
      "transactionType": "CALL",
      "contractName": null,
      "contractAddress": "0x6F0e2F871Eda2A29008ec10E99F023FBCc9D56e1",
      "function": "setDictionaryAddress(address)",
      "arguments": [
        "0xADE1CC9103b02940C577750fB5F36344B3DC5e8C"
      ],
      "transaction": {
        "from": "0x5AC7577C0B0F8E7f55B9144fBcB64AB4778084d5",
        "to": "0x6F0e2F871Eda2A29008ec10E99F023FBCc9D56e1",
        "gas": "0xf883",
        "value": "0x0",
        "input": "0x99f4f874000000000000000000000000ade1cc9103b02940c577750fb5f36344b3dc5e8c",
        "nonce": "0x216",
        "chainId": "0x14a34"
      },
      "additionalContracts": [],
      "isFixedGasLimit": false
    }
  ],
  "receipts": [
    {
      "status": "0x1",
      "cumulativeGasUsed": "0x1e39a39",
      "logs": [],
      "logsBloom": "0x00000000000000000000000000000000000000000000000000000000000000000000000000000000000000000000000000000000000000000000000000000000000000000000000000000000000000000000000000000000000000000000000000000000000000000000000000000000000000000000000000000000000000000000000000000000000000000000000000000000000000000000000000000000000000000000000000000000000000000000000000000000000000000000000000000000000000000000000000000000000000000000000000000000000000000000000000000000000000000000000000000000000000000000000000000000",
      "type": "0x2",
      "transactionHash": "0x69be44dc0c6fd7b7d2d86510a62ebdb2c79c38e043307216c2ed1f0d85335ee9",
      "transactionIndex": "0xf",
      "blockHash": "0xef65b0809c573bf603850823e2595db03ae3f507b1e0f843b0084dbcd61ca929",
      "blockNumber": "0x11dd200",
      "gasUsed": "0xb3ec",
      "effectiveGasPrice": "0x188ba",
      "from": "0x5AC7577C0B0F8E7f55B9144fBcB64AB4778084d5",
      "to": "0x6F0e2F871Eda2A29008ec10E99F023FBCc9D56e1",
      "contractAddress": null,
      "l1BaseFeeScalar": "0x44d",
      "l1BlobBaseFee": "0x1",
      "l1BlobBaseFeeScalar": "0xa118b",
      "l1Fee": "0x6dcc4d1ad",
      "l1GasPrice": "0x3e541ebd6",
      "l1GasUsed": "0x640"
    }
  ],
  "libraries": [],
  "pending": [],
  "returns": {},
  "timestamp": 1733231335,
  "chain": 84532,
  "commit": "42b8c5d"
}