{
  "transactions": [
    {
      "hash": "0xaf84fdc9aeacc075bd8b8b6d2557d58863a8638fdbb5144d16f2ca1bf3fe704b",
      "transactionType": "CALL",
      "contractName": null,
      "contractAddress": "0xb34fc70eF5A20CBf08c6295E31590468DFa9DCC6",
      "function": "setDictionaryAddress(address)",
      "arguments": [
        "0xEBA1d729D8f81D4Ab78B4E0881a84Cc0a4b97D42"
      ],
      "transaction": {
        "from": "0x5AC7577C0B0F8E7f55B9144fBcB64AB4778084d5",
        "to": "0xb34fc70eF5A20CBf08c6295E31590468DFa9DCC6",
        "gas": "0x10742",
        "value": "0x0",
        "input": "0x99f4f874000000000000000000000000eba1d729d8f81d4ab78b4e0881a84cc0a4b97d42",
        "nonce": "0x256",
        "chainId": "0x14a34"
      },
      "additionalContracts": [],
      "isFixedGasLimit": false
    }
  ],
  "receipts": [
    {
      "status": "0x1",
      "cumulativeGasUsed": "0x46a406",
      "logs": [],
      "logsBloom": "0x00000000000000000000000000000000000000000000000000000000000000000000000000000000000000000000000000000000000000000000000000000000000000000000000000000000000000000000000000000000000000000000000000000000000000000000000000000000000000000000000000000000000000000000000000000000000000000000000000000000000000000000000000000000000000000000000000000000000000000000000000000000000000000000000000000000000000000000000000000000000000000000000000000000000000000000000000000000000000000000000000000000000000000000000000000000",
      "type": "0x2",
      "transactionHash": "0xaf84fdc9aeacc075bd8b8b6d2557d58863a8638fdbb5144d16f2ca1bf3fe704b",
      "transactionIndex": "0x12",
      "blockHash": "0xf150b917014a50dde62c2cc12c9f5fe5ffe9712ab5fa97b46074242e12e8cf0e",
      "blockNumber": "0x11e91da",
      "gasUsed": "0xb402",
      "effectiveGasPrice": "0x384",
      "from": "0x5AC7577C0B0F8E7f55B9144fBcB64AB4778084d5",
      "to": "0xb34fc70eF5A20CBf08c6295E31590468DFa9DCC6",
      "contractAddress": null,
      "l1BaseFeeScalar": "0x44d",
      "l1BlobBaseFee": "0x1",
      "l1BlobBaseFeeScalar": "0xa118b",
      "l1Fee": "0x1b2decac2",
      "l1GasPrice": "0xf6dc6842",
      "l1GasUsed": "0x640"
    }
  ],
  "libraries": [],
  "pending": [],
  "returns": {},
  "timestamp": 1733329563,
  "chain": 84532,
  "commit": "e7229b0"
}