{
  "transactions": [
    {
      "hash": "0x75c129dd05210ba36317a974d1dfb8c76d99162eb751f76075da090460d827d2",
      "transactionType": "CALL",
      "contractName": null,
      "contractAddress": "0x14363BC49B071C6c294FDF9dc96fc882c22b68C8",
      "function": "setDictionaryAddress(address)",
      "arguments": [
        "0x566c4bb33D7b8b7B8D89c60DF9D0770348ce49dF"
      ],
      "transaction": {
        "from": "0x5AC7577C0B0F8E7f55B9144fBcB64AB4778084d5",
        "to": "0x14363BC49B071C6c294FDF9dc96fc882c22b68C8",
        "gas": "0xf883",
        "value": "0x0",
        "input": "0x99f4f874000000000000000000000000566c4bb33d7b8b7b8d89c60df9d0770348ce49df",
        "nonce": "0x1f6",
        "chainId": "0x14a34"
      },
      "additionalContracts": [],
      "isFixedGasLimit": false
    }
  ],
  "receipts": [
    {
      "status": "0x1",
      "cumulativeGasUsed": "0x1f93fc",
      "logs": [],
      "logsBloom": "0x00000000000000000000000000000000000000000000000000000000000000000000000000000000000000000000000000000000000000000000000000000000000000000000000000000000000000000000000000000000000000000000000000000000000000000000000000000000000000000000000000000000000000000000000000000000000000000000000000000000000000000000000000000000000000000000000000000000000000000000000000000000000000000000000000000000000000000000000000000000000000000000000000000000000000000000000000000000000000000000000000000000000000000000000000000000",
      "type": "0x2",
      "transactionHash": "0x75c129dd05210ba36317a974d1dfb8c76d99162eb751f76075da090460d827d2",
      "transactionIndex": "0xc",
      "blockHash": "0xe4760fbdadf7958f16bfe199b7b35a0d3ea6a3b1499ccc004db9055c086c3f9f",
      "blockNumber": "0x11d9773",
      "gasUsed": "0xb3ec",
      "effectiveGasPrice": "0x8ff",
      "from": "0x5AC7577C0B0F8E7f55B9144fBcB64AB4778084d5",
      "to": "0x14363BC49B071C6c294FDF9dc96fc882c22b68C8",
      "contractAddress": null,
      "l1BaseFeeScalar": "0x44d",
      "l1BlobBaseFee": "0x1",
      "l1BlobBaseFeeScalar": "0xa118b",
      "l1Fee": "0x9b4ef26d",
      "l1GasPrice": "0x5829cacf",
      "l1GasUsed": "0x640"
    }
  ],
  "libraries": [],
  "pending": [],
  "returns": {},
  "timestamp": 1733201356,
  "chain": 84532,
  "commit": "f1d1fca"
}