{
  "transactions": [
    {
      "hash": "0x1dba944ec41156d6a213c49ed229feef5009a52e253c4400dd622cc265487df4",
      "transactionType": "CALL",
      "contractName": null,
      "contractAddress": "0x6804D50884074930A3473Dd3067DeDD6bB1C8Abb",
      "function": "setDictionaryAddress(address)",
      "arguments": [
        "0x29C184757CF64D554607a850D8cc3cB1032C92f6"
      ],
      "transaction": {
        "from": "0x5AC7577C0B0F8E7f55B9144fBcB64AB4778084d5",
        "to": "0x6804D50884074930A3473Dd3067DeDD6bB1C8Abb",
        "gas": "0x10742",
        "value": "0x0",
        "input": "0x99f4f87400000000000000000000000029c184757cf64d554607a850d8cc3cb1032c92f6",
        "nonce": "0x19c",
        "chainId": "0x14a34"
      },
      "additionalContracts": [],
      "isFixedGasLimit": false
    }
  ],
  "receipts": [
    {
      "status": "0x1",
      "cumulativeGasUsed": "0x14c05e",
      "logs": [],
      "logsBloom": "0x00000000000000000000000000000000000000000000000000000000000000000000000000000000000000000000000000000000000000000000000000000000000000000000000000000000000000000000000000000000000000000000000000000000000000000000000000000000000000000000000000000000000000000000000000000000000000000000000000000000000000000000000000000000000000000000000000000000000000000000000000000000000000000000000000000000000000000000000000000000000000000000000000000000000000000000000000000000000000000000000000000000000000000000000000000000",
      "type": "0x2",
      "transactionHash": "0x1dba944ec41156d6a213c49ed229feef5009a52e253c4400dd622cc265487df4",
      "transactionIndex": "0xb",
      "blockHash": "0x1ebb63785e7e25715fb116f9c43d62b6fb14aefb9ec2123496415b44dc16c6ab",
      "blockNumber": "0x11d3a7e",
      "gasUsed": "0xb402",
      "effectiveGasPrice": "0xc578",
      "from": "0x5AC7577C0B0F8E7f55B9144fBcB64AB4778084d5",
      "to": "0x6804D50884074930A3473Dd3067DeDD6bB1C8Abb",
      "contractAddress": null,
      "l1BaseFeeScalar": "0x44d",
      "l1BlobBaseFee": "0x1",
      "l1BlobBaseFeeScalar": "0xa118b",
      "l1Fee": "0x41cb6bb07",
      "l1GasPrice": "0x25596ee18",
      "l1GasUsed": "0x640"
    }
  ],
  "libraries": [],
  "pending": [],
  "returns": {},
  "timestamp": 1733153763,
  "chain": 84532,
  "commit": "4da39a6"
}