{
  "transactions": [
    {
      "hash": "0x4b6ddcee01ab783f7a1d209fc37ed8ae666daa79ffe9a2a155fec59e3e3f392e",
      "transactionType": "CALL",
      "contractName": null,
      "contractAddress": "0x97A225fD609262C00311A20410838c79F18c2592",
      "function": "setDictionaryAddress(address)",
      "arguments": [
        "0x35f5f8E6e874e042103d21CF51AF0a62749e0Db9"
      ],
      "transaction": {
        "from": "0x5AC7577C0B0F8E7f55B9144fBcB64AB4778084d5",
        "to": "0x97A225fD609262C00311A20410838c79F18c2592",
        "gas": "0x10742",
        "value": "0x0",
        "input": "0x99f4f87400000000000000000000000035f5f8e6e874e042103d21cf51af0a62749e0db9",
        "nonce": "0x309",
        "chainId": "0x14a34"
      },
      "additionalContracts": [],
      "isFixedGasLimit": false
    }
  ],
  "receipts": [
    {
      "status": "0x1",
      "cumulativeGasUsed": "0x12593d",
      "logs": [],
      "logsBloom": "0x00000000000000000000000000000000000000000000000000000000000000000000000000000000000000000000000000000000000000000000000000000000000000000000000000000000000000000000000000000000000000000000000000000000000000000000000000000000000000000000000000000000000000000000000000000000000000000000000000000000000000000000000000000000000000000000000000000000000000000000000000000000000000000000000000000000000000000000000000000000000000000000000000000000000000000000000000000000000000000000000000000000000000000000000000000000",
      "type": "0x2",
      "transactionHash": "0x4b6ddcee01ab783f7a1d209fc37ed8ae666daa79ffe9a2a155fec59e3e3f392e",
      "transactionIndex": "0xb",
      "blockHash": "0x6de2baf84f71437e78722d8470cb82c8ac7d0aafb2e8f1dfa888d6ff72661923",
      "blockNumber": "0x12199fd",
      "gasUsed": "0xb402",
      "effectiveGasPrice": "0x377",
      "from": "0x5AC7577C0B0F8E7f55B9144fBcB64AB4778084d5",
      "to": "0x97A225fD609262C00311A20410838c79F18c2592",
      "contractAddress": null,
      "l1BaseFeeScalar": "0x44d",
      "l1BlobBaseFee": "0x11",
      "l1BlobBaseFeeScalar": "0xa118b",
      "l1Fee": "0x373428b08",
      "l1GasPrice": "0x1f5657950",
      "l1GasUsed": "0x640"
    }
  ],
  "libraries": [],
  "pending": [],
  "returns": {},
  "timestamp": 1733726945,
  "chain": 84532,
  "commit": "c56b67e"
}