{
  "transactions": [
    {
      "hash": "0x14cfcd386bc3ccd8cd428cff4593d88812c45974ba4680a72720a919d43d80ef",
      "transactionType": "CALL",
      "contractName": null,
      "contractAddress": "0x64CcA879B8a4aA616FA50538177c46D4426D71Fc",
      "function": "setDictionaryAddress(address)",
      "arguments": [
        "0x547049C049C7E5BD6E3A15d91Cc2cfa0A22E0132"
      ],
      "transaction": {
        "from": "0x5AC7577C0B0F8E7f55B9144fBcB64AB4778084d5",
        "to": "0x64CcA879B8a4aA616FA50538177c46D4426D71Fc",
        "gas": "0x10742",
        "value": "0x0",
        "input": "0x99f4f874000000000000000000000000547049c049c7e5bd6e3a15d91cc2cfa0a22e0132",
        "nonce": "0x232",
        "chainId": "0x14a34"
      },
      "additionalContracts": [],
      "isFixedGasLimit": false
    }
  ],
  "receipts": [
    {
      "status": "0x1",
      "cumulativeGasUsed": "0x5935d6",
      "logs": [],
      "logsBloom": "0x00000000000000000000000000000000000000000000000000000000000000000000000000000000000000000000000000000000000000000000000000000000000000000000000000000000000000000000000000000000000000000000000000000000000000000000000000000000000000000000000000000000000000000000000000000000000000000000000000000000000000000000000000000000000000000000000000000000000000000000000000000000000000000000000000000000000000000000000000000000000000000000000000000000000000000000000000000000000000000000000000000000000000000000000000000000",
      "type": "0x2",
      "transactionHash": "0x14cfcd386bc3ccd8cd428cff4593d88812c45974ba4680a72720a919d43d80ef",
      "transactionIndex": "0xa",
      "blockHash": "0x8914b2c1dbb9a24daa7ad04346876d61e28b325a9da3ebca1c5e70c58bf9d901",
      "blockNumber": "0x11ded31",
      "gasUsed": "0xb402",
      "effectiveGasPrice": "0x3d8",
      "from": "0x5AC7577C0B0F8E7f55B9144fBcB64AB4778084d5",
      "to": "0x64CcA879B8a4aA616FA50538177c46D4426D71Fc",
      "contractAddress": null,
      "l1BaseFeeScalar": "0x44d",
      "l1BlobBaseFee": "0x1",
      "l1BlobBaseFeeScalar": "0xa118b",
      "l1Fee": "0xa319d892",
      "l1GasPrice": "0x5c963a63",
      "l1GasUsed": "0x640"
    }
  ],
  "libraries": [],
  "pending": [],
  "returns": {},
  "timestamp": 1733245255,
  "chain": 84532,
  "commit": "11bb39d"
}