{
  "transactions": [
    {
      "hash": "0x0fc918e85d5af9b85c80b2c274819f283b392bf7b3c1faaeaef6c6c63904e156",
      "transactionType": "CALL",
      "contractName": null,
      "contractAddress": "0xd235E7025cE3F9d1edDcABB1Fcc82f9C702d7CeE",
      "function": "setDictionaryAddress(address)",
      "arguments": [
        "0xeBb95EC3B1A867134ECED9102ddF58347f07cBEF"
      ],
      "transaction": {
        "from": "0x5AC7577C0B0F8E7f55B9144fBcB64AB4778084d5",
        "to": "0xd235E7025cE3F9d1edDcABB1Fcc82f9C702d7CeE",
        "gas": "0xf883",
        "value": "0x0",
        "input": "0x99f4f874000000000000000000000000ebb95ec3b1a867134eced9102ddf58347f07cbef",
        "nonce": "0x1b8",
        "chainId": "0x14a34"
      },
      "additionalContracts": [],
      "isFixedGasLimit": false
    }
  ],
  "receipts": [
    {
      "status": "0x1",
      "cumulativeGasUsed": "0x2fff5c",
      "logs": [],
      "logsBloom": "0x00000000000000000000000000000000000000000000000000000000000000000000000000000000000000000000000000000000000000000000000000000000000000000000000000000000000000000000000000000000000000000000000000000000000000000000000000000000000000000000000000000000000000000000000000000000000000000000000000000000000000000000000000000000000000000000000000000000000000000000000000000000000000000000000000000000000000000000000000000000000000000000000000000000000000000000000000000000000000000000000000000000000000000000000000000000",
      "type": "0x2",
      "transactionHash": "0x0fc918e85d5af9b85c80b2c274819f283b392bf7b3c1faaeaef6c6c63904e156",
      "transactionIndex": "0x8",
      "blockHash": "0x312f4c9d1309c9a64c1aacd456737cd2f3a3584f23698213cc02573d36491738",
      "blockNumber": "0x11d8a08",
      "gasUsed": "0xb3ec",
      "effectiveGasPrice": "0x618",
      "from": "0x5AC7577C0B0F8E7f55B9144fBcB64AB4778084d5",
      "to": "0xd235E7025cE3F9d1edDcABB1Fcc82f9C702d7CeE",
      "contractAddress": null,
      "l1BaseFeeScalar": "0x44d",
      "l1BlobBaseFee": "0x3",
      "l1BlobBaseFeeScalar": "0xa118b",
      "l1Fee": "0x6dce9a3c0",
      "l1GasPrice": "0x3e556d267",
      "l1GasUsed": "0x640"
    }
  ],
  "libraries": [],
  "pending": [],
  "returns": {},
  "timestamp": 1733194486,
  "chain": 84532,
  "commit": "9180081"
}