{
  "transactions": [
    {
      "hash": "0x60baa6a71d0b53c1ff1d5bddd1579a6376da141f00ef3c91437e3873206fee38",
      "transactionType": "CALL",
      "contractName": null,
      "contractAddress": "0x334BB5E7edb48f12a67D351112Bee2D9902a9C46",
      "function": "setDictionaryAddress(address)",
      "arguments": [
        "0xF93326Ce58B6c2A8E2D898c8AA8127750eAFc3a1"
      ],
      "transaction": {
        "from": "0x5AC7577C0B0F8E7f55B9144fBcB64AB4778084d5",
        "to": "0x334BB5E7edb48f12a67D351112Bee2D9902a9C46",
        "gas": "0xf883",
        "value": "0x0",
        "input": "0x99f4f874000000000000000000000000f93326ce58b6c2a8e2d898c8aa8127750eafc3a1",
        "nonce": "0x1d5",
        "chainId": "0x14a34"
      },
      "additionalContracts": [],
      "isFixedGasLimit": false
    }
  ],
  "receipts": [
    {
      "status": "0x1",
      "cumulativeGasUsed": "0x2f586f",
      "logs": [],
      "logsBloom": "0x00000000000000000000000000000000000000000000000000000000000000000000000000000000000000000000000000000000000000000000000000000000000000000000000000000000000000000000000000000000000000000000000000000000000000000000000000000000000000000000000000000000000000000000000000000000000000000000000000000000000000000000000000000000000000000000000000000000000000000000000000000000000000000000000000000000000000000000000000000000000000000000000000000000000000000000000000000000000000000000000000000000000000000000000000000000",
      "type": "0x2",
      "transactionHash": "0x60baa6a71d0b53c1ff1d5bddd1579a6376da141f00ef3c91437e3873206fee38",
      "transactionIndex": "0xb",
      "blockHash": "0x7ccf375615a9fc799959cc70b332d16e1e623997998caa4ca262cb41462f3582",
      "blockNumber": "0x11d9197",
      "gasUsed": "0xb3ec",
      "effectiveGasPrice": "0xb07",
      "from": "0x5AC7577C0B0F8E7f55B9144fBcB64AB4778084d5",
      "to": "0x334BB5E7edb48f12a67D351112Bee2D9902a9C46",
      "contractAddress": null,
      "l1BaseFeeScalar": "0x44d",
      "l1BlobBaseFee": "0x1",
      "l1BlobBaseFeeScalar": "0xa118b",
      "l1Fee": "0xa9b1d238",
      "l1GasPrice": "0x60546f0d",
      "l1GasUsed": "0x640"
    }
  ],
  "libraries": [],
  "pending": [],
  "returns": {},
  "timestamp": 1733198356,
  "chain": 84532,
  "commit": "9180081"
}