{
  "transactions": [
    {
      "hash": "0x1f0547266c856b31722aaf25f0319a9d6184017b2a2b939d1b3f810d08603d4c",
      "transactionType": "CALL",
      "contractName": null,
      "contractAddress": "0x3044Df2E444F136D3d970c2278eBf505731D992d",
      "function": "setDictionaryAddress(address)",
      "arguments": [
        "0xCCc8b365126200d924dFeDAE53d11EF074Afb15F"
      ],
      "transaction": {
        "from": "0x5AC7577C0B0F8E7f55B9144fBcB64AB4778084d5",
        "to": "0x3044Df2E444F136D3d970c2278eBf505731D992d",
        "gas": "0xf891",
        "value": "0x0",
        "input": "0x99f4f874000000000000000000000000ccc8b365126200d924dfedae53d11ef074afb15f",
        "nonce": "0x2ce",
        "chainId": "0x14a34"
      },
      "additionalContracts": [],
      "isFixedGasLimit": false
    }
  ],
  "receipts": [
    {
      "status": "0x1",
      "cumulativeGasUsed": "0xac30f",
      "logs": [],
      "logsBloom": "0x00000000000000000000000000000000000000000000000000000000000000000000000000000000000000000000000000000000000000000000000000000000000000000000000000000000000000000000000000000000000000000000000000000000000000000000000000000000000000000000000000000000000000000000000000000000000000000000000000000000000000000000000000000000000000000000000000000000000000000000000000000000000000000000000000000000000000000000000000000000000000000000000000000000000000000000000000000000000000000000000000000000000000000000000000000000",
      "type": "0x2",
      "transactionHash": "0x1f0547266c856b31722aaf25f0319a9d6184017b2a2b939d1b3f810d08603d4c",
      "transactionIndex": "0x6",
      "blockHash": "0xa92cff17840b8270244faf626b4a24ab1775f6c099fae7b7a3729c0d306d3779",
      "blockNumber": "0x120399a",
      "gasUsed": "0xb3f6",
      "effectiveGasPrice": "0x35e",
      "from": "0x5AC7577C0B0F8E7f55B9144fBcB64AB4778084d5",
      "to": "0x3044Df2E444F136D3d970c2278eBf505731D992d",
      "contractAddress": null,
      "l1BaseFeeScalar": "0x44d",
      "l1BlobBaseFee": "0x1",
      "l1BlobBaseFeeScalar": "0xa118b",
      "l1Fee": "0x255bbf52",
      "l1GasPrice": "0x153502e6",
      "l1GasUsed": "0x640"
    }
  ],
  "libraries": [],
  "pending": [],
  "returns": {},
  "timestamp": 1733546516,
  "chain": 84532,
  "commit": "a12d493"
}