{
  "transactions": [
    {
      "hash": "0x052d26f21e5048e3c8905f124dd61e0dbeba488328aa87d8961920487bb30748",
      "transactionType": "CALL",
      "contractName": null,
      "contractAddress": "0xA39Ce8B49bC288D2706E1Fe0b3F6C46AC016c9c7",
      "function": "setDictionaryAddress(address)",
      "arguments": [
        "0xbDbB051b19A543A390fc1A6c0c22c32C6b234DA6"
      ],
      "transaction": {
        "from": "0x5AC7577C0B0F8E7f55B9144fBcB64AB4778084d5",
        "to": "0xA39Ce8B49bC288D2706E1Fe0b3F6C46AC016c9c7",
        "gas": "0xf83b",
        "value": "0x0",
        "input": "0x99f4f874000000000000000000000000bdbb051b19a543a390fc1a6c0c22c32c6b234da6",
        "nonce": "0x104",
        "chainId": "0x14a34"
      },
      "additionalContracts": [],
      "isFixedGasLimit": false
    }
  ],
  "receipts": [
    {
      "status": "0x1",
      "cumulativeGasUsed": "0xac6f4",
      "logs": [],
      "logsBloom": "0x00000000000000000000000000000000000000000000000000000000000000000000000000000000000000000000000000000000000000000000000000000000000000000000000000000000000000000000000000000000000000000000000000000000000000000000000000000000000000000000000000000000000000000000000000000000000000000000000000000000000000000000000000000000000000000000000000000000000000000000000000000000000000000000000000000000000000000000000000000000000000000000000000000000000000000000000000000000000000000000000000000000000000000000000000000000",
      "type": "0x2",
      "transactionHash": "0x052d26f21e5048e3c8905f124dd61e0dbeba488328aa87d8961920487bb30748",
      "transactionIndex": "0x3",
      "blockHash": "0x1868cce864e147f5e1aeec29c4e6fd8a718958f190704e26b7bac82466c37ce8",
      "blockNumber": "0x11c4471",
      "gasUsed": "0xb3b8",
      "effectiveGasPrice": "0x187a8",
      "from": "0x5AC7577C0B0F8E7f55B9144fBcB64AB4778084d5",
      "to": "0xA39Ce8B49bC288D2706E1Fe0b3F6C46AC016c9c7",
      "contractAddress": null,
      "l1BaseFeeScalar": "0x44d",
      "l1BlobBaseFee": "0x1",
      "l1BlobBaseFeeScalar": "0xa118b",
      "l1Fee": "0x4a7e17e7",
      "l1GasPrice": "0x2a49703e",
      "l1GasUsed": "0x640"
    }
  ],
  "libraries": [],
  "pending": [],
  "returns": {},
  "timestamp": 1733027783,
  "chain": 84532,
  "commit": "9056112"
}